{
  "contractName": "KIP13CheckerMock",
  "abi": [
    {
      "constant": true,
      "inputs": [
        {
          "name": "account",
          "type": "address"
        }
      ],
      "name": "supportsKIP13",
      "outputs": [
        {
          "name": "",
          "type": "bool"
        }
      ],
      "payable": false,
      "stateMutability": "view",
      "type": "function"
    },
    {
      "constant": true,
      "inputs": [
        {
          "name": "account",
          "type": "address"
        },
        {
          "name": "interfaceId",
          "type": "bytes4"
        }
      ],
      "name": "supportsInterface",
      "outputs": [
        {
          "name": "",
          "type": "bool"
        }
      ],
      "payable": false,
      "stateMutability": "view",
      "type": "function"
    },
    {
      "constant": true,
      "inputs": [
        {
          "name": "account",
          "type": "address"
        },
        {
          "name": "interfaceIds",
          "type": "bytes4[]"
        }
      ],
      "name": "supportsAllInterfaces",
      "outputs": [
        {
          "name": "",
          "type": "bool"
        }
      ],
      "payable": false,
      "stateMutability": "view",
      "type": "function"
    }
  ],
  "bytecode": "0x608060405234801561001057600080fd5b5061049f806100206000396000f3fe608060405234801561001057600080fd5b50600436106100415760003560e01c80634b9dd90414610046578063aad8e2c214610136578063d905700714610192575b600080fd5b61011c6004803603604081101561005c57600080fd5b81019080803573ffffffffffffffffffffffffffffffffffffffff1690602001909291908035906020019064010000000081111561009957600080fd5b8201836020820111156100ab57600080fd5b803590602001918460208302840111640100000000831117156100cd57600080fd5b919080806020026020016040519081016040528093929190818152602001838360200280828437600081840152601f19601f820116905080830192505050505050509192919290505050610217565b604051808215151515815260200191505060405180910390f35b6101786004803603602081101561014c57600080fd5b81019080803573ffffffffffffffffffffffffffffffffffffffff16906020019092919050505061024a565b604051808215151515815260200191505060405180910390f35b6101fd600480360360408110156101a857600080fd5b81019080803573ffffffffffffffffffffffffffffffffffffffff16906020019092919080357bffffffffffffffffffffffffffffffffffffffffffffffffffffffff19169060200190929190505050610272565b604051808215151515815260200191505060405180910390f35b6000610242828473ffffffffffffffffffffffffffffffffffffffff166102a590919063ffffffff16565b905092915050565b600061026b8273ffffffffffffffffffffffffffffffffffffffff16610310565b9050919050565b600061029d828473ffffffffffffffffffffffffffffffffffffffff1661034490919063ffffffff16565b905092915050565b60006102b083610310565b6102bd576000905061030a565b60008090505b8251811015610304576102e9848483815181106102dc57fe5b6020026020010151610369565b6102f757600091505061030a565b80806001019150506102c3565b50600190505b92915050565b6000610323826301ffc9a760e01b610369565b801561033d575061033b8263ffffffff60e01b610369565b155b9050919050565b600061034f83610310565b801561036157506103608383610369565b5b905092915050565b60008060006103788585610390565b915091508180156103865750805b9250505092915050565b60008060606301ffc9a760e01b8460405160240180827bffffffffffffffffffffffffffffffffffffffffffffffffffffffff19167bffffffffffffffffffffffffffffffffffffffffffffffffffffffff19168152602001915050604051602081830303815290604052907bffffffffffffffffffffffffffffffffffffffffffffffffffffffff19166020820180517bffffffffffffffffffffffffffffffffffffffffffffffffffffffff838183161783525050505090508060200181516040516000815260208183858b617530fa95508051945050505050925092905056fea165627a7a723058205a83bb604f319371473d09f86c58a5d9b918f7c83a4315218e6d42372a10dea50029",
  "source": "pragma solidity ^0.5.0;\n\nimport \"../introspection/KIP13Checker.sol\";\n\ncontract KIP13CheckerMock {\n    using KIP13Checker for address;\n\n    function supportsKIP13(address account) public view returns (bool) {\n        return account._supportsKIP13();\n    }\n\n    function supportsInterface(address account, bytes4 interfaceId) public view returns (bool) {\n        return account._supportsInterface(interfaceId);\n    }\n\n    function supportsAllInterfaces(address account, bytes4[] memory interfaceIds) public view returns (bool) {\n        return account._supportsAllInterfaces(interfaceIds);\n    }\n}\n",
  "sourcePath": "/Users/gimseontae/Desktop/project/contract/contracts/mocks/KIP13CheckerMock.sol",
  "compiler": {
    "name": "solc",
    "version": "0.5.8+commit.23d335f2.Emscripten.clang"
  },
  "schemaVersion": "3.0.11",
  "updatedAt": "2021-11-10T06:27:09.351Z",
  "devdoc": {
    "methods": {}
  },
  "userdoc": {
    "methods": {}
  }
}