{
  "contractName": "KIP17MintableBurnableImpl",
  "abi": [
    {
      "inputs": [],
      "payable": false,
      "stateMutability": "nonpayable",
      "type": "constructor"
    },
    {
      "anonymous": false,
      "inputs": [
        {
          "indexed": true,
          "internalType": "address",
          "name": "owner",
          "type": "address"
        },
        {
          "indexed": true,
          "internalType": "address",
          "name": "approved",
          "type": "address"
        },
        {
          "indexed": true,
          "internalType": "uint256",
          "name": "tokenId",
          "type": "uint256"
        }
      ],
      "name": "Approval",
      "type": "event"
    },
    {
      "anonymous": false,
      "inputs": [
        {
          "indexed": true,
          "internalType": "address",
          "name": "owner",
          "type": "address"
        },
        {
          "indexed": true,
          "internalType": "address",
          "name": "operator",
          "type": "address"
        },
        {
          "indexed": false,
          "internalType": "bool",
          "name": "approved",
          "type": "bool"
        }
      ],
      "name": "ApprovalForAll",
      "type": "event"
    },
    {
      "anonymous": false,
      "inputs": [
        {
          "indexed": true,
          "internalType": "address",
          "name": "account",
          "type": "address"
        }
      ],
      "name": "MinterAdded",
      "type": "event"
    },
    {
      "anonymous": false,
      "inputs": [
        {
          "indexed": true,
          "internalType": "address",
          "name": "account",
          "type": "address"
        }
      ],
      "name": "MinterRemoved",
      "type": "event"
    },
    {
      "anonymous": false,
      "inputs": [
        {
          "indexed": true,
          "internalType": "address",
          "name": "from",
          "type": "address"
        },
        {
          "indexed": true,
          "internalType": "address",
          "name": "to",
          "type": "address"
        },
        {
          "indexed": true,
          "internalType": "uint256",
          "name": "tokenId",
          "type": "uint256"
        }
      ],
      "name": "Transfer",
      "type": "event"
    },
    {
      "constant": false,
      "inputs": [
        {
          "internalType": "address",
          "name": "account",
          "type": "address"
        }
      ],
      "name": "addMinter",
      "outputs": [],
      "payable": false,
      "stateMutability": "nonpayable",
      "type": "function"
    },
    {
      "constant": false,
      "inputs": [
        {
          "internalType": "address",
          "name": "to",
          "type": "address"
        },
        {
          "internalType": "uint256",
          "name": "tokenId",
          "type": "uint256"
        }
      ],
      "name": "approve",
      "outputs": [],
      "payable": false,
      "stateMutability": "nonpayable",
      "type": "function"
    },
    {
      "constant": true,
      "inputs": [
        {
          "internalType": "address",
          "name": "owner",
          "type": "address"
        }
      ],
      "name": "balanceOf",
      "outputs": [
        {
          "internalType": "uint256",
          "name": "",
          "type": "uint256"
        }
      ],
      "payable": false,
      "stateMutability": "view",
      "type": "function"
    },
    {
      "constant": false,
      "inputs": [
        {
          "internalType": "uint256",
          "name": "tokenId",
          "type": "uint256"
        }
      ],
      "name": "burn",
      "outputs": [],
      "payable": false,
      "stateMutability": "nonpayable",
      "type": "function"
    },
    {
      "constant": true,
      "inputs": [
        {
          "internalType": "uint256",
          "name": "tokenId",
          "type": "uint256"
        }
      ],
      "name": "getApproved",
      "outputs": [
        {
          "internalType": "address",
          "name": "",
          "type": "address"
        }
      ],
      "payable": false,
      "stateMutability": "view",
      "type": "function"
    },
    {
      "constant": true,
      "inputs": [
        {
          "internalType": "address",
          "name": "owner",
          "type": "address"
        },
        {
          "internalType": "address",
          "name": "operator",
          "type": "address"
        }
      ],
      "name": "isApprovedForAll",
      "outputs": [
        {
          "internalType": "bool",
          "name": "",
          "type": "bool"
        }
      ],
      "payable": false,
      "stateMutability": "view",
      "type": "function"
    },
    {
      "constant": true,
      "inputs": [
        {
          "internalType": "address",
          "name": "account",
          "type": "address"
        }
      ],
      "name": "isMinter",
      "outputs": [
        {
          "internalType": "bool",
          "name": "",
          "type": "bool"
        }
      ],
      "payable": false,
      "stateMutability": "view",
      "type": "function"
    },
    {
      "constant": false,
      "inputs": [
        {
          "internalType": "address",
          "name": "to",
          "type": "address"
        },
        {
          "internalType": "uint256",
          "name": "tokenId",
          "type": "uint256"
        }
      ],
      "name": "mint",
      "outputs": [
        {
          "internalType": "bool",
          "name": "",
          "type": "bool"
        }
      ],
      "payable": false,
      "stateMutability": "nonpayable",
      "type": "function"
    },
    {
      "constant": false,
      "inputs": [
        {
          "internalType": "address",
          "name": "to",
          "type": "address"
        },
        {
          "internalType": "uint256",
          "name": "tokenId",
          "type": "uint256"
        },
        {
          "internalType": "string",
          "name": "tokenURI",
          "type": "string"
        }
      ],
      "name": "mintWithTokenURI",
      "outputs": [
        {
          "internalType": "bool",
          "name": "",
          "type": "bool"
        }
      ],
      "payable": false,
      "stateMutability": "nonpayable",
      "type": "function"
    },
    {
      "constant": true,
      "inputs": [],
      "name": "name",
      "outputs": [
        {
          "internalType": "string",
          "name": "",
          "type": "string"
        }
      ],
      "payable": false,
      "stateMutability": "view",
      "type": "function"
    },
    {
      "constant": true,
      "inputs": [
        {
          "internalType": "uint256",
          "name": "tokenId",
          "type": "uint256"
        }
      ],
      "name": "ownerOf",
      "outputs": [
        {
          "internalType": "address",
          "name": "",
          "type": "address"
        }
      ],
      "payable": false,
      "stateMutability": "view",
      "type": "function"
    },
    {
      "constant": false,
      "inputs": [],
      "name": "renounceMinter",
      "outputs": [],
      "payable": false,
      "stateMutability": "nonpayable",
      "type": "function"
    },
    {
      "constant": false,
      "inputs": [
        {
          "internalType": "address",
          "name": "from",
          "type": "address"
        },
        {
          "internalType": "address",
          "name": "to",
          "type": "address"
        },
        {
          "internalType": "uint256",
          "name": "tokenId",
          "type": "uint256"
        }
      ],
      "name": "safeTransferFrom",
      "outputs": [],
      "payable": false,
      "stateMutability": "nonpayable",
      "type": "function"
    },
    {
      "constant": false,
      "inputs": [
        {
          "internalType": "address",
          "name": "from",
          "type": "address"
        },
        {
          "internalType": "address",
          "name": "to",
          "type": "address"
        },
        {
          "internalType": "uint256",
          "name": "tokenId",
          "type": "uint256"
        },
        {
          "internalType": "bytes",
          "name": "_data",
          "type": "bytes"
        }
      ],
      "name": "safeTransferFrom",
      "outputs": [],
      "payable": false,
      "stateMutability": "nonpayable",
      "type": "function"
    },
    {
      "constant": false,
      "inputs": [
        {
          "internalType": "address",
          "name": "to",
          "type": "address"
        },
        {
          "internalType": "bool",
          "name": "approved",
          "type": "bool"
        }
      ],
      "name": "setApprovalForAll",
      "outputs": [],
      "payable": false,
      "stateMutability": "nonpayable",
      "type": "function"
    },
    {
      "constant": true,
      "inputs": [
        {
          "internalType": "bytes4",
          "name": "interfaceId",
          "type": "bytes4"
        }
      ],
      "name": "supportsInterface",
      "outputs": [
        {
          "internalType": "bool",
          "name": "",
          "type": "bool"
        }
      ],
      "payable": false,
      "stateMutability": "view",
      "type": "function"
    },
    {
      "constant": true,
      "inputs": [],
      "name": "symbol",
      "outputs": [
        {
          "internalType": "string",
          "name": "",
          "type": "string"
        }
      ],
      "payable": false,
      "stateMutability": "view",
      "type": "function"
    },
    {
      "constant": true,
      "inputs": [
        {
          "internalType": "uint256",
          "name": "index",
          "type": "uint256"
        }
      ],
      "name": "tokenByIndex",
      "outputs": [
        {
          "internalType": "uint256",
          "name": "",
          "type": "uint256"
        }
      ],
      "payable": false,
      "stateMutability": "view",
      "type": "function"
    },
    {
      "constant": true,
      "inputs": [
        {
          "internalType": "address",
          "name": "owner",
          "type": "address"
        },
        {
          "internalType": "uint256",
          "name": "index",
          "type": "uint256"
        }
      ],
      "name": "tokenOfOwnerByIndex",
      "outputs": [
        {
          "internalType": "uint256",
          "name": "",
          "type": "uint256"
        }
      ],
      "payable": false,
      "stateMutability": "view",
      "type": "function"
    },
    {
      "constant": true,
      "inputs": [
        {
          "internalType": "uint256",
          "name": "tokenId",
          "type": "uint256"
        }
      ],
      "name": "tokenURI",
      "outputs": [
        {
          "internalType": "string",
          "name": "",
          "type": "string"
        }
      ],
      "payable": false,
      "stateMutability": "view",
      "type": "function"
    },
    {
      "constant": true,
      "inputs": [],
      "name": "totalSupply",
      "outputs": [
        {
          "internalType": "uint256",
          "name": "",
          "type": "uint256"
        }
      ],
      "payable": false,
      "stateMutability": "view",
      "type": "function"
    },
    {
      "constant": false,
      "inputs": [
        {
          "internalType": "address",
          "name": "from",
          "type": "address"
        },
        {
          "internalType": "address",
          "name": "to",
          "type": "address"
        },
        {
          "internalType": "uint256",
          "name": "tokenId",
          "type": "uint256"
        }
      ],
      "name": "transferFrom",
      "outputs": [],
      "payable": false,
      "stateMutability": "nonpayable",
      "type": "function"
    }
  ],
  "bytecode": "0x60806040523480156200001157600080fd5b506040518060400160405280600481526020017f54657374000000000000000000000000000000000000000000000000000000008152506040518060400160405280600481526020017f54455354000000000000000000000000000000000000000000000000000000008152508181620000986301ffc9a760e01b6200017560201b60201c565b620000b06380ac58cd60e01b6200017560201b60201c565b620000c863780e9d6360e01b6200017560201b60201c565b8160099080519060200190620000e0929190620004a3565b5080600a9080519060200190620000f9929190620004a3565b5062000112635b5e139f60e01b6200017560201b60201c565b5050505062000127336200027e60201b60201c565b6200013f63eab83e2060e01b6200017560201b60201c565b6200015763fac27f4660e01b6200017560201b60201c565b6200016f6342966c6860e01b6200017560201b60201c565b62000552565b63ffffffff60e01b817bffffffffffffffffffffffffffffffffffffffffffffffffffffffff1916141562000212576040517f08c379a000000000000000000000000000000000000000000000000000000000815260040180806020018281038252601b8152602001807f4b495031333a20696e76616c696420696e74657266616365206964000000000081525060200191505060405180910390fd5b6001600080837bffffffffffffffffffffffffffffffffffffffffffffffffffffffff19167bffffffffffffffffffffffffffffffffffffffffffffffffffffffff1916815260200190815260200160002060006101000a81548160ff02191690831515021790555050565b6200029981600c620002df60201b620028b21790919060201c565b8073ffffffffffffffffffffffffffffffffffffffff167f6ae172837ea30b801fbfcdd4108aa1d5bf8ff775444fd70256b44e6bf3dfc3f660405160405180910390a250565b620002f18282620003c360201b60201c565b1562000365576040517f08c379a000000000000000000000000000000000000000000000000000000000815260040180806020018281038252601f8152602001807f526f6c65733a206163636f756e7420616c72656164792068617320726f6c650081525060200191505060405180910390fd5b60018260000160008373ffffffffffffffffffffffffffffffffffffffff1673ffffffffffffffffffffffffffffffffffffffff16815260200190815260200160002060006101000a81548160ff0219169083151502179055505050565b60008073ffffffffffffffffffffffffffffffffffffffff168273ffffffffffffffffffffffffffffffffffffffff1614156200044c576040517f08c379a00000000000000000000000000000000000000000000000000000000081526004018080602001828103825260228152602001806200388e6022913960400191505060405180910390fd5b8260000160008373ffffffffffffffffffffffffffffffffffffffff1673ffffffffffffffffffffffffffffffffffffffff16815260200190815260200160002060009054906101000a900460ff16905092915050565b828054600181600116156101000203166002900490600052602060002090601f016020900481019282601f10620004e657805160ff191683800117855562000517565b8280016001018555821562000517579182015b8281111562000516578251825591602001919060010190620004f9565b5b5090506200052691906200052a565b5090565b6200054f91905b808211156200054b57600081600090555060010162000531565b5090565b90565b61332c80620005626000396000f3fe608060405234801561001057600080fd5b50600436106101425760003560e01c806350bb4e7f116100b8578063986502751161007c57806398650275146107a7578063a22cb465146107b1578063aa271e1a14610801578063b88d4fde1461085d578063c87b56dd14610962578063e985e9c514610a0957610142565b806350bb4e7f1461051d5780636352211e1461061a57806370a082311461068857806395d89b41146106e0578063983b2d561461076357610142565b806323b872dd1161010a57806323b872dd146103095780632f745c591461037757806340c10f19146103d957806342842e0e1461043f57806342966c68146104ad5780634f6ccce7146104db57610142565b806301ffc9a71461014757806306fdde03146101ac578063081812fc1461022f578063095ea7b31461029d57806318160ddd146102eb575b600080fd5b6101926004803603602081101561015d57600080fd5b8101908080357bffffffffffffffffffffffffffffffffffffffffffffffffffffffff19169060200190929190505050610a85565b604051808215151515815260200191505060405180910390f35b6101b4610aec565b6040518080602001828103825283818151815260200191508051906020019080838360005b838110156101f45780820151818401526020810190506101d9565b50505050905090810190601f1680156102215780820380516001836020036101000a031916815260200191505b509250505060405180910390f35b61025b6004803603602081101561024557600080fd5b8101908080359060200190929190505050610b8e565b604051808273ffffffffffffffffffffffffffffffffffffffff1673ffffffffffffffffffffffffffffffffffffffff16815260200191505060405180910390f35b6102e9600480360360408110156102b357600080fd5b81019080803573ffffffffffffffffffffffffffffffffffffffff16906020019092919080359060200190929190505050610c29565b005b6102f3610e1f565b6040518082815260200191505060405180910390f35b6103756004803603606081101561031f57600080fd5b81019080803573ffffffffffffffffffffffffffffffffffffffff169060200190929190803573ffffffffffffffffffffffffffffffffffffffff16906020019092919080359060200190929190505050610e2c565b005b6103c36004803603604081101561038d57600080fd5b81019080803573ffffffffffffffffffffffffffffffffffffffff16906020019092919080359060200190929190505050610e9b565b6040518082815260200191505060405180910390f35b610425600480360360408110156103ef57600080fd5b81019080803573ffffffffffffffffffffffffffffffffffffffff16906020019092919080359060200190929190505050610f5a565b604051808215151515815260200191505060405180910390f35b6104ab6004803603606081101561045557600080fd5b81019080803573ffffffffffffffffffffffffffffffffffffffff169060200190929190803573ffffffffffffffffffffffffffffffffffffffff16906020019092919080359060200190929190505050610fce565b005b6104d9600480360360208110156104c357600080fd5b8101908080359060200190929190505050610fee565b005b610507600480360360208110156104f157600080fd5b8101908080359060200190929190505050611059565b6040518082815260200191505060405180910390f35b6106006004803603606081101561053357600080fd5b81019080803573ffffffffffffffffffffffffffffffffffffffff169060200190929190803590602001909291908035906020019064010000000081111561057a57600080fd5b82018360208201111561058c57600080fd5b803590602001918460018302840111640100000000831117156105ae57600080fd5b91908080601f016020809104026020016040519081016040528093929190818152602001838380828437600081840152601f19601f8201169050808301925050505050505091929192905050506110d9565b604051808215151515815260200191505060405180910390f35b6106466004803603602081101561063057600080fd5b8101908080359060200190929190505050611158565b604051808273ffffffffffffffffffffffffffffffffffffffff1673ffffffffffffffffffffffffffffffffffffffff16815260200191505060405180910390f35b6106ca6004803603602081101561069e57600080fd5b81019080803573ffffffffffffffffffffffffffffffffffffffff169060200190929190505050611220565b6040518082815260200191505060405180910390f35b6106e86112f5565b6040518080602001828103825283818151815260200191508051906020019080838360005b8381101561072857808201518184015260208101905061070d565b50505050905090810190601f1680156107555780820380516001836020036101000a031916815260200191505b509250505060405180910390f35b6107a56004803603602081101561077957600080fd5b81019080803573ffffffffffffffffffffffffffffffffffffffff169060200190929190505050611397565b005b6107af611401565b005b6107ff600480360360408110156107c757600080fd5b81019080803573ffffffffffffffffffffffffffffffffffffffff16906020019092919080351515906020019092919050505061140c565b005b6108436004803603602081101561081757600080fd5b81019080803573ffffffffffffffffffffffffffffffffffffffff1690602001909291905050506115af565b604051808215151515815260200191505060405180910390f35b6109606004803603608081101561087357600080fd5b81019080803573ffffffffffffffffffffffffffffffffffffffff169060200190929190803573ffffffffffffffffffffffffffffffffffffffff16906020019092919080359060200190929190803590602001906401000000008111156108da57600080fd5b8201836020820111156108ec57600080fd5b8035906020019184600183028401116401000000008311171561090e57600080fd5b91908080601f016020809104026020016040519081016040528093929190818152602001838380828437600081840152601f19601f8201169050808301925050505050505091929192905050506115cc565b005b61098e6004803603602081101561097857600080fd5b810190808035906020019092919050505061163e565b6040518080602001828103825283818151815260200191508051906020019080838360005b838110156109ce5780820151818401526020810190506109b3565b50505050905090810190601f1680156109fb5780820380516001836020036101000a031916815260200191505b509250505060405180910390f35b610a6b60048036036040811015610a1f57600080fd5b81019080803573ffffffffffffffffffffffffffffffffffffffff169060200190929190803573ffffffffffffffffffffffffffffffffffffffff169060200190929190505050611751565b604051808215151515815260200191505060405180910390f35b6000806000837bffffffffffffffffffffffffffffffffffffffffffffffffffffffff19167bffffffffffffffffffffffffffffffffffffffffffffffffffffffff1916815260200190815260200160002060009054906101000a900460ff169050919050565b606060098054600181600116156101000203166002900480601f016020809104026020016040519081016040528092919081815260200182805460018160011615610100020316600290048015610b845780601f10610b5957610100808354040283529160200191610b84565b820191906000526020600020905b815481529060010190602001808311610b6757829003601f168201915b5050505050905090565b6000610b99826117e5565b610bee576040517f08c379a000000000000000000000000000000000000000000000000000000000815260040180806020018281038252602b81526020018061326b602b913960400191505060405180910390fd5b6002600083815260200190815260200160002060009054906101000a900473ffffffffffffffffffffffffffffffffffffffff169050919050565b6000610c3482611158565b90508073ffffffffffffffffffffffffffffffffffffffff168373ffffffffffffffffffffffffffffffffffffffff161415610cd8576040517f08c379a00000000000000000000000000000000000000000000000000000000081526004018080602001828103825260208152602001807f4b495031373a20617070726f76616c20746f2063757272656e74206f776e657281525060200191505060405180910390fd5b8073ffffffffffffffffffffffffffffffffffffffff163373ffffffffffffffffffffffffffffffffffffffff161480610d185750610d178133611751565b5b610d6d576040517f08c379a00000000000000000000000000000000000000000000000000000000081526004018080602001828103825260378152602001806132966037913960400191505060405180910390fd5b826002600084815260200190815260200160002060006101000a81548173ffffffffffffffffffffffffffffffffffffffff021916908373ffffffffffffffffffffffffffffffffffffffff160217905550818373ffffffffffffffffffffffffffffffffffffffff168273ffffffffffffffffffffffffffffffffffffffff167f8c5be1e5ebec7d5bd14f71427d1e84f3dd0314c0f7b2291e5b200ac8c7c3b92560405160405180910390a4505050565b6000600780549050905090565b610e363382611857565b610e8b576040517f08c379a000000000000000000000000000000000000000000000000000000000815260040180806020018281038252603081526020018061311a6030913960400191505060405180910390fd5b610e9683838361194b565b505050565b6000610ea683611220565b8210610efd576040517f08c379a000000000000000000000000000000000000000000000000000000000815260040180806020018281038252602a81526020018061304c602a913960400191505060405180910390fd5b600560008473ffffffffffffffffffffffffffffffffffffffff1673ffffffffffffffffffffffffffffffffffffffff1681526020019081526020016000208281548110610f4757fe5b9060005260206000200154905092915050565b6000610f65336115af565b610fba576040517f08c379a00000000000000000000000000000000000000000000000000000000081526004018080602001828103825260308152602001806130766030913960400191505060405180910390fd5b610fc4838361196f565b6001905092915050565b610fe9838383604051806020016040528060008152506115cc565b505050565b610ff83382611857565b61104d576040517f08c379a000000000000000000000000000000000000000000000000000000000815260040180806020018281038252602f81526020018061319c602f913960400191505060405180910390fd5b61105681611990565b50565b6000611063610e1f565b82106110ba576040517f08c379a000000000000000000000000000000000000000000000000000000000815260040180806020018281038252602b81526020018061321c602b913960400191505060405180910390fd5b600782815481106110c757fe5b90600052602060002001549050919050565b60006110e4336115af565b611139576040517f08c379a00000000000000000000000000000000000000000000000000000000081526004018080602001828103825260308152602001806130766030913960400191505060405180910390fd5b611143848461196f565b61114d83836119a5565b600190509392505050565b6000806001600084815260200190815260200160002060009054906101000a900473ffffffffffffffffffffffffffffffffffffffff169050600073ffffffffffffffffffffffffffffffffffffffff168173ffffffffffffffffffffffffffffffffffffffff161415611217576040517f08c379a00000000000000000000000000000000000000000000000000000000081526004018080602001828103825260288152602001806130c76028913960400191505060405180910390fd5b80915050919050565b60008073ffffffffffffffffffffffffffffffffffffffff168273ffffffffffffffffffffffffffffffffffffffff1614156112a7576040517f08c379a00000000000000000000000000000000000000000000000000000000081526004018080602001828103825260298152602001806131cb6029913960400191505060405180910390fd5b6112ee600360008473ffffffffffffffffffffffffffffffffffffffff1673ffffffffffffffffffffffffffffffffffffffff168152602001908152602001600020611a2f565b9050919050565b6060600a8054600181600116156101000203166002900480601f01602080910402602001604051908101604052809291908181526020018280546001816001161561010002031660029004801561138d5780601f106113625761010080835404028352916020019161138d565b820191906000526020600020905b81548152906001019060200180831161137057829003601f168201915b5050505050905090565b6113a0336115af565b6113f5576040517f08c379a00000000000000000000000000000000000000000000000000000000081526004018080602001828103825260308152602001806130766030913960400191505060405180910390fd5b6113fe81611a3d565b50565b61140a33611a97565b565b3373ffffffffffffffffffffffffffffffffffffffff168273ffffffffffffffffffffffffffffffffffffffff1614156114ae576040517f08c379a00000000000000000000000000000000000000000000000000000000081526004018080602001828103825260188152602001807f4b495031373a20617070726f766520746f2063616c6c6572000000000000000081525060200191505060405180910390fd5b80600460003373ffffffffffffffffffffffffffffffffffffffff1673ffffffffffffffffffffffffffffffffffffffff16815260200190815260200160002060008473ffffffffffffffffffffffffffffffffffffffff1673ffffffffffffffffffffffffffffffffffffffff16815260200190815260200160002060006101000a81548160ff0219169083151502179055508173ffffffffffffffffffffffffffffffffffffffff163373ffffffffffffffffffffffffffffffffffffffff167f17307eab39ab6107e8899845ad3d59bd9653f200f220920489ca2b5937696c3183604051808215151515815260200191505060405180910390a35050565b60006115c582600c611af190919063ffffffff16565b9050919050565b6115d7848484610e2c565b6115e384848484611bcf565b611638576040517f08c379a000000000000000000000000000000000000000000000000000000000815260040180806020018281038252603081526020018061316c6030913960400191505060405180910390fd5b50505050565b6060611649826117e5565b61169e576040517f08c379a000000000000000000000000000000000000000000000000000000000815260040180806020018281038252602e815260200180612ffb602e913960400191505060405180910390fd5b600b60008381526020019081526020016000208054600181600116156101000203166002900480601f0160208091040260200160405190810160405280929190818152602001828054600181600116156101000203166002900480156117455780601f1061171a57610100808354040283529160200191611745565b820191906000526020600020905b81548152906001019060200180831161172857829003601f168201915b50505050509050919050565b6000600460008473ffffffffffffffffffffffffffffffffffffffff1673ffffffffffffffffffffffffffffffffffffffff16815260200190815260200160002060008373ffffffffffffffffffffffffffffffffffffffff1673ffffffffffffffffffffffffffffffffffffffff16815260200190815260200160002060009054906101000a900460ff16905092915050565b6000806001600084815260200190815260200160002060009054906101000a900473ffffffffffffffffffffffffffffffffffffffff169050600073ffffffffffffffffffffffffffffffffffffffff168173ffffffffffffffffffffffffffffffffffffffff161415915050919050565b6000611862826117e5565b6118b7576040517f08c379a000000000000000000000000000000000000000000000000000000000815260040180806020018281038252602b8152602001806132cd602b913960400191505060405180910390fd5b60006118c283611158565b90508073ffffffffffffffffffffffffffffffffffffffff168473ffffffffffffffffffffffffffffffffffffffff16148061193157508373ffffffffffffffffffffffffffffffffffffffff1661191984610b8e565b73ffffffffffffffffffffffffffffffffffffffff16145b8061194257506119418185611751565b5b91505092915050565b611956838383612131565b611960838261238c565b61196a828261252a565b505050565b61197982826125f1565b611983828261252a565b61198c81612809565b5050565b6119a261199c82611158565b82612855565b50565b6119ae826117e5565b611a03576040517f08c379a000000000000000000000000000000000000000000000000000000000815260040180806020018281038252602b8152602001806130ef602b913960400191505060405180910390fd5b80600b60008481526020019081526020016000209080519060200190611a2a929190612ee1565b505050565b600081600001549050919050565b611a5181600c6128b290919063ffffffff16565b8073ffffffffffffffffffffffffffffffffffffffff167f6ae172837ea30b801fbfcdd4108aa1d5bf8ff775444fd70256b44e6bf3dfc3f660405160405180910390a250565b611aab81600c61298d90919063ffffffff16565b8073ffffffffffffffffffffffffffffffffffffffff167fe94479a9f7e1952cc78f2d6baab678adc1b772d936c6583def489e524cb6669260405160405180910390a250565b60008073ffffffffffffffffffffffffffffffffffffffff168273ffffffffffffffffffffffffffffffffffffffff161415611b78576040517f08c379a000000000000000000000000000000000000000000000000000000000815260040180806020018281038252602281526020018061314a6022913960400191505060405180910390fd5b8260000160008373ffffffffffffffffffffffffffffffffffffffff1673ffffffffffffffffffffffffffffffffffffffff16815260200190815260200160002060009054906101000a900460ff16905092915050565b6000806060611bf38673ffffffffffffffffffffffffffffffffffffffff16612a4a565b611c0257600192505050612129565b8573ffffffffffffffffffffffffffffffffffffffff1663150b7a0260e01b33898888604051602401808573ffffffffffffffffffffffffffffffffffffffff1673ffffffffffffffffffffffffffffffffffffffff1681526020018473ffffffffffffffffffffffffffffffffffffffff1673ffffffffffffffffffffffffffffffffffffffff16815260200183815260200180602001828103825283818151815260200191508051906020019080838360005b83811015611cd2578082015181840152602081019050611cb7565b50505050905090810190601f168015611cff5780820380516001836020036101000a031916815260200191505b5095505050505050604051602081830303815290604052907bffffffffffffffffffffffffffffffffffffffffffffffffffffffff19166020820180517bffffffffffffffffffffffffffffffffffffffffffffffffffffffff83818316178352505050506040518082805190602001908083835b60208310611d975780518252602082019150602081019050602083039250611d74565b6001836020036101000a0380198251168184511680821785525050505050509050019150506000604051808303816000865af19150503d8060008114611df9576040519150601f19603f3d011682016040523d82523d6000602084013e611dfe565b606091505b5080925081935050506000815114158015611e82575063150b7a0260e01b7bffffffffffffffffffffffffffffffffffffffffffffffffffffffff1916818060200190516020811015611e5057600080fd5b81019080805190602001909291905050507bffffffffffffffffffffffffffffffffffffffffffffffffffffffff1916145b15611e9257600192505050612129565b8573ffffffffffffffffffffffffffffffffffffffff16636745782b60e01b33898888604051602401808573ffffffffffffffffffffffffffffffffffffffff1673ffffffffffffffffffffffffffffffffffffffff1681526020018473ffffffffffffffffffffffffffffffffffffffff1673ffffffffffffffffffffffffffffffffffffffff16815260200183815260200180602001828103825283818151815260200191508051906020019080838360005b83811015611f62578082015181840152602081019050611f47565b50505050905090810190601f168015611f8f5780820380516001836020036101000a031916815260200191505b5095505050505050604051602081830303815290604052907bffffffffffffffffffffffffffffffffffffffffffffffffffffffff19166020820180517bffffffffffffffffffffffffffffffffffffffffffffffffffffffff83818316178352505050506040518082805190602001908083835b602083106120275780518252602082019150602081019050602083039250612004565b6001836020036101000a0380198251168184511680821785525050505050509050019150506000604051808303816000865af19150503d8060008114612089576040519150601f19603f3d011682016040523d82523d6000602084013e61208e565b606091505b50809250819350505060008151141580156121125750636745782b60e01b7bffffffffffffffffffffffffffffffffffffffffffffffffffffffff19168180602001905160208110156120e057600080fd5b81019080805190602001909291905050507bffffffffffffffffffffffffffffffffffffffffffffffffffffffff1916145b1561212257600192505050612129565b6000925050505b949350505050565b8273ffffffffffffffffffffffffffffffffffffffff1661215182611158565b73ffffffffffffffffffffffffffffffffffffffff16146121bd576040517f08c379a00000000000000000000000000000000000000000000000000000000081526004018080602001828103825260288152602001806131f46028913960400191505060405180910390fd5b600073ffffffffffffffffffffffffffffffffffffffff168273ffffffffffffffffffffffffffffffffffffffff161415612243576040517f08c379a00000000000000000000000000000000000000000000000000000000081526004018080602001828103825260238152602001806130296023913960400191505060405180910390fd5b61224c81612a5d565b612293600360008573ffffffffffffffffffffffffffffffffffffffff1673ffffffffffffffffffffffffffffffffffffffff168152602001908152602001600020612b1b565b6122da600360008473ffffffffffffffffffffffffffffffffffffffff1673ffffffffffffffffffffffffffffffffffffffff168152602001908152602001600020612b3e565b816001600083815260200190815260200160002060006101000a81548173ffffffffffffffffffffffffffffffffffffffff021916908373ffffffffffffffffffffffffffffffffffffffff160217905550808273ffffffffffffffffffffffffffffffffffffffff168473ffffffffffffffffffffffffffffffffffffffff167fddf252ad1be2c89b69c2b068fc378daa952ba7f163c4a11628f55a4df523b3ef60405160405180910390a4505050565b60006123e46001600560008673ffffffffffffffffffffffffffffffffffffffff1673ffffffffffffffffffffffffffffffffffffffff16815260200190815260200160002080549050612b5490919063ffffffff16565b90506000600660008481526020019081526020016000205490508181146124d1576000600560008673ffffffffffffffffffffffffffffffffffffffff1673ffffffffffffffffffffffffffffffffffffffff168152602001908152602001600020838154811061245157fe5b9060005260206000200154905080600560008773ffffffffffffffffffffffffffffffffffffffff1673ffffffffffffffffffffffffffffffffffffffff16815260200190815260200160002083815481106124a957fe5b9060005260206000200181905550816006600083815260200190815260200160002081905550505b600560008573ffffffffffffffffffffffffffffffffffffffff1673ffffffffffffffffffffffffffffffffffffffff1681526020019081526020016000208054809190600190036125239190612f61565b5050505050565b600560008373ffffffffffffffffffffffffffffffffffffffff1673ffffffffffffffffffffffffffffffffffffffff168152602001908152602001600020805490506006600083815260200190815260200160002081905550600560008373ffffffffffffffffffffffffffffffffffffffff1673ffffffffffffffffffffffffffffffffffffffff1681526020019081526020016000208190806001815401808255809150509060018203906000526020600020016000909192909190915055505050565b600073ffffffffffffffffffffffffffffffffffffffff168273ffffffffffffffffffffffffffffffffffffffff161415612694576040517f08c379a000000000000000000000000000000000000000000000000000000000815260040180806020018281038252601f8152602001807f4b495031373a206d696e7420746f20746865207a65726f20616464726573730081525060200191505060405180910390fd5b61269d816117e5565b15612710576040517f08c379a000000000000000000000000000000000000000000000000000000000815260040180806020018281038252601b8152602001807f4b495031373a20746f6b656e20616c7265616479206d696e746564000000000081525060200191505060405180910390fd5b816001600083815260200190815260200160002060006101000a81548173ffffffffffffffffffffffffffffffffffffffff021916908373ffffffffffffffffffffffffffffffffffffffff1602179055506127a9600360008473ffffffffffffffffffffffffffffffffffffffff1673ffffffffffffffffffffffffffffffffffffffff168152602001908152602001600020612b3e565b808273ffffffffffffffffffffffffffffffffffffffff16600073ffffffffffffffffffffffffffffffffffffffff167fddf252ad1be2c89b69c2b068fc378daa952ba7f163c4a11628f55a4df523b3ef60405160405180910390a45050565b6007805490506008600083815260200190815260200160002081905550600781908060018154018082558091505090600182039060005260206000200160009091929091909150555050565b61285f8282612b9e565b6000600b6000838152602001908152602001600020805460018160011615610100020316600290049050146128ae57600b600082815260200190815260200160002060006128ad9190612f8d565b5b5050565b6128bc8282611af1565b1561292f576040517f08c379a000000000000000000000000000000000000000000000000000000000815260040180806020018281038252601f8152602001807f526f6c65733a206163636f756e7420616c72656164792068617320726f6c650081525060200191505060405180910390fd5b60018260000160008373ffffffffffffffffffffffffffffffffffffffff1673ffffffffffffffffffffffffffffffffffffffff16815260200190815260200160002060006101000a81548160ff0219169083151502179055505050565b6129978282611af1565b6129ec576040517f08c379a00000000000000000000000000000000000000000000000000000000081526004018080602001828103825260218152602001806130a66021913960400191505060405180910390fd5b60008260000160008373ffffffffffffffffffffffffffffffffffffffff1673ffffffffffffffffffffffffffffffffffffffff16815260200190815260200160002060006101000a81548160ff0219169083151502179055505050565b600080823b905060008111915050919050565b600073ffffffffffffffffffffffffffffffffffffffff166002600083815260200190815260200160002060009054906101000a900473ffffffffffffffffffffffffffffffffffffffff1673ffffffffffffffffffffffffffffffffffffffff1614612b185760006002600083815260200190815260200160002060006101000a81548173ffffffffffffffffffffffffffffffffffffffff021916908373ffffffffffffffffffffffffffffffffffffffff1602179055505b50565b612b3360018260000154612b5490919063ffffffff16565b816000018190555050565b6001816000016000828254019250508190555050565b6000612b9683836040518060400160405280601e81526020017f536166654d6174683a207375627472616374696f6e206f766572666c6f770000815250612bd8565b905092915050565b612ba88282612c98565b612bb2828261238c565b60006006600083815260200190815260200160002081905550612bd481612e27565b5050565b6000838311158290612c85576040517f08c379a00000000000000000000000000000000000000000000000000000000081526004018080602001828103825283818151815260200191508051906020019080838360005b83811015612c4a578082015181840152602081019050612c2f565b50505050905090810190601f168015612c775780820380516001836020036101000a031916815260200191505b509250505060405180910390fd5b5060008385039050809150509392505050565b8173ffffffffffffffffffffffffffffffffffffffff16612cb882611158565b73ffffffffffffffffffffffffffffffffffffffff1614612d24576040517f08c379a00000000000000000000000000000000000000000000000000000000081526004018080602001828103825260248152602001806132476024913960400191505060405180910390fd5b612d2d81612a5d565b612d74600360008473ffffffffffffffffffffffffffffffffffffffff1673ffffffffffffffffffffffffffffffffffffffff168152602001908152602001600020612b1b565b60006001600083815260200190815260200160002060006101000a81548173ffffffffffffffffffffffffffffffffffffffff021916908373ffffffffffffffffffffffffffffffffffffffff16021790555080600073ffffffffffffffffffffffffffffffffffffffff168373ffffffffffffffffffffffffffffffffffffffff167fddf252ad1be2c89b69c2b068fc378daa952ba7f163c4a11628f55a4df523b3ef60405160405180910390a45050565b6000612e426001600780549050612b5490919063ffffffff16565b9050600060086000848152602001908152602001600020549050600060078381548110612e6b57fe5b906000526020600020015490508060078381548110612e8657fe5b90600052602060002001819055508160086000838152602001908152602001600020819055506007805480919060019003612ec19190612f61565b506000600860008681526020019081526020016000208190555050505050565b828054600181600116156101000203166002900490600052602060002090601f016020900481019282601f10612f2257805160ff1916838001178555612f50565b82800160010185558215612f50579182015b82811115612f4f578251825591602001919060010190612f34565b5b509050612f5d9190612fd5565b5090565b815481835581811115612f8857818360005260206000209182019101612f879190612fd5565b5b505050565b50805460018160011615610100020316600290046000825580601f10612fb35750612fd2565b601f016020900490600052602060002090810190612fd19190612fd5565b5b50565b612ff791905b80821115612ff3576000816000905550600101612fdb565b5090565b9056fe4b495031374d657461646174613a2055524920717565727920666f72206e6f6e6578697374656e7420746f6b656e4b495031373a207472616e7366657220746f20746865207a65726f20616464726573734b49503137456e756d657261626c653a206f776e657220696e646578206f7574206f6620626f756e64734d696e746572526f6c653a2063616c6c657220646f6573206e6f74206861766520746865204d696e74657220726f6c65526f6c65733a206163636f756e7420646f6573206e6f74206861766520726f6c654b495031373a206f776e657220717565727920666f72206e6f6e6578697374656e7420746f6b656e4b495031374d657461646174613a2055524920736574206f66206e6f6e6578697374656e7420746f6b656e4b495031373a207472616e736665722063616c6c6572206973206e6f74206f776e6572206e6f7220617070726f766564526f6c65733a206163636f756e7420697320746865207a65726f20616464726573734b495031373a207472616e7366657220746f206e6f6e204b49503137526563656976657220696d706c656d656e7465724b495031374275726e61626c653a2063616c6c6572206973206e6f74206f776e6572206e6f7220617070726f7665644b495031373a2062616c616e636520717565727920666f7220746865207a65726f20616464726573734b495031373a207472616e73666572206f6620746f6b656e2074686174206973206e6f74206f776e4b49503137456e756d657261626c653a20676c6f62616c20696e646578206f7574206f6620626f756e64734b495031373a206275726e206f6620746f6b656e2074686174206973206e6f74206f776e4b495031373a20617070726f76656420717565727920666f72206e6f6e6578697374656e7420746f6b656e4b495031373a20617070726f76652063616c6c6572206973206e6f74206f776e6572206e6f7220617070726f76656420666f7220616c6c4b495031373a206f70657261746f7220717565727920666f72206e6f6e6578697374656e7420746f6b656ea265627a7a72315820776a2cb2e659fefea10355d5df91447c9049ac648adfb4bf3ab3aaf5066dbfda64736f6c63430005100032526f6c65733a206163636f756e7420697320746865207a65726f2061646472657373",
  "source": "pragma solidity ^0.5.0;\n\nimport \"../token/KIP17/KIP17Full.sol\";\nimport \"../token/KIP17/KIP17Mintable.sol\";\nimport \"../token/KIP17/KIP17MetadataMintable.sol\";\nimport \"../token/KIP17/KIP17Burnable.sol\";\n\n/**\n * @title KIP17MintableBurnableImpl\n */\ncontract KIP17MintableBurnableImpl is KIP17Full, KIP17Mintable, KIP17MetadataMintable, KIP17Burnable {\n    constructor () public KIP17Mintable() KIP17Full(\"Test\", \"TEST\") {\n        // solhint-disable-previous-line no-empty-blocks\n    }\n}\n",
  "sourcePath": "/Users/humblefirm/Github/contract/contracts/mocks/KIP17MintableBurnableImpl.sol",
  "compiler": {
    "name": "solc",
    "version": "0.5.16+commit.9c3226ce.Emscripten.clang"
  },
  "schemaVersion": "3.4.3",
  "updatedAt": "2021-12-28T17:12:13.793Z",
  "devdoc": {
    "methods": {
      "approve(address,uint256)": {
        "details": "Approves another address to transfer the given token ID The zero address indicates there is no approved address. There can only be one approved address per token at a given time. Can only be called by the token owner or an approved operator.",
        "params": {
          "to": "address to be approved for the given token ID",
          "tokenId": "uint256 ID of the token to be approved"
        }
      },
      "balanceOf(address)": {
        "details": "Gets the balance of the specified address.",
        "params": {
          "owner": "address to query the balance of"
        },
        "return": "uint256 representing the amount owned by the passed address"
      },
      "burn(uint256)": {
        "details": "Burns a specific KIP17 token.",
        "params": {
          "tokenId": "uint256 id of the KIP17 token to be burned."
        }
      },
      "getApproved(uint256)": {
        "details": "Gets the approved address for a token ID, or zero if no address set Reverts if the token ID does not exist.",
        "params": {
          "tokenId": "uint256 ID of the token to query the approval of"
        },
        "return": "address currently approved for the given token ID"
      },
      "isApprovedForAll(address,address)": {
        "details": "Tells whether an operator is approved by a given owner.",
        "params": {
          "operator": "operator address which you want to query the approval of",
          "owner": "owner address which you want to query the approval of"
        },
        "return": "bool whether the given operator is approved by the given owner"
      },
      "mint(address,uint256)": {
        "details": "Function to mint tokens.",
        "params": {
          "to": "The address that will receive the minted tokens.",
          "tokenId": "The token id to mint."
        },
        "return": "A boolean that indicates if the operation was successful."
      },
      "mintWithTokenURI(address,uint256,string)": {
        "details": "Function to mint tokens.",
        "params": {
          "to": "The address that will receive the minted tokens.",
          "tokenId": "The token id to mint.",
          "tokenURI": "The token URI of the minted token."
        },
        "return": "A boolean that indicates if the operation was successful."
      },
      "name()": {
        "details": "Gets the token name.",
        "return": "string representing the token name"
      },
      "ownerOf(uint256)": {
        "details": "Gets the owner of the specified token ID.",
        "params": {
          "tokenId": "uint256 ID of the token to query the owner of"
        },
        "return": "address currently marked as the owner of the given token ID"
      },
      "safeTransferFrom(address,address,uint256)": {
        "details": "Safely transfers the ownership of a given token ID to another address If the target address is a contract, it must implement `onKIP17Received`, which is called upon a safe transfer, and return the magic value `bytes4(keccak256(\"onKIP17Received(address,address,uint256,bytes)\"))`; otherwise, the transfer is reverted. Requires the msg.sender to be the owner, approved, or operator",
        "params": {
          "from": "current owner of the token",
          "to": "address to receive the ownership of the given token ID",
          "tokenId": "uint256 ID of the token to be transferred"
        }
      },
      "safeTransferFrom(address,address,uint256,bytes)": {
        "details": "Safely transfers the ownership of a given token ID to another address If the target address is a contract, it must implement `onKIP17Received`, which is called upon a safe transfer, and return the magic value `bytes4(keccak256(\"onKIP17Received(address,address,uint256,bytes)\"))`; otherwise, the transfer is reverted. Requires the msg.sender to be the owner, approved, or operator",
        "params": {
          "_data": "bytes data to send along with a safe transfer check",
          "from": "current owner of the token",
          "to": "address to receive the ownership of the given token ID",
          "tokenId": "uint256 ID of the token to be transferred"
        }
      },
      "setApprovalForAll(address,bool)": {
        "details": "Sets or unsets the approval of a given operator An operator is allowed to transfer all tokens of the sender on their behalf.",
        "params": {
          "approved": "representing the status of the approval to be set",
          "to": "operator address to set the approval"
        }
      },
      "supportsInterface(bytes4)": {
        "details": "See `IKIP13.supportsInterface`.     * Time complexity O(1), guaranteed to always use less than 30 000 gas."
      },
      "symbol()": {
        "details": "Gets the token symbol.",
        "return": "string representing the token symbol"
      },
      "tokenByIndex(uint256)": {
        "details": "Gets the token ID at a given index of all the tokens in this contract Reverts if the index is greater or equal to the total number of tokens.",
        "params": {
          "index": "uint256 representing the index to be accessed of the tokens list"
        },
        "return": "uint256 token ID at the given index of the tokens list"
      },
      "tokenOfOwnerByIndex(address,uint256)": {
        "details": "Gets the token ID at a given index of the tokens list of the requested owner.",
        "params": {
          "index": "uint256 representing the index to be accessed of the requested tokens list",
          "owner": "address owning the tokens list to be accessed"
        },
        "return": "uint256 token ID at the given index of the tokens list owned by the requested address"
      },
      "tokenURI(uint256)": {
        "details": "Returns an URI for a given token ID. Throws if the token ID does not exist. May return an empty string.",
        "params": {
          "tokenId": "uint256 ID of the token to query"
        }
      },
      "totalSupply()": {
        "details": "Gets the total amount of tokens stored by the contract.",
        "return": "uint256 representing the total amount of tokens"
      },
      "transferFrom(address,address,uint256)": {
        "details": "Transfers the ownership of a given token ID to another address. Usage of this method is discouraged, use `safeTransferFrom` whenever possible. Requires the msg.sender to be the owner, approved, or operator.",
        "params": {
          "from": "current owner of the token",
          "to": "address to receive the ownership of the given token ID",
          "tokenId": "uint256 ID of the token to be transferred"
        }
      }
    },
    "title": "KIP17MintableBurnableImpl"
  },
  "userdoc": {
    "methods": {}
  }
}