{
  "contractName": "KIP37PausableMock",
  "abi": [
    {
      "constant": true,
      "inputs": [
        {
          "name": "_id",
          "type": "uint256"
        }
      ],
      "name": "paused",
      "outputs": [
        {
          "name": "",
          "type": "bool"
        }
      ],
      "payable": false,
      "stateMutability": "view",
      "type": "function"
    },
    {
      "constant": true,
      "inputs": [
        {
          "name": "account",
          "type": "address"
        },
        {
          "name": "id",
          "type": "uint256"
        }
      ],
      "name": "balanceOf",
      "outputs": [
        {
          "name": "",
          "type": "uint256"
        }
      ],
      "payable": false,
      "stateMutability": "view",
      "type": "function"
    },
    {
      "constant": true,
      "inputs": [
        {
          "name": "interfaceId",
          "type": "bytes4"
        }
      ],
      "name": "supportsInterface",
      "outputs": [
        {
          "name": "",
          "type": "bool"
        }
      ],
      "payable": false,
      "stateMutability": "view",
      "type": "function"
    },
    {
      "constant": false,
      "inputs": [
        {
          "name": "newuri",
          "type": "string"
        }
      ],
      "name": "setURI",
      "outputs": [],
      "payable": false,
      "stateMutability": "nonpayable",
      "type": "function"
    },
    {
      "constant": true,
      "inputs": [
        {
          "name": "",
          "type": "uint256"
        }
      ],
      "name": "uri",
      "outputs": [
        {
          "name": "",
          "type": "string"
        }
      ],
      "payable": false,
      "stateMutability": "view",
      "type": "function"
    },
    {
      "constant": false,
      "inputs": [
        {
          "name": "_id",
          "type": "uint256"
        }
      ],
      "name": "pause",
      "outputs": [],
      "payable": false,
      "stateMutability": "nonpayable",
      "type": "function"
    },
    {
      "constant": false,
      "inputs": [
        {
          "name": "to",
          "type": "address"
        },
        {
          "name": "ids",
          "type": "uint256[]"
        },
        {
          "name": "values",
          "type": "uint256[]"
        },
        {
          "name": "data",
          "type": "bytes"
        }
      ],
      "name": "mintBatch",
      "outputs": [],
      "payable": false,
      "stateMutability": "nonpayable",
      "type": "function"
    },
    {
      "constant": false,
      "inputs": [
        {
          "name": "from",
          "type": "address"
        },
        {
          "name": "to",
          "type": "address"
        },
        {
          "name": "ids",
          "type": "uint256[]"
        },
        {
          "name": "amounts",
          "type": "uint256[]"
        },
        {
          "name": "data",
          "type": "bytes"
        }
      ],
      "name": "safeBatchTransferFrom",
      "outputs": [],
      "payable": false,
      "stateMutability": "nonpayable",
      "type": "function"
    },
    {
      "constant": false,
      "inputs": [],
      "name": "unpause",
      "outputs": [],
      "payable": false,
      "stateMutability": "nonpayable",
      "type": "function"
    },
    {
      "constant": true,
      "inputs": [
        {
          "name": "account",
          "type": "address"
        }
      ],
      "name": "isPauser",
      "outputs": [
        {
          "name": "",
          "type": "bool"
        }
      ],
      "payable": false,
      "stateMutability": "view",
      "type": "function"
    },
    {
      "constant": true,
      "inputs": [
        {
          "name": "accounts",
          "type": "address[]"
        },
        {
          "name": "ids",
          "type": "uint256[]"
        }
      ],
      "name": "balanceOfBatch",
      "outputs": [
        {
          "name": "",
          "type": "uint256[]"
        }
      ],
      "payable": false,
      "stateMutability": "view",
      "type": "function"
    },
    {
      "constant": true,
      "inputs": [],
      "name": "paused",
      "outputs": [
        {
          "name": "",
          "type": "bool"
        }
      ],
      "payable": false,
      "stateMutability": "view",
      "type": "function"
    },
    {
      "constant": false,
      "inputs": [
        {
          "name": "owner",
          "type": "address"
        },
        {
          "name": "ids",
          "type": "uint256[]"
        },
        {
          "name": "values",
          "type": "uint256[]"
        }
      ],
      "name": "burnBatch",
      "outputs": [],
      "payable": false,
      "stateMutability": "nonpayable",
      "type": "function"
    },
    {
      "constant": false,
      "inputs": [],
      "name": "renouncePauser",
      "outputs": [],
      "payable": false,
      "stateMutability": "nonpayable",
      "type": "function"
    },
    {
      "constant": false,
      "inputs": [
        {
          "name": "to",
          "type": "address"
        },
        {
          "name": "id",
          "type": "uint256"
        },
        {
          "name": "value",
          "type": "uint256"
        },
        {
          "name": "data",
          "type": "bytes"
        }
      ],
      "name": "mint",
      "outputs": [],
      "payable": false,
      "stateMutability": "nonpayable",
      "type": "function"
    },
    {
      "constant": false,
      "inputs": [
        {
          "name": "account",
          "type": "address"
        }
      ],
      "name": "addPauser",
      "outputs": [],
      "payable": false,
      "stateMutability": "nonpayable",
      "type": "function"
    },
    {
      "constant": false,
      "inputs": [],
      "name": "pause",
      "outputs": [],
      "payable": false,
      "stateMutability": "nonpayable",
      "type": "function"
    },
    {
      "constant": false,
      "inputs": [
        {
          "name": "operator",
          "type": "address"
        },
        {
          "name": "approved",
          "type": "bool"
        }
      ],
      "name": "setApprovalForAll",
      "outputs": [],
      "payable": false,
      "stateMutability": "nonpayable",
      "type": "function"
    },
    {
      "constant": true,
      "inputs": [
        {
          "name": "_tokenId",
          "type": "uint256"
        }
      ],
      "name": "totalSupply",
      "outputs": [
        {
          "name": "",
          "type": "uint256"
        }
      ],
      "payable": false,
      "stateMutability": "view",
      "type": "function"
    },
    {
      "constant": true,
      "inputs": [
        {
          "name": "account",
          "type": "address"
        },
        {
          "name": "operator",
          "type": "address"
        }
      ],
      "name": "isApprovedForAll",
      "outputs": [
        {
          "name": "",
          "type": "bool"
        }
      ],
      "payable": false,
      "stateMutability": "view",
      "type": "function"
    },
    {
      "constant": false,
      "inputs": [
        {
          "name": "from",
          "type": "address"
        },
        {
          "name": "to",
          "type": "address"
        },
        {
          "name": "id",
          "type": "uint256"
        },
        {
          "name": "amount",
          "type": "uint256"
        },
        {
          "name": "data",
          "type": "bytes"
        }
      ],
      "name": "safeTransferFrom",
      "outputs": [],
      "payable": false,
      "stateMutability": "nonpayable",
      "type": "function"
    },
    {
      "constant": false,
      "inputs": [
        {
          "name": "owner",
          "type": "address"
        },
        {
          "name": "id",
          "type": "uint256"
        },
        {
          "name": "value",
          "type": "uint256"
        }
      ],
      "name": "burn",
      "outputs": [],
      "payable": false,
      "stateMutability": "nonpayable",
      "type": "function"
    },
    {
      "constant": false,
      "inputs": [
        {
          "name": "_id",
          "type": "uint256"
        }
      ],
      "name": "unpause",
      "outputs": [],
      "payable": false,
      "stateMutability": "nonpayable",
      "type": "function"
    },
    {
      "inputs": [
        {
          "name": "uri",
          "type": "string"
        }
      ],
      "payable": false,
      "stateMutability": "nonpayable",
      "type": "constructor"
    },
    {
      "anonymous": false,
      "inputs": [
        {
          "indexed": false,
          "name": "tokenId",
          "type": "uint256"
        },
        {
          "indexed": false,
          "name": "account",
          "type": "address"
        }
      ],
      "name": "Paused",
      "type": "event"
    },
    {
      "anonymous": false,
      "inputs": [
        {
          "indexed": false,
          "name": "tokenId",
          "type": "uint256"
        },
        {
          "indexed": false,
          "name": "account",
          "type": "address"
        }
      ],
      "name": "Unpaused",
      "type": "event"
    },
    {
      "anonymous": false,
      "inputs": [
        {
          "indexed": false,
          "name": "account",
          "type": "address"
        }
      ],
      "name": "Paused",
      "type": "event"
    },
    {
      "anonymous": false,
      "inputs": [
        {
          "indexed": false,
          "name": "account",
          "type": "address"
        }
      ],
      "name": "Unpaused",
      "type": "event"
    },
    {
      "anonymous": false,
      "inputs": [
        {
          "indexed": true,
          "name": "account",
          "type": "address"
        }
      ],
      "name": "PauserAdded",
      "type": "event"
    },
    {
      "anonymous": false,
      "inputs": [
        {
          "indexed": true,
          "name": "account",
          "type": "address"
        }
      ],
      "name": "PauserRemoved",
      "type": "event"
    },
    {
      "anonymous": false,
      "inputs": [
        {
          "indexed": true,
          "name": "operator",
          "type": "address"
        },
        {
          "indexed": true,
          "name": "from",
          "type": "address"
        },
        {
          "indexed": true,
          "name": "to",
          "type": "address"
        },
        {
          "indexed": false,
          "name": "id",
          "type": "uint256"
        },
        {
          "indexed": false,
          "name": "value",
          "type": "uint256"
        }
      ],
      "name": "TransferSingle",
      "type": "event"
    },
    {
      "anonymous": false,
      "inputs": [
        {
          "indexed": true,
          "name": "operator",
          "type": "address"
        },
        {
          "indexed": true,
          "name": "from",
          "type": "address"
        },
        {
          "indexed": true,
          "name": "to",
          "type": "address"
        },
        {
          "indexed": false,
          "name": "ids",
          "type": "uint256[]"
        },
        {
          "indexed": false,
          "name": "values",
          "type": "uint256[]"
        }
      ],
      "name": "TransferBatch",
      "type": "event"
    },
    {
      "anonymous": false,
      "inputs": [
        {
          "indexed": true,
          "name": "account",
          "type": "address"
        },
        {
          "indexed": true,
          "name": "operator",
          "type": "address"
        },
        {
          "indexed": false,
          "name": "approved",
          "type": "bool"
        }
      ],
      "name": "ApprovalForAll",
      "type": "event"
    },
    {
      "anonymous": false,
      "inputs": [
        {
          "indexed": false,
          "name": "value",
          "type": "string"
        },
        {
          "indexed": true,
          "name": "id",
          "type": "uint256"
        }
      ],
      "name": "URI",
      "type": "event"
    }
  ],
  "bytecode": "0x60806040523480156200001157600080fd5b5060405162004d9f38038062004d9f833981018060405260208110156200003757600080fd5b8101908080516401000000008111156200005057600080fd5b828101905060208101848111156200006757600080fd5b81518560018202830111640100000000821117156200008557600080fd5b50509291905050508080620000a76301ffc9a760e01b6200013560201b60201c565b620000b8816200023e60201b60201c565b620000d0636433ca1f60e01b6200013560201b60201c565b620000e8630e89341c60e01b6200013560201b60201c565b5050620000fb336200025a60201b60201c565b6000600660006101000a81548160ff0219169083151502179055506200012e630e8ffdb760e01b6200013560201b60201c565b506200052e565b63ffffffff60e01b817bffffffffffffffffffffffffffffffffffffffffffffffffffffffff19161415620001d2576040517f08c379a000000000000000000000000000000000000000000000000000000000815260040180806020018281038252601b8152602001807f4b495031333a20696e76616c696420696e74657266616365206964000000000081525060200191505060405180910390fd5b6001600080837bffffffffffffffffffffffffffffffffffffffffffffffffffffffff19167bffffffffffffffffffffffffffffffffffffffffffffffffffffffff1916815260200190815260200160002060006101000a81548160ff02191690831515021790555050565b8060049080519060200190620002569291906200047f565b5050565b62000275816005620002bb60201b620043961790919060201c565b8073ffffffffffffffffffffffffffffffffffffffff167f6719d08c1888103bea251a4ed56406bd0c3e69723c8a1686e017e7bbe159b6f860405160405180910390a250565b620002cd82826200039f60201b60201c565b1562000341576040517f08c379a000000000000000000000000000000000000000000000000000000000815260040180806020018281038252601f8152602001807f526f6c65733a206163636f756e7420616c72656164792068617320726f6c650081525060200191505060405180910390fd5b60018260000160008373ffffffffffffffffffffffffffffffffffffffff1673ffffffffffffffffffffffffffffffffffffffff16815260200190815260200160002060006101000a81548160ff0219169083151502179055505050565b60008073ffffffffffffffffffffffffffffffffffffffff168273ffffffffffffffffffffffffffffffffffffffff16141562000428576040517f08c379a000000000000000000000000000000000000000000000000000000000815260040180806020018281038252602281526020018062004d7d6022913960400191505060405180910390fd5b8260000160008373ffffffffffffffffffffffffffffffffffffffff1673ffffffffffffffffffffffffffffffffffffffff16815260200190815260200160002060009054906101000a900460ff16905092915050565b828054600181600116156101000203166002900490600052602060002090601f016020900481019282601f10620004c257805160ff1916838001178555620004f3565b82800160010185558215620004f3579182015b82811115620004f2578251825591602001919060010190620004d5565b5b50905062000502919062000506565b5090565b6200052b91905b80821115620005275760008160009055506001016200050d565b5090565b90565b61483f806200053e6000396000f3fe608060405234801561001057600080fd5b506004361061014b5760003560e01c80635c975abb116100c3578063a22cb4651161007c578063a22cb46514610cef578063bd85b03914610d3f578063e985e9c514610d81578063f242432a14610dfd578063f5298aca14610f0c578063fabc1cbc14610f645761014b565b80635c975abb14610a1a5780636b20c45414610a3c5780636ef8d66d14610ba8578063731133e914610bb257806382dc1ec414610ca15780638456cb5914610ce55761014b565b8063136439dd11610115578063136439dd146103bf5780631f7fdffa146103ed5780632eb2c2d6146105f05780633f4ba83a1461081357806346fbf68e1461081d5780634e1273f4146108795761014b565b8062dde10e14610150578062fdd58e1461019657806301ffc9a7146101f857806302fe53051461025d5780630e89341c14610318575b600080fd5b61017c6004803603602081101561016657600080fd5b8101908080359060200190929190505050610f92565b604051808215151515815260200191505060405180910390f35b6101e2600480360360408110156101ac57600080fd5b81019080803573ffffffffffffffffffffffffffffffffffffffff16906020019092919080359060200190929190505050610fbc565b6040518082815260200191505060405180910390f35b6102436004803603602081101561020e57600080fd5b8101908080357bffffffffffffffffffffffffffffffffffffffffffffffffffffffff1916906020019092919050505061109c565b604051808215151515815260200191505060405180910390f35b6103166004803603602081101561027357600080fd5b810190808035906020019064010000000081111561029057600080fd5b8201836020820111156102a257600080fd5b803590602001918460018302840111640100000000831117156102c457600080fd5b91908080601f016020809104026020016040519081016040528093929190818152602001838380828437600081840152601f19601f820116905080830192505050505050509192919290505050611103565b005b6103446004803603602081101561032e57600080fd5b810190808035906020019092919050505061110f565b6040518080602001828103825283818151815260200191508051906020019080838360005b83811015610384578082015181840152602081019050610369565b50505050905090810190601f1680156103b15780820380516001836020036101000a031916815260200191505b509250505060405180910390f35b6103eb600480360360208110156103d557600080fd5b81019080803590602001909291905050506111b3565b005b6105ee6004803603608081101561040357600080fd5b81019080803573ffffffffffffffffffffffffffffffffffffffff1690602001909291908035906020019064010000000081111561044057600080fd5b82018360208201111561045257600080fd5b8035906020019184602083028401116401000000008311171561047457600080fd5b919080806020026020016040519081016040528093929190818152602001838360200280828437600081840152601f19601f820116905080830192505050505050509192919290803590602001906401000000008111156104d457600080fd5b8201836020820111156104e657600080fd5b8035906020019184602083028401116401000000008311171561050857600080fd5b919080806020026020016040519081016040528093929190818152602001838360200280828437600081840152601f19601f8201169050808301925050505050505091929192908035906020019064010000000081111561056857600080fd5b82018360208201111561057a57600080fd5b8035906020019184600183028401116401000000008311171561059c57600080fd5b91908080601f016020809104026020016040519081016040528093929190818152602001838380828437600081840152601f19601f820116905080830192505050505050509192919290505050611345565b005b610811600480360360a081101561060657600080fd5b81019080803573ffffffffffffffffffffffffffffffffffffffff169060200190929190803573ffffffffffffffffffffffffffffffffffffffff1690602001909291908035906020019064010000000081111561066357600080fd5b82018360208201111561067557600080fd5b8035906020019184602083028401116401000000008311171561069757600080fd5b919080806020026020016040519081016040528093929190818152602001838360200280828437600081840152601f19601f820116905080830192505050505050509192919290803590602001906401000000008111156106f757600080fd5b82018360208201111561070957600080fd5b8035906020019184602083028401116401000000008311171561072b57600080fd5b919080806020026020016040519081016040528093929190818152602001838360200280828437600081840152601f19601f8201169050808301925050505050505091929192908035906020019064010000000081111561078b57600080fd5b82018360208201111561079d57600080fd5b803590602001918460018302840111640100000000831117156107bf57600080fd5b91908080601f016020809104026020016040519081016040528093929190818152602001838380828437600081840152601f19601f820116905080830192505050505050509192919290505050611357565b005b61081b61183a565b005b61085f6004803603602081101561083357600080fd5b81019080803573ffffffffffffffffffffffffffffffffffffffff16906020019092919050505061199a565b604051808215151515815260200191505060405180910390f35b6109c36004803603604081101561088f57600080fd5b81019080803590602001906401000000008111156108ac57600080fd5b8201836020820111156108be57600080fd5b803590602001918460208302840111640100000000831117156108e057600080fd5b919080806020026020016040519081016040528093929190818152602001838360200280828437600081840152601f19601f8201169050808301925050505050505091929192908035906020019064010000000081111561094057600080fd5b82018360208201111561095257600080fd5b8035906020019184602083028401116401000000008311171561097457600080fd5b919080806020026020016040519081016040528093929190818152602001838360200280828437600081840152601f19601f8201169050808301925050505050505091929192905050506119b7565b6040518080602001828103825283818151815260200191508051906020019060200280838360005b83811015610a065780820151818401526020810190506109eb565b505050509050019250505060405180910390f35b610a22611b95565b604051808215151515815260200191505060405180910390f35b610ba660048036036060811015610a5257600080fd5b81019080803573ffffffffffffffffffffffffffffffffffffffff16906020019092919080359060200190640100000000811115610a8f57600080fd5b820183602082011115610aa157600080fd5b80359060200191846020830284011164010000000083111715610ac357600080fd5b919080806020026020016040519081016040528093929190818152602001838360200280828437600081840152601f19601f82011690508083019250505050505050919291929080359060200190640100000000811115610b2357600080fd5b820183602082011115610b3557600080fd5b80359060200191846020830284011164010000000083111715610b5757600080fd5b919080806020026020016040519081016040528093929190818152602001838360200280828437600081840152601f19601f820116905080830192505050505050509192919290505050611bac565b005b610bb0611bbc565b005b610c9f60048036036080811015610bc857600080fd5b81019080803573ffffffffffffffffffffffffffffffffffffffff169060200190929190803590602001909291908035906020019092919080359060200190640100000000811115610c1957600080fd5b820183602082011115610c2b57600080fd5b80359060200191846001830284011164010000000083111715610c4d57600080fd5b91908080601f016020809104026020016040519081016040528093929190818152602001838380828437600081840152601f19601f820116905080830192505050505050509192919290505050611bc7565b005b610ce360048036036020811015610cb757600080fd5b81019080803573ffffffffffffffffffffffffffffffffffffffff169060200190929190505050611bd9565b005b610ced611c43565b005b610d3d60048036036040811015610d0557600080fd5b81019080803573ffffffffffffffffffffffffffffffffffffffff169060200190929190803515159060200190929190505050611da4565b005b610d6b60048036036020811015610d5557600080fd5b8101908080359060200190929190505050611f3f565b6040518082815260200191505060405180910390f35b610de360048036036040811015610d9757600080fd5b81019080803573ffffffffffffffffffffffffffffffffffffffff169060200190929190803573ffffffffffffffffffffffffffffffffffffffff169060200190929190505050611f5c565b604051808215151515815260200191505060405180910390f35b610f0a600480360360a0811015610e1357600080fd5b81019080803573ffffffffffffffffffffffffffffffffffffffff169060200190929190803573ffffffffffffffffffffffffffffffffffffffff169060200190929190803590602001909291908035906020019092919080359060200190640100000000811115610e8457600080fd5b820183602082011115610e9657600080fd5b80359060200191846001830284011164010000000083111715610eb857600080fd5b91908080601f016020809104026020016040519081016040528093929190818152602001838380828437600081840152601f19601f820116905080830192505050505050509192919290505050611ff0565b005b610f6260048036036060811015610f2257600080fd5b81019080803573ffffffffffffffffffffffffffffffffffffffff16906020019092919080359060200190929190803590602001909291905050506123ba565b005b610f9060048036036020811015610f7a57600080fd5b81019080803590602001909291905050506123ca565b005b60006007600083815260200190815260200160002060009054906101000a900460ff169050919050565b60008073ffffffffffffffffffffffffffffffffffffffff168373ffffffffffffffffffffffffffffffffffffffff161415611043576040517f08c379a00000000000000000000000000000000000000000000000000000000081526004018080602001828103825260298152602001806145b16029913960400191505060405180910390fd5b6001600083815260200190815260200160002060008473ffffffffffffffffffffffffffffffffffffffff1673ffffffffffffffffffffffffffffffffffffffff16815260200190815260200160002054905092915050565b6000806000837bffffffffffffffffffffffffffffffffffffffffffffffffffffffff19167bffffffffffffffffffffffffffffffffffffffffffffffffffffffff1916815260200190815260200160002060009054906101000a900460ff169050919050565b61110c8161255c565b50565b606060048054600181600116156101000203166002900480601f0160208091040260200160405190810160405280929190818152602001828054600181600116156101000203166002900480156111a75780601f1061117c576101008083540402835291602001916111a7565b820191906000526020600020905b81548152906001019060200180831161118a57829003601f168201915b50505050509050919050565b6111bc3361199a565b611211576040517f08c379a000000000000000000000000000000000000000000000000000000000815260040180806020018281038252603081526020018061453e6030913960400191505060405180910390fd5b600015156007600083815260200190815260200160002060009054906101000a900460ff161515146112ab576040517f08c379a000000000000000000000000000000000000000000000000000000000815260040180806020018281038252601d8152602001807f4b495033375061757361626c653a20616c72656164792070617573656400000081525060200191505060405180910390fd5b60016007600083815260200190815260200160002060006101000a81548160ff0219169083151502179055507fabdb1c9133626eb4f8c5f2ec7e3c60a969a2fb148a0c341a3cf6597242c8f8f58133604051808381526020018273ffffffffffffffffffffffffffffffffffffffff1673ffffffffffffffffffffffffffffffffffffffff1681526020019250505060405180910390a150565b61135184848484612576565b50505050565b81518351146113b1576040517f08c379a00000000000000000000000000000000000000000000000000000000081526004018080602001828103825260268152602001806146016026913960400191505060405180910390fd5b600073ffffffffffffffffffffffffffffffffffffffff168473ffffffffffffffffffffffffffffffffffffffff161415611437576040517f08c379a000000000000000000000000000000000000000000000000000000000815260040180806020018281038252602381526020018061476a6023913960400191505060405180910390fd5b61143f612983565b73ffffffffffffffffffffffffffffffffffffffff168573ffffffffffffffffffffffffffffffffffffffff16148061148557506114848561147f612983565b611f5c565b5b6114da576040517f08c379a00000000000000000000000000000000000000000000000000000000081526004018080602001828103825260308152602001806146276030913960400191505060405180910390fd5b60006114e4612983565b90506114f481878787878761298b565b60008090505b84518110156116c857600085828151811061151157fe5b60200260200101519050600085838151811061152957fe5b602002602001015190506115b081604051806060016040528060288152602001614657602891396001600086815260200190815260200160002060008d73ffffffffffffffffffffffffffffffffffffffff1673ffffffffffffffffffffffffffffffffffffffff168152602001908152602001600020546129a19092919063ffffffff16565b6001600084815260200190815260200160002060008b73ffffffffffffffffffffffffffffffffffffffff1673ffffffffffffffffffffffffffffffffffffffff16815260200190815260200160002081905550611667816001600085815260200190815260200160002060008b73ffffffffffffffffffffffffffffffffffffffff1673ffffffffffffffffffffffffffffffffffffffff16815260200190815260200160002054612a6190919063ffffffff16565b6001600084815260200190815260200160002060008a73ffffffffffffffffffffffffffffffffffffffff1673ffffffffffffffffffffffffffffffffffffffff1681526020019081526020016000208190555050508060010190506114fa565b508473ffffffffffffffffffffffffffffffffffffffff168673ffffffffffffffffffffffffffffffffffffffff168273ffffffffffffffffffffffffffffffffffffffff167f4a39dc06d4c0dbc64b70af90fd698a233a518aa5d07e595d983b8c0526c8f7fb8787604051808060200180602001838103835285818151815260200191508051906020019060200280838360005b8381101561177857808201518184015260208101905061175d565b50505050905001838103825284818151815260200191508051906020019060200280838360005b838110156117ba57808201518184015260208101905061179f565b5050505090500194505050505060405180910390a46117dd818787878787612ae9565b611832576040517f08c379a000000000000000000000000000000000000000000000000000000000815260040180806020018281038252603681526020018061478d6036913960400191505060405180910390fd5b505050505050565b6118433361199a565b611898576040517f08c379a000000000000000000000000000000000000000000000000000000000815260040180806020018281038252603081526020018061453e6030913960400191505060405180910390fd5b600660009054906101000a900460ff1661191a576040517f08c379a00000000000000000000000000000000000000000000000000000000081526004018080602001828103825260148152602001807f5061757361626c653a206e6f742070617573656400000000000000000000000081525060200191505060405180910390fd5b6000600660006101000a81548160ff0219169083151502179055507f5db9ee0a495bf2e6ff9c91a7834c1ba4fdd244a5e8aa4e537bd38aeae4b073aa33604051808273ffffffffffffffffffffffffffffffffffffffff1673ffffffffffffffffffffffffffffffffffffffff16815260200191505060405180910390a1565b60006119b082600561316190919063ffffffff16565b9050919050565b60608151835114611a13576040517f08c379a00000000000000000000000000000000000000000000000000000000081526004018080602001828103825260278152602001806145176027913960400191505060405180910390fd5b60608351604051908082528060200260200182016040528015611a455781602001602082028038833980820191505090505b50905060008090505b8451811015611b8a57600073ffffffffffffffffffffffffffffffffffffffff16858281518110611a7b57fe5b602002602001015173ffffffffffffffffffffffffffffffffffffffff161415611af0576040517f08c379a000000000000000000000000000000000000000000000000000000000815260040180806020018281038252602f8152602001806147c3602f913960400191505060405180910390fd5b60016000858381518110611b0057fe5b602002602001015181526020019081526020016000206000868381518110611b2457fe5b602002602001015173ffffffffffffffffffffffffffffffffffffffff1673ffffffffffffffffffffffffffffffffffffffff16815260200190815260200160002054828281518110611b7357fe5b602002602001018181525050806001019050611a4e565b508091505092915050565b6000600660009054906101000a900460ff16905090565b611bb783838361323f565b505050565b611bc53361360d565b565b611bd384848484613667565b50505050565b611be23361199a565b611c37576040517f08c379a000000000000000000000000000000000000000000000000000000000815260040180806020018281038252603081526020018061453e6030913960400191505060405180910390fd5b611c4081613919565b50565b611c4c3361199a565b611ca1576040517f08c379a000000000000000000000000000000000000000000000000000000000815260040180806020018281038252603081526020018061453e6030913960400191505060405180910390fd5b600660009054906101000a900460ff1615611d24576040517f08c379a00000000000000000000000000000000000000000000000000000000081526004018080602001828103825260108152602001807f5061757361626c653a207061757365640000000000000000000000000000000081525060200191505060405180910390fd5b6001600660006101000a81548160ff0219169083151502179055507f62e78cea01bee320cd4e420270b5ea74000d11b0c9f74754ebdbfc544b05a25833604051808273ffffffffffffffffffffffffffffffffffffffff1673ffffffffffffffffffffffffffffffffffffffff16815260200191505060405180910390a1565b8173ffffffffffffffffffffffffffffffffffffffff16611dc3612983565b73ffffffffffffffffffffffffffffffffffffffff161415611e30576040517f08c379a00000000000000000000000000000000000000000000000000000000081526004018080602001828103825260278152602001806146ca6027913960400191505060405180910390fd5b8060026000611e3d612983565b73ffffffffffffffffffffffffffffffffffffffff1673ffffffffffffffffffffffffffffffffffffffff16815260200190815260200160002060008473ffffffffffffffffffffffffffffffffffffffff1673ffffffffffffffffffffffffffffffffffffffff16815260200190815260200160002060006101000a81548160ff0219169083151502179055508173ffffffffffffffffffffffffffffffffffffffff16611eea612983565b73ffffffffffffffffffffffffffffffffffffffff167f17307eab39ab6107e8899845ad3d59bd9653f200f220920489ca2b5937696c3183604051808215151515815260200191505060405180910390a35050565b600060036000838152602001908152602001600020549050919050565b6000600260008473ffffffffffffffffffffffffffffffffffffffff1673ffffffffffffffffffffffffffffffffffffffff16815260200190815260200160002060008373ffffffffffffffffffffffffffffffffffffffff1673ffffffffffffffffffffffffffffffffffffffff16815260200190815260200160002060009054906101000a900460ff16905092915050565b600073ffffffffffffffffffffffffffffffffffffffff168473ffffffffffffffffffffffffffffffffffffffff161415612076576040517f08c379a000000000000000000000000000000000000000000000000000000000815260040180806020018281038252602381526020018061476a6023913960400191505060405180910390fd5b61207e612983565b73ffffffffffffffffffffffffffffffffffffffff168573ffffffffffffffffffffffffffffffffffffffff1614806120c457506120c3856120be612983565b611f5c565b5b612119576040517f08c379a00000000000000000000000000000000000000000000000000000000081526004018080602001828103825260278152602001806147436027913960400191505060405180910390fd5b6000612123612983565b905061214381878761213488613973565b61213d88613973565b8761298b565b6121c083604051806060016040528060288152602001614657602891396001600088815260200190815260200160002060008a73ffffffffffffffffffffffffffffffffffffffff1673ffffffffffffffffffffffffffffffffffffffff168152602001908152602001600020546129a19092919063ffffffff16565b6001600086815260200190815260200160002060008873ffffffffffffffffffffffffffffffffffffffff1673ffffffffffffffffffffffffffffffffffffffff16815260200190815260200160002081905550612277836001600087815260200190815260200160002060008873ffffffffffffffffffffffffffffffffffffffff1673ffffffffffffffffffffffffffffffffffffffff16815260200190815260200160002054612a6190919063ffffffff16565b6001600086815260200190815260200160002060008773ffffffffffffffffffffffffffffffffffffffff1673ffffffffffffffffffffffffffffffffffffffff168152602001908152602001600020819055508473ffffffffffffffffffffffffffffffffffffffff168673ffffffffffffffffffffffffffffffffffffffff168273ffffffffffffffffffffffffffffffffffffffff167fc3d58168c5ae7397731d063d5bbf3d657854427343f4c083240f7aacaa2d0f628787604051808381526020018281526020019250505060405180910390a461235d8187878787876139cc565b6123b2576040517f08c379a00000000000000000000000000000000000000000000000000000000081526004018080602001828103825260308152602001806147136030913960400191505060405180910390fd5b505050505050565b6123c5838383613f40565b505050565b6123d33361199a565b612428576040517f08c379a000000000000000000000000000000000000000000000000000000000815260040180806020018281038252603081526020018061453e6030913960400191505060405180910390fd5b600115156007600083815260200190815260200160002060009054906101000a900460ff161515146124c2576040517f08c379a000000000000000000000000000000000000000000000000000000000815260040180806020018281038252601f8152602001807f4b495033375061757361626c653a20616c726561647920756e7061757365640081525060200191505060405180910390fd5b60006007600083815260200190815260200160002060006101000a81548160ff0219169083151502179055507ffe9b5e5216db9de81757f43d20f846bea509c040a560d136b8263dd8cd7642388133604051808381526020018273ffffffffffffffffffffffffffffffffffffffff1673ffffffffffffffffffffffffffffffffffffffff1681526020019250505060405180910390a150565b8060049080519060200190612572929190614471565b5050565b600073ffffffffffffffffffffffffffffffffffffffff168473ffffffffffffffffffffffffffffffffffffffff161415612619576040517f08c379a000000000000000000000000000000000000000000000000000000000815260040180806020018281038252601f8152602001807f4b495033373a206d696e7420746f20746865207a65726f20616464726573730081525060200191505060405180910390fd5b8151835114612673576040517f08c379a00000000000000000000000000000000000000000000000000000000081526004018080602001828103825260268152602001806146016026913960400191505060405180910390fd5b600061267d612983565b905061268e8160008787878761298b565b60008090505b845181101561281057612726600160008784815181106126b057fe5b6020026020010151815260200190815260200160002060008873ffffffffffffffffffffffffffffffffffffffff1673ffffffffffffffffffffffffffffffffffffffff1681526020019081526020016000205485838151811061271057fe5b6020026020010151612a6190919063ffffffff16565b6001600087848151811061273657fe5b6020026020010151815260200190815260200160002060008873ffffffffffffffffffffffffffffffffffffffff1673ffffffffffffffffffffffffffffffffffffffff168152602001908152602001600020819055506127d9600360008784815181106127a057fe5b60200260200101518152602001908152602001600020548583815181106127c357fe5b6020026020010151612a6190919063ffffffff16565b600360008784815181106127e957fe5b60200260200101518152602001908152602001600020819055508080600101915050612694565b508473ffffffffffffffffffffffffffffffffffffffff16600073ffffffffffffffffffffffffffffffffffffffff168273ffffffffffffffffffffffffffffffffffffffff167f4a39dc06d4c0dbc64b70af90fd698a233a518aa5d07e595d983b8c0526c8f7fb8787604051808060200180602001838103835285818151815260200191508051906020019060200280838360005b838110156128c15780820151818401526020810190506128a6565b50505050905001838103825284818151815260200191508051906020019060200280838360005b838110156129035780820151818401526020810190506128e8565b5050505090500194505050505060405180910390a461292781600087878787612ae9565b61297c576040517f08c379a000000000000000000000000000000000000000000000000000000000815260040180806020018281038252603681526020018061478d6036913960400191505060405180910390fd5b5050505050565b600033905090565b6129998686868686866141b3565b505050505050565b6000838311158290612a4e576040517f08c379a00000000000000000000000000000000000000000000000000000000081526004018080602001828103825283818151815260200191508051906020019080838360005b83811015612a135780820151818401526020810190506129f8565b50505050905090810190601f168015612a405780820380516001836020036101000a031916815260200191505b509250505060405180910390fd5b5060008385039050809150509392505050565b600080828401905083811015612adf576040517f08c379a000000000000000000000000000000000000000000000000000000000815260040180806020018281038252601b8152602001807f536166654d6174683a206164646974696f6e206f766572666c6f77000000000081525060200191505060405180910390fd5b8091505092915050565b6000806060612b0d8773ffffffffffffffffffffffffffffffffffffffff166142c6565b612b1c57600192505050613157565b8673ffffffffffffffffffffffffffffffffffffffff1663bc197c8160e01b8a8a898989604051602401808673ffffffffffffffffffffffffffffffffffffffff1673ffffffffffffffffffffffffffffffffffffffff1681526020018573ffffffffffffffffffffffffffffffffffffffff1673ffffffffffffffffffffffffffffffffffffffff168152602001806020018060200180602001848103845287818151815260200191508051906020019060200280838360005b83811015612bf2578082015181840152602081019050612bd7565b50505050905001848103835286818151815260200191508051906020019060200280838360005b83811015612c34578082015181840152602081019050612c19565b50505050905001848103825285818151815260200191508051906020019080838360005b83811015612c73578082015181840152602081019050612c58565b50505050905090810190601f168015612ca05780820380516001836020036101000a031916815260200191505b5098505050505050505050604051602081830303815290604052907bffffffffffffffffffffffffffffffffffffffffffffffffffffffff19166020820180517bffffffffffffffffffffffffffffffffffffffffffffffffffffffff83818316178352505050506040518082805190602001908083835b60208310612d3b5780518252602082019150602081019050602083039250612d18565b6001836020036101000a0380198251168184511680821785525050505050509050019150506000604051808303816000865af19150503d8060008114612d9d576040519150601f19603f3d011682016040523d82523d6000602084013e612da2565b606091505b5080925081935050506000815114158015612e26575063bc197c8160e01b7bffffffffffffffffffffffffffffffffffffffffffffffffffffffff1916818060200190516020811015612df457600080fd5b81019080805190602001909291905050507bffffffffffffffffffffffffffffffffffffffffffffffffffffffff1916145b15612e3657600192505050613157565b8673ffffffffffffffffffffffffffffffffffffffff16639b49e33260e01b8a8a898989604051602401808673ffffffffffffffffffffffffffffffffffffffff1673ffffffffffffffffffffffffffffffffffffffff1681526020018573ffffffffffffffffffffffffffffffffffffffff1673ffffffffffffffffffffffffffffffffffffffff168152602001806020018060200180602001848103845287818151815260200191508051906020019060200280838360005b83811015612f0c578082015181840152602081019050612ef1565b50505050905001848103835286818151815260200191508051906020019060200280838360005b83811015612f4e578082015181840152602081019050612f33565b50505050905001848103825285818151815260200191508051906020019080838360005b83811015612f8d578082015181840152602081019050612f72565b50505050905090810190601f168015612fba5780820380516001836020036101000a031916815260200191505b5098505050505050505050604051602081830303815290604052907bffffffffffffffffffffffffffffffffffffffffffffffffffffffff19166020820180517bffffffffffffffffffffffffffffffffffffffffffffffffffffffff83818316178352505050506040518082805190602001908083835b602083106130555780518252602082019150602081019050602083039250613032565b6001836020036101000a0380198251168184511680821785525050505050509050019150506000604051808303816000865af19150503d80600081146130b7576040519150601f19603f3d011682016040523d82523d6000602084013e6130bc565b606091505b50809250819350505060008151141580156131405750639b49e33260e01b7bffffffffffffffffffffffffffffffffffffffffffffffffffffffff191681806020019051602081101561310e57600080fd5b81019080805190602001909291905050507bffffffffffffffffffffffffffffffffffffffffffffffffffffffff1916145b1561315057600192505050613157565b6000925050505b9695505050505050565b60008073ffffffffffffffffffffffffffffffffffffffff168273ffffffffffffffffffffffffffffffffffffffff1614156131e8576040517f08c379a00000000000000000000000000000000000000000000000000000000081526004018080602001828103825260228152602001806146f16022913960400191505060405180910390fd5b8260000160008373ffffffffffffffffffffffffffffffffffffffff1673ffffffffffffffffffffffffffffffffffffffff16815260200190815260200160002060009054906101000a900460ff16905092915050565b600073ffffffffffffffffffffffffffffffffffffffff168373ffffffffffffffffffffffffffffffffffffffff1614156132c5576040517f08c379a00000000000000000000000000000000000000000000000000000000081526004018080602001828103825260218152602001806145906021913960400191505060405180910390fd5b805182511461331f576040517f08c379a00000000000000000000000000000000000000000000000000000000081526004018080602001828103825260268152602001806146016026913960400191505060405180910390fd5b6000613329612983565b90506133498185600086866040518060200160405280600081525061298b565b60008090505b83518110156134ff576133fb83828151811061336757fe5b602002602001015160405180606001604052806022815260200161456e602291396001600088868151811061339857fe5b6020026020010151815260200190815260200160002060008973ffffffffffffffffffffffffffffffffffffffff1673ffffffffffffffffffffffffffffffffffffffff168152602001908152602001600020546129a19092919063ffffffff16565b6001600086848151811061340b57fe5b6020026020010151815260200190815260200160002060008773ffffffffffffffffffffffffffffffffffffffff1673ffffffffffffffffffffffffffffffffffffffff168152602001908152602001600020819055506134c883828151811061347157fe5b60200260200101516040518060600160405280602781526020016145da60279139600360008886815181106134a257fe5b60200260200101518152602001908152602001600020546129a19092919063ffffffff16565b600360008684815181106134d857fe5b6020026020010151815260200190815260200160002081905550808060010191505061334f565b50600073ffffffffffffffffffffffffffffffffffffffff168473ffffffffffffffffffffffffffffffffffffffff168273ffffffffffffffffffffffffffffffffffffffff167f4a39dc06d4c0dbc64b70af90fd698a233a518aa5d07e595d983b8c0526c8f7fb8686604051808060200180602001838103835285818151815260200191508051906020019060200280838360005b838110156135b0578082015181840152602081019050613595565b50505050905001838103825284818151815260200191508051906020019060200280838360005b838110156135f25780820151818401526020810190506135d7565b5050505090500194505050505060405180910390a450505050565b6136218160056142d990919063ffffffff16565b8073ffffffffffffffffffffffffffffffffffffffff167fcd265ebaf09df2871cc7bd4133404a235ba12eff2041bb89d9c714a2621c7c7e60405160405180910390a250565b600073ffffffffffffffffffffffffffffffffffffffff168473ffffffffffffffffffffffffffffffffffffffff16141561370a576040517f08c379a000000000000000000000000000000000000000000000000000000000815260040180806020018281038252601f8152602001807f4b495033373a206d696e7420746f20746865207a65726f20616464726573730081525060200191505060405180910390fd5b6000613714612983565b90506137358160008761372688613973565b61372f88613973565b8761298b565b613798836001600087815260200190815260200160002060008873ffffffffffffffffffffffffffffffffffffffff1673ffffffffffffffffffffffffffffffffffffffff16815260200190815260200160002054612a6190919063ffffffff16565b6001600086815260200190815260200160002060008773ffffffffffffffffffffffffffffffffffffffff1673ffffffffffffffffffffffffffffffffffffffff16815260200190815260200160002081905550613812836003600087815260200190815260200160002054612a6190919063ffffffff16565b60036000868152602001908152602001600020819055508473ffffffffffffffffffffffffffffffffffffffff16600073ffffffffffffffffffffffffffffffffffffffff168273ffffffffffffffffffffffffffffffffffffffff167fc3d58168c5ae7397731d063d5bbf3d657854427343f4c083240f7aacaa2d0f628787604051808381526020018281526020019250505060405180910390a46138bd816000878787876139cc565b613912576040517f08c379a00000000000000000000000000000000000000000000000000000000081526004018080602001828103825260308152602001806147136030913960400191505060405180910390fd5b5050505050565b61392d81600561439690919063ffffffff16565b8073ffffffffffffffffffffffffffffffffffffffff167f6719d08c1888103bea251a4ed56406bd0c3e69723c8a1686e017e7bbe159b6f860405160405180910390a250565b60608060016040519080825280602002602001820160405280156139a65781602001602082028038833980820191505090505b50905082816000815181106139b757fe5b60200260200101818152505080915050919050565b60008060606139f08773ffffffffffffffffffffffffffffffffffffffff166142c6565b6139ff57600192505050613f36565b8673ffffffffffffffffffffffffffffffffffffffff1663f23a6e6160e01b8a8a898989604051602401808673ffffffffffffffffffffffffffffffffffffffff1673ffffffffffffffffffffffffffffffffffffffff1681526020018573ffffffffffffffffffffffffffffffffffffffff1673ffffffffffffffffffffffffffffffffffffffff16815260200184815260200183815260200180602001828103825283818151815260200191508051906020019080838360005b83811015613ad6578082015181840152602081019050613abb565b50505050905090810190601f168015613b035780820380516001836020036101000a031916815260200191505b509650505050505050604051602081830303815290604052907bffffffffffffffffffffffffffffffffffffffffffffffffffffffff19166020820180517bffffffffffffffffffffffffffffffffffffffffffffffffffffffff83818316178352505050506040518082805190602001908083835b60208310613b9c5780518252602082019150602081019050602083039250613b79565b6001836020036101000a0380198251168184511680821785525050505050509050019150506000604051808303816000865af19150503d8060008114613bfe576040519150601f19603f3d011682016040523d82523d6000602084013e613c03565b606091505b5080925081935050506000815114158015613c87575063f23a6e6160e01b7bffffffffffffffffffffffffffffffffffffffffffffffffffffffff1916818060200190516020811015613c5557600080fd5b81019080805190602001909291905050507bffffffffffffffffffffffffffffffffffffffffffffffffffffffff1916145b15613c9757600192505050613f36565b8673ffffffffffffffffffffffffffffffffffffffff1663e78b332560e01b8a8a898989604051602401808673ffffffffffffffffffffffffffffffffffffffff1673ffffffffffffffffffffffffffffffffffffffff1681526020018573ffffffffffffffffffffffffffffffffffffffff1673ffffffffffffffffffffffffffffffffffffffff16815260200184815260200183815260200180602001828103825283818151815260200191508051906020019080838360005b83811015613d6e578082015181840152602081019050613d53565b50505050905090810190601f168015613d9b5780820380516001836020036101000a031916815260200191505b509650505050505050604051602081830303815290604052907bffffffffffffffffffffffffffffffffffffffffffffffffffffffff19166020820180517bffffffffffffffffffffffffffffffffffffffffffffffffffffffff83818316178352505050506040518082805190602001908083835b60208310613e345780518252602082019150602081019050602083039250613e11565b6001836020036101000a0380198251168184511680821785525050505050509050019150506000604051808303816000865af19150503d8060008114613e96576040519150601f19603f3d011682016040523d82523d6000602084013e613e9b565b606091505b5080925081935050506000815114158015613f1f575063e78b332560e01b7bffffffffffffffffffffffffffffffffffffffffffffffffffffffff1916818060200190516020811015613eed57600080fd5b81019080805190602001909291905050507bffffffffffffffffffffffffffffffffffffffffffffffffffffffff1916145b15613f2f57600192505050613f36565b6000925050505b9695505050505050565b600073ffffffffffffffffffffffffffffffffffffffff168373ffffffffffffffffffffffffffffffffffffffff161415613fc6576040517f08c379a00000000000000000000000000000000000000000000000000000000081526004018080602001828103825260218152602001806145906021913960400191505060405180910390fd5b6000613fd0612983565b905061400081856000613fe287613973565b613feb87613973565b6040518060200160405280600081525061298b565b61407d8260405180606001604052806022815260200161456e602291396001600087815260200190815260200160002060008873ffffffffffffffffffffffffffffffffffffffff1673ffffffffffffffffffffffffffffffffffffffff168152602001908152602001600020546129a19092919063ffffffff16565b6001600085815260200190815260200160002060008673ffffffffffffffffffffffffffffffffffffffff1673ffffffffffffffffffffffffffffffffffffffff16815260200190815260200160002081905550614111826040518060600160405280602781526020016145da6027913960036000878152602001908152602001600020546129a19092919063ffffffff16565b6003600085815260200190815260200160002081905550600073ffffffffffffffffffffffffffffffffffffffff168473ffffffffffffffffffffffffffffffffffffffff168273ffffffffffffffffffffffffffffffffffffffff167fc3d58168c5ae7397731d063d5bbf3d657854427343f4c083240f7aacaa2d0f628686604051808381526020018281526020019250505060405180910390a450505050565b6141bb611b95565b15614211576040517f08c379a000000000000000000000000000000000000000000000000000000000815260040180806020018281038252602a8152602001806146a0602a913960400191505060405180910390fd5b60008090505b83518110156142bd57600015156007600086848151811061423457fe5b6020026020010151815260200190815260200160002060009054906101000a900460ff161515146142b0576040517f08c379a00000000000000000000000000000000000000000000000000000000081526004018080602001828103825260228152602001806147f26022913960400191505060405180910390fd5b8080600101915050614217565b50505050505050565b600080823b905060008111915050919050565b6142e38282613161565b614338576040517f08c379a000000000000000000000000000000000000000000000000000000000815260040180806020018281038252602181526020018061467f6021913960400191505060405180910390fd5b60008260000160008373ffffffffffffffffffffffffffffffffffffffff1673ffffffffffffffffffffffffffffffffffffffff16815260200190815260200160002060006101000a81548160ff0219169083151502179055505050565b6143a08282613161565b15614413576040517f08c379a000000000000000000000000000000000000000000000000000000000815260040180806020018281038252601f8152602001807f526f6c65733a206163636f756e7420616c72656164792068617320726f6c650081525060200191505060405180910390fd5b60018260000160008373ffffffffffffffffffffffffffffffffffffffff1673ffffffffffffffffffffffffffffffffffffffff16815260200190815260200160002060006101000a81548160ff0219169083151502179055505050565b828054600181600116156101000203166002900490600052602060002090601f016020900481019282601f106144b257805160ff19168380011785556144e0565b828001600101855582156144e0579182015b828111156144df5782518255916020019190600101906144c4565b5b5090506144ed91906144f1565b5090565b61451391905b8082111561450f5760008160009055506001016144f7565b5090565b9056fe4b495033373a206163636f756e747320616e6420696473206c656e677468206d69736d61746368506175736572526f6c653a2063616c6c657220646f6573206e6f742068617665207468652050617573657220726f6c654b495033373a206275726e20616d6f756e7420657863656564732062616c616e63654b495033373a206275726e2066726f6d20746865207a65726f20616464726573734b495033373a2062616c616e636520717565727920666f7220746865207a65726f20616464726573734b495033373a206275726e20616d6f756e74206578636565647320746f74616c20737570706c794b495033373a2069647320616e6420616d6f756e7473206c656e677468206d69736d617463684b495033373a207472616e736665722063616c6c6572206973206e6f74206f776e6572206e6f7220617070726f7665644b495033373a20696e73756666696369656e742062616c616e636520666f72207472616e73666572526f6c65733a206163636f756e7420646f6573206e6f74206861766520726f6c654b495033375061757361626c653a20746f6b656e207472616e73666572207768696c65207061757365644b495033373a2073657474696e6720617070726f76616c2073746174757320666f722073656c66526f6c65733a206163636f756e7420697320746865207a65726f20616464726573734b495033373a207472616e7366657220746f206e6f6e204b49503337526563656976657220696d706c656d656e7465724b495033373a2063616c6c6572206973206e6f74206f776e6572206e6f7220617070726f7665644b495033373a207472616e7366657220746f20746865207a65726f20616464726573734b495033373a206261746368207472616e7366657220746f206e6f6e204b49503337526563656976657220696d706c656d656e7465724b495033373a2062617463682062616c616e636520717565727920666f7220746865207a65726f20616464726573734b495033375061757361626c653a2074686520746f6b656e20697320706175736564a165627a7a72305820358853b7d6c21c9c2ca7102f42e7688544ffae7c386ef1a87005aa87972ffc6a0029526f6c65733a206163636f756e7420697320746865207a65726f2061646472657373",
  "source": "// SPDX-License-Identifier: MIT\n\npragma solidity ^0.5.0;\n\nimport \"./KIP37Mock.sol\";\nimport \"../token/KIP37/KIP37Pausable.sol\";\n\ncontract KIP37PausableMock is KIP37Mock, KIP37Pausable {\n    constructor(string memory uri) public KIP37Mock(uri) { }\n\n    function _beforeTokenTransfer(\n        address operator,\n        address from,\n        address to,\n        uint256[] memory ids,\n        uint256[] memory amounts,\n        bytes memory data\n    )\n        internal\n    {\n        super._beforeTokenTransfer(operator, from, to, ids, amounts, data);\n    }\n}\n",
  "sourcePath": "/Users/humblefirm/Github/contract/contracts/mocks/KIP37PausableMock.sol",
  "compiler": {
    "name": "solc",
    "version": "0.5.8+commit.23d335f2.Emscripten.clang"
  },
  "schemaVersion": "3.0.11",
  "updatedAt": "2021-11-01T19:19:46.991Z",
  "devdoc": {
    "methods": {
      "balanceOf(address,uint256)": {
        "details": "See {IKIP37-balanceOf}.     * Requirements:     * - `account` cannot be the zero address."
      },
      "balanceOfBatch(address[],uint256[])": {
        "details": "See {IKIP37-balanceOfBatch}.     * Requirements:     * - `accounts` and `ids` must have the same length."
      },
      "isApprovedForAll(address,address)": {
        "details": "See {IKIP37-isApprovedForAll}."
      },
      "pause()": {
        "details": "Called by a pauser to pause, triggers stopped state."
      },
      "pause(uint256)": {
        "details": "Throws if `msg.sender` is not allowed to pause.   Throws if the specific token is paused."
      },
      "paused()": {
        "details": "Returns true if the contract is paused, and false otherwise."
      },
      "paused(uint256)": {
        "return": "True if the specific token is paused, false otherwise"
      },
      "safeBatchTransferFrom(address,address,uint256[],uint256[],bytes)": {
        "details": "See {IKIP37-safeBatchTransferFrom}."
      },
      "safeTransferFrom(address,address,uint256,uint256,bytes)": {
        "details": "See {IKIP37-safeTransferFrom}."
      },
      "setApprovalForAll(address,bool)": {
        "details": "See {IKIP37-setApprovalForAll}."
      },
      "supportsInterface(bytes4)": {
        "details": "See `IKIP13.supportsInterface`.     * Time complexity O(1), guaranteed to always use less than 30 000 gas."
      },
      "unpause()": {
        "details": "Called by a pauser to unpause, returns to normal state."
      },
      "unpause(uint256)": {
        "details": "Throws if `msg.sender` is not allowed to unpause.   Throws if the specific token is not paused."
      },
      "uri(uint256)": {
        "details": "See {IKIP37MetadataURI-uri}.     * This implementation returns the same URI for *all* token types. It relies on the token type ID substituion mechanism http://kips.klaytn.com/KIPs/kip-37#metadata     * Clients calling this function must replace the `\\{id\\}` substring with the actual token type ID."
      }
    }
  },
  "userdoc": {
    "methods": {
      "pause(uint256)": {
        "notice": "Pauses actions related to transfer and approval of the specific token."
      },
      "paused(uint256)": {
        "notice": "Checks whether the specific token is paused."
      },
      "unpause(uint256)": {
        "notice": "Resumes from the paused state of the specific token."
      }
    }
  }
}