{
  "contractName": "KIP7BurnableMock",
  "abi": [
    {
      "constant": true,
      "inputs": [
        {
          "name": "interfaceId",
          "type": "bytes4"
        }
      ],
      "name": "supportsInterface",
      "outputs": [
        {
          "name": "",
          "type": "bool"
        }
      ],
      "payable": false,
      "stateMutability": "view",
      "type": "function"
    },
    {
      "constant": false,
      "inputs": [
        {
          "name": "spender",
          "type": "address"
        },
        {
          "name": "value",
          "type": "uint256"
        }
      ],
      "name": "approve",
      "outputs": [
        {
          "name": "",
          "type": "bool"
        }
      ],
      "payable": false,
      "stateMutability": "nonpayable",
      "type": "function"
    },
    {
      "constant": true,
      "inputs": [],
      "name": "totalSupply",
      "outputs": [
        {
          "name": "",
          "type": "uint256"
        }
      ],
      "payable": false,
      "stateMutability": "view",
      "type": "function"
    },
    {
      "constant": false,
      "inputs": [
        {
          "name": "sender",
          "type": "address"
        },
        {
          "name": "recipient",
          "type": "address"
        },
        {
          "name": "amount",
          "type": "uint256"
        }
      ],
      "name": "transferFrom",
      "outputs": [
        {
          "name": "",
          "type": "bool"
        }
      ],
      "payable": false,
      "stateMutability": "nonpayable",
      "type": "function"
    },
    {
      "constant": false,
      "inputs": [
        {
          "name": "recipient",
          "type": "address"
        },
        {
          "name": "amount",
          "type": "uint256"
        }
      ],
      "name": "safeTransfer",
      "outputs": [],
      "payable": false,
      "stateMutability": "nonpayable",
      "type": "function"
    },
    {
      "constant": false,
      "inputs": [
        {
          "name": "sender",
          "type": "address"
        },
        {
          "name": "recipient",
          "type": "address"
        },
        {
          "name": "amount",
          "type": "uint256"
        }
      ],
      "name": "safeTransferFrom",
      "outputs": [],
      "payable": false,
      "stateMutability": "nonpayable",
      "type": "function"
    },
    {
      "constant": false,
      "inputs": [
        {
          "name": "amount",
          "type": "uint256"
        }
      ],
      "name": "burn",
      "outputs": [],
      "payable": false,
      "stateMutability": "nonpayable",
      "type": "function"
    },
    {
      "constant": true,
      "inputs": [
        {
          "name": "account",
          "type": "address"
        }
      ],
      "name": "balanceOf",
      "outputs": [
        {
          "name": "",
          "type": "uint256"
        }
      ],
      "payable": false,
      "stateMutability": "view",
      "type": "function"
    },
    {
      "constant": false,
      "inputs": [
        {
          "name": "account",
          "type": "address"
        },
        {
          "name": "amount",
          "type": "uint256"
        }
      ],
      "name": "burnFrom",
      "outputs": [],
      "payable": false,
      "stateMutability": "nonpayable",
      "type": "function"
    },
    {
      "constant": false,
      "inputs": [
        {
          "name": "recipient",
          "type": "address"
        },
        {
          "name": "amount",
          "type": "uint256"
        }
      ],
      "name": "transfer",
      "outputs": [
        {
          "name": "",
          "type": "bool"
        }
      ],
      "payable": false,
      "stateMutability": "nonpayable",
      "type": "function"
    },
    {
      "constant": false,
      "inputs": [
        {
          "name": "sender",
          "type": "address"
        },
        {
          "name": "recipient",
          "type": "address"
        },
        {
          "name": "amount",
          "type": "uint256"
        },
        {
          "name": "data",
          "type": "bytes"
        }
      ],
      "name": "safeTransferFrom",
      "outputs": [],
      "payable": false,
      "stateMutability": "nonpayable",
      "type": "function"
    },
    {
      "constant": true,
      "inputs": [
        {
          "name": "owner",
          "type": "address"
        },
        {
          "name": "spender",
          "type": "address"
        }
      ],
      "name": "allowance",
      "outputs": [
        {
          "name": "",
          "type": "uint256"
        }
      ],
      "payable": false,
      "stateMutability": "view",
      "type": "function"
    },
    {
      "constant": false,
      "inputs": [
        {
          "name": "recipient",
          "type": "address"
        },
        {
          "name": "amount",
          "type": "uint256"
        },
        {
          "name": "data",
          "type": "bytes"
        }
      ],
      "name": "safeTransfer",
      "outputs": [],
      "payable": false,
      "stateMutability": "nonpayable",
      "type": "function"
    },
    {
      "inputs": [
        {
          "name": "initialAccount",
          "type": "address"
        },
        {
          "name": "initialBalance",
          "type": "uint256"
        }
      ],
      "payable": false,
      "stateMutability": "nonpayable",
      "type": "constructor"
    },
    {
      "anonymous": false,
      "inputs": [
        {
          "indexed": true,
          "name": "from",
          "type": "address"
        },
        {
          "indexed": true,
          "name": "to",
          "type": "address"
        },
        {
          "indexed": false,
          "name": "value",
          "type": "uint256"
        }
      ],
      "name": "Transfer",
      "type": "event"
    },
    {
      "anonymous": false,
      "inputs": [
        {
          "indexed": true,
          "name": "owner",
          "type": "address"
        },
        {
          "indexed": true,
          "name": "spender",
          "type": "address"
        },
        {
          "indexed": false,
          "name": "value",
          "type": "uint256"
        }
      ],
      "name": "Approval",
      "type": "event"
    }
  ],
  "bytecode": "0x60806040523480156200001157600080fd5b5060405160408062001983833981018060405260408110156200003357600080fd5b810190808051906020019092919080519060200190929190505050620000666301ffc9a760e01b620000b060201b60201c565b6200007e636578737160e01b620000b060201b60201c565b62000096633b5a0bf860e01b620000b060201b60201c565b620000a88282620001b960201b60201c565b50506200040e565b63ffffffff60e01b817bffffffffffffffffffffffffffffffffffffffffffffffffffffffff191614156200014d576040517f08c379a000000000000000000000000000000000000000000000000000000000815260040180806020018281038252601b8152602001807f4b495031333a20696e76616c696420696e74657266616365206964000000000081525060200191505060405180910390fd5b6001600080837bffffffffffffffffffffffffffffffffffffffffffffffffffffffff19167bffffffffffffffffffffffffffffffffffffffffffffffffffffffff1916815260200190815260200160002060006101000a81548160ff02191690831515021790555050565b600073ffffffffffffffffffffffffffffffffffffffff168273ffffffffffffffffffffffffffffffffffffffff1614156200025d576040517f08c379a000000000000000000000000000000000000000000000000000000000815260040180806020018281038252601e8152602001807f4b4950373a206d696e7420746f20746865207a65726f2061646472657373000081525060200191505060405180910390fd5b62000279816003546200038560201b620013261790919060201c565b600381905550620002d881600160008573ffffffffffffffffffffffffffffffffffffffff1673ffffffffffffffffffffffffffffffffffffffff168152602001908152602001600020546200038560201b620013261790919060201c565b600160008473ffffffffffffffffffffffffffffffffffffffff1673ffffffffffffffffffffffffffffffffffffffff168152602001908152602001600020819055508173ffffffffffffffffffffffffffffffffffffffff16600073ffffffffffffffffffffffffffffffffffffffff167fddf252ad1be2c89b69c2b068fc378daa952ba7f163c4a11628f55a4df523b3ef836040518082815260200191505060405180910390a35050565b60008082840190508381101562000404576040517f08c379a000000000000000000000000000000000000000000000000000000000815260040180806020018281038252601b8152602001807f536166654d6174683a206164646974696f6e206f766572666c6f77000000000081525060200191505060405180910390fd5b8091505092915050565b611565806200041e6000396000f3fe608060405234801561001057600080fd5b50600436106100cf5760003560e01c806342966c681161008c578063a9059cbb11610066578063a9059cbb146103d3578063b88d4fde14610439578063dd62ed3e1461053e578063eb795549146105b6576100cf565b806342966c68146102ff57806370a082311461032d57806379cc679014610385576100cf565b806301ffc9a7146100d4578063095ea7b31461013957806318160ddd1461019f57806323b872dd146101bd578063423f6cef1461024357806342842e0e14610291575b600080fd5b61011f600480360360208110156100ea57600080fd5b8101908080357bffffffffffffffffffffffffffffffffffffffffffffffffffffffff1916906020019092919050505061069b565b604051808215151515815260200191505060405180910390f35b6101856004803603604081101561014f57600080fd5b81019080803573ffffffffffffffffffffffffffffffffffffffff16906020019092919080359060200190929190505050610702565b604051808215151515815260200191505060405180910390f35b6101a7610719565b6040518082815260200191505060405180910390f35b610229600480360360608110156101d357600080fd5b81019080803573ffffffffffffffffffffffffffffffffffffffff169060200190929190803573ffffffffffffffffffffffffffffffffffffffff16906020019092919080359060200190929190505050610723565b604051808215151515815260200191505060405180910390f35b61028f6004803603604081101561025957600080fd5b81019080803573ffffffffffffffffffffffffffffffffffffffff169060200190929190803590602001909291905050506107d4565b005b6102fd600480360360608110156102a757600080fd5b81019080803573ffffffffffffffffffffffffffffffffffffffff169060200190929190803573ffffffffffffffffffffffffffffffffffffffff169060200190929190803590602001909291905050506107f2565b005b61032b6004803603602081101561031557600080fd5b8101908080359060200190929190505050610812565b005b61036f6004803603602081101561034357600080fd5b81019080803573ffffffffffffffffffffffffffffffffffffffff16906020019092919050505061081f565b6040518082815260200191505060405180910390f35b6103d16004803603604081101561039b57600080fd5b81019080803573ffffffffffffffffffffffffffffffffffffffff16906020019092919080359060200190929190505050610868565b005b61041f600480360360408110156103e957600080fd5b81019080803573ffffffffffffffffffffffffffffffffffffffff16906020019092919080359060200190929190505050610876565b604051808215151515815260200191505060405180910390f35b61053c6004803603608081101561044f57600080fd5b81019080803573ffffffffffffffffffffffffffffffffffffffff169060200190929190803573ffffffffffffffffffffffffffffffffffffffff16906020019092919080359060200190929190803590602001906401000000008111156104b657600080fd5b8201836020820111156104c857600080fd5b803590602001918460018302840111640100000000831117156104ea57600080fd5b91908080601f016020809104026020016040519081016040528093929190818152602001838380828437600081840152601f19601f82011690508083019250505050505050919291929050505061088d565b005b6105a06004803603604081101561055457600080fd5b81019080803573ffffffffffffffffffffffffffffffffffffffff169060200190929190803573ffffffffffffffffffffffffffffffffffffffff169060200190929190505050610900565b6040518082815260200191505060405180910390f35b610699600480360360608110156105cc57600080fd5b81019080803573ffffffffffffffffffffffffffffffffffffffff169060200190929190803590602001909291908035906020019064010000000081111561061357600080fd5b82018360208201111561062557600080fd5b8035906020019184600183028401116401000000008311171561064757600080fd5b91908080601f016020809104026020016040519081016040528093929190818152602001838380828437600081840152601f19601f820116905080830192505050505050509192919290505050610987565b005b6000806000837bffffffffffffffffffffffffffffffffffffffffffffffffffffffff19167bffffffffffffffffffffffffffffffffffffffffffffffffffffffff1916815260200190815260200160002060009054906101000a900460ff169050919050565b600061070f3384846109f8565b6001905092915050565b6000600354905090565b6000610730848484610bef565b6107c984336107c485600260008a73ffffffffffffffffffffffffffffffffffffffff1673ffffffffffffffffffffffffffffffffffffffff16815260200190815260200160002060003373ffffffffffffffffffffffffffffffffffffffff1673ffffffffffffffffffffffffffffffffffffffff16815260200190815260200160002054610e8f90919063ffffffff16565b6109f8565b600190509392505050565b6107ee828260405180602001604052806000815250610987565b5050565b61080d8383836040518060200160405280600081525061088d565b505050565b61081c3382610ed9565b50565b6000600160008373ffffffffffffffffffffffffffffffffffffffff1673ffffffffffffffffffffffffffffffffffffffff168152602001908152602001600020549050919050565b6108728282611096565b5050565b6000610883338484610bef565b6001905092915050565b610898848484610723565b506108a58484848461113d565b6108fa576040517f08c379a000000000000000000000000000000000000000000000000000000000815260040180806020018281038252602e8152602001806114a3602e913960400191505060405180910390fd5b50505050565b6000600260008473ffffffffffffffffffffffffffffffffffffffff1673ffffffffffffffffffffffffffffffffffffffff16815260200190815260200160002060008373ffffffffffffffffffffffffffffffffffffffff1673ffffffffffffffffffffffffffffffffffffffff16815260200190815260200160002054905092915050565b6109918383610876565b5061099e3384848461113d565b6109f3576040517f08c379a000000000000000000000000000000000000000000000000000000000815260040180806020018281038252602e8152602001806114a3602e913960400191505060405180910390fd5b505050565b600073ffffffffffffffffffffffffffffffffffffffff168373ffffffffffffffffffffffffffffffffffffffff161415610a7e576040517f08c379a00000000000000000000000000000000000000000000000000000000081526004018080602001828103825260238152602001806115176023913960400191505060405180910390fd5b600073ffffffffffffffffffffffffffffffffffffffff168273ffffffffffffffffffffffffffffffffffffffff161415610b04576040517f08c379a00000000000000000000000000000000000000000000000000000000081526004018080602001828103825260218152602001806114826021913960400191505060405180910390fd5b80600260008573ffffffffffffffffffffffffffffffffffffffff1673ffffffffffffffffffffffffffffffffffffffff16815260200190815260200160002060008473ffffffffffffffffffffffffffffffffffffffff1673ffffffffffffffffffffffffffffffffffffffff168152602001908152602001600020819055508173ffffffffffffffffffffffffffffffffffffffff168373ffffffffffffffffffffffffffffffffffffffff167f8c5be1e5ebec7d5bd14f71427d1e84f3dd0314c0f7b2291e5b200ac8c7c3b925836040518082815260200191505060405180910390a3505050565b600073ffffffffffffffffffffffffffffffffffffffff168373ffffffffffffffffffffffffffffffffffffffff161415610c75576040517f08c379a00000000000000000000000000000000000000000000000000000000081526004018080602001828103825260248152602001806114f36024913960400191505060405180910390fd5b600073ffffffffffffffffffffffffffffffffffffffff168273ffffffffffffffffffffffffffffffffffffffff161415610cfb576040517f08c379a00000000000000000000000000000000000000000000000000000000081526004018080602001828103825260228152602001806114d16022913960400191505060405180910390fd5b610d4d81600160008673ffffffffffffffffffffffffffffffffffffffff1673ffffffffffffffffffffffffffffffffffffffff16815260200190815260200160002054610e8f90919063ffffffff16565b600160008573ffffffffffffffffffffffffffffffffffffffff1673ffffffffffffffffffffffffffffffffffffffff16815260200190815260200160002081905550610de281600160008573ffffffffffffffffffffffffffffffffffffffff1673ffffffffffffffffffffffffffffffffffffffff1681526020019081526020016000205461132690919063ffffffff16565b600160008473ffffffffffffffffffffffffffffffffffffffff1673ffffffffffffffffffffffffffffffffffffffff168152602001908152602001600020819055508173ffffffffffffffffffffffffffffffffffffffff168373ffffffffffffffffffffffffffffffffffffffff167fddf252ad1be2c89b69c2b068fc378daa952ba7f163c4a11628f55a4df523b3ef836040518082815260200191505060405180910390a3505050565b6000610ed183836040518060400160405280601e81526020017f536166654d6174683a207375627472616374696f6e206f766572666c6f7700008152506113ae565b905092915050565b600073ffffffffffffffffffffffffffffffffffffffff168273ffffffffffffffffffffffffffffffffffffffff161415610f7c576040517f08c379a00000000000000000000000000000000000000000000000000000000081526004018080602001828103825260208152602001807f4b4950373a206275726e2066726f6d20746865207a65726f206164647265737381525060200191505060405180910390fd5b610f9181600354610e8f90919063ffffffff16565b600381905550610fe981600160008573ffffffffffffffffffffffffffffffffffffffff1673ffffffffffffffffffffffffffffffffffffffff16815260200190815260200160002054610e8f90919063ffffffff16565b600160008473ffffffffffffffffffffffffffffffffffffffff1673ffffffffffffffffffffffffffffffffffffffff16815260200190815260200160002081905550600073ffffffffffffffffffffffffffffffffffffffff168273ffffffffffffffffffffffffffffffffffffffff167fddf252ad1be2c89b69c2b068fc378daa952ba7f163c4a11628f55a4df523b3ef836040518082815260200191505060405180910390a35050565b6110a08282610ed9565b611139823361113484600260008873ffffffffffffffffffffffffffffffffffffffff1673ffffffffffffffffffffffffffffffffffffffff16815260200190815260200160002060003373ffffffffffffffffffffffffffffffffffffffff1673ffffffffffffffffffffffffffffffffffffffff16815260200190815260200160002054610e8f90919063ffffffff16565b6109f8565b5050565b600061115e8473ffffffffffffffffffffffffffffffffffffffff1661146e565b61116b576001905061131e565b60008473ffffffffffffffffffffffffffffffffffffffff16639d188c22338887876040518563ffffffff1660e01b8152600401808573ffffffffffffffffffffffffffffffffffffffff1673ffffffffffffffffffffffffffffffffffffffff1681526020018473ffffffffffffffffffffffffffffffffffffffff1673ffffffffffffffffffffffffffffffffffffffff16815260200183815260200180602001828103825283818151815260200191508051906020019080838360005b8381101561124657808201518184015260208101905061122b565b50505050905090810190601f1680156112735780820380516001836020036101000a031916815260200191505b5095505050505050602060405180830381600087803b15801561129557600080fd5b505af11580156112a9573d6000803e3d6000fd5b505050506040513d60208110156112bf57600080fd5b81019080805190602001909291905050509050639d188c2260e01b7bffffffffffffffffffffffffffffffffffffffffffffffffffffffff1916817bffffffffffffffffffffffffffffffffffffffffffffffffffffffff1916149150505b949350505050565b6000808284019050838110156113a4576040517f08c379a000000000000000000000000000000000000000000000000000000000815260040180806020018281038252601b8152602001807f536166654d6174683a206164646974696f6e206f766572666c6f77000000000081525060200191505060405180910390fd5b8091505092915050565b600083831115829061145b576040517f08c379a00000000000000000000000000000000000000000000000000000000081526004018080602001828103825283818151815260200191508051906020019080838360005b83811015611420578082015181840152602081019050611405565b50505050905090810190601f16801561144d5780820380516001836020036101000a031916815260200191505b509250505060405180910390fd5b5060008385039050809150509392505050565b600080823b90506000811191505091905056fe4b4950373a20617070726f766520746f20746865207a65726f20616464726573734b4950373a207472616e7366657220746f206e6f6e204b495037526563656976657220696d706c656d656e7465724b4950373a207472616e7366657220746f20746865207a65726f20616464726573734b4950373a207472616e736665722066726f6d20746865207a65726f20616464726573734b4950373a20617070726f76652066726f6d20746865207a65726f2061646472657373a165627a7a72305820cf86203351ac564146f51e22fa2111a9620655e2466a3deb9cca28188a9bbe550029",
  "source": "pragma solidity ^0.5.0;\n\nimport \"../token/KIP7/KIP7Burnable.sol\";\n\ncontract KIP7BurnableMock is KIP7Burnable {\n    constructor (address initialAccount, uint256 initialBalance) public {\n        _mint(initialAccount, initialBalance);\n    }\n}\n",
  "sourcePath": "/Users/humblefirm/Github/contract/contracts/mocks/KIP7BurnableMock.sol",
  "compiler": {
    "name": "solc",
    "version": "0.5.8+commit.23d335f2.Emscripten.clang"
  },
  "schemaVersion": "3.0.11",
  "updatedAt": "2021-11-12T04:14:53.797Z",
  "devdoc": {
    "methods": {
      "allowance(address,address)": {
        "details": "See `IKIP7.allowance`."
      },
      "approve(address,uint256)": {
        "details": "See `IKIP7.approve`.     * Requirements:     * - `spender` cannot be the zero address."
      },
      "balanceOf(address)": {
        "details": "See `IKIP7.balanceOf`."
      },
      "burn(uint256)": {
        "details": "Destroys `amount` tokens from the caller.     * See `KIP7._burn`."
      },
      "burnFrom(address,uint256)": {
        "details": "See `KIP7._burnFrom`."
      },
      "safeTransfer(address,uint256)": {
        "details": "Moves `amount` tokens from the caller's account to `recipient`."
      },
      "safeTransfer(address,uint256,bytes)": {
        "details": "Moves `amount` tokens from the caller's account to `recipient`."
      },
      "safeTransferFrom(address,address,uint256)": {
        "details": "Moves `amount` tokens from `sender` to `recipient` using the allowance mechanism. `amount` is then deducted from the caller's allowance."
      },
      "safeTransferFrom(address,address,uint256,bytes)": {
        "details": "Moves `amount` tokens from `sender` to `recipient` using the allowance mechanism. `amount` is then deducted from the caller's allowance."
      },
      "supportsInterface(bytes4)": {
        "details": "See `IKIP13.supportsInterface`.     * Time complexity O(1), guaranteed to always use less than 30 000 gas."
      },
      "totalSupply()": {
        "details": "See `IKIP7.totalSupply`."
      },
      "transfer(address,uint256)": {
        "details": "See `IKIP7.transfer`.     * Requirements:     * - `recipient` cannot be the zero address. - the caller must have a balance of at least `amount`."
      },
      "transferFrom(address,address,uint256)": {
        "details": "See `IKIP7.transferFrom`.     * Emits an `Approval` event indicating the updated allowance. This is not required by the KIP. See the note at the beginning of `KIP7`;     * Requirements: - `sender` and `recipient` cannot be the zero address. - `sender` must have a balance of at least `value`. - the caller must have allowance for `sender`'s tokens of at least `amount`."
      }
    }
  },
  "userdoc": {
    "methods": {}
  }
}