{
  "contractName": "MarketPlace",
  "abi": [
    {
      "anonymous": false,
      "inputs": [
        {
          "indexed": true,
          "internalType": "address",
          "name": "previousOwner",
          "type": "address"
        },
        {
          "indexed": true,
          "internalType": "address",
          "name": "newOwner",
          "type": "address"
        }
      ],
      "name": "OwnershipTransferred",
      "type": "event"
    },
    {
      "constant": true,
      "inputs": [],
      "name": "isOwner",
      "outputs": [
        {
          "internalType": "bool",
          "name": "",
          "type": "bool"
        }
      ],
      "payable": false,
      "stateMutability": "view",
      "type": "function"
    },
    {
      "constant": true,
      "inputs": [],
      "name": "owner",
      "outputs": [
        {
          "internalType": "address payable",
          "name": "",
          "type": "address"
        }
      ],
      "payable": false,
      "stateMutability": "view",
      "type": "function"
    },
    {
      "constant": false,
      "inputs": [],
      "name": "renounceOwnership",
      "outputs": [],
      "payable": false,
      "stateMutability": "nonpayable",
      "type": "function"
    },
    {
      "constant": false,
      "inputs": [
        {
          "internalType": "address payable",
          "name": "newOwner",
          "type": "address"
        }
      ],
      "name": "transferOwnership",
      "outputs": [],
      "payable": false,
      "stateMutability": "nonpayable",
      "type": "function"
    },
    {
      "constant": false,
      "inputs": [
        {
          "internalType": "address",
          "name": "_token",
          "type": "address"
        },
        {
          "internalType": "uint256",
          "name": "_tokenId",
          "type": "uint256"
        },
        {
          "internalType": "bool",
          "name": "_isKUSDT",
          "type": "bool"
        },
        {
          "internalType": "uint256",
          "name": "_price",
          "type": "uint256"
        }
      ],
      "name": "Sell",
      "outputs": [],
      "payable": false,
      "stateMutability": "nonpayable",
      "type": "function"
    },
    {
      "constant": false,
      "inputs": [
        {
          "internalType": "uint256",
          "name": "id",
          "type": "uint256"
        }
      ],
      "name": "Buy",
      "outputs": [],
      "payable": true,
      "stateMutability": "payable",
      "type": "function"
    },
    {
      "constant": true,
      "inputs": [
        {
          "internalType": "address",
          "name": "Owner",
          "type": "address"
        }
      ],
      "name": "ListCount",
      "outputs": [
        {
          "internalType": "uint256",
          "name": "",
          "type": "uint256"
        }
      ],
      "payable": false,
      "stateMutability": "view",
      "type": "function"
    },
    {
      "constant": true,
      "inputs": [],
      "name": "ListCount",
      "outputs": [
        {
          "internalType": "uint256",
          "name": "",
          "type": "uint256"
        }
      ],
      "payable": false,
      "stateMutability": "view",
      "type": "function"
    },
    {
      "constant": true,
      "inputs": [
        {
          "internalType": "uint256",
          "name": "offset",
          "type": "uint256"
        },
        {
          "internalType": "uint256",
          "name": "size",
          "type": "uint256"
        }
      ],
      "name": "ListOffer",
      "outputs": [
        {
          "internalType": "uint256[]",
          "name": "tokenIds",
          "type": "uint256[]"
        }
      ],
      "payable": false,
      "stateMutability": "view",
      "type": "function"
    },
    {
      "constant": true,
      "inputs": [
        {
          "internalType": "address",
          "name": "Owner",
          "type": "address"
        },
        {
          "internalType": "uint256",
          "name": "offset",
          "type": "uint256"
        },
        {
          "internalType": "uint256",
          "name": "size",
          "type": "uint256"
        }
      ],
      "name": "ListOffer",
      "outputs": [
        {
          "internalType": "uint256[]",
          "name": "tokenIds",
          "type": "uint256[]"
        }
      ],
      "payable": false,
      "stateMutability": "view",
      "type": "function"
    },
    {
      "constant": true,
      "inputs": [
        {
          "internalType": "uint256",
          "name": "id",
          "type": "uint256"
        }
      ],
      "name": "Info",
      "outputs": [
        {
          "internalType": "address",
          "name": "owner",
          "type": "address"
        },
        {
          "internalType": "address",
          "name": "token",
          "type": "address"
        },
        {
          "internalType": "uint256",
          "name": "tokenId",
          "type": "uint256"
        },
        {
          "internalType": "uint256",
          "name": "price",
          "type": "uint256"
        },
        {
          "internalType": "bool",
          "name": "isKUSDT",
          "type": "bool"
        }
      ],
      "payable": false,
      "stateMutability": "view",
      "type": "function"
    },
    {
      "constant": false,
      "inputs": [
        {
          "internalType": "uint256",
          "name": "_foundationFeeRate",
          "type": "uint256"
        }
      ],
      "name": "SetFoundationFeeRate",
      "outputs": [],
      "payable": false,
      "stateMutability": "nonpayable",
      "type": "function"
    },
    {
      "constant": false,
      "inputs": [
        {
          "internalType": "address payable",
          "name": "_foundation",
          "type": "address"
        }
      ],
      "name": "SetFoundation",
      "outputs": [],
      "payable": false,
      "stateMutability": "nonpayable",
      "type": "function"
    },
    {
      "constant": false,
      "inputs": [
        {
          "internalType": "address",
          "name": "_token",
          "type": "address"
        },
        {
          "internalType": "uint256",
          "name": "_originatorFeeRate",
          "type": "uint256"
        }
      ],
      "name": "SetOriginatorFeeRate",
      "outputs": [],
      "payable": false,
      "stateMutability": "nonpayable",
      "type": "function"
    },
    {
      "constant": false,
      "inputs": [
        {
          "internalType": "address",
          "name": "_token",
          "type": "address"
        },
        {
          "internalType": "address payable",
          "name": "_originator",
          "type": "address"
        }
      ],
      "name": "SetOriginator",
      "outputs": [],
      "payable": false,
      "stateMutability": "nonpayable",
      "type": "function"
    }
  ],
  "bytecode": "0x608060405273cee8faf64bb97a73bb51e115aa89c17ffa8dd167600360006101000a81548173ffffffffffffffffffffffffffffffffffffffff021916908373ffffffffffffffffffffffffffffffffffffffff160217905550336000806101000a81548173ffffffffffffffffffffffffffffffffffffffff021916908373ffffffffffffffffffffffffffffffffffffffff1602179055506000809054906101000a900473ffffffffffffffffffffffffffffffffffffffff1673ffffffffffffffffffffffffffffffffffffffff16600073ffffffffffffffffffffffffffffffffffffffff167f8be0079c531659141344cd1fd0a4f28419497f9722a3daafe3b4186f6b6457e060405160405180910390a3612331806101246000396000f3fe6080604052600436106100e85760003560e01c8063715018a61161008a5780639a39f9a4116100595780639a39f9a4146104df578063cc51925a1461050a578063e6f250dc14610565578063f2fde38b1461062c576100e8565b8063715018a6146103885780638da5cb5b1461039f5780638f32d59b146103f6578063935c801914610425576100e8565b80633c4160c1116100c65780633c4160c11461020a5780633e3282181461026f578063519b8a891461029d578063680ec69c14610337576100e8565b80631599227b146100ed578063331065a11461015e578063379125f9146101cf575b600080fd5b3480156100f957600080fd5b5061015c6004803603608081101561011057600080fd5b81019080803573ffffffffffffffffffffffffffffffffffffffff169060200190929190803590602001909291908035151590602001909291908035906020019092919050505061067d565b005b34801561016a57600080fd5b506101cd6004803603604081101561018157600080fd5b81019080803573ffffffffffffffffffffffffffffffffffffffff169060200190929190803573ffffffffffffffffffffffffffffffffffffffff169060200190929190505050610903565b005b3480156101db57600080fd5b50610208600480360360208110156101f257600080fd5b81019080803590602001909291905050506109ff565b005b34801561021657600080fd5b506102596004803603602081101561022d57600080fd5b81019080803573ffffffffffffffffffffffffffffffffffffffff169060200190929190505050610a83565b6040518082815260200191505060405180910390f35b61029b6004803603602081101561028557600080fd5b8101908080359060200190929190505050610ad3565b005b3480156102a957600080fd5b506102e0600480360360408110156102c057600080fd5b8101908080359060200190929190803590602001909291905050506114ea565b6040518080602001828103825283818151815260200191508051906020019060200280838360005b83811015610323578082015181840152602081019050610308565b505050509050019250505060405180910390f35b34801561034357600080fd5b506103866004803603602081101561035a57600080fd5b81019080803573ffffffffffffffffffffffffffffffffffffffff1690602001909291905050506115b9565b005b34801561039457600080fd5b5061039d611677565b005b3480156103ab57600080fd5b506103b46117b0565b604051808273ffffffffffffffffffffffffffffffffffffffff1673ffffffffffffffffffffffffffffffffffffffff16815260200191505060405180910390f35b34801561040257600080fd5b5061040b6117d9565b604051808215151515815260200191505060405180910390f35b34801561043157600080fd5b506104886004803603606081101561044857600080fd5b81019080803573ffffffffffffffffffffffffffffffffffffffff1690602001909291908035906020019092919080359060200190929190505050611830565b6040518080602001828103825283818151815260200191508051906020019060200280838360005b838110156104cb5780820151818401526020810190506104b0565b505050509050019250505060405180910390f35b3480156104eb57600080fd5b506104f461193d565b6040518082815260200191505060405180910390f35b34801561051657600080fd5b506105636004803603604081101561052d57600080fd5b81019080803573ffffffffffffffffffffffffffffffffffffffff1690602001909291908035906020019092919050505061194e565b005b34801561057157600080fd5b5061059e6004803603602081101561058857600080fd5b8101908080359060200190929190505050611a10565b604051808673ffffffffffffffffffffffffffffffffffffffff1673ffffffffffffffffffffffffffffffffffffffff1681526020018573ffffffffffffffffffffffffffffffffffffffff1673ffffffffffffffffffffffffffffffffffffffff168152602001848152602001838152602001821515151581526020019550505050505060405180910390f35b34801561063857600080fd5b5061067b6004803603602081101561064f57600080fd5b81019080803573ffffffffffffffffffffffffffffffffffffffff169060200190929190505050611adf565b005b600083141561068b57600080fd5b6000811161069857600080fd5b60011515821515146106a957600080fd5b8373ffffffffffffffffffffffffffffffffffffffff166323b872dd3330866040518463ffffffff1660e01b8152600401808473ffffffffffffffffffffffffffffffffffffffff1673ffffffffffffffffffffffffffffffffffffffff1681526020018373ffffffffffffffffffffffffffffffffffffffff1673ffffffffffffffffffffffffffffffffffffffff1681526020018281526020019350505050600060405180830381600087803b15801561076457600080fd5b505af1158015610778573d6000803e3d6000fd5b50505050600060046000815480929190600101919050559050336005600083815260200190815260200160002060006101000a81548173ffffffffffffffffffffffffffffffffffffffff021916908373ffffffffffffffffffffffffffffffffffffffff160217905550846006600083815260200190815260200160002060006101000a81548173ffffffffffffffffffffffffffffffffffffffff021916908373ffffffffffffffffffffffffffffffffffffffff160217905550836007600083815260200190815260200160002081905550816008600083815260200190815260200160002081905550826009600083815260200190815260200160002060006101000a81548160ff0219169083151502179055506108a681600180611b659092919063ffffffff16565b506108fb816001600260003373ffffffffffffffffffffffffffffffffffffffff1673ffffffffffffffffffffffffffffffffffffffff168152602001908152602001600020611b659092919063ffffffff16565b505050505050565b61090b6117d9565b61097d576040517f08c379a00000000000000000000000000000000000000000000000000000000081526004018080602001828103825260208152602001807f4f776e61626c653a2063616c6c6572206973206e6f7420746865206f776e657281525060200191505060405180910390fd5b80600c60008473ffffffffffffffffffffffffffffffffffffffff1673ffffffffffffffffffffffffffffffffffffffff16815260200190815260200160002060006101000a81548173ffffffffffffffffffffffffffffffffffffffff021916908373ffffffffffffffffffffffffffffffffffffffff1602179055505050565b610a076117d9565b610a79576040517f08c379a00000000000000000000000000000000000000000000000000000000081526004018080602001828103825260208152602001807f4f776e61626c653a2063616c6c6572206973206e6f7420746865206f776e657281525060200191505060405180910390fd5b80600b8190555050565b6000610acc600260008473ffffffffffffffffffffffffffffffffffffffff1673ffffffffffffffffffffffffffffffffffffffff168152602001908152602001600020611b7d565b9050919050565b610ae7816001611bcd90919063ffffffff16565b610b59576040517f08c379a00000000000000000000000000000000000000000000000000000000081526004018080602001828103825260148152602001807f4f6666657220646f6573206e6f7420657869737400000000000000000000000081525060200191505060405180910390fd5b6006600082815260200190815260200160002060009054906101000a900473ffffffffffffffffffffffffffffffffffffffff1673ffffffffffffffffffffffffffffffffffffffff166323b872dd303360076000868152602001908152602001600020546040518463ffffffff1660e01b8152600401808473ffffffffffffffffffffffffffffffffffffffff1673ffffffffffffffffffffffffffffffffffffffff1681526020018373ffffffffffffffffffffffffffffffffffffffff1673ffffffffffffffffffffffffffffffffffffffff1681526020018281526020019350505050600060405180830381600087803b158015610c5a57600080fd5b505af1158015610c6e573d6000803e3d6000fd5b50505050610c86816001611c8890919063ffffffff16565b50610cd881600260003373ffffffffffffffffffffffffffffffffffffffff1673ffffffffffffffffffffffffffffffffffffffff168152602001908152602001600020611c8890919063ffffffff16565b506000600860008381526020019081526020016000205490506000610d8c600d60006006600087815260200190815260200160002060009054906101000a900473ffffffffffffffffffffffffffffffffffffffff1673ffffffffffffffffffffffffffffffffffffffff1673ffffffffffffffffffffffffffffffffffffffff16815260200190815260200160002054610d7e61271085611d7690919063ffffffff16565b611dc090919063ffffffff16565b90506000610db9600b54610dab61271086611d7690919063ffffffff16565b611dc090919063ffffffff16565b9050600081830190506009600086815260200190815260200160002060009054906101000a900460ff1615611278576000831115610fae576006600086815260200190815260200160002060009054906101000a900473ffffffffffffffffffffffffffffffffffffffff1673ffffffffffffffffffffffffffffffffffffffff166323b872dd33600c6000600660008b815260200190815260200160002060009054906101000a900473ffffffffffffffffffffffffffffffffffffffff1673ffffffffffffffffffffffffffffffffffffffff1673ffffffffffffffffffffffffffffffffffffffff16815260200190815260200160002060009054906101000a900473ffffffffffffffffffffffffffffffffffffffff16866040518463ffffffff1660e01b8152600401808473ffffffffffffffffffffffffffffffffffffffff1673ffffffffffffffffffffffffffffffffffffffff1681526020018373ffffffffffffffffffffffffffffffffffffffff1673ffffffffffffffffffffffffffffffffffffffff1681526020018281526020019350505050602060405180830381600087803b158015610f7157600080fd5b505af1158015610f85573d6000803e3d6000fd5b505050506040513d6020811015610f9b57600080fd5b8101908080519060200190929190505050505b6000821115611104576006600086815260200190815260200160002060009054906101000a900473ffffffffffffffffffffffffffffffffffffffff1673ffffffffffffffffffffffffffffffffffffffff166323b872dd33600a60009054906101000a900473ffffffffffffffffffffffffffffffffffffffff16856040518463ffffffff1660e01b8152600401808473ffffffffffffffffffffffffffffffffffffffff1673ffffffffffffffffffffffffffffffffffffffff1681526020018373ffffffffffffffffffffffffffffffffffffffff1673ffffffffffffffffffffffffffffffffffffffff1681526020018281526020019350505050602060405180830381600087803b1580156110c757600080fd5b505af11580156110db573d6000803e3d6000fd5b505050506040513d60208110156110f157600080fd5b8101908080519060200190929190505050505b6006600086815260200190815260200160002060009054906101000a900473ffffffffffffffffffffffffffffffffffffffff1673ffffffffffffffffffffffffffffffffffffffff166323b872dd336005600089815260200190815260200160002060009054906101000a900473ffffffffffffffffffffffffffffffffffffffff1661119b8589611e4690919063ffffffff16565b6040518463ffffffff1660e01b8152600401808473ffffffffffffffffffffffffffffffffffffffff1673ffffffffffffffffffffffffffffffffffffffff1681526020018373ffffffffffffffffffffffffffffffffffffffff1673ffffffffffffffffffffffffffffffffffffffff1681526020018281526020019350505050602060405180830381600087803b15801561123757600080fd5b505af115801561124b573d6000803e3d6000fd5b505050506040513d602081101561126157600080fd5b8101908080519060200190929190505050506114e3565b60086000868152602001908152602001600020543414611300576040517f08c379a00000000000000000000000000000000000000000000000000000000081526004018080602001828103825260168152602001807f596f75206d75737420706179207468652070726963650000000000000000000081525060200191505060405180910390fd5b60008311156113e357600c60006006600088815260200190815260200160002060009054906101000a900473ffffffffffffffffffffffffffffffffffffffff1673ffffffffffffffffffffffffffffffffffffffff1673ffffffffffffffffffffffffffffffffffffffff16815260200190815260200160002060009054906101000a900473ffffffffffffffffffffffffffffffffffffffff1673ffffffffffffffffffffffffffffffffffffffff166108fc849081150290604051600060405180830381858888f193505050501580156113e1573d6000803e3d6000fd5b505b600082111561145657600a60009054906101000a900473ffffffffffffffffffffffffffffffffffffffff1673ffffffffffffffffffffffffffffffffffffffff166108fc839081150290604051600060405180830381858888f19350505050158015611454573d6000803e3d6000fd5b505b6005600086815260200190815260200160002060009054906101000a900473ffffffffffffffffffffffffffffffffffffffff1673ffffffffffffffffffffffffffffffffffffffff166108fc6114b68387611e4690919063ffffffff16565b9081150290604051600060405180830381858888f193505050501580156114e1573d6000803e3d6000fd5b505b5050505050565b6060808260405190808252806020026020018201604052801561151c5781602001602082028038833980820191505090505b509050600080858360008151811061153057fe5b60200260200101818152505060008090505b858110156115ac5761157184828151811061155957fe5b60200260200101516001611e9090919063ffffffff16565b809350819450505082611583576115ac565b8184600183018151811061159357fe5b6020026020010181815250508080600101915050611542565b5082935050505092915050565b6115c16117d9565b611633576040517f08c379a00000000000000000000000000000000000000000000000000000000081526004018080602001828103825260208152602001807f4f776e61626c653a2063616c6c6572206973206e6f7420746865206f776e657281525060200191505060405180910390fd5b80600a60006101000a81548173ffffffffffffffffffffffffffffffffffffffff021916908373ffffffffffffffffffffffffffffffffffffffff16021790555050565b61167f6117d9565b6116f1576040517f08c379a00000000000000000000000000000000000000000000000000000000081526004018080602001828103825260208152602001807f4f776e61626c653a2063616c6c6572206973206e6f7420746865206f776e657281525060200191505060405180910390fd5b600073ffffffffffffffffffffffffffffffffffffffff166000809054906101000a900473ffffffffffffffffffffffffffffffffffffffff1673ffffffffffffffffffffffffffffffffffffffff167f8be0079c531659141344cd1fd0a4f28419497f9722a3daafe3b4186f6b6457e060405160405180910390a360008060006101000a81548173ffffffffffffffffffffffffffffffffffffffff021916908373ffffffffffffffffffffffffffffffffffffffff160217905550565b60008060009054906101000a900473ffffffffffffffffffffffffffffffffffffffff16905090565b60008060009054906101000a900473ffffffffffffffffffffffffffffffffffffffff1673ffffffffffffffffffffffffffffffffffffffff163373ffffffffffffffffffffffffffffffffffffffff1614905090565b606080826040519080825280602002602001820160405280156118625781602001602082028038833980820191505090505b509050600080858360008151811061187657fe5b60200260200101818152505060008090505b8581101561192f576118f484828151811061189f57fe5b6020026020010151600260008b73ffffffffffffffffffffffffffffffffffffffff1673ffffffffffffffffffffffffffffffffffffffff168152602001908152602001600020611e9090919063ffffffff16565b8093508194505050826119065761192f565b8184600183018151811061191657fe5b6020026020010181815250508080600101915050611888565b508293505050509392505050565b60006119496001611b7d565b905090565b6119566117d9565b6119c8576040517f08c379a00000000000000000000000000000000000000000000000000000000081526004018080602001828103825260208152602001807f4f776e61626c653a2063616c6c6572206973206e6f7420746865206f776e657281525060200191505060405180910390fd5b80600d60008473ffffffffffffffffffffffffffffffffffffffff1673ffffffffffffffffffffffffffffffffffffffff168152602001908152602001600020819055505050565b60008060008060006005600087815260200190815260200160002060009054906101000a900473ffffffffffffffffffffffffffffffffffffffff166006600088815260200190815260200160002060009054906101000a900473ffffffffffffffffffffffffffffffffffffffff166007600089815260200190815260200160002054600860008a815260200190815260200160002054600960008b815260200190815260200160002060009054906101000a900460ff168494509450945094509450945091939590929450565b611ae76117d9565b611b59576040517f08c379a00000000000000000000000000000000000000000000000000000000081526004018080602001828103825260208152602001807f4f776e61626c653a2063616c6c6572206973206e6f7420746865206f776e657281525060200191505060405180910390fd5b611b6281611eaa565b50565b6000611b748460008585611fee565b90509392505050565b600080600080611b908560006001612070565b80935081945050505b60008214611bc257611bad85836001612070565b80935081945050508080600101915050611b99565b809350505050919050565b60008083600001600084815260200190815260200160002060008015151515815260200190815260200160002054148015611c33575060008360000160008481526020019081526020016000206000600115151515815260200190815260200160002054145b15611c7d578183600001600080815260200190815260200160002060006001151515158152602001908152602001600020541415611c745760019050611c82565b60009050611c82565b600190505b92915050565b600080821480611c9f5750611c9d8383611bcd565b155b15611cad5760009050611d70565b611d0f8384600001600085815260200190815260200160002060008015151515815260200190815260200160002054856000016000868152602001908152602001600020600060011515151581526020019081526020016000205460016120ca565b8260000160008381526020019081526020016000206000801515151581526020019081526020016000206000905582600001600083815260200190815260200160002060006001151515158152602001908152602001600020600090558190505b92915050565b6000611db883836040518060400160405280601a81526020017f536166654d6174683a206469766973696f6e206279207a65726f00000000000081525061212f565b905092915050565b600080831415611dd35760009050611e40565b6000828402905082848281611de457fe5b0414611e3b576040517f08c379a00000000000000000000000000000000000000000000000000000000081526004018080602001828103825260218152602001806122dc6021913960400191505060405180910390fd5b809150505b92915050565b6000611e8883836040518060400160405280601e81526020017f536166654d6174683a207375627472616374696f6e206f766572666c6f7700008152506121f5565b905092915050565b600080611e9f84846001612070565b915091509250929050565b600073ffffffffffffffffffffffffffffffffffffffff168173ffffffffffffffffffffffffffffffffffffffff161415611f30576040517f08c379a00000000000000000000000000000000000000000000000000000000081526004018080602001828103825260268152602001806122b66026913960400191505060405180910390fd5b8073ffffffffffffffffffffffffffffffffffffffff166000809054906101000a900473ffffffffffffffffffffffffffffffffffffffff1673ffffffffffffffffffffffffffffffffffffffff167f8be0079c531659141344cd1fd0a4f28419497f9722a3daafe3b4186f6b6457e060405160405180910390a3806000806101000a81548173ffffffffffffffffffffffffffffffffffffffff021916908373ffffffffffffffffffffffffffffffffffffffff16021790555050565b6000611ffa8584611bcd565b15801561200d575061200c8585611bcd565b5b1561206357600085600001600086815260200190815260200160002060008415151515815260200190815260200160002054905061204d868686866120ca565b612059868583866120ca565b6001915050612068565b600090505b949350505050565b60008061207d8585611bcd565b61209057600080809050915091506120c2565b600185600001600086815260200190815260200160002060008515151515815260200190815260200160002054915091505b935093915050565b828460000160008481526020019081526020016000206000831515151515815260200190815260200160002081905550818460000160008581526020019081526020016000206000831515151581526020019081526020016000208190555050505050565b600080831182906121db576040517f08c379a00000000000000000000000000000000000000000000000000000000081526004018080602001828103825283818151815260200191508051906020019080838360005b838110156121a0578082015181840152602081019050612185565b50505050905090810190601f1680156121cd5780820380516001836020036101000a031916815260200191505b509250505060405180910390fd5b5060008385816121e757fe5b049050809150509392505050565b60008383111582906122a2576040517f08c379a00000000000000000000000000000000000000000000000000000000081526004018080602001828103825283818151815260200191508051906020019080838360005b8381101561226757808201518184015260208101905061224c565b50505050905090810190601f1680156122945780820380516001836020036101000a031916815260200191505b509250505060405180910390fd5b506000838503905080915050939250505056fe4f776e61626c653a206e6577206f776e657220697320746865207a65726f2061646472657373536166654d6174683a206d756c7469706c69636174696f6e206f766572666c6f77a265627a7a72315820cad060b18b0f9176b2002640a6fb4610b8086f896a705d4cb6215623bf5257b864736f6c63430005100032",
  "source": "pragma solidity ^0.5.0;\n\nimport \"../../token/KIP17/IKIP17Full.sol\";\nimport \"../../token/KIP7/IKIP7.sol\";\nimport \"../../token/KIP7/IKIP7Receiver.sol\";\nimport \"../../math/SafeMath.sol\";\nimport \"../../utils/Address.sol\";\nimport \"../../ownership/Ownable.sol\";\nimport \"./StructuredLinkedList.sol\";\n\n\n// Token = NFT token\n\ncontract MarketPlace is Ownable {\n    using SafeMath for uint256;\n    using Address for address;\n    using StructuredLinkedList for StructuredLinkedList.List;\n\n    StructuredLinkedList.List List;\n    mapping (address => StructuredLinkedList.List) ListOfOwner;\n\n    \n    IKIP7 private KUSDT=IKIP7(0xceE8FAF64bB97a73bb51E115Aa89C17FfA8dD167);\n\n    uint256 private cumulativeSales;\n    mapping (uint256 => address payable) private OwnerById;\n    mapping (uint256 => address) private TokenById;\n    mapping (uint256 => uint256) private TokenIdById;\n    mapping (uint256 => uint256) private PriceById;\n    mapping (uint256 => bool) private IsKUSDTById;\n\n    address payable private Foundation;\n    uint256 private FoundationFeeRate;\n    mapping (address => address payable) private OriginatorByToken;\n    mapping (address => uint256) private OriginatorFeeRateByToken;\n\n    // Sell the NFT (Klay or USDT)\n    function Sell(address _token, uint256 _tokenId, bool _isKUSDT, uint256 _price) public { \n        require(_tokenId != 0);\n        require(_price > 0);\n        require(_isKUSDT == true);\n\n        // transfer NFT seller->Contract\n        IKIP17Full(_token).transferFrom(msg.sender, address(this), _tokenId);\n\n        // make offer\n        uint256 id = cumulativeSales++;\n        OwnerById[id] = msg.sender;\n        TokenById[id] = _token;\n        TokenIdById[id] = _tokenId;\n        PriceById[id] = _price;\n        IsKUSDTById[id] = _isKUSDT;\n\n        // add to list\n        List.push(id, true);\n        ListOfOwner[msg.sender].push(id, true);\n\n    }\n\n    // Buy the NFT \n    function Buy(uint256 id) public payable {\n        require(List.nodeExists(id), \"Offer does not exist\");\n\n        // transfer NFT Contract->buyer\n        IKIP17Full(TokenById[id]).transferFrom(address(this), msg.sender, TokenIdById[id]);\n\n        // remove from list\n        List.remove(id);\n        ListOfOwner[msg.sender].remove(id);\n\n        // Purchase the NFT\n        uint256 price = PriceById[id];\n        uint256 FeeOriginator = price.div(10000).mul(OriginatorFeeRateByToken[TokenById[id]]);\n        uint256 FeeFoundation = price.div(10000).mul(FoundationFeeRate); \n        uint256 FeeTotal = FeeOriginator + FeeFoundation;\n        if(IsKUSDTById[id]){\n            if(FeeOriginator>0) IKIP7(TokenById[id]).transferFrom(msg.sender, OriginatorByToken[TokenById[id]], FeeOriginator);\n            if(FeeFoundation>0) IKIP7(TokenById[id]).transferFrom(msg.sender, Foundation, FeeFoundation);\n            IKIP7(TokenById[id]).transferFrom(msg.sender, OwnerById[id], price.sub(FeeTotal));\n        }\n        else {\n            require(msg.value == PriceById[id], \"You must pay the price\");\n            if(FeeOriginator>0) OriginatorByToken[TokenById[id]].transfer(FeeOriginator);\n            if(FeeFoundation>0) Foundation.transfer(FeeFoundation);\n            OwnerById[id].transfer(price.sub(FeeTotal));\n        }\n\n    }\n\n\n    \n    function ListCount() public view returns (uint256) {\n        return List.sizeOf();\n    }\n    function ListCount(address Owner) public view returns (uint256) {\n        return ListOfOwner[Owner].sizeOf();\n    }\n\n    function ListOffer(uint256 offset, uint256 size) public view returns (uint256[] memory tokenIds) {\n        uint256[] memory ids = new uint256[](size);\n        bool exists;\n        uint256 id;\n        ids[0] = offset;\n\n        for(uint256 i = 0; i < size; i++) {\n            (exists, id) = List.getNextNode(ids[i]);\n            if(!exists) break;\n            ids[i+1] = id;\n        }\n        \n        return ids;\n    }\n\n    function ListOffer(address Owner, uint256 offset, uint256 size) public view returns (uint256[] memory tokenIds) {\n        uint256[] memory ids = new uint256[](size);\n        bool exists;\n        uint256 id;\n\n        ids[0] = offset;\n        for(uint256 i = 0; i < size; i++) {\n            (exists, id) = ListOfOwner[Owner].getNextNode(ids[i]);\n            if(!exists) break;\n            ids[i+1] = id;\n        }\n        \n        return ids;\n    }\n\n    function Info(uint256 id) public view returns (address owner, address token, uint256 tokenId, uint256 price, bool isKUSDT) {\n        return (OwnerById[id], TokenById[id], TokenIdById[id], PriceById[id], IsKUSDTById[id]);\n    }\n\n\n\n    function Addr2uint(address Addr) internal pure returns(uint256) {\n        return uint256(uint160(Addr));\n    }\n\n    // set foundation fee rate\n    function SetFoundationFeeRate(uint256 _foundationFeeRate) public onlyOwner {\n        FoundationFeeRate = _foundationFeeRate;\n    }\n\n    // set foundation address\n    function SetFoundation(address payable _foundation) public onlyOwner {\n        Foundation = _foundation;\n    }\n\n    // set originator fee rate\n    function SetOriginatorFeeRate(address _token, uint256 _originatorFeeRate) public onlyOwner {\n        OriginatorFeeRateByToken[_token] = _originatorFeeRate;\n    }\n\n    // set originator address\n    function SetOriginator(address _token, address payable _originator) public onlyOwner {\n        OriginatorByToken[_token] = _originator;\n    }\n    \n}",
  "sourcePath": "/Users/humblefirm/Github/contract/contracts/klayhub/MarketPlace/MarketPlace.sol",
  "compiler": {
    "name": "solc",
    "version": "0.5.16+commit.9c3226ce.Emscripten.clang"
  },
  "schemaVersion": "3.4.3",
  "updatedAt": "2021-12-28T19:27:36.163Z",
  "devdoc": {
    "methods": {
      "isOwner()": {
        "details": "Returns true if the caller is the current owner."
      },
      "owner()": {
        "details": "Returns the address of the current owner."
      },
      "renounceOwnership()": {
        "details": "Leaves the contract without owner. It will not be possible to call `onlyOwner` functions anymore. Can only be called by the current owner.     * > Note: Renouncing ownership will leave the contract without an owner, thereby removing any functionality that is only available to the owner."
      },
      "transferOwnership(address)": {
        "details": "Transfers ownership of the contract to a new account (`newOwner`). Can only be called by the current owner."
      }
    }
  },
  "userdoc": {
    "methods": {}
  }
}