{
  "contractName": "MarketPlace",
  "abi": [
    {
      "anonymous": false,
      "inputs": [
        {
          "indexed": true,
          "internalType": "address",
          "name": "previousOwner",
          "type": "address"
        },
        {
          "indexed": true,
          "internalType": "address",
          "name": "newOwner",
          "type": "address"
        }
      ],
      "name": "OwnershipTransferred",
      "type": "event"
    },
    {
      "constant": true,
      "inputs": [
        {
          "internalType": "uint256",
          "name": "",
          "type": "uint256"
        }
      ],
      "name": "IsKUSDTById",
      "outputs": [
        {
          "internalType": "bool",
          "name": "",
          "type": "bool"
        }
      ],
      "payable": false,
      "stateMutability": "view",
      "type": "function"
    },
    {
      "constant": true,
      "inputs": [],
      "name": "KUSDT",
      "outputs": [
        {
          "internalType": "contract IKIP7",
          "name": "",
          "type": "address"
        }
      ],
      "payable": false,
      "stateMutability": "view",
      "type": "function"
    },
    {
      "constant": true,
      "inputs": [
        {
          "internalType": "uint256",
          "name": "",
          "type": "uint256"
        }
      ],
      "name": "OwnerById",
      "outputs": [
        {
          "internalType": "address payable",
          "name": "",
          "type": "address"
        }
      ],
      "payable": false,
      "stateMutability": "view",
      "type": "function"
    },
    {
      "constant": true,
      "inputs": [
        {
          "internalType": "uint256",
          "name": "",
          "type": "uint256"
        }
      ],
      "name": "PriceById",
      "outputs": [
        {
          "internalType": "uint256",
          "name": "",
          "type": "uint256"
        }
      ],
      "payable": false,
      "stateMutability": "view",
      "type": "function"
    },
    {
      "constant": true,
      "inputs": [
        {
          "internalType": "uint256",
          "name": "",
          "type": "uint256"
        }
      ],
      "name": "TokenById",
      "outputs": [
        {
          "internalType": "address",
          "name": "",
          "type": "address"
        }
      ],
      "payable": false,
      "stateMutability": "view",
      "type": "function"
    },
    {
      "constant": true,
      "inputs": [
        {
          "internalType": "uint256",
          "name": "",
          "type": "uint256"
        }
      ],
      "name": "TokenIdById",
      "outputs": [
        {
          "internalType": "uint256",
          "name": "",
          "type": "uint256"
        }
      ],
      "payable": false,
      "stateMutability": "view",
      "type": "function"
    },
    {
      "constant": true,
      "inputs": [],
      "name": "cumulativeSales",
      "outputs": [
        {
          "internalType": "uint256",
          "name": "",
          "type": "uint256"
        }
      ],
      "payable": false,
      "stateMutability": "view",
      "type": "function"
    },
    {
      "constant": true,
      "inputs": [],
      "name": "isOwner",
      "outputs": [
        {
          "internalType": "bool",
          "name": "",
          "type": "bool"
        }
      ],
      "payable": false,
      "stateMutability": "view",
      "type": "function"
    },
    {
      "constant": true,
      "inputs": [],
      "name": "owner",
      "outputs": [
        {
          "internalType": "address payable",
          "name": "",
          "type": "address"
        }
      ],
      "payable": false,
      "stateMutability": "view",
      "type": "function"
    },
    {
      "constant": false,
      "inputs": [],
      "name": "renounceOwnership",
      "outputs": [],
      "payable": false,
      "stateMutability": "nonpayable",
      "type": "function"
    },
    {
      "constant": false,
      "inputs": [
        {
          "internalType": "address payable",
          "name": "newOwner",
          "type": "address"
        }
      ],
      "name": "transferOwnership",
      "outputs": [],
      "payable": false,
      "stateMutability": "nonpayable",
      "type": "function"
    },
    {
      "constant": false,
      "inputs": [
        {
          "internalType": "address",
          "name": "_token",
          "type": "address"
        },
        {
          "internalType": "uint256",
          "name": "_tokenId",
          "type": "uint256"
        },
        {
          "internalType": "bool",
          "name": "_isKUSDT",
          "type": "bool"
        },
        {
          "internalType": "uint256",
          "name": "_price",
          "type": "uint256"
        }
      ],
      "name": "Sell",
      "outputs": [],
      "payable": false,
      "stateMutability": "nonpayable",
      "type": "function"
    },
    {
      "constant": false,
      "inputs": [
        {
          "internalType": "uint256",
          "name": "id",
          "type": "uint256"
        }
      ],
      "name": "Buy",
      "outputs": [],
      "payable": true,
      "stateMutability": "payable",
      "type": "function"
    },
    {
      "constant": true,
      "inputs": [
        {
          "internalType": "address",
          "name": "Owner",
          "type": "address"
        }
      ],
      "name": "ListCount",
      "outputs": [
        {
          "internalType": "uint256",
          "name": "",
          "type": "uint256"
        }
      ],
      "payable": false,
      "stateMutability": "view",
      "type": "function"
    },
    {
      "constant": true,
      "inputs": [],
      "name": "ListCount",
      "outputs": [
        {
          "internalType": "uint256",
          "name": "",
          "type": "uint256"
        }
      ],
      "payable": false,
      "stateMutability": "view",
      "type": "function"
    },
    {
      "constant": true,
      "inputs": [
        {
          "internalType": "uint256",
          "name": "offset",
          "type": "uint256"
        },
        {
          "internalType": "uint256",
          "name": "size",
          "type": "uint256"
        }
      ],
      "name": "ListOffer",
      "outputs": [
        {
          "internalType": "uint256[]",
          "name": "tokenIds",
          "type": "uint256[]"
        }
      ],
      "payable": false,
      "stateMutability": "view",
      "type": "function"
    },
    {
      "constant": true,
      "inputs": [
        {
          "internalType": "address",
          "name": "Owner",
          "type": "address"
        },
        {
          "internalType": "uint256",
          "name": "offset",
          "type": "uint256"
        },
        {
          "internalType": "uint256",
          "name": "size",
          "type": "uint256"
        }
      ],
      "name": "ListOffer",
      "outputs": [
        {
          "internalType": "uint256[]",
          "name": "tokenIds",
          "type": "uint256[]"
        }
      ],
      "payable": false,
      "stateMutability": "view",
      "type": "function"
    },
    {
      "constant": true,
      "inputs": [
        {
          "internalType": "uint256",
          "name": "id",
          "type": "uint256"
        }
      ],
      "name": "Info",
      "outputs": [
        {
          "internalType": "address",
          "name": "owner",
          "type": "address"
        },
        {
          "internalType": "address",
          "name": "token",
          "type": "address"
        },
        {
          "internalType": "uint256",
          "name": "tokenId",
          "type": "uint256"
        },
        {
          "internalType": "uint256",
          "name": "price",
          "type": "uint256"
        },
        {
          "internalType": "bool",
          "name": "isKUSDT",
          "type": "bool"
        }
      ],
      "payable": false,
      "stateMutability": "view",
      "type": "function"
    }
  ],
  "bytecode": "0x608060405273cee8faf64bb97a73bb51e115aa89c17ffa8dd167600360006101000a81548173ffffffffffffffffffffffffffffffffffffffff021916908373ffffffffffffffffffffffffffffffffffffffff160217905550336000806101000a81548173ffffffffffffffffffffffffffffffffffffffff021916908373ffffffffffffffffffffffffffffffffffffffff1602179055506000809054906101000a900473ffffffffffffffffffffffffffffffffffffffff1673ffffffffffffffffffffffffffffffffffffffff16600073ffffffffffffffffffffffffffffffffffffffff167f8be0079c531659141344cd1fd0a4f28419497f9722a3daafe3b4186f6b6457e060405160405180910390a3611a14806101246000396000f3fe6080604052600436106101095760003560e01c8063935c801911610095578063c415519511610064578063c4155195146105ca578063e6f250dc1461061d578063f2fde38b146106e4578063f729f6ee14610735578063fb8f88351461078457610109565b8063935c80191461041b5780639a39f9a4146104d55780639b99775014610500578063b52a42291461054f57610109565b8063519b8a89116100dc578063519b8a891461026957806359bc95f014610303578063715018a61461037e5780638da5cb5b146103955780638f32d59b146103ec57610109565b80631599227b1461010e5780631928c8f51461017f5780633c4160c1146101d65780633e3282181461023b575b600080fd5b34801561011a57600080fd5b5061017d6004803603608081101561013157600080fd5b81019080803573ffffffffffffffffffffffffffffffffffffffff16906020019092919080359060200190929190803515159060200190929190803590602001909291905050506107af565b005b34801561018b57600080fd5b50610194610a35565b604051808273ffffffffffffffffffffffffffffffffffffffff1673ffffffffffffffffffffffffffffffffffffffff16815260200191505060405180910390f35b3480156101e257600080fd5b50610225600480360360208110156101f957600080fd5b81019080803573ffffffffffffffffffffffffffffffffffffffff169060200190929190505050610a5b565b6040518082815260200191505060405180910390f35b6102676004803603602081101561025157600080fd5b8101908080359060200190929190505050610aab565b005b34801561027557600080fd5b506102ac6004803603604081101561028c57600080fd5b810190808035906020019092919080359060200190929190505050610f52565b6040518080602001828103825283818151815260200191508051906020019060200280838360005b838110156102ef5780820151818401526020810190506102d4565b505050509050019250505060405180910390f35b34801561030f57600080fd5b5061033c6004803603602081101561032657600080fd5b8101908080359060200190929190505050611021565b604051808273ffffffffffffffffffffffffffffffffffffffff1673ffffffffffffffffffffffffffffffffffffffff16815260200191505060405180910390f35b34801561038a57600080fd5b50610393611054565b005b3480156103a157600080fd5b506103aa61118d565b604051808273ffffffffffffffffffffffffffffffffffffffff1673ffffffffffffffffffffffffffffffffffffffff16815260200191505060405180910390f35b3480156103f857600080fd5b506104016111b6565b604051808215151515815260200191505060405180910390f35b34801561042757600080fd5b5061047e6004803603606081101561043e57600080fd5b81019080803573ffffffffffffffffffffffffffffffffffffffff169060200190929190803590602001909291908035906020019092919050505061120d565b6040518080602001828103825283818151815260200191508051906020019060200280838360005b838110156104c15780820151818401526020810190506104a6565b505050509050019250505060405180910390f35b3480156104e157600080fd5b506104ea61131a565b6040518082815260200191505060405180910390f35b34801561050c57600080fd5b506105396004803603602081101561052357600080fd5b810190808035906020019092919050505061132b565b6040518082815260200191505060405180910390f35b34801561055b57600080fd5b506105886004803603602081101561057257600080fd5b8101908080359060200190929190505050611343565b604051808273ffffffffffffffffffffffffffffffffffffffff1673ffffffffffffffffffffffffffffffffffffffff16815260200191505060405180910390f35b3480156105d657600080fd5b50610603600480360360208110156105ed57600080fd5b8101908080359060200190929190505050611376565b604051808215151515815260200191505060405180910390f35b34801561062957600080fd5b506106566004803603602081101561064057600080fd5b8101908080359060200190929190505050611396565b604051808673ffffffffffffffffffffffffffffffffffffffff1673ffffffffffffffffffffffffffffffffffffffff1681526020018573ffffffffffffffffffffffffffffffffffffffff1673ffffffffffffffffffffffffffffffffffffffff168152602001848152602001838152602001821515151581526020019550505050505060405180910390f35b3480156106f057600080fd5b506107336004803603602081101561070757600080fd5b81019080803573ffffffffffffffffffffffffffffffffffffffff169060200190929190505050611465565b005b34801561074157600080fd5b5061076e6004803603602081101561075857600080fd5b81019080803590602001909291905050506114eb565b6040518082815260200191505060405180910390f35b34801561079057600080fd5b50610799611503565b6040518082815260200191505060405180910390f35b60008314156107bd57600080fd5b600081116107ca57600080fd5b60011515821515146107db57600080fd5b8373ffffffffffffffffffffffffffffffffffffffff166323b872dd3330866040518463ffffffff1660e01b8152600401808473ffffffffffffffffffffffffffffffffffffffff1673ffffffffffffffffffffffffffffffffffffffff1681526020018373ffffffffffffffffffffffffffffffffffffffff1673ffffffffffffffffffffffffffffffffffffffff1681526020018281526020019350505050600060405180830381600087803b15801561089657600080fd5b505af11580156108aa573d6000803e3d6000fd5b50505050600060046000815480929190600101919050559050336005600083815260200190815260200160002060006101000a81548173ffffffffffffffffffffffffffffffffffffffff021916908373ffffffffffffffffffffffffffffffffffffffff160217905550846006600083815260200190815260200160002060006101000a81548173ffffffffffffffffffffffffffffffffffffffff021916908373ffffffffffffffffffffffffffffffffffffffff160217905550836007600083815260200190815260200160002081905550816008600083815260200190815260200160002081905550826009600083815260200190815260200160002060006101000a81548160ff0219169083151502179055506109d8816001806115099092919063ffffffff16565b50610a2d816001600260003373ffffffffffffffffffffffffffffffffffffffff1673ffffffffffffffffffffffffffffffffffffffff1681526020019081526020016000206115099092919063ffffffff16565b505050505050565b600360009054906101000a900473ffffffffffffffffffffffffffffffffffffffff1681565b6000610aa4600260008473ffffffffffffffffffffffffffffffffffffffff1673ffffffffffffffffffffffffffffffffffffffff168152602001908152602001600020611521565b9050919050565b610abf81600161157190919063ffffffff16565b610b31576040517f08c379a00000000000000000000000000000000000000000000000000000000081526004018080602001828103825260148152602001807f4f6666657220646f6573206e6f7420657869737400000000000000000000000081525060200191505060405180910390fd5b6006600082815260200190815260200160002060009054906101000a900473ffffffffffffffffffffffffffffffffffffffff1673ffffffffffffffffffffffffffffffffffffffff166323b872dd303360076000868152602001908152602001600020546040518463ffffffff1660e01b8152600401808473ffffffffffffffffffffffffffffffffffffffff1673ffffffffffffffffffffffffffffffffffffffff1681526020018373ffffffffffffffffffffffffffffffffffffffff1673ffffffffffffffffffffffffffffffffffffffff1681526020018281526020019350505050600060405180830381600087803b158015610c3257600080fd5b505af1158015610c46573d6000803e3d6000fd5b50505050610c5e81600161162c90919063ffffffff16565b50610cb081600260003373ffffffffffffffffffffffffffffffffffffffff1673ffffffffffffffffffffffffffffffffffffffff16815260200190815260200160002061162c90919063ffffffff16565b506009600082815260200190815260200160002060009054906101000a900460ff1615610e4c576006600082815260200190815260200160002060009054906101000a900473ffffffffffffffffffffffffffffffffffffffff1673ffffffffffffffffffffffffffffffffffffffff166323b872dd336005600085815260200190815260200160002060009054906101000a900473ffffffffffffffffffffffffffffffffffffffff1660076000868152602001908152602001600020546040518463ffffffff1660e01b8152600401808473ffffffffffffffffffffffffffffffffffffffff1673ffffffffffffffffffffffffffffffffffffffff1681526020018373ffffffffffffffffffffffffffffffffffffffff1673ffffffffffffffffffffffffffffffffffffffff1681526020018281526020019350505050602060405180830381600087803b158015610e0b57600080fd5b505af1158015610e1f573d6000803e3d6000fd5b505050506040513d6020811015610e3557600080fd5b810190808051906020019092919050505050610f4f565b60086000828152602001908152602001600020543414610ed4576040517f08c379a00000000000000000000000000000000000000000000000000000000081526004018080602001828103825260168152602001807f596f75206d75737420706179207468652070726963650000000000000000000081525060200191505060405180910390fd5b6005600082815260200190815260200160002060009054906101000a900473ffffffffffffffffffffffffffffffffffffffff1673ffffffffffffffffffffffffffffffffffffffff166108fc349081150290604051600060405180830381858888f19350505050158015610f4d573d6000803e3d6000fd5b505b50565b60608082604051908082528060200260200182016040528015610f845781602001602082028038833980820191505090505b5090506000808583600081518110610f9857fe5b60200260200101818152505060008090505b8581101561101457610fd9848281518110610fc157fe5b6020026020010151600161171a90919063ffffffff16565b809350819450505082610feb57611014565b81846001830181518110610ffb57fe5b6020026020010181815250508080600101915050610faa565b5082935050505092915050565b60066020528060005260406000206000915054906101000a900473ffffffffffffffffffffffffffffffffffffffff1681565b61105c6111b6565b6110ce576040517f08c379a00000000000000000000000000000000000000000000000000000000081526004018080602001828103825260208152602001807f4f776e61626c653a2063616c6c6572206973206e6f7420746865206f776e657281525060200191505060405180910390fd5b600073ffffffffffffffffffffffffffffffffffffffff166000809054906101000a900473ffffffffffffffffffffffffffffffffffffffff1673ffffffffffffffffffffffffffffffffffffffff167f8be0079c531659141344cd1fd0a4f28419497f9722a3daafe3b4186f6b6457e060405160405180910390a360008060006101000a81548173ffffffffffffffffffffffffffffffffffffffff021916908373ffffffffffffffffffffffffffffffffffffffff160217905550565b60008060009054906101000a900473ffffffffffffffffffffffffffffffffffffffff16905090565b60008060009054906101000a900473ffffffffffffffffffffffffffffffffffffffff1673ffffffffffffffffffffffffffffffffffffffff163373ffffffffffffffffffffffffffffffffffffffff1614905090565b6060808260405190808252806020026020018201604052801561123f5781602001602082028038833980820191505090505b509050600080858360008151811061125357fe5b60200260200101818152505060008090505b8581101561130c576112d184828151811061127c57fe5b6020026020010151600260008b73ffffffffffffffffffffffffffffffffffffffff1673ffffffffffffffffffffffffffffffffffffffff16815260200190815260200160002061171a90919063ffffffff16565b8093508194505050826112e35761130c565b818460018301815181106112f357fe5b6020026020010181815250508080600101915050611265565b508293505050509392505050565b60006113266001611521565b905090565b60076020528060005260406000206000915090505481565b60056020528060005260406000206000915054906101000a900473ffffffffffffffffffffffffffffffffffffffff1681565b60096020528060005260406000206000915054906101000a900460ff1681565b60008060008060006005600087815260200190815260200160002060009054906101000a900473ffffffffffffffffffffffffffffffffffffffff166006600088815260200190815260200160002060009054906101000a900473ffffffffffffffffffffffffffffffffffffffff166007600089815260200190815260200160002054600860008a815260200190815260200160002054600960008b815260200190815260200160002060009054906101000a900460ff168494509450945094509450945091939590929450565b61146d6111b6565b6114df576040517f08c379a00000000000000000000000000000000000000000000000000000000081526004018080602001828103825260208152602001807f4f776e61626c653a2063616c6c6572206973206e6f7420746865206f776e657281525060200191505060405180910390fd5b6114e881611734565b50565b60086020528060005260406000206000915090505481565b60045481565b60006115188460008585611878565b90509392505050565b60008060008061153485600060016118fa565b80935081945050505b6000821461156657611551858360016118fa565b8093508194505050808060010191505061153d565b809350505050919050565b600080836000016000848152602001908152602001600020600080151515158152602001908152602001600020541480156115d7575060008360000160008481526020019081526020016000206000600115151515815260200190815260200160002054145b156116215781836000016000808152602001908152602001600020600060011515151581526020019081526020016000205414156116185760019050611626565b60009050611626565b600190505b92915050565b60008082148061164357506116418383611571565b155b156116515760009050611714565b6116b3838460000160008581526020019081526020016000206000801515151581526020019081526020016000205485600001600086815260200190815260200160002060006001151515158152602001908152602001600020546001611954565b8260000160008381526020019081526020016000206000801515151581526020019081526020016000206000905582600001600083815260200190815260200160002060006001151515158152602001908152602001600020600090558190505b92915050565b600080611729848460016118fa565b915091509250929050565b600073ffffffffffffffffffffffffffffffffffffffff168173ffffffffffffffffffffffffffffffffffffffff1614156117ba576040517f08c379a00000000000000000000000000000000000000000000000000000000081526004018080602001828103825260268152602001806119ba6026913960400191505060405180910390fd5b8073ffffffffffffffffffffffffffffffffffffffff166000809054906101000a900473ffffffffffffffffffffffffffffffffffffffff1673ffffffffffffffffffffffffffffffffffffffff167f8be0079c531659141344cd1fd0a4f28419497f9722a3daafe3b4186f6b6457e060405160405180910390a3806000806101000a81548173ffffffffffffffffffffffffffffffffffffffff021916908373ffffffffffffffffffffffffffffffffffffffff16021790555050565b60006118848584611571565b15801561189757506118968585611571565b5b156118ed5760008560000160008681526020019081526020016000206000841515151581526020019081526020016000205490506118d786868686611954565b6118e386858386611954565b60019150506118f2565b600090505b949350505050565b6000806119078585611571565b61191a576000808090509150915061194c565b600185600001600086815260200190815260200160002060008515151515815260200190815260200160002054915091505b935093915050565b82846000016000848152602001908152602001600020600083151515151581526020019081526020016000208190555081846000016000858152602001908152602001600020600083151515158152602001908152602001600020819055505050505056fe4f776e61626c653a206e6577206f776e657220697320746865207a65726f2061646472657373a265627a7a723158206fa54381bdecbcb68db25185ec31f9c96f54b5d30f01a8b9308f364b10d9571d64736f6c63430005100032",
  "source": "pragma solidity ^0.5.0;\n\nimport \"../../token/KIP17/IKIP17Full.sol\";\nimport \"../../token/KIP7/IKIP7.sol\";\nimport \"../../token/KIP7/IKIP7Receiver.sol\";\nimport \"../../math/SafeMath.sol\";\nimport \"../../utils/Address.sol\";\nimport \"../../ownership/Ownable.sol\";\nimport \"./StructuredLinkedList.sol\";\n\n\n// Token = NFT token\n\ncontract MarketPlace is Ownable {\n    using SafeMath for uint256;\n    using Address for address;\n    using StructuredLinkedList for StructuredLinkedList.List;\n\n    StructuredLinkedList.List List;\n    mapping (address => StructuredLinkedList.List) ListOfOwner;\n\n    \n    IKIP7 public KUSDT=IKIP7(0xceE8FAF64bB97a73bb51E115Aa89C17FfA8dD167);\n\n    uint256 public cumulativeSales;\n    mapping (uint256 => address payable) public OwnerById;\n    mapping (uint256 => address) public TokenById;\n    mapping (uint256 => uint256) public TokenIdById;\n    mapping (uint256 => uint256) public PriceById;\n    mapping (uint256 => bool) public IsKUSDTById;\n\n\n\n \n\n    // Sell the NFT (Klay or USDT)\n    function Sell(address _token, uint256 _tokenId, bool _isKUSDT, uint256 _price) public { \n        require(_tokenId != 0);\n        require(_price > 0);\n        require(_isKUSDT == true);\n\n        // transfer NFT seller->Contract\n        IKIP17Full(_token).transferFrom(msg.sender, address(this), _tokenId);\n\n        // make offer\n        uint256 id = cumulativeSales++;\n        OwnerById[id] = msg.sender;\n        TokenById[id] = _token;\n        TokenIdById[id] = _tokenId;\n        PriceById[id] = _price;\n        IsKUSDTById[id] = _isKUSDT;\n\n        // add to list\n        List.push(id, true);\n        ListOfOwner[msg.sender].push(id, true);\n\n    }\n\n    // Buy the NFT \n    function Buy(uint256 id) public payable {\n        require(List.nodeExists(id), \"Offer does not exist\");\n\n        // transfer NFT Contract->buyer\n        IKIP17Full(TokenById[id]).transferFrom(address(this), msg.sender, TokenIdById[id]);\n\n        // remove from list\n        List.remove(id);\n        ListOfOwner[msg.sender].remove(id);\n\n        // Purchase the NFT\n        if(IsKUSDTById[id]) \n            IKIP7(TokenById[id]).transferFrom(msg.sender, OwnerById[id], TokenIdById[id]);\n        else {\n            require(msg.value == PriceById[id], \"You must pay the price\");\n            OwnerById[id].transfer(msg.value);\n        }\n\n    }\n\n\n    \n    function ListCount() public view returns (uint256) {\n        return List.sizeOf();\n    }\n    function ListCount(address Owner) public view returns (uint256) {\n        return ListOfOwner[Owner].sizeOf();\n    }\n\n    function ListOffer(uint256 offset, uint256 size) public view returns (uint256[] memory tokenIds) {\n        uint256[] memory ids = new uint256[](size);\n        bool exists;\n        uint256 id;\n        ids[0] = offset;\n\n        for(uint256 i = 0; i < size; i++) {\n            (exists, id) = List.getNextNode(ids[i]);\n            if(!exists) break;\n            ids[i+1] = id;\n        }\n        \n        return ids;\n    }\n\n    function ListOffer(address Owner, uint256 offset, uint256 size) public view returns (uint256[] memory tokenIds) {\n        uint256[] memory ids = new uint256[](size);\n        bool exists;\n        uint256 id;\n\n        ids[0] = offset;\n        for(uint256 i = 0; i < size; i++) {\n            (exists, id) = ListOfOwner[Owner].getNextNode(ids[i]);\n            if(!exists) break;\n            ids[i+1] = id;\n        }\n        \n        return ids;\n    }\n\n    function Info(uint256 id) public view returns (address owner, address token, uint256 tokenId, uint256 price, bool isKUSDT) {\n        return (OwnerById[id], TokenById[id], TokenIdById[id], PriceById[id], IsKUSDTById[id]);\n    }\n\n\n\n    function Addr2uint(address Addr) internal pure returns(uint256) {\n        return uint256(uint160(Addr));\n    }\n    \n}",
  "sourcePath": "/Users/humblefirm/Github/contract/contracts/klayhub/MarketPlace/MarketPlace.sol",
  "compiler": {
    "name": "solc",
    "version": "0.5.16+commit.9c3226ce.Emscripten.clang"
  },
  "schemaVersion": "3.4.3",
  "updatedAt": "2021-12-28T18:40:02.605Z",
  "devdoc": {
    "methods": {
      "isOwner()": {
        "details": "Returns true if the caller is the current owner."
      },
      "owner()": {
        "details": "Returns the address of the current owner."
      },
      "renounceOwnership()": {
        "details": "Leaves the contract without owner. It will not be possible to call `onlyOwner` functions anymore. Can only be called by the current owner.     * > Note: Renouncing ownership will leave the contract without an owner, thereby removing any functionality that is only available to the owner."
      },
      "transferOwnership(address)": {
        "details": "Transfers ownership of the contract to a new account (`newOwner`). Can only be called by the current owner."
      }
    }
  },
  "userdoc": {
    "methods": {}
  }
}