{
  "contractName": "NFTPool",
  "abi": [
    {
      "inputs": [
        {
          "internalType": "string",
          "name": "name",
          "type": "string"
        },
        {
          "internalType": "bool",
          "name": "_isLocked",
          "type": "bool"
        },
        {
          "internalType": "bool",
          "name": "_isWhitelisted",
          "type": "bool"
        },
        {
          "internalType": "uint256",
          "name": "_startTime",
          "type": "uint256"
        },
        {
          "internalType": "uint256",
          "name": "_DURATION",
          "type": "uint256"
        },
        {
          "internalType": "address",
          "name": "_TIME",
          "type": "address"
        },
        {
          "internalType": "address",
          "name": "_POOL",
          "type": "address"
        },
        {
          "internalType": "address",
          "name": "_rewardToken",
          "type": "address"
        }
      ],
      "payable": false,
      "stateMutability": "nonpayable",
      "type": "constructor"
    },
    {
      "anonymous": false,
      "inputs": [
        {
          "indexed": true,
          "internalType": "address",
          "name": "previousOwner",
          "type": "address"
        },
        {
          "indexed": true,
          "internalType": "address",
          "name": "newOwner",
          "type": "address"
        }
      ],
      "name": "OwnershipTransferred",
      "type": "event"
    },
    {
      "anonymous": false,
      "inputs": [
        {
          "indexed": false,
          "internalType": "uint256",
          "name": "reward",
          "type": "uint256"
        }
      ],
      "name": "RewardAdded",
      "type": "event"
    },
    {
      "anonymous": false,
      "inputs": [
        {
          "indexed": true,
          "internalType": "address",
          "name": "user",
          "type": "address"
        },
        {
          "indexed": false,
          "internalType": "uint256",
          "name": "reward",
          "type": "uint256"
        }
      ],
      "name": "RewardPaid",
      "type": "event"
    },
    {
      "anonymous": false,
      "inputs": [
        {
          "indexed": false,
          "internalType": "bool",
          "name": "_open",
          "type": "bool"
        }
      ],
      "name": "SetOpen",
      "type": "event"
    },
    {
      "anonymous": false,
      "inputs": [
        {
          "indexed": true,
          "internalType": "address",
          "name": "user",
          "type": "address"
        },
        {
          "indexed": false,
          "internalType": "uint256[]",
          "name": "tokenIds",
          "type": "uint256[]"
        }
      ],
      "name": "Staked",
      "type": "event"
    },
    {
      "anonymous": false,
      "inputs": [
        {
          "indexed": true,
          "internalType": "address",
          "name": "user",
          "type": "address"
        },
        {
          "indexed": false,
          "internalType": "uint256[]",
          "name": "tokenIds",
          "type": "uint256[]"
        }
      ],
      "name": "UnStaked",
      "type": "event"
    },
    {
      "anonymous": false,
      "inputs": [
        {
          "indexed": true,
          "internalType": "address",
          "name": "user",
          "type": "address"
        },
        {
          "indexed": false,
          "internalType": "uint256",
          "name": "amount",
          "type": "uint256"
        }
      ],
      "name": "WithdrawnRewards",
      "type": "event"
    },
    {
      "constant": true,
      "inputs": [],
      "name": "DURATION",
      "outputs": [
        {
          "internalType": "uint256",
          "name": "",
          "type": "uint256"
        }
      ],
      "payable": false,
      "stateMutability": "view",
      "type": "function"
    },
    {
      "constant": true,
      "inputs": [],
      "name": "POOL",
      "outputs": [
        {
          "internalType": "contract PoolIKIP17",
          "name": "",
          "type": "address"
        }
      ],
      "payable": false,
      "stateMutability": "view",
      "type": "function"
    },
    {
      "constant": true,
      "inputs": [],
      "name": "TIME",
      "outputs": [
        {
          "internalType": "contract PoolIKIP17",
          "name": "",
          "type": "address"
        }
      ],
      "payable": false,
      "stateMutability": "view",
      "type": "function"
    },
    {
      "constant": true,
      "inputs": [
        {
          "internalType": "address",
          "name": "",
          "type": "address"
        }
      ],
      "name": "balanceOf",
      "outputs": [
        {
          "internalType": "uint256",
          "name": "",
          "type": "uint256"
        }
      ],
      "payable": false,
      "stateMutability": "view",
      "type": "function"
    },
    {
      "constant": true,
      "inputs": [],
      "name": "isLocked",
      "outputs": [
        {
          "internalType": "bool",
          "name": "",
          "type": "bool"
        }
      ],
      "payable": false,
      "stateMutability": "view",
      "type": "function"
    },
    {
      "constant": true,
      "inputs": [],
      "name": "isOwner",
      "outputs": [
        {
          "internalType": "bool",
          "name": "",
          "type": "bool"
        }
      ],
      "payable": false,
      "stateMutability": "view",
      "type": "function"
    },
    {
      "constant": true,
      "inputs": [],
      "name": "isWhitelisted",
      "outputs": [
        {
          "internalType": "bool",
          "name": "",
          "type": "bool"
        }
      ],
      "payable": false,
      "stateMutability": "view",
      "type": "function"
    },
    {
      "constant": true,
      "inputs": [],
      "name": "lastUpdateTime",
      "outputs": [
        {
          "internalType": "uint256",
          "name": "",
          "type": "uint256"
        }
      ],
      "payable": false,
      "stateMutability": "view",
      "type": "function"
    },
    {
      "constant": true,
      "inputs": [],
      "name": "owner",
      "outputs": [
        {
          "internalType": "address payable",
          "name": "",
          "type": "address"
        }
      ],
      "payable": false,
      "stateMutability": "view",
      "type": "function"
    },
    {
      "constant": true,
      "inputs": [],
      "name": "periodFinish",
      "outputs": [
        {
          "internalType": "uint256",
          "name": "",
          "type": "uint256"
        }
      ],
      "payable": false,
      "stateMutability": "view",
      "type": "function"
    },
    {
      "constant": false,
      "inputs": [],
      "name": "renounceOwnership",
      "outputs": [],
      "payable": false,
      "stateMutability": "nonpayable",
      "type": "function"
    },
    {
      "constant": true,
      "inputs": [],
      "name": "rewardPerTokenStored",
      "outputs": [
        {
          "internalType": "uint256",
          "name": "",
          "type": "uint256"
        }
      ],
      "payable": false,
      "stateMutability": "view",
      "type": "function"
    },
    {
      "constant": true,
      "inputs": [],
      "name": "rewardRate",
      "outputs": [
        {
          "internalType": "uint256",
          "name": "",
          "type": "uint256"
        }
      ],
      "payable": false,
      "stateMutability": "view",
      "type": "function"
    },
    {
      "constant": true,
      "inputs": [],
      "name": "rewardToken",
      "outputs": [
        {
          "internalType": "contract IKIP7",
          "name": "",
          "type": "address"
        }
      ],
      "payable": false,
      "stateMutability": "view",
      "type": "function"
    },
    {
      "constant": true,
      "inputs": [
        {
          "internalType": "address",
          "name": "",
          "type": "address"
        }
      ],
      "name": "rewards",
      "outputs": [
        {
          "internalType": "uint256",
          "name": "",
          "type": "uint256"
        }
      ],
      "payable": false,
      "stateMutability": "view",
      "type": "function"
    },
    {
      "constant": true,
      "inputs": [],
      "name": "startTime",
      "outputs": [
        {
          "internalType": "uint256",
          "name": "",
          "type": "uint256"
        }
      ],
      "payable": false,
      "stateMutability": "view",
      "type": "function"
    },
    {
      "constant": true,
      "inputs": [],
      "name": "totalSupply",
      "outputs": [
        {
          "internalType": "uint256",
          "name": "",
          "type": "uint256"
        }
      ],
      "payable": false,
      "stateMutability": "view",
      "type": "function"
    },
    {
      "constant": false,
      "inputs": [
        {
          "internalType": "address payable",
          "name": "newOwner",
          "type": "address"
        }
      ],
      "name": "transferOwnership",
      "outputs": [],
      "payable": false,
      "stateMutability": "nonpayable",
      "type": "function"
    },
    {
      "constant": true,
      "inputs": [
        {
          "internalType": "address",
          "name": "",
          "type": "address"
        }
      ],
      "name": "userRewardPerTokenPaid",
      "outputs": [
        {
          "internalType": "uint256",
          "name": "",
          "type": "uint256"
        }
      ],
      "payable": false,
      "stateMutability": "view",
      "type": "function"
    },
    {
      "constant": true,
      "inputs": [
        {
          "internalType": "address",
          "name": "",
          "type": "address"
        }
      ],
      "name": "whitelist",
      "outputs": [
        {
          "internalType": "bool",
          "name": "",
          "type": "bool"
        }
      ],
      "payable": false,
      "stateMutability": "view",
      "type": "function"
    },
    {
      "constant": false,
      "inputs": [
        {
          "internalType": "address",
          "name": "account",
          "type": "address"
        }
      ],
      "name": "addWhitelist",
      "outputs": [],
      "payable": false,
      "stateMutability": "nonpayable",
      "type": "function"
    },
    {
      "constant": false,
      "inputs": [
        {
          "internalType": "address",
          "name": "account",
          "type": "address"
        }
      ],
      "name": "removeWhitelist",
      "outputs": [],
      "payable": false,
      "stateMutability": "nonpayable",
      "type": "function"
    },
    {
      "constant": true,
      "inputs": [],
      "name": "lastTimeRewardApplicable",
      "outputs": [
        {
          "internalType": "uint256",
          "name": "",
          "type": "uint256"
        }
      ],
      "payable": false,
      "stateMutability": "view",
      "type": "function"
    },
    {
      "constant": true,
      "inputs": [],
      "name": "rewardPerToken",
      "outputs": [
        {
          "internalType": "uint256",
          "name": "",
          "type": "uint256"
        }
      ],
      "payable": false,
      "stateMutability": "view",
      "type": "function"
    },
    {
      "constant": true,
      "inputs": [
        {
          "internalType": "address",
          "name": "account",
          "type": "address"
        }
      ],
      "name": "earned",
      "outputs": [
        {
          "internalType": "uint256",
          "name": "",
          "type": "uint256"
        }
      ],
      "payable": false,
      "stateMutability": "view",
      "type": "function"
    },
    {
      "constant": false,
      "inputs": [
        {
          "internalType": "uint256[]",
          "name": "tokenIds",
          "type": "uint256[]"
        }
      ],
      "name": "stake",
      "outputs": [],
      "payable": false,
      "stateMutability": "nonpayable",
      "type": "function"
    },
    {
      "constant": false,
      "inputs": [
        {
          "internalType": "uint256[]",
          "name": "tokenIds",
          "type": "uint256[]"
        }
      ],
      "name": "unstake",
      "outputs": [],
      "payable": false,
      "stateMutability": "nonpayable",
      "type": "function"
    },
    {
      "constant": false,
      "inputs": [
        {
          "internalType": "address",
          "name": "account",
          "type": "address"
        },
        {
          "internalType": "uint256",
          "name": "amount",
          "type": "uint256"
        }
      ],
      "name": "withdrawLeftRewards",
      "outputs": [],
      "payable": false,
      "stateMutability": "nonpayable",
      "type": "function"
    },
    {
      "constant": false,
      "inputs": [],
      "name": "getReward",
      "outputs": [],
      "payable": false,
      "stateMutability": "nonpayable",
      "type": "function"
    },
    {
      "constant": true,
      "inputs": [],
      "name": "getPeriodFinish",
      "outputs": [
        {
          "internalType": "uint256",
          "name": "",
          "type": "uint256"
        }
      ],
      "payable": false,
      "stateMutability": "view",
      "type": "function"
    },
    {
      "constant": true,
      "inputs": [],
      "name": "isOpen",
      "outputs": [
        {
          "internalType": "bool",
          "name": "",
          "type": "bool"
        }
      ],
      "payable": false,
      "stateMutability": "view",
      "type": "function"
    },
    {
      "constant": false,
      "inputs": [
        {
          "internalType": "bool",
          "name": "_open",
          "type": "bool"
        }
      ],
      "name": "setOpen",
      "outputs": [],
      "payable": false,
      "stateMutability": "nonpayable",
      "type": "function"
    },
    {
      "constant": false,
      "inputs": [
        {
          "internalType": "uint256",
          "name": "reward",
          "type": "uint256"
        }
      ],
      "name": "notifyRewardAmount",
      "outputs": [],
      "payable": false,
      "stateMutability": "nonpayable",
      "type": "function"
    }
  ],
  "bytecode": "0x60806040526000600355600060085560006009556000600b556000600c60006101000a81548160ff0219169083151502179055506000600c60016101000a81548160ff0219169083151502179055506001600c60026101000a81548160ff0219169083151502179055503480156200007657600080fd5b50604051620036123803806200361283398181016040526101008110156200009d57600080fd5b8101908080516040519392919084640100000000821115620000be57600080fd5b83820191506020820185811115620000d557600080fd5b8251866001820283011164010000000082111715620000f357600080fd5b8083526020830192505050908051906020019080838360005b83811015620001295780820151818401526020810190506200010c565b50505050905090810190601f168015620001575780820380516001836020036101000a031916815260200191505b5060405260200180519060200190929190805190602001909291908051906020019092919080519060200190929190805190602001909291908051906020019092919080519060200190929190505050336000806101000a81548173ffffffffffffffffffffffffffffffffffffffff021916908373ffffffffffffffffffffffffffffffffffffffff1602179055506000809054906101000a900473ffffffffffffffffffffffffffffffffffffffff1673ffffffffffffffffffffffffffffffffffffffff16600073ffffffffffffffffffffffffffffffffffffffff167f8be0079c531659141344cd1fd0a4f28419497f9722a3daafe3b4186f6b6457e060405160405180910390a386600c60006101000a81548160ff02191690831515021790555085600c60016101000a81548160ff021916908315150217905550846007819055508360068190555082600160006101000a81548173ffffffffffffffffffffffffffffffffffffffff021916908373ffffffffffffffffffffffffffffffffffffffff16021790555081600260006101000a81548173ffffffffffffffffffffffffffffffffffffffff021916908373ffffffffffffffffffffffffffffffffffffffff16021790555080600560006101000a81548173ffffffffffffffffffffffffffffffffffffffff021916908373ffffffffffffffffffffffffffffffffffffffff160217905550505050505050505061329280620003806000396000f3fe608060405234801561001057600080fd5b50600436106101fa5760003560e01c80637ce3dbe11161011a578063c8f33c91116100ad578063e449f3411161007c578063e449f341146107eb578063ebe2b12b146108a3578063f2fde38b146108c1578063f7c618c114610905578063f80f5dd51461094f576101fa565b8063c8f33c9114610773578063cb17d14f14610791578063cd3daf9d146107af578063df136d65146107cd576101fa565b80638f32d59b116100e95780638f32d59b146106895780639b19251a146106ab578063a4e2d63414610707578063beae663714610729576101fa565b80637ce3dbe11461057b57806380faa57d146105c95780638b876347146105e75780638da5cb5b1461063f576101fa565b8063611b4095116101925780637535d246116101615780637535d246146104b157806378c8cda7146104fb57806378e979251461053f5780637b0a47ee1461055d576101fa565b8063611b4095146103fd5780636fdca5e01461041f57806370a082311461044f578063715018a6146104a7576101fa565b80631be05289116101ce5780631be05289146103855780633c6b16ab146103a35780633d18b912146103d157806347535d7b146103db576101fa565b80628cc262146101ff5780630700037d146102575780630fbf0a93146102af57806318160ddd14610367575b600080fd5b6102416004803603602081101561021557600080fd5b81019080803573ffffffffffffffffffffffffffffffffffffffff169060200190929190505050610993565b6040518082815260200191505060405180910390f35b6102996004803603602081101561026d57600080fd5b81019080803573ffffffffffffffffffffffffffffffffffffffff169060200190929190505050610ab1565b6040518082815260200191505060405180910390f35b610365600480360360208110156102c557600080fd5b81019080803590602001906401000000008111156102e257600080fd5b8201836020820111156102f457600080fd5b8035906020019184602083028401116401000000008311171561031657600080fd5b919080806020026020016040519081016040528093929190818152602001838360200280828437600081840152601f19601f820116905080830192505050505050509192919290505050610ac9565b005b61036f610ea7565b6040518082815260200191505060405180910390f35b61038d610ead565b6040518082815260200191505060405180910390f35b6103cf600480360360208110156103b957600080fd5b8101908080359060200190929190505050610eb3565b005b6103d9611629565b005b6103e361198a565b604051808215151515815260200191505060405180910390f35b6104056119a1565b604051808215151515815260200191505060405180910390f35b61044d6004803603602081101561043557600080fd5b810190808035151590602001909291905050506119b4565b005b6104916004803603602081101561046557600080fd5b81019080803573ffffffffffffffffffffffffffffffffffffffff169060200190929190505050611a86565b6040518082815260200191505060405180910390f35b6104af611a9e565b005b6104b9611bd7565b604051808273ffffffffffffffffffffffffffffffffffffffff1673ffffffffffffffffffffffffffffffffffffffff16815260200191505060405180910390f35b61053d6004803603602081101561051157600080fd5b81019080803573ffffffffffffffffffffffffffffffffffffffff169060200190929190505050611bfd565b005b610547611cd2565b6040518082815260200191505060405180910390f35b610565611cd8565b6040518082815260200191505060405180910390f35b6105c76004803603604081101561059157600080fd5b81019080803573ffffffffffffffffffffffffffffffffffffffff16906020019092919080359060200190929190505050611cde565b005b6105d1611ee1565b6040518082815260200191505060405180910390f35b610629600480360360208110156105fd57600080fd5b81019080803573ffffffffffffffffffffffffffffffffffffffff169060200190929190505050611efb565b6040518082815260200191505060405180910390f35b610647611f13565b604051808273ffffffffffffffffffffffffffffffffffffffff1673ffffffffffffffffffffffffffffffffffffffff16815260200191505060405180910390f35b610691611f3c565b604051808215151515815260200191505060405180910390f35b6106ed600480360360208110156106c157600080fd5b81019080803573ffffffffffffffffffffffffffffffffffffffff169060200190929190505050611f93565b604051808215151515815260200191505060405180910390f35b61070f611fb3565b604051808215151515815260200191505060405180910390f35b610731611fc6565b604051808273ffffffffffffffffffffffffffffffffffffffff1673ffffffffffffffffffffffffffffffffffffffff16815260200191505060405180910390f35b61077b611fec565b6040518082815260200191505060405180910390f35b610799611ff2565b6040518082815260200191505060405180910390f35b6107b7611ffc565b6040518082815260200191505060405180910390f35b6107d561208a565b6040518082815260200191505060405180910390f35b6108a16004803603602081101561080157600080fd5b810190808035906020019064010000000081111561081e57600080fd5b82018360208201111561083057600080fd5b8035906020019184602083028401116401000000008311171561085257600080fd5b919080806020026020016040519081016040528093929190818152602001838360200280828437600081840152601f19601f820116905080830192505050505050509192919290505050612090565b005b6108ab61231e565b6040518082815260200191505060405180910390f35b610903600480360360208110156108d757600080fd5b81019080803573ffffffffffffffffffffffffffffffffffffffff169060200190929190505050612324565b005b61090d6123aa565b604051808273ffffffffffffffffffffffffffffffffffffffff1673ffffffffffffffffffffffffffffffffffffffff16815260200191505060405180910390f35b6109916004803603602081101561096557600080fd5b81019080803573ffffffffffffffffffffffffffffffffffffffff1690602001909291905050506123d0565b005b6000610aaa600f60008473ffffffffffffffffffffffffffffffffffffffff1673ffffffffffffffffffffffffffffffffffffffff16815260200190815260200160002054610a9c670de0b6b3a7640000610a8e610a40600e60008973ffffffffffffffffffffffffffffffffffffffff1673ffffffffffffffffffffffffffffffffffffffff16815260200190815260200160002054610a32611ffc565b6124a590919063ffffffff16565b600460008973ffffffffffffffffffffffffffffffffffffffff1673ffffffffffffffffffffffffffffffffffffffff168152602001908152602001600020546124ef90919063ffffffff16565b61257590919063ffffffff16565b6125bf90919063ffffffff16565b9050919050565b600f6020528060005260406000206000915090505481565b600c60029054906101000a900460ff168015610aea57506006546007540142105b610b5c576040517f08c379a00000000000000000000000000000000000000000000000000000000081526004018080602001828103825260148152602001807f504f4f4c3a20506f6f6c20697320636c6f73656400000000000000000000000081525060200191505060405180910390fd5b6007544211610bd3576040517f08c379a000000000000000000000000000000000000000000000000000000000815260040180806020018281038252600f8152602001807f504f4f4c3a204e6f74207374617274000000000000000000000000000000000081525060200191505060405180910390fd5b33600c60019054906101000a900460ff16610bef576001610c3d565b600d60008273ffffffffffffffffffffffffffffffffffffffff1673ffffffffffffffffffffffffffffffffffffffff16815260200190815260200160002060009054906101000a900460ff165b610caf576040517f08c379a00000000000000000000000000000000000000000000000000000000081526004018080602001828103825260178152602001807f596f7520617265206e6f742077686974656c697374656400000000000000000081525060200191505060405180910390fd5b33610cb8611ffc565b600b81905550610cc6611ee1565b600a81905550600073ffffffffffffffffffffffffffffffffffffffff168173ffffffffffffffffffffffffffffffffffffffff1614610d9357610d0981610993565b600f60008373ffffffffffffffffffffffffffffffffffffffff1673ffffffffffffffffffffffffffffffffffffffff16815260200190815260200160002081905550600b54600e60008373ffffffffffffffffffffffffffffffffffffffff1673ffffffffffffffffffffffffffffffffffffffff168152602001908152602001600020819055505b6000835111610e0a576040517f08c379a00000000000000000000000000000000000000000000000000000000081526004018080602001828103825260148152602001807f504f4f4c3a2043616e6e6f74207374616b65203000000000000000000000000081525060200191505060405180910390fd5b610e1383612647565b3373ffffffffffffffffffffffffffffffffffffffff167f134b166c6094cc1ccbf1e3353ce5c3cd9fd29869051bdb999895854d77cc5ef6846040518080602001828103825283818151815260200191508051906020019060200280838360005b83811015610e8f578082015181840152602081019050610e74565b505050509050019250505060405180910390a2505050565b60035481565b60065481565b610ebb611f3c565b610f2d576040517f08c379a00000000000000000000000000000000000000000000000000000000081526004018080602001828103825260208152602001807f4f776e61626c653a2063616c6c6572206973206e6f7420746865206f776e657281525060200191505060405180910390fd5b600c60029054906101000a900460ff168015610f4e57506006546007540142105b610fc0576040517f08c379a00000000000000000000000000000000000000000000000000000000081526004018080602001828103825260148152602001807f504f4f4c3a20506f6f6c20697320636c6f73656400000000000000000000000081525060200191505060405180910390fd5b6000610fca611ffc565b600b81905550610fd8611ee1565b600a81905550600073ffffffffffffffffffffffffffffffffffffffff168173ffffffffffffffffffffffffffffffffffffffff16146110a55761101b81610993565b600f60008373ffffffffffffffffffffffffffffffffffffffff1673ffffffffffffffffffffffffffffffffffffffff16815260200190815260200160002081905550600b54600e60008373ffffffffffffffffffffffffffffffffffffffff1673ffffffffffffffffffffffffffffffffffffffff168152602001908152602001600020819055505b6000600560009054906101000a900473ffffffffffffffffffffffffffffffffffffffff1673ffffffffffffffffffffffffffffffffffffffff166370a08231306040518263ffffffff1660e01b8152600401808273ffffffffffffffffffffffffffffffffffffffff1673ffffffffffffffffffffffffffffffffffffffff16815260200191505060206040518083038186803b15801561114657600080fd5b505afa15801561115a573d6000803e3d6000fd5b505050506040513d602081101561117057600080fd5b81019080805190602001909291905050509050600560009054906101000a900473ffffffffffffffffffffffffffffffffffffffff1673ffffffffffffffffffffffffffffffffffffffff166323b872dd3330866040518463ffffffff1660e01b8152600401808473ffffffffffffffffffffffffffffffffffffffff1673ffffffffffffffffffffffffffffffffffffffff1681526020018373ffffffffffffffffffffffffffffffffffffffff1673ffffffffffffffffffffffffffffffffffffffff1681526020018281526020019350505050602060405180830381600087803b15801561126057600080fd5b505af1158015611274573d6000803e3d6000fd5b505050506040513d602081101561128a57600080fd5b8101908080519060200190929190505050506000600560009054906101000a900473ffffffffffffffffffffffffffffffffffffffff1673ffffffffffffffffffffffffffffffffffffffff166370a08231306040518263ffffffff1660e01b8152600401808273ffffffffffffffffffffffffffffffffffffffff1673ffffffffffffffffffffffffffffffffffffffff16815260200191505060206040518083038186803b15801561133d57600080fd5b505afa158015611351573d6000803e3d6000fd5b505050506040513d602081101561136757600080fd5b8101908080519060200190929190505050905061138d82826124a590919063ffffffff16565b93506007544211156114b05760085442106114445760006113e060016113d26006546113c4600754426124a590919063ffffffff16565b61257590919063ffffffff16565b6125bf90919063ffffffff16565b905061140b6113fa600654836124ef90919063ffffffff16565b6007546125bf90919063ffffffff16565b600881905550611438611429426008546124a590919063ffffffff16565b8661257590919063ffffffff16565b600981905550506114a4565b600061145b426008546124a590919063ffffffff16565b90506000611474600954836124ef90919063ffffffff16565b905061149b8261148d83896125bf90919063ffffffff16565b61257590919063ffffffff16565b60098190555050505b42600a819055506115e3565b6000600560009054906101000a900473ffffffffffffffffffffffffffffffffffffffff1673ffffffffffffffffffffffffffffffffffffffff166370a08231306040518263ffffffff1660e01b8152600401808273ffffffffffffffffffffffffffffffffffffffff1673ffffffffffffffffffffffffffffffffffffffff16815260200191505060206040518083038186803b15801561155157600080fd5b505afa158015611565573d6000803e3d6000fd5b505050506040513d602081101561157b57600080fd5b810190808051906020019092919050505090506115b56006546115a783886125bf90919063ffffffff16565b61257590919063ffffffff16565b6009819055506115d26006546007546125bf90919063ffffffff16565b600881905550600754600a81905550505b7fde88a922e0d3b88b24e9623efeb464919c6bf9f66857a65e2bfcf2ce87a9433d846040518082815260200191505060405180910390a161162261298c565b5050505050565b60075442116116a0576040517f08c379a000000000000000000000000000000000000000000000000000000000815260040180806020018281038252600f8152602001807f504f4f4c3a204e6f74207374617274000000000000000000000000000000000081525060200191505060405180910390fd5b600c60009054906101000a900460ff166116bb5760016116c5565b6006546007540142115b611737576040517f08c379a000000000000000000000000000000000000000000000000000000000815260040180806020018281038252601e8152602001807f5468697320706f6f6c206c6f636b656420756e74696c2074686520656e64000081525060200191505060405180910390fd5b33611740611ffc565b600b8190555061174e611ee1565b600a81905550600073ffffffffffffffffffffffffffffffffffffffff168173ffffffffffffffffffffffffffffffffffffffff161461181b5761179181610993565b600f60008373ffffffffffffffffffffffffffffffffffffffff1673ffffffffffffffffffffffffffffffffffffffff16815260200190815260200160002081905550600b54600e60008373ffffffffffffffffffffffffffffffffffffffff1673ffffffffffffffffffffffffffffffffffffffff168152602001908152602001600020819055505b600061182633610993565b90506000811115611986576000600f60003373ffffffffffffffffffffffffffffffffffffffff1673ffffffffffffffffffffffffffffffffffffffff16815260200190815260200160002081905550600560009054906101000a900473ffffffffffffffffffffffffffffffffffffffff1673ffffffffffffffffffffffffffffffffffffffff1663423f6cef33836040518363ffffffff1660e01b8152600401808373ffffffffffffffffffffffffffffffffffffffff1673ffffffffffffffffffffffffffffffffffffffff16815260200182815260200192505050600060405180830381600087803b15801561191f57600080fd5b505af1158015611933573d6000803e3d6000fd5b505050503373ffffffffffffffffffffffffffffffffffffffff167fe2403640ba68fed3a2f88b7557551d1993f84b99bb10ff833f0cf8db0c5e0486826040518082815260200191505060405180910390a25b5050565b6000600c60029054906101000a900460ff16905090565b600c60019054906101000a900460ff1681565b6119bc611f3c565b611a2e576040517f08c379a00000000000000000000000000000000000000000000000000000000081526004018080602001828103825260208152602001807f4f776e61626c653a2063616c6c6572206973206e6f7420746865206f776e657281525060200191505060405180910390fd5b80600c60026101000a81548160ff0219169083151502179055507f294847065aeb5e8e788661acfc7dbcb26c7f0454406268fce96109d7136928af81604051808215151515815260200191505060405180910390a150565b60046020528060005260406000206000915090505481565b611aa6611f3c565b611b18576040517f08c379a00000000000000000000000000000000000000000000000000000000081526004018080602001828103825260208152602001807f4f776e61626c653a2063616c6c6572206973206e6f7420746865206f776e657281525060200191505060405180910390fd5b600073ffffffffffffffffffffffffffffffffffffffff166000809054906101000a900473ffffffffffffffffffffffffffffffffffffffff1673ffffffffffffffffffffffffffffffffffffffff167f8be0079c531659141344cd1fd0a4f28419497f9722a3daafe3b4186f6b6457e060405160405180910390a360008060006101000a81548173ffffffffffffffffffffffffffffffffffffffff021916908373ffffffffffffffffffffffffffffffffffffffff160217905550565b600260009054906101000a900473ffffffffffffffffffffffffffffffffffffffff1681565b611c05611f3c565b611c77576040517f08c379a00000000000000000000000000000000000000000000000000000000081526004018080602001828103825260208152602001807f4f776e61626c653a2063616c6c6572206973206e6f7420746865206f776e657281525060200191505060405180910390fd5b6000600d60008373ffffffffffffffffffffffffffffffffffffffff1673ffffffffffffffffffffffffffffffffffffffff16815260200190815260200160002060006101000a81548160ff02191690831515021790555050565b60075481565b60095481565b611ce6611f3c565b611d58576040517f08c379a00000000000000000000000000000000000000000000000000000000081526004018080602001828103825260208152602001807f4f776e61626c653a2063616c6c6572206973206e6f7420746865206f776e657281525060200191505060405180910390fd5b60008111611dce576040517f08c379a00000000000000000000000000000000000000000000000000000000081526004018080602001828103825260178152602001807f504f4f4c3a2043616e6e6f74207769746864726177203000000000000000000081525060200191505060405180910390fd5b600560009054906101000a900473ffffffffffffffffffffffffffffffffffffffff1673ffffffffffffffffffffffffffffffffffffffff1663423f6cef83836040518363ffffffff1660e01b8152600401808373ffffffffffffffffffffffffffffffffffffffff1673ffffffffffffffffffffffffffffffffffffffff16815260200182815260200192505050600060405180830381600087803b158015611e7757600080fd5b505af1158015611e8b573d6000803e3d6000fd5b505050508173ffffffffffffffffffffffffffffffffffffffff167fbd1ea9966f82ccb966523d3922a6e4ad4bf3ea70e9201bd7a106de847cc5e616826040518082815260200191505060405180910390a25050565b60006008544211611ef25742611ef6565b6008545b905090565b600e6020528060005260406000206000915090505481565b60008060009054906101000a900473ffffffffffffffffffffffffffffffffffffffff16905090565b60008060009054906101000a900473ffffffffffffffffffffffffffffffffffffffff1673ffffffffffffffffffffffffffffffffffffffff163373ffffffffffffffffffffffffffffffffffffffff1614905090565b600d6020528060005260406000206000915054906101000a900460ff1681565b600c60009054906101000a900460ff1681565b600160009054906101000a900473ffffffffffffffffffffffffffffffffffffffff1681565b600a5481565b6000600854905090565b600080600354141561201257600b549050612087565b612084612073600354612065670de0b6b3a7640000612057600954612049600a5461203b611ee1565b6124a590919063ffffffff16565b6124ef90919063ffffffff16565b6124ef90919063ffffffff16565b61257590919063ffffffff16565b600b546125bf90919063ffffffff16565b90505b90565b600b5481565b600c60009054906101000a900460ff166120ab5760016120b5565b6006546007540142115b612127576040517f08c379a000000000000000000000000000000000000000000000000000000000815260040180806020018281038252601e8152602001807f5468697320706f6f6c206c6f636b656420756e74696c2074686520656e64000081525060200191505060405180910390fd5b33612130611ffc565b600b8190555061213e611ee1565b600a81905550600073ffffffffffffffffffffffffffffffffffffffff168173ffffffffffffffffffffffffffffffffffffffff161461220b5761218181610993565b600f60008373ffffffffffffffffffffffffffffffffffffffff1673ffffffffffffffffffffffffffffffffffffffff16815260200190815260200160002081905550600b54600e60008373ffffffffffffffffffffffffffffffffffffffff1673ffffffffffffffffffffffffffffffffffffffff168152602001908152602001600020819055505b6000825111612282576040517f08c379a00000000000000000000000000000000000000000000000000000000081526004018080602001828103825260148152602001807f504f4f4c3a2043616e6e6f74207374616b65203000000000000000000000000081525060200191505060405180910390fd5b61228b826129c4565b3373ffffffffffffffffffffffffffffffffffffffff167f80cc10bf7e52583ae0a17d8dd6ab5005573b17a08091a091af1a81205a675c91836040518080602001828103825283818151815260200191508051906020019060200280838360005b838110156123075780820151818401526020810190506122ec565b505050509050019250505060405180910390a25050565b60085481565b61232c611f3c565b61239e576040517f08c379a00000000000000000000000000000000000000000000000000000000081526004018080602001828103825260208152602001807f4f776e61626c653a2063616c6c6572206973206e6f7420746865206f776e657281525060200191505060405180910390fd5b6123a781612ddd565b50565b600560009054906101000a900473ffffffffffffffffffffffffffffffffffffffff1681565b6123d8611f3c565b61244a576040517f08c379a00000000000000000000000000000000000000000000000000000000081526004018080602001828103825260208152602001807f4f776e61626c653a2063616c6c6572206973206e6f7420746865206f776e657281525060200191505060405180910390fd5b6001600d60008373ffffffffffffffffffffffffffffffffffffffff1673ffffffffffffffffffffffffffffffffffffffff16815260200190815260200160002060006101000a81548160ff02191690831515021790555050565b60006124e783836040518060400160405280601e81526020017f536166654d6174683a207375627472616374696f6e206f766572666c6f770000815250612f21565b905092915050565b600080831415612502576000905061256f565b600082840290508284828161251357fe5b041461256a576040517f08c379a000000000000000000000000000000000000000000000000000000000815260040180806020018281038252602181526020018061323d6021913960400191505060405180910390fd5b809150505b92915050565b60006125b783836040518060400160405280601a81526020017f536166654d6174683a206469766973696f6e206279207a65726f000000000000815250612fe1565b905092915050565b60008082840190508381101561263d576040517f08c379a000000000000000000000000000000000000000000000000000000000815260040180806020018281038252601b8152602001807f536166654d6174683a206164646974696f6e206f766572666c6f77000000000081525060200191505060405180910390fd5b8091505092915050565b600a815111156126bf576040517f08c379a000000000000000000000000000000000000000000000000000000000815260040180806020018281038252601a8152602001807f746f6b656e73206d757374206265206174206c6561737420313000000000000081525060200191505060405180910390fd5b60008090505b815181101561298857600160009054906101000a900473ffffffffffffffffffffffffffffffffffffffff1673ffffffffffffffffffffffffffffffffffffffff166323b872dd333085858151811061271a57fe5b60200260200101516040518463ffffffff1660e01b8152600401808473ffffffffffffffffffffffffffffffffffffffff1673ffffffffffffffffffffffffffffffffffffffff1681526020018373ffffffffffffffffffffffffffffffffffffffff1673ffffffffffffffffffffffffffffffffffffffff1681526020018281526020019350505050600060405180830381600087803b1580156127be57600080fd5b505af11580156127d2573d6000803e3d6000fd5b5050505060006127f48383815181106127e757fe5b60200260200101516130a7565b905061284881600460003373ffffffffffffffffffffffffffffffffffffffff1673ffffffffffffffffffffffffffffffffffffffff168152602001908152602001600020546125bf90919063ffffffff16565b600460003373ffffffffffffffffffffffffffffffffffffffff1673ffffffffffffffffffffffffffffffffffffffff168152602001908152602001600020819055506128a0816003546125bf90919063ffffffff16565b600381905550600260009054906101000a900473ffffffffffffffffffffffffffffffffffffffff1673ffffffffffffffffffffffffffffffffffffffff166340c10f19338585815181106128f157fe5b60200260200101516040518363ffffffff1660e01b8152600401808373ffffffffffffffffffffffffffffffffffffffff1673ffffffffffffffffffffffffffffffffffffffff16815260200182815260200192505050600060405180830381600087803b15801561296257600080fd5b505af1158015612976573d6000803e3d6000fd5b505050505080806001019150506126c5565b5050565b60006129bf670de0b6b3a76400006129b16009546006546124ef90919063ffffffff16565b6124ef90919063ffffffff16565b905090565b601e81511115612a3c576040517f08c379a000000000000000000000000000000000000000000000000000000000815260040180806020018281038252601a8152602001807f746f6b656e73206d757374206265206174206c6561737420333000000000000081525060200191505060405180910390fd5b60008090505b8151811015612dd957600260009054906101000a900473ffffffffffffffffffffffffffffffffffffffff1673ffffffffffffffffffffffffffffffffffffffff166323b872dd3330858581518110612a9757fe5b60200260200101516040518463ffffffff1660e01b8152600401808473ffffffffffffffffffffffffffffffffffffffff1673ffffffffffffffffffffffffffffffffffffffff1681526020018373ffffffffffffffffffffffffffffffffffffffff1673ffffffffffffffffffffffffffffffffffffffff1681526020018281526020019350505050600060405180830381600087803b158015612b3b57600080fd5b505af1158015612b4f573d6000803e3d6000fd5b50505050600260009054906101000a900473ffffffffffffffffffffffffffffffffffffffff1673ffffffffffffffffffffffffffffffffffffffff166342966c68838381518110612b9d57fe5b60200260200101516040518263ffffffff1660e01b815260040180828152602001915050600060405180830381600087803b158015612bdb57600080fd5b505af1158015612bef573d6000803e3d6000fd5b505050506000612c11838381518110612c0457fe5b60200260200101516130a7565b9050612c6581600460003373ffffffffffffffffffffffffffffffffffffffff1673ffffffffffffffffffffffffffffffffffffffff168152602001908152602001600020546124a590919063ffffffff16565b600460003373ffffffffffffffffffffffffffffffffffffffff1673ffffffffffffffffffffffffffffffffffffffff16815260200190815260200160002081905550612cbd816003546124a590919063ffffffff16565b600381905550600160009054906101000a900473ffffffffffffffffffffffffffffffffffffffff1673ffffffffffffffffffffffffffffffffffffffff166323b872dd3033868681518110612d0f57fe5b60200260200101516040518463ffffffff1660e01b8152600401808473ffffffffffffffffffffffffffffffffffffffff1673ffffffffffffffffffffffffffffffffffffffff1681526020018373ffffffffffffffffffffffffffffffffffffffff1673ffffffffffffffffffffffffffffffffffffffff1681526020018281526020019350505050600060405180830381600087803b158015612db357600080fd5b505af1158015612dc7573d6000803e3d6000fd5b50505050508080600101915050612a42565b5050565b600073ffffffffffffffffffffffffffffffffffffffff168173ffffffffffffffffffffffffffffffffffffffff161415612e63576040517f08c379a00000000000000000000000000000000000000000000000000000000081526004018080602001828103825260268152602001806132176026913960400191505060405180910390fd5b8073ffffffffffffffffffffffffffffffffffffffff166000809054906101000a900473ffffffffffffffffffffffffffffffffffffffff1673ffffffffffffffffffffffffffffffffffffffff167f8be0079c531659141344cd1fd0a4f28419497f9722a3daafe3b4186f6b6457e060405160405180910390a3806000806101000a81548173ffffffffffffffffffffffffffffffffffffffff021916908373ffffffffffffffffffffffffffffffffffffffff16021790555050565b6000838311158290612fce576040517f08c379a00000000000000000000000000000000000000000000000000000000081526004018080602001828103825283818151815260200191508051906020019080838360005b83811015612f93578082015181840152602081019050612f78565b50505050905090810190601f168015612fc05780820380516001836020036101000a031916815260200191505b509250505060405180910390fd5b5060008385039050809150509392505050565b6000808311829061308d576040517f08c379a00000000000000000000000000000000000000000000000000000000081526004018080602001828103825283818151815260200191508051906020019080838360005b83811015613052578082015181840152602081019050613037565b50505050905090810190601f16801561307f5780820380516001836020036101000a031916815260200191505b509250505060405180910390fd5b50600083858161309957fe5b049050809150509392505050565b60006131046402540be4006130f667016345785d8a00006130e86130d96402540be4008861310b90919063ffffffff16565b876124a590919063ffffffff16565b61310b90919063ffffffff16565b61257590919063ffffffff16565b9050919050565b600061314d83836040518060400160405280601881526020017f536166654d6174683a206d6f64756c6f206279207a65726f0000000000000000815250613155565b905092915050565b6000808314158290613202576040517f08c379a00000000000000000000000000000000000000000000000000000000081526004018080602001828103825283818151815260200191508051906020019080838360005b838110156131c75780820151818401526020810190506131ac565b50505050905090810190601f1680156131f45780820380516001836020036101000a031916815260200191505b509250505060405180910390fd5b5082848161320c57fe5b069050939250505056fe4f776e61626c653a206e6577206f776e657220697320746865207a65726f2061646472657373536166654d6174683a206d756c7469706c69636174696f6e206f766572666c6f77a265627a7a7231582053d3ce2812199426d83a30b45db854ba42286c1ba188e601873e676d015d4d0264736f6c63430005100032",
  "source": "pragma solidity 0.5.16;\n\n// import \"openzeppelin-solidity/contracts/math/Math.sol\";\nimport \"../../math/SafeMath.sol\";\nimport \"../../ownership/Ownable.sol\";\n// import \"../../token/KIP17/IKIP17Receiver.sol\";\nimport \"../../token/KIP17/PoolIKIP17.sol\";\n// import \"../../token/KIP17/KIP17Token.sol\";\n// import \"../../token/KIP7/IKIP7Receiver.sol\";\nimport \"../../token/KIP7/IKIP7.sol\";\nimport \"./utils.sol\";\n\n\n/**\n * Staking Token Wrapper\n */\npragma solidity 0.5.16;\n\ncontract TokenWrapper is Ownable, utils {\n    using SafeMath for uint256;\n    uint256 constant version = 1e17;\n    uint256 constant price = 1e10;\n    uint256 constant n = 1e5;\n    uint256 constant m = 1e0;\n    PoolIKIP17 public TIME;\n    PoolIKIP17 public POOL;\n    \n\n    uint256 public totalSupply = 0;\n    mapping(address => uint256) public balanceOf;\n    \n    function stake(uint256[] memory tokenIds) public {\n        require(tokenIds.length <= 10, \"tokens must be at least 10\");\n        for (uint i = 0; i < tokenIds.length; i++){\n\n            TIME.transferFrom(msg.sender, address(this), tokenIds[i]);\n\n            uint256 _amount = getPrice(tokenIds[i]);\n            balanceOf[msg.sender] = balanceOf[msg.sender].add(_amount);\n            totalSupply = totalSupply.add(_amount);\n\n            POOL.mint(msg.sender, tokenIds[i]);\n        }\n    }\n\n    function unstake(uint256[] memory tokenIds) public {\n        require(tokenIds.length <= 30, \"tokens must be at least 30\");\n        for (uint i = 0; i < tokenIds.length; i++){\n            POOL.transferFrom(msg.sender, address(this), tokenIds[i]);\n            POOL.burn(tokenIds[i]);\n\n            uint256 _amount = getPrice(tokenIds[i]);\n            balanceOf[msg.sender] = balanceOf[msg.sender].sub(_amount);\n            totalSupply = totalSupply.sub(_amount);\n\n\n            TIME.transferFrom(address(this), msg.sender, tokenIds[i]);\n        }\n    }\n\n    function getPrice(uint256 tokenIds) internal returns (uint256){\n        return tokenIds.sub(tokenIds.mod(price)).mod(version).div(price);\n    }\n}\n\n/**\n *  Pool\n */\npragma solidity 0.5.16;\n\ncontract NFTPool is TokenWrapper {\n    using SafeMath for uint256;\n\n    IKIP7 public rewardToken;\n    uint256 public DURATION;\n    uint256 public startTime;\n    \n    uint256 public periodFinish = 0;\n    uint256 public rewardRate = 0;\n    uint256 public lastUpdateTime;\n    uint256 public rewardPerTokenStored = 0;\n    bool public isLocked = false;\n    bool public isWhitelisted = false;\n    bool private open = true;\n    uint256 private constant _gunit = 1e18;\n    mapping(address => bool) public whitelist;\n    mapping(address => uint256) public userRewardPerTokenPaid;\n    mapping(address => uint256) public rewards; // Unclaimed rewards\n\n    event RewardAdded(uint256 reward);\n    event Staked(address indexed user, uint256[] tokenIds);\n    event UnStaked(address indexed user, uint256[] tokenIds);\n    event WithdrawnRewards(address indexed user, uint256 amount);\n    event RewardPaid(address indexed user, uint256 reward);\n    event SetOpen(bool _open);\n\n    constructor(string memory name, bool _isLocked, bool _isWhitelisted, uint256 _startTime,uint256 _DURATION, address _TIME, address _POOL, address _rewardToken) public {\n        isLocked = _isLocked;\n        isWhitelisted = _isWhitelisted;\n        startTime = _startTime;\n        DURATION = _DURATION;\n        TIME = PoolIKIP17(_TIME); \n        POOL = PoolIKIP17(_POOL);\n        rewardToken = IKIP7(_rewardToken);\n    }\n\n    modifier updateReward(address account) {\n        rewardPerTokenStored = rewardPerToken();\n        lastUpdateTime = lastTimeRewardApplicable();\n        if (account != address(0)) {\n            rewards[account] = earned(account);\n            userRewardPerTokenPaid[account] = rewardPerTokenStored;\n        }\n        _;\n    }\n\n    modifier isLock(){\n        require( isLocked ? block.timestamp > startTime + DURATION:true, \"This pool locked until the end\");\n        _;\n    }\n\n    modifier isWhitelist(address account){\n        require(isWhitelisted?whitelist[account]:true, \"You are not whitelisted\");\n        _;\n    }\n\n    function addWhitelist(address account) public onlyOwner () {\n        whitelist[account] = true;\n    }\n\n    function removeWhitelist(address account) public onlyOwner () {\n        whitelist[account] = false;\n    }\n\n    function lastTimeRewardApplicable() public view returns (uint256) {\n        return block.timestamp > periodFinish ? periodFinish : block.timestamp;\n    }\n    /**\n     * Calculate the rewards for each token\n     */\n    function rewardPerToken() public view returns (uint256) {\n        if (totalSupply == 0) {\n            return rewardPerTokenStored;\n        }\n        return\n            rewardPerTokenStored.add(\n                lastTimeRewardApplicable()\n                    .sub(lastUpdateTime)\n                    .mul(rewardRate)\n                    .mul(_gunit)\n                    .div(totalSupply)\n            );\n    }\n\n    function earned(address account) public view returns (uint256) {\n        return\n            balanceOf[account]\n                .mul(rewardPerToken().sub(userRewardPerTokenPaid[account]))\n                .div(_gunit)\n                .add(rewards[account]);\n    }\n\n    function stake(uint256[] memory tokenIds)\n        public\n        checkOpen\n        checkStart\n        isWhitelist(msg.sender)\n        updateReward(msg.sender)\n    {\n        require(tokenIds.length > 0, \"POOL: Cannot stake 0\");\n        super.stake(tokenIds);\n        emit Staked(msg.sender, tokenIds);\n    }\n\n    function unstake(uint256[] memory tokenIds)\n        public\n        isLock\n        updateReward(msg.sender)\n    {\n        require(tokenIds.length > 0, \"POOL: Cannot stake 0\");\n        super.unstake(tokenIds);\n        emit UnStaked(msg.sender, tokenIds);\n    }\n\n    function withdrawLeftRewards(address account, uint256 amount)\n        public\n        onlyOwner\n    {\n        require(amount > 0, \"POOL: Cannot withdraw 0\");\n        rewardToken.safeTransfer(account, amount);\n        emit WithdrawnRewards(account, amount);\n    }\n\n    function getReward() public checkStart isLock updateReward(msg.sender) {\n        uint256 reward = earned(msg.sender);\n        if (reward > 0) {\n            rewards[msg.sender] = 0;\n            rewardToken.safeTransfer(msg.sender, reward);\n            emit RewardPaid(msg.sender, reward);\n        }\n    }\n\n    modifier checkStart() {\n        require(block.timestamp > startTime, \"POOL: Not start\");\n        _;\n    }\n\n    modifier checkOpen() {\n        require(\n            open && block.timestamp < startTime + DURATION,\n            \"POOL: Pool is closed\"\n        );\n        _;\n    }\n    modifier checkClose() {\n        require(block.timestamp > startTime + DURATION, \"POOL: Pool is opened\");\n        _;\n    }\n    \n    function getPeriodFinish() public view returns (uint256) {\n        return periodFinish;\n    }\n\n    function isOpen() public view returns (bool) {\n        return open;\n    }\n\n    function setOpen(bool _open) public onlyOwner {\n        open = _open;\n        emit SetOpen(_open);\n    }\n\n    function notifyRewardAmount(uint256 reward)\n        public\n        onlyOwner\n        checkOpen\n        updateReward(address(0))\n    {\n        uint256 _before = rewardToken.balanceOf(address(this));\n        rewardToken.transferFrom(msg.sender, address(this), reward);\n        uint256 _after = rewardToken.balanceOf(address(this));\n        reward = _after.sub(_before);\n\n        if (block.timestamp > startTime) {\n            if (block.timestamp >= periodFinish) {\n                uint256 period = block\n                    .timestamp\n                    .sub(startTime)\n                    .div(DURATION)\n                    .add(1);\n                periodFinish = startTime.add(period.mul(DURATION));\n                rewardRate = reward.div(periodFinish.sub(block.timestamp));\n            } else {\n                uint256 remaining = periodFinish.sub(block.timestamp);\n                uint256 leftover = remaining.mul(rewardRate);\n                rewardRate = reward.add(leftover).div(remaining);\n            }\n            lastUpdateTime = block.timestamp;\n        } else {\n            uint256 b = rewardToken.balanceOf(address(this));\n            rewardRate = reward.add(b).div(DURATION);\n            periodFinish = startTime.add(DURATION);\n            lastUpdateTime = startTime;\n        }\n\n        emit RewardAdded(reward);\n\n        // avoid overflow to lock assets\n        _checkRewardRate();\n    }\n\n    function _checkRewardRate() internal view returns (uint256) {\n        return DURATION.mul(rewardRate).mul(_gunit);\n    }\n}",
  "sourcePath": "/Users/humblefirm/Github/contract/contracts/klayhub/pool/NFTPool.sol",
  "compiler": {
    "name": "solc",
    "version": "0.5.16+commit.9c3226ce.Emscripten.clang"
  },
  "schemaVersion": "3.4.3",
  "updatedAt": "2021-12-28T17:12:13.756Z",
  "devdoc": {
    "methods": {
      "isOwner()": {
        "details": "Returns true if the caller is the current owner."
      },
      "owner()": {
        "details": "Returns the address of the current owner."
      },
      "renounceOwnership()": {
        "details": "Leaves the contract without owner. It will not be possible to call `onlyOwner` functions anymore. Can only be called by the current owner.     * > Note: Renouncing ownership will leave the contract without an owner, thereby removing any functionality that is only available to the owner."
      },
      "transferOwnership(address)": {
        "details": "Transfers ownership of the contract to a new account (`newOwner`). Can only be called by the current owner."
      }
    }
  },
  "userdoc": {
    "methods": {
      "rewardPerToken()": {
        "notice": "Calculate the rewards for each token"
      }
    }
  }
}