{
  "contractName": "PoolKIP17Token",
  "abi": [
    {
      "inputs": [
        {
          "internalType": "string",
          "name": "name",
          "type": "string"
        },
        {
          "internalType": "string",
          "name": "symbol",
          "type": "string"
        }
      ],
      "payable": false,
      "stateMutability": "nonpayable",
      "type": "constructor"
    },
    {
      "anonymous": false,
      "inputs": [
        {
          "indexed": true,
          "internalType": "address",
          "name": "owner",
          "type": "address"
        },
        {
          "indexed": true,
          "internalType": "address",
          "name": "approved",
          "type": "address"
        },
        {
          "indexed": true,
          "internalType": "uint256",
          "name": "tokenId",
          "type": "uint256"
        }
      ],
      "name": "Approval",
      "type": "event"
    },
    {
      "anonymous": false,
      "inputs": [
        {
          "indexed": true,
          "internalType": "address",
          "name": "owner",
          "type": "address"
        },
        {
          "indexed": true,
          "internalType": "address",
          "name": "operator",
          "type": "address"
        },
        {
          "indexed": false,
          "internalType": "bool",
          "name": "approved",
          "type": "bool"
        }
      ],
      "name": "ApprovalForAll",
      "type": "event"
    },
    {
      "anonymous": false,
      "inputs": [
        {
          "indexed": true,
          "internalType": "address",
          "name": "account",
          "type": "address"
        }
      ],
      "name": "MinterAdded",
      "type": "event"
    },
    {
      "anonymous": false,
      "inputs": [
        {
          "indexed": true,
          "internalType": "address",
          "name": "account",
          "type": "address"
        }
      ],
      "name": "MinterRemoved",
      "type": "event"
    },
    {
      "anonymous": false,
      "inputs": [
        {
          "indexed": false,
          "internalType": "address",
          "name": "account",
          "type": "address"
        }
      ],
      "name": "Paused",
      "type": "event"
    },
    {
      "anonymous": false,
      "inputs": [
        {
          "indexed": true,
          "internalType": "address",
          "name": "account",
          "type": "address"
        }
      ],
      "name": "PauserAdded",
      "type": "event"
    },
    {
      "anonymous": false,
      "inputs": [
        {
          "indexed": true,
          "internalType": "address",
          "name": "account",
          "type": "address"
        }
      ],
      "name": "PauserRemoved",
      "type": "event"
    },
    {
      "anonymous": false,
      "inputs": [
        {
          "indexed": true,
          "internalType": "address",
          "name": "from",
          "type": "address"
        },
        {
          "indexed": true,
          "internalType": "address",
          "name": "to",
          "type": "address"
        },
        {
          "indexed": true,
          "internalType": "uint256",
          "name": "tokenId",
          "type": "uint256"
        }
      ],
      "name": "Transfer",
      "type": "event"
    },
    {
      "anonymous": false,
      "inputs": [
        {
          "indexed": false,
          "internalType": "address",
          "name": "account",
          "type": "address"
        }
      ],
      "name": "Unpaused",
      "type": "event"
    },
    {
      "constant": false,
      "inputs": [
        {
          "internalType": "address",
          "name": "account",
          "type": "address"
        }
      ],
      "name": "addMinter",
      "outputs": [],
      "payable": false,
      "stateMutability": "nonpayable",
      "type": "function"
    },
    {
      "constant": false,
      "inputs": [
        {
          "internalType": "address",
          "name": "account",
          "type": "address"
        }
      ],
      "name": "addPauser",
      "outputs": [],
      "payable": false,
      "stateMutability": "nonpayable",
      "type": "function"
    },
    {
      "constant": false,
      "inputs": [
        {
          "internalType": "address",
          "name": "to",
          "type": "address"
        },
        {
          "internalType": "uint256",
          "name": "tokenId",
          "type": "uint256"
        }
      ],
      "name": "approve",
      "outputs": [],
      "payable": false,
      "stateMutability": "nonpayable",
      "type": "function"
    },
    {
      "constant": true,
      "inputs": [
        {
          "internalType": "address",
          "name": "owner",
          "type": "address"
        }
      ],
      "name": "balanceOf",
      "outputs": [
        {
          "internalType": "uint256",
          "name": "",
          "type": "uint256"
        }
      ],
      "payable": false,
      "stateMutability": "view",
      "type": "function"
    },
    {
      "constant": false,
      "inputs": [
        {
          "internalType": "uint256",
          "name": "tokenId",
          "type": "uint256"
        }
      ],
      "name": "burn",
      "outputs": [],
      "payable": false,
      "stateMutability": "nonpayable",
      "type": "function"
    },
    {
      "constant": true,
      "inputs": [
        {
          "internalType": "uint256",
          "name": "tokenId",
          "type": "uint256"
        }
      ],
      "name": "getApproved",
      "outputs": [
        {
          "internalType": "address",
          "name": "",
          "type": "address"
        }
      ],
      "payable": false,
      "stateMutability": "view",
      "type": "function"
    },
    {
      "constant": true,
      "inputs": [
        {
          "internalType": "address",
          "name": "owner",
          "type": "address"
        },
        {
          "internalType": "address",
          "name": "operator",
          "type": "address"
        }
      ],
      "name": "isApprovedForAll",
      "outputs": [
        {
          "internalType": "bool",
          "name": "",
          "type": "bool"
        }
      ],
      "payable": false,
      "stateMutability": "view",
      "type": "function"
    },
    {
      "constant": true,
      "inputs": [
        {
          "internalType": "address",
          "name": "account",
          "type": "address"
        }
      ],
      "name": "isMinter",
      "outputs": [
        {
          "internalType": "bool",
          "name": "",
          "type": "bool"
        }
      ],
      "payable": false,
      "stateMutability": "view",
      "type": "function"
    },
    {
      "constant": true,
      "inputs": [
        {
          "internalType": "address",
          "name": "account",
          "type": "address"
        }
      ],
      "name": "isPauser",
      "outputs": [
        {
          "internalType": "bool",
          "name": "",
          "type": "bool"
        }
      ],
      "payable": false,
      "stateMutability": "view",
      "type": "function"
    },
    {
      "constant": false,
      "inputs": [
        {
          "internalType": "address",
          "name": "to",
          "type": "address"
        },
        {
          "internalType": "uint256",
          "name": "tokenId",
          "type": "uint256"
        }
      ],
      "name": "mint",
      "outputs": [
        {
          "internalType": "bool",
          "name": "",
          "type": "bool"
        }
      ],
      "payable": false,
      "stateMutability": "nonpayable",
      "type": "function"
    },
    {
      "constant": false,
      "inputs": [
        {
          "internalType": "address",
          "name": "to",
          "type": "address"
        },
        {
          "internalType": "uint256",
          "name": "tokenId",
          "type": "uint256"
        },
        {
          "internalType": "string",
          "name": "tokenURI",
          "type": "string"
        }
      ],
      "name": "mintWithTokenURI",
      "outputs": [
        {
          "internalType": "bool",
          "name": "",
          "type": "bool"
        }
      ],
      "payable": false,
      "stateMutability": "nonpayable",
      "type": "function"
    },
    {
      "constant": true,
      "inputs": [],
      "name": "name",
      "outputs": [
        {
          "internalType": "string",
          "name": "",
          "type": "string"
        }
      ],
      "payable": false,
      "stateMutability": "view",
      "type": "function"
    },
    {
      "constant": true,
      "inputs": [
        {
          "internalType": "uint256",
          "name": "tokenId",
          "type": "uint256"
        }
      ],
      "name": "ownerOf",
      "outputs": [
        {
          "internalType": "address",
          "name": "",
          "type": "address"
        }
      ],
      "payable": false,
      "stateMutability": "view",
      "type": "function"
    },
    {
      "constant": false,
      "inputs": [],
      "name": "pause",
      "outputs": [],
      "payable": false,
      "stateMutability": "nonpayable",
      "type": "function"
    },
    {
      "constant": true,
      "inputs": [],
      "name": "paused",
      "outputs": [
        {
          "internalType": "bool",
          "name": "",
          "type": "bool"
        }
      ],
      "payable": false,
      "stateMutability": "view",
      "type": "function"
    },
    {
      "constant": false,
      "inputs": [],
      "name": "renounceMinter",
      "outputs": [],
      "payable": false,
      "stateMutability": "nonpayable",
      "type": "function"
    },
    {
      "constant": false,
      "inputs": [],
      "name": "renouncePauser",
      "outputs": [],
      "payable": false,
      "stateMutability": "nonpayable",
      "type": "function"
    },
    {
      "constant": false,
      "inputs": [
        {
          "internalType": "address",
          "name": "to",
          "type": "address"
        },
        {
          "internalType": "bool",
          "name": "approved",
          "type": "bool"
        }
      ],
      "name": "setApprovalForAll",
      "outputs": [],
      "payable": false,
      "stateMutability": "nonpayable",
      "type": "function"
    },
    {
      "constant": true,
      "inputs": [
        {
          "internalType": "bytes4",
          "name": "interfaceId",
          "type": "bytes4"
        }
      ],
      "name": "supportsInterface",
      "outputs": [
        {
          "internalType": "bool",
          "name": "",
          "type": "bool"
        }
      ],
      "payable": false,
      "stateMutability": "view",
      "type": "function"
    },
    {
      "constant": true,
      "inputs": [],
      "name": "symbol",
      "outputs": [
        {
          "internalType": "string",
          "name": "",
          "type": "string"
        }
      ],
      "payable": false,
      "stateMutability": "view",
      "type": "function"
    },
    {
      "constant": true,
      "inputs": [
        {
          "internalType": "uint256",
          "name": "index",
          "type": "uint256"
        }
      ],
      "name": "tokenByIndex",
      "outputs": [
        {
          "internalType": "uint256",
          "name": "",
          "type": "uint256"
        }
      ],
      "payable": false,
      "stateMutability": "view",
      "type": "function"
    },
    {
      "constant": true,
      "inputs": [
        {
          "internalType": "address",
          "name": "owner",
          "type": "address"
        },
        {
          "internalType": "uint256",
          "name": "index",
          "type": "uint256"
        }
      ],
      "name": "tokenOfOwnerByIndex",
      "outputs": [
        {
          "internalType": "uint256",
          "name": "",
          "type": "uint256"
        }
      ],
      "payable": false,
      "stateMutability": "view",
      "type": "function"
    },
    {
      "constant": true,
      "inputs": [
        {
          "internalType": "uint256",
          "name": "tokenId",
          "type": "uint256"
        }
      ],
      "name": "tokenURI",
      "outputs": [
        {
          "internalType": "string",
          "name": "",
          "type": "string"
        }
      ],
      "payable": false,
      "stateMutability": "view",
      "type": "function"
    },
    {
      "constant": true,
      "inputs": [],
      "name": "totalSupply",
      "outputs": [
        {
          "internalType": "uint256",
          "name": "",
          "type": "uint256"
        }
      ],
      "payable": false,
      "stateMutability": "view",
      "type": "function"
    },
    {
      "constant": false,
      "inputs": [],
      "name": "unpause",
      "outputs": [],
      "payable": false,
      "stateMutability": "nonpayable",
      "type": "function"
    },
    {
      "constant": false,
      "inputs": [
        {
          "internalType": "address",
          "name": "from",
          "type": "address"
        },
        {
          "internalType": "address",
          "name": "to",
          "type": "address"
        },
        {
          "internalType": "uint256",
          "name": "tokenId",
          "type": "uint256"
        }
      ],
      "name": "safeTransferFrom",
      "outputs": [],
      "payable": false,
      "stateMutability": "nonpayable",
      "type": "function"
    },
    {
      "constant": false,
      "inputs": [
        {
          "internalType": "address",
          "name": "from",
          "type": "address"
        },
        {
          "internalType": "address",
          "name": "to",
          "type": "address"
        },
        {
          "internalType": "uint256",
          "name": "tokenId",
          "type": "uint256"
        },
        {
          "internalType": "bytes",
          "name": "_data",
          "type": "bytes"
        }
      ],
      "name": "safeTransferFrom",
      "outputs": [],
      "payable": false,
      "stateMutability": "nonpayable",
      "type": "function"
    },
    {
      "constant": false,
      "inputs": [
        {
          "internalType": "address",
          "name": "from",
          "type": "address"
        },
        {
          "internalType": "address",
          "name": "to",
          "type": "address"
        },
        {
          "internalType": "uint256",
          "name": "tokenId",
          "type": "uint256"
        }
      ],
      "name": "transferFrom",
      "outputs": [],
      "payable": false,
      "stateMutability": "nonpayable",
      "type": "function"
    }
  ],
  "bytecode": "0x60806040523480156200001157600080fd5b5060405162003de338038062003de3833981810160405260408110156200003757600080fd5b81019080805160405193929190846401000000008211156200005857600080fd5b838201915060208201858111156200006f57600080fd5b82518660018202830111640100000000821117156200008d57600080fd5b8083526020830192505050908051906020019080838360005b83811015620000c3578082015181840152602081019050620000a6565b50505050905090810190601f168015620000f15780820380516001836020036101000a031916815260200191505b50604052602001805160405193929190846401000000008211156200011557600080fd5b838201915060208201858111156200012c57600080fd5b82518660018202830111640100000000821117156200014a57600080fd5b8083526020830192505050908051906020019080838360005b838110156200018057808201518184015260208101905062000163565b50505050905090810190601f168015620001ae5780820380516001836020036101000a031916815260200191505b5060405250505081818181620001d16301ffc9a760e01b620002f460201b60201c565b620001e96380ac58cd60e01b620002f460201b60201c565b6200020163780e9d6360e01b620002f460201b60201c565b81600990805190602001906200021992919062000683565b5080600a90805190602001906200023292919062000683565b506200024b635b5e139f60e01b620002f460201b60201c565b505050506200026033620003fd60201b60201c565b6200027863eab83e2060e01b620002f460201b60201c565b6200029063fac27f4660e01b620002f460201b60201c565b620002a86342966c6860e01b620002f460201b60201c565b620002b9336200045e60201b60201c565b6000600e60006101000a81548160ff021916908315150217905550620002ec634d5507ff60e01b620002f460201b60201c565b505062000732565b63ffffffff60e01b817bffffffffffffffffffffffffffffffffffffffffffffffffffffffff1916141562000391576040517f08c379a000000000000000000000000000000000000000000000000000000000815260040180806020018281038252601b8152602001807f4b495031333a20696e76616c696420696e74657266616365206964000000000081525060200191505060405180910390fd5b6001600080837bffffffffffffffffffffffffffffffffffffffffffffffffffffffff19167bffffffffffffffffffffffffffffffffffffffffffffffffffffffff1916815260200190815260200160002060006101000a81548160ff02191690831515021790555050565b6200041881600c620004bf60201b62002b6f1790919060201c565b8073ffffffffffffffffffffffffffffffffffffffff167f6ae172837ea30b801fbfcdd4108aa1d5bf8ff775444fd70256b44e6bf3dfc3f660405160405180910390a250565b6200047981600d620004bf60201b62002b6f1790919060201c565b8073ffffffffffffffffffffffffffffffffffffffff167f6719d08c1888103bea251a4ed56406bd0c3e69723c8a1686e017e7bbe159b6f860405160405180910390a250565b620004d18282620005a360201b60201c565b1562000545576040517f08c379a000000000000000000000000000000000000000000000000000000000815260040180806020018281038252601f8152602001807f526f6c65733a206163636f756e7420616c72656164792068617320726f6c650081525060200191505060405180910390fd5b60018260000160008373ffffffffffffffffffffffffffffffffffffffff1673ffffffffffffffffffffffffffffffffffffffff16815260200190815260200160002060006101000a81548160ff0219169083151502179055505050565b60008073ffffffffffffffffffffffffffffffffffffffff168273ffffffffffffffffffffffffffffffffffffffff1614156200062c576040517f08c379a000000000000000000000000000000000000000000000000000000000815260040180806020018281038252602281526020018062003dc16022913960400191505060405180910390fd5b8260000160008373ffffffffffffffffffffffffffffffffffffffff1673ffffffffffffffffffffffffffffffffffffffff16815260200190815260200160002060009054906101000a900460ff16905092915050565b828054600181600116156101000203166002900490600052602060002090601f016020900481019282601f10620006c657805160ff1916838001178555620006f7565b82800160010185558215620006f7579182015b82811115620006f6578251825591602001919060010190620006d9565b5b5090506200070691906200070a565b5090565b6200072f91905b808211156200072b57600081600090555060010162000711565b5090565b90565b61367f80620007426000396000f3fe608060405234801561001057600080fd5b50600436106101c45760003560e01c80635c975abb116100f9578063983b2d5611610097578063aa271e1a11610071578063aa271e1a14610963578063b88d4fde146109bf578063c87b56dd14610ac4578063e985e9c514610b6b576101c4565b8063983b2d56146108c55780639865027514610909578063a22cb46514610913576101c4565b806370a08231116100d357806370a082311461079c57806382dc1ec4146107f45780638456cb591461083857806395d89b4114610842576101c4565b80635c975abb146107025780636352211e146107245780636ef8d66d14610792576101c4565b80633f4ba83a1161016657806342966c681161014057806342966c681461053957806346fbf68e146105675780634f6ccce7146105c357806350bb4e7f14610605576101c4565b80633f4ba83a1461045b57806340c10f191461046557806342842e0e146104cb576101c4565b8063095ea7b3116101a2578063095ea7b31461031f57806318160ddd1461036d57806323b872dd1461038b5780632f745c59146103f9576101c4565b806301ffc9a7146101c957806306fdde031461022e578063081812fc146102b1575b600080fd5b610214600480360360208110156101df57600080fd5b8101908080357bffffffffffffffffffffffffffffffffffffffffffffffffffffffff19169060200190929190505050610be7565b604051808215151515815260200191505060405180910390f35b610236610c4e565b6040518080602001828103825283818151815260200191508051906020019080838360005b8381101561027657808201518184015260208101905061025b565b50505050905090810190601f1680156102a35780820380516001836020036101000a031916815260200191505b509250505060405180910390f35b6102dd600480360360208110156102c757600080fd5b8101908080359060200190929190505050610cf0565b604051808273ffffffffffffffffffffffffffffffffffffffff1673ffffffffffffffffffffffffffffffffffffffff16815260200191505060405180910390f35b61036b6004803603604081101561033557600080fd5b81019080803573ffffffffffffffffffffffffffffffffffffffff16906020019092919080359060200190929190505050610d8b565b005b610375610e1c565b6040518082815260200191505060405180910390f35b6103f7600480360360608110156103a157600080fd5b81019080803573ffffffffffffffffffffffffffffffffffffffff169060200190929190803573ffffffffffffffffffffffffffffffffffffffff16906020019092919080359060200190929190505050610e29565b005b6104456004803603604081101561040f57600080fd5b81019080803573ffffffffffffffffffffffffffffffffffffffff16906020019092919080359060200190929190505050610e2e565b6040518082815260200191505060405180910390f35b610463610eed565b005b6104b16004803603604081101561047b57600080fd5b81019080803573ffffffffffffffffffffffffffffffffffffffff1690602001909291908035906020019092919050505061104d565b604051808215151515815260200191505060405180910390f35b610537600480360360608110156104e157600080fd5b81019080803573ffffffffffffffffffffffffffffffffffffffff169060200190929190803573ffffffffffffffffffffffffffffffffffffffff169060200190929190803590602001909291905050506110c1565b005b6105656004803603602081101561054f57600080fd5b81019080803590602001909291905050506110c6565b005b6105a96004803603602081101561057d57600080fd5b81019080803573ffffffffffffffffffffffffffffffffffffffff169060200190929190505050611131565b604051808215151515815260200191505060405180910390f35b6105ef600480360360208110156105d957600080fd5b810190808035906020019092919050505061114e565b6040518082815260200191505060405180910390f35b6106e86004803603606081101561061b57600080fd5b81019080803573ffffffffffffffffffffffffffffffffffffffff169060200190929190803590602001909291908035906020019064010000000081111561066257600080fd5b82018360208201111561067457600080fd5b8035906020019184600183028401116401000000008311171561069657600080fd5b91908080601f016020809104026020016040519081016040528093929190818152602001838380828437600081840152601f19601f8201169050808301925050505050505091929192905050506111ce565b604051808215151515815260200191505060405180910390f35b61070a61124d565b604051808215151515815260200191505060405180910390f35b6107506004803603602081101561073a57600080fd5b8101908080359060200190929190505050611264565b604051808273ffffffffffffffffffffffffffffffffffffffff1673ffffffffffffffffffffffffffffffffffffffff16815260200191505060405180910390f35b61079a61132c565b005b6107de600480360360208110156107b257600080fd5b81019080803573ffffffffffffffffffffffffffffffffffffffff169060200190929190505050611337565b6040518082815260200191505060405180910390f35b6108366004803603602081101561080a57600080fd5b81019080803573ffffffffffffffffffffffffffffffffffffffff16906020019092919050505061140c565b005b610840611476565b005b61084a6115d7565b6040518080602001828103825283818151815260200191508051906020019080838360005b8381101561088a57808201518184015260208101905061086f565b50505050905090810190601f1680156108b75780820380516001836020036101000a031916815260200191505b509250505060405180910390f35b610907600480360360208110156108db57600080fd5b81019080803573ffffffffffffffffffffffffffffffffffffffff169060200190929190505050611679565b005b6109116116e3565b005b6109616004803603604081101561092957600080fd5b81019080803573ffffffffffffffffffffffffffffffffffffffff1690602001909291908035151590602001909291905050506116ee565b005b6109a56004803603602081101561097957600080fd5b81019080803573ffffffffffffffffffffffffffffffffffffffff16906020019092919050505061177f565b604051808215151515815260200191505060405180910390f35b610ac2600480360360808110156109d557600080fd5b81019080803573ffffffffffffffffffffffffffffffffffffffff169060200190929190803573ffffffffffffffffffffffffffffffffffffffff1690602001909291908035906020019092919080359060200190640100000000811115610a3c57600080fd5b820183602082011115610a4e57600080fd5b80359060200191846001830284011164010000000083111715610a7057600080fd5b91908080601f016020809104026020016040519081016040528093929190818152602001838380828437600081840152601f19601f82011690508083019250505050505050919291929050505061179c565b005b610af060048036036020811015610ada57600080fd5b810190808035906020019092919050505061180e565b6040518080602001828103825283818151815260200191508051906020019080838360005b83811015610b30578082015181840152602081019050610b15565b50505050905090810190601f168015610b5d5780820380516001836020036101000a031916815260200191505b509250505060405180910390f35b610bcd60048036036040811015610b8157600080fd5b81019080803573ffffffffffffffffffffffffffffffffffffffff169060200190929190803573ffffffffffffffffffffffffffffffffffffffff169060200190929190505050611921565b604051808215151515815260200191505060405180910390f35b6000806000837bffffffffffffffffffffffffffffffffffffffffffffffffffffffff19167bffffffffffffffffffffffffffffffffffffffffffffffffffffffff1916815260200190815260200160002060009054906101000a900460ff169050919050565b606060098054600181600116156101000203166002900480601f016020809104026020016040519081016040528092919081815260200182805460018160011615610100020316600290048015610ce65780601f10610cbb57610100808354040283529160200191610ce6565b820191906000526020600020905b815481529060010190602001808311610cc957829003601f168201915b5050505050905090565b6000610cfb826119b5565b610d50576040517f08c379a000000000000000000000000000000000000000000000000000000000815260040180806020018281038252602b8152602001806135be602b913960400191505060405180910390fd5b6002600083815260200190815260200160002060009054906101000a900473ffffffffffffffffffffffffffffffffffffffff169050919050565b600e60009054906101000a900460ff1615610e0e576040517f08c379a00000000000000000000000000000000000000000000000000000000081526004018080602001828103825260108152602001807f5061757361626c653a207061757365640000000000000000000000000000000081525060200191505060405180910390fd5b610e188282611a27565b5050565b6000600780549050905090565b505050565b6000610e3983611337565b8210610e90576040517f08c379a000000000000000000000000000000000000000000000000000000000815260040180806020018281038252602a8152602001806133f7602a913960400191505060405180910390fd5b600560008473ffffffffffffffffffffffffffffffffffffffff1673ffffffffffffffffffffffffffffffffffffffff1681526020019081526020016000208281548110610eda57fe5b9060005260206000200154905092915050565b610ef633611131565b610f4b576040517f08c379a00000000000000000000000000000000000000000000000000000000081526004018080602001828103825260308152602001806133c76030913960400191505060405180910390fd5b600e60009054906101000a900460ff16610fcd576040517f08c379a00000000000000000000000000000000000000000000000000000000081526004018080602001828103825260148152602001807f5061757361626c653a206e6f742070617573656400000000000000000000000081525060200191505060405180910390fd5b6000600e60006101000a81548160ff0219169083151502179055507f5db9ee0a495bf2e6ff9c91a7834c1ba4fdd244a5e8aa4e537bd38aeae4b073aa33604051808273ffffffffffffffffffffffffffffffffffffffff1673ffffffffffffffffffffffffffffffffffffffff16815260200191505060405180910390a1565b60006110583361177f565b6110ad576040517f08c379a00000000000000000000000000000000000000000000000000000000081526004018080602001828103825260308152602001806134216030913960400191505060405180910390fd5b6110b78383611c1d565b6001905092915050565b505050565b6110d03382611c3e565b611125576040517f08c379a000000000000000000000000000000000000000000000000000000000815260040180806020018281038252602f815260200180613517602f913960400191505060405180910390fd5b61112e81611d32565b50565b600061114782600d611d4790919063ffffffff16565b9050919050565b6000611158610e1c565b82106111af576040517f08c379a000000000000000000000000000000000000000000000000000000000815260040180806020018281038252602b81526020018061356f602b913960400191505060405180910390fd5b600782815481106111bc57fe5b90600052602060002001549050919050565b60006111d93361177f565b61122e576040517f08c379a00000000000000000000000000000000000000000000000000000000081526004018080602001828103825260308152602001806134216030913960400191505060405180910390fd5b6112388484611c1d565b6112428383611e25565b600190509392505050565b6000600e60009054906101000a900460ff16905090565b6000806001600084815260200190815260200160002060009054906101000a900473ffffffffffffffffffffffffffffffffffffffff169050600073ffffffffffffffffffffffffffffffffffffffff168173ffffffffffffffffffffffffffffffffffffffff161415611323576040517f08c379a00000000000000000000000000000000000000000000000000000000081526004018080602001828103825260288152602001806134726028913960400191505060405180910390fd5b80915050919050565b61133533611eaf565b565b60008073ffffffffffffffffffffffffffffffffffffffff168273ffffffffffffffffffffffffffffffffffffffff1614156113be576040517f08c379a00000000000000000000000000000000000000000000000000000000081526004018080602001828103825260298152602001806135466029913960400191505060405180910390fd5b611405600360008473ffffffffffffffffffffffffffffffffffffffff1673ffffffffffffffffffffffffffffffffffffffff168152602001908152602001600020611f09565b9050919050565b61141533611131565b61146a576040517f08c379a00000000000000000000000000000000000000000000000000000000081526004018080602001828103825260308152602001806133c76030913960400191505060405180910390fd5b61147381611f17565b50565b61147f33611131565b6114d4576040517f08c379a00000000000000000000000000000000000000000000000000000000081526004018080602001828103825260308152602001806133c76030913960400191505060405180910390fd5b600e60009054906101000a900460ff1615611557576040517f08c379a00000000000000000000000000000000000000000000000000000000081526004018080602001828103825260108152602001807f5061757361626c653a207061757365640000000000000000000000000000000081525060200191505060405180910390fd5b6001600e60006101000a81548160ff0219169083151502179055507f62e78cea01bee320cd4e420270b5ea74000d11b0c9f74754ebdbfc544b05a25833604051808273ffffffffffffffffffffffffffffffffffffffff1673ffffffffffffffffffffffffffffffffffffffff16815260200191505060405180910390a1565b6060600a8054600181600116156101000203166002900480601f01602080910402602001604051908101604052809291908181526020018280546001816001161561010002031660029004801561166f5780601f106116445761010080835404028352916020019161166f565b820191906000526020600020905b81548152906001019060200180831161165257829003601f168201915b5050505050905090565b6116823361177f565b6116d7576040517f08c379a00000000000000000000000000000000000000000000000000000000081526004018080602001828103825260308152602001806134216030913960400191505060405180910390fd5b6116e081611f71565b50565b6116ec33611fcb565b565b600e60009054906101000a900460ff1615611771576040517f08c379a00000000000000000000000000000000000000000000000000000000081526004018080602001828103825260108152602001807f5061757361626c653a207061757365640000000000000000000000000000000081525060200191505060405180910390fd5b61177b8282612025565b5050565b600061179582600c611d4790919063ffffffff16565b9050919050565b6117a7848484610e29565b6117b3848484846121c8565b611808576040517f08c379a00000000000000000000000000000000000000000000000000000000081526004018080602001828103825260308152602001806134e76030913960400191505060405180910390fd5b50505050565b6060611819826119b5565b61186e576040517f08c379a000000000000000000000000000000000000000000000000000000000815260040180806020018281038252602e815260200180613399602e913960400191505060405180910390fd5b600b60008381526020019081526020016000208054600181600116156101000203166002900480601f0160208091040260200160405190810160405280929190818152602001828054600181600116156101000203166002900480156119155780601f106118ea57610100808354040283529160200191611915565b820191906000526020600020905b8154815290600101906020018083116118f857829003601f168201915b50505050509050919050565b6000600460008473ffffffffffffffffffffffffffffffffffffffff1673ffffffffffffffffffffffffffffffffffffffff16815260200190815260200160002060008373ffffffffffffffffffffffffffffffffffffffff1673ffffffffffffffffffffffffffffffffffffffff16815260200190815260200160002060009054906101000a900460ff16905092915050565b6000806001600084815260200190815260200160002060009054906101000a900473ffffffffffffffffffffffffffffffffffffffff169050600073ffffffffffffffffffffffffffffffffffffffff168173ffffffffffffffffffffffffffffffffffffffff161415915050919050565b6000611a3282611264565b90508073ffffffffffffffffffffffffffffffffffffffff168373ffffffffffffffffffffffffffffffffffffffff161415611ad6576040517f08c379a00000000000000000000000000000000000000000000000000000000081526004018080602001828103825260208152602001807f4b495031373a20617070726f76616c20746f2063757272656e74206f776e657281525060200191505060405180910390fd5b8073ffffffffffffffffffffffffffffffffffffffff163373ffffffffffffffffffffffffffffffffffffffff161480611b165750611b158133611921565b5b611b6b576040517f08c379a00000000000000000000000000000000000000000000000000000000081526004018080602001828103825260378152602001806135e96037913960400191505060405180910390fd5b826002600084815260200190815260200160002060006101000a81548173ffffffffffffffffffffffffffffffffffffffff021916908373ffffffffffffffffffffffffffffffffffffffff160217905550818373ffffffffffffffffffffffffffffffffffffffff168273ffffffffffffffffffffffffffffffffffffffff167f8c5be1e5ebec7d5bd14f71427d1e84f3dd0314c0f7b2291e5b200ac8c7c3b92560405160405180910390a4505050565b611c27828261272a565b611c318282612942565b611c3a81612a09565b5050565b6000611c49826119b5565b611c9e576040517f08c379a000000000000000000000000000000000000000000000000000000000815260040180806020018281038252602b815260200180613620602b913960400191505060405180910390fd5b6000611ca983611264565b90508073ffffffffffffffffffffffffffffffffffffffff168473ffffffffffffffffffffffffffffffffffffffff161480611d1857508373ffffffffffffffffffffffffffffffffffffffff16611d0084610cf0565b73ffffffffffffffffffffffffffffffffffffffff16145b80611d295750611d288185611921565b5b91505092915050565b611d44611d3e82611264565b82612a55565b50565b60008073ffffffffffffffffffffffffffffffffffffffff168273ffffffffffffffffffffffffffffffffffffffff161415611dce576040517f08c379a00000000000000000000000000000000000000000000000000000000081526004018080602001828103825260228152602001806134c56022913960400191505060405180910390fd5b8260000160008373ffffffffffffffffffffffffffffffffffffffff1673ffffffffffffffffffffffffffffffffffffffff16815260200190815260200160002060009054906101000a900460ff16905092915050565b611e2e826119b5565b611e83576040517f08c379a000000000000000000000000000000000000000000000000000000000815260040180806020018281038252602b81526020018061349a602b913960400191505060405180910390fd5b80600b60008481526020019081526020016000209080519060200190611eaa92919061327f565b505050565b611ec381600d612ab290919063ffffffff16565b8073ffffffffffffffffffffffffffffffffffffffff167fcd265ebaf09df2871cc7bd4133404a235ba12eff2041bb89d9c714a2621c7c7e60405160405180910390a250565b600081600001549050919050565b611f2b81600d612b6f90919063ffffffff16565b8073ffffffffffffffffffffffffffffffffffffffff167f6719d08c1888103bea251a4ed56406bd0c3e69723c8a1686e017e7bbe159b6f860405160405180910390a250565b611f8581600c612b6f90919063ffffffff16565b8073ffffffffffffffffffffffffffffffffffffffff167f6ae172837ea30b801fbfcdd4108aa1d5bf8ff775444fd70256b44e6bf3dfc3f660405160405180910390a250565b611fdf81600c612ab290919063ffffffff16565b8073ffffffffffffffffffffffffffffffffffffffff167fe94479a9f7e1952cc78f2d6baab678adc1b772d936c6583def489e524cb6669260405160405180910390a250565b3373ffffffffffffffffffffffffffffffffffffffff168273ffffffffffffffffffffffffffffffffffffffff1614156120c7576040517f08c379a00000000000000000000000000000000000000000000000000000000081526004018080602001828103825260188152602001807f4b495031373a20617070726f766520746f2063616c6c6572000000000000000081525060200191505060405180910390fd5b80600460003373ffffffffffffffffffffffffffffffffffffffff1673ffffffffffffffffffffffffffffffffffffffff16815260200190815260200160002060008473ffffffffffffffffffffffffffffffffffffffff1673ffffffffffffffffffffffffffffffffffffffff16815260200190815260200160002060006101000a81548160ff0219169083151502179055508173ffffffffffffffffffffffffffffffffffffffff163373ffffffffffffffffffffffffffffffffffffffff167f17307eab39ab6107e8899845ad3d59bd9653f200f220920489ca2b5937696c3183604051808215151515815260200191505060405180910390a35050565b60008060606121ec8673ffffffffffffffffffffffffffffffffffffffff16612c4a565b6121fb57600192505050612722565b8573ffffffffffffffffffffffffffffffffffffffff1663150b7a0260e01b33898888604051602401808573ffffffffffffffffffffffffffffffffffffffff1673ffffffffffffffffffffffffffffffffffffffff1681526020018473ffffffffffffffffffffffffffffffffffffffff1673ffffffffffffffffffffffffffffffffffffffff16815260200183815260200180602001828103825283818151815260200191508051906020019080838360005b838110156122cb5780820151818401526020810190506122b0565b50505050905090810190601f1680156122f85780820380516001836020036101000a031916815260200191505b5095505050505050604051602081830303815290604052907bffffffffffffffffffffffffffffffffffffffffffffffffffffffff19166020820180517bffffffffffffffffffffffffffffffffffffffffffffffffffffffff83818316178352505050506040518082805190602001908083835b60208310612390578051825260208201915060208101905060208303925061236d565b6001836020036101000a0380198251168184511680821785525050505050509050019150506000604051808303816000865af19150503d80600081146123f2576040519150601f19603f3d011682016040523d82523d6000602084013e6123f7565b606091505b508092508193505050600081511415801561247b575063150b7a0260e01b7bffffffffffffffffffffffffffffffffffffffffffffffffffffffff191681806020019051602081101561244957600080fd5b81019080805190602001909291905050507bffffffffffffffffffffffffffffffffffffffffffffffffffffffff1916145b1561248b57600192505050612722565b8573ffffffffffffffffffffffffffffffffffffffff16636745782b60e01b33898888604051602401808573ffffffffffffffffffffffffffffffffffffffff1673ffffffffffffffffffffffffffffffffffffffff1681526020018473ffffffffffffffffffffffffffffffffffffffff1673ffffffffffffffffffffffffffffffffffffffff16815260200183815260200180602001828103825283818151815260200191508051906020019080838360005b8381101561255b578082015181840152602081019050612540565b50505050905090810190601f1680156125885780820380516001836020036101000a031916815260200191505b5095505050505050604051602081830303815290604052907bffffffffffffffffffffffffffffffffffffffffffffffffffffffff19166020820180517bffffffffffffffffffffffffffffffffffffffffffffffffffffffff83818316178352505050506040518082805190602001908083835b6020831061262057805182526020820191506020810190506020830392506125fd565b6001836020036101000a0380198251168184511680821785525050505050509050019150506000604051808303816000865af19150503d8060008114612682576040519150601f19603f3d011682016040523d82523d6000602084013e612687565b606091505b508092508193505050600081511415801561270b5750636745782b60e01b7bffffffffffffffffffffffffffffffffffffffffffffffffffffffff19168180602001905160208110156126d957600080fd5b81019080805190602001909291905050507bffffffffffffffffffffffffffffffffffffffffffffffffffffffff1916145b1561271b57600192505050612722565b6000925050505b949350505050565b600073ffffffffffffffffffffffffffffffffffffffff168273ffffffffffffffffffffffffffffffffffffffff1614156127cd576040517f08c379a000000000000000000000000000000000000000000000000000000000815260040180806020018281038252601f8152602001807f4b495031373a206d696e7420746f20746865207a65726f20616464726573730081525060200191505060405180910390fd5b6127d6816119b5565b15612849576040517f08c379a000000000000000000000000000000000000000000000000000000000815260040180806020018281038252601b8152602001807f4b495031373a20746f6b656e20616c7265616479206d696e746564000000000081525060200191505060405180910390fd5b816001600083815260200190815260200160002060006101000a81548173ffffffffffffffffffffffffffffffffffffffff021916908373ffffffffffffffffffffffffffffffffffffffff1602179055506128e2600360008473ffffffffffffffffffffffffffffffffffffffff1673ffffffffffffffffffffffffffffffffffffffff168152602001908152602001600020612c5d565b808273ffffffffffffffffffffffffffffffffffffffff16600073ffffffffffffffffffffffffffffffffffffffff167fddf252ad1be2c89b69c2b068fc378daa952ba7f163c4a11628f55a4df523b3ef60405160405180910390a45050565b600560008373ffffffffffffffffffffffffffffffffffffffff1673ffffffffffffffffffffffffffffffffffffffff168152602001908152602001600020805490506006600083815260200190815260200160002081905550600560008373ffffffffffffffffffffffffffffffffffffffff1673ffffffffffffffffffffffffffffffffffffffff1681526020019081526020016000208190806001815401808255809150509060018203906000526020600020016000909192909190915055505050565b6007805490506008600083815260200190815260200160002081905550600781908060018154018082558091505090600182039060005260206000200160009091929091909150555050565b612a5f8282612c73565b6000600b600083815260200190815260200160002080546001816001161561010002031660029004905014612aae57600b60008281526020019081526020016000206000612aad91906132ff565b5b5050565b612abc8282611d47565b612b11576040517f08c379a00000000000000000000000000000000000000000000000000000000081526004018080602001828103825260218152602001806134516021913960400191505060405180910390fd5b60008260000160008373ffffffffffffffffffffffffffffffffffffffff1673ffffffffffffffffffffffffffffffffffffffff16815260200190815260200160002060006101000a81548160ff0219169083151502179055505050565b612b798282611d47565b15612bec576040517f08c379a000000000000000000000000000000000000000000000000000000000815260040180806020018281038252601f8152602001807f526f6c65733a206163636f756e7420616c72656164792068617320726f6c650081525060200191505060405180910390fd5b60018260000160008373ffffffffffffffffffffffffffffffffffffffff1673ffffffffffffffffffffffffffffffffffffffff16815260200190815260200160002060006101000a81548160ff0219169083151502179055505050565b600080823b905060008111915050919050565b6001816000016000828254019250508190555050565b612c7d8282612cad565b612c878282612e3c565b60006006600083815260200190815260200160002081905550612ca981612fda565b5050565b8173ffffffffffffffffffffffffffffffffffffffff16612ccd82611264565b73ffffffffffffffffffffffffffffffffffffffff1614612d39576040517f08c379a000000000000000000000000000000000000000000000000000000000815260040180806020018281038252602481526020018061359a6024913960400191505060405180910390fd5b612d4281613094565b612d89600360008473ffffffffffffffffffffffffffffffffffffffff1673ffffffffffffffffffffffffffffffffffffffff168152602001908152602001600020613152565b60006001600083815260200190815260200160002060006101000a81548173ffffffffffffffffffffffffffffffffffffffff021916908373ffffffffffffffffffffffffffffffffffffffff16021790555080600073ffffffffffffffffffffffffffffffffffffffff168373ffffffffffffffffffffffffffffffffffffffff167fddf252ad1be2c89b69c2b068fc378daa952ba7f163c4a11628f55a4df523b3ef60405160405180910390a45050565b6000612e946001600560008673ffffffffffffffffffffffffffffffffffffffff1673ffffffffffffffffffffffffffffffffffffffff1681526020019081526020016000208054905061317590919063ffffffff16565b9050600060066000848152602001908152602001600020549050818114612f81576000600560008673ffffffffffffffffffffffffffffffffffffffff1673ffffffffffffffffffffffffffffffffffffffff1681526020019081526020016000208381548110612f0157fe5b9060005260206000200154905080600560008773ffffffffffffffffffffffffffffffffffffffff1673ffffffffffffffffffffffffffffffffffffffff1681526020019081526020016000208381548110612f5957fe5b9060005260206000200181905550816006600083815260200190815260200160002081905550505b600560008573ffffffffffffffffffffffffffffffffffffffff1673ffffffffffffffffffffffffffffffffffffffff168152602001908152602001600020805480919060019003612fd39190613347565b5050505050565b6000612ff5600160078054905061317590919063ffffffff16565b905060006008600084815260200190815260200160002054905060006007838154811061301e57fe5b90600052602060002001549050806007838154811061303957fe5b906000526020600020018190555081600860008381526020019081526020016000208190555060078054809190600190036130749190613347565b506000600860008681526020019081526020016000208190555050505050565b600073ffffffffffffffffffffffffffffffffffffffff166002600083815260200190815260200160002060009054906101000a900473ffffffffffffffffffffffffffffffffffffffff1673ffffffffffffffffffffffffffffffffffffffff161461314f5760006002600083815260200190815260200160002060006101000a81548173ffffffffffffffffffffffffffffffffffffffff021916908373ffffffffffffffffffffffffffffffffffffffff1602179055505b50565b61316a6001826000015461317590919063ffffffff16565b816000018190555050565b60006131b783836040518060400160405280601e81526020017f536166654d6174683a207375627472616374696f6e206f766572666c6f7700008152506131bf565b905092915050565b600083831115829061326c576040517f08c379a00000000000000000000000000000000000000000000000000000000081526004018080602001828103825283818151815260200191508051906020019080838360005b83811015613231578082015181840152602081019050613216565b50505050905090810190601f16801561325e5780820380516001836020036101000a031916815260200191505b509250505060405180910390fd5b5060008385039050809150509392505050565b828054600181600116156101000203166002900490600052602060002090601f016020900481019282601f106132c057805160ff19168380011785556132ee565b828001600101855582156132ee579182015b828111156132ed5782518255916020019190600101906132d2565b5b5090506132fb9190613373565b5090565b50805460018160011615610100020316600290046000825580601f106133255750613344565b601f0160209004906000526020600020908101906133439190613373565b5b50565b81548183558181111561336e5781836000526020600020918201910161336d9190613373565b5b505050565b61339591905b80821115613391576000816000905550600101613379565b5090565b9056fe4b495031374d657461646174613a2055524920717565727920666f72206e6f6e6578697374656e7420746f6b656e506175736572526f6c653a2063616c6c657220646f6573206e6f742068617665207468652050617573657220726f6c654b49503137456e756d657261626c653a206f776e657220696e646578206f7574206f6620626f756e64734d696e746572526f6c653a2063616c6c657220646f6573206e6f74206861766520746865204d696e74657220726f6c65526f6c65733a206163636f756e7420646f6573206e6f74206861766520726f6c654b495031373a206f776e657220717565727920666f72206e6f6e6578697374656e7420746f6b656e4b495031374d657461646174613a2055524920736574206f66206e6f6e6578697374656e7420746f6b656e526f6c65733a206163636f756e7420697320746865207a65726f20616464726573734b495031373a207472616e7366657220746f206e6f6e204b49503137526563656976657220696d706c656d656e7465724b495031374275726e61626c653a2063616c6c6572206973206e6f74206f776e6572206e6f7220617070726f7665644b495031373a2062616c616e636520717565727920666f7220746865207a65726f20616464726573734b49503137456e756d657261626c653a20676c6f62616c20696e646578206f7574206f6620626f756e64734b495031373a206275726e206f6620746f6b656e2074686174206973206e6f74206f776e4b495031373a20617070726f76656420717565727920666f72206e6f6e6578697374656e7420746f6b656e4b495031373a20617070726f76652063616c6c6572206973206e6f74206f776e6572206e6f7220617070726f76656420666f7220616c6c4b495031373a206f70657261746f7220717565727920666f72206e6f6e6578697374656e7420746f6b656ea265627a7a723158204b21640bd0152f929ec949f249cf0e91a3d307557c6b6b3728d40823ce24039564736f6c63430005100032526f6c65733a206163636f756e7420697320746865207a65726f2061646472657373",
  "source": "pragma solidity ^0.5.0;\n\nimport \"./KIP17Full.sol\";\nimport \"./KIP17MetadataMintable.sol\";\nimport \"./KIP17Mintable.sol\";\nimport \"./KIP17Burnable.sol\";\nimport \"./KIP17Pausable.sol\";\n\ncontract PoolKIP17Token is KIP17Full, KIP17Mintable, KIP17MetadataMintable, KIP17Burnable, KIP17Pausable {\n    constructor (string memory name, string memory symbol) public KIP17Full(name, symbol) {\n    }\n\n    function safeTransferFrom(address from, address to, uint256 tokenId) public {\n    }\n    function transferFrom(address from, address to, uint256 tokenId) public {\n    }\n}",
  "sourcePath": "/Users/humblefirm/Github/contract/contracts/token/KIP17/PoolKIP17Token.sol",
  "compiler": {
    "name": "solc",
    "version": "0.5.16+commit.9c3226ce.Emscripten.clang"
  },
  "schemaVersion": "3.4.3",
  "updatedAt": "2021-12-28T17:12:13.860Z",
  "devdoc": {
    "methods": {
      "balanceOf(address)": {
        "details": "Gets the balance of the specified address.",
        "params": {
          "owner": "address to query the balance of"
        },
        "return": "uint256 representing the amount owned by the passed address"
      },
      "burn(uint256)": {
        "details": "Burns a specific KIP17 token.",
        "params": {
          "tokenId": "uint256 id of the KIP17 token to be burned."
        }
      },
      "getApproved(uint256)": {
        "details": "Gets the approved address for a token ID, or zero if no address set Reverts if the token ID does not exist.",
        "params": {
          "tokenId": "uint256 ID of the token to query the approval of"
        },
        "return": "address currently approved for the given token ID"
      },
      "isApprovedForAll(address,address)": {
        "details": "Tells whether an operator is approved by a given owner.",
        "params": {
          "operator": "operator address which you want to query the approval of",
          "owner": "owner address which you want to query the approval of"
        },
        "return": "bool whether the given operator is approved by the given owner"
      },
      "mint(address,uint256)": {
        "details": "Function to mint tokens.",
        "params": {
          "to": "The address that will receive the minted tokens.",
          "tokenId": "The token id to mint."
        },
        "return": "A boolean that indicates if the operation was successful."
      },
      "mintWithTokenURI(address,uint256,string)": {
        "details": "Function to mint tokens.",
        "params": {
          "to": "The address that will receive the minted tokens.",
          "tokenId": "The token id to mint.",
          "tokenURI": "The token URI of the minted token."
        },
        "return": "A boolean that indicates if the operation was successful."
      },
      "name()": {
        "details": "Gets the token name.",
        "return": "string representing the token name"
      },
      "ownerOf(uint256)": {
        "details": "Gets the owner of the specified token ID.",
        "params": {
          "tokenId": "uint256 ID of the token to query the owner of"
        },
        "return": "address currently marked as the owner of the given token ID"
      },
      "pause()": {
        "details": "Called by a pauser to pause, triggers stopped state."
      },
      "paused()": {
        "details": "Returns true if the contract is paused, and false otherwise."
      },
      "safeTransferFrom(address,address,uint256,bytes)": {
        "details": "Safely transfers the ownership of a given token ID to another address If the target address is a contract, it must implement `onKIP17Received`, which is called upon a safe transfer, and return the magic value `bytes4(keccak256(\"onKIP17Received(address,address,uint256,bytes)\"))`; otherwise, the transfer is reverted. Requires the msg.sender to be the owner, approved, or operator",
        "params": {
          "_data": "bytes data to send along with a safe transfer check",
          "from": "current owner of the token",
          "to": "address to receive the ownership of the given token ID",
          "tokenId": "uint256 ID of the token to be transferred"
        }
      },
      "supportsInterface(bytes4)": {
        "details": "See `IKIP13.supportsInterface`.     * Time complexity O(1), guaranteed to always use less than 30 000 gas."
      },
      "symbol()": {
        "details": "Gets the token symbol.",
        "return": "string representing the token symbol"
      },
      "tokenByIndex(uint256)": {
        "details": "Gets the token ID at a given index of all the tokens in this contract Reverts if the index is greater or equal to the total number of tokens.",
        "params": {
          "index": "uint256 representing the index to be accessed of the tokens list"
        },
        "return": "uint256 token ID at the given index of the tokens list"
      },
      "tokenOfOwnerByIndex(address,uint256)": {
        "details": "Gets the token ID at a given index of the tokens list of the requested owner.",
        "params": {
          "index": "uint256 representing the index to be accessed of the requested tokens list",
          "owner": "address owning the tokens list to be accessed"
        },
        "return": "uint256 token ID at the given index of the tokens list owned by the requested address"
      },
      "tokenURI(uint256)": {
        "details": "Returns an URI for a given token ID. Throws if the token ID does not exist. May return an empty string.",
        "params": {
          "tokenId": "uint256 ID of the token to query"
        }
      },
      "totalSupply()": {
        "details": "Gets the total amount of tokens stored by the contract.",
        "return": "uint256 representing the total amount of tokens"
      },
      "unpause()": {
        "details": "Called by a pauser to unpause, returns to normal state."
      }
    }
  },
  "userdoc": {
    "methods": {}
  }
}