{
  "contractName": "PoolV2",
  "abi": [
    {
      "constant": true,
      "inputs": [
        {
          "name": "interfaceId",
          "type": "bytes4"
        }
      ],
      "name": "supportsInterface",
      "outputs": [
        {
          "name": "",
          "type": "bool"
        }
      ],
      "payable": false,
      "stateMutability": "view",
      "type": "function"
    },
    {
      "constant": true,
      "inputs": [],
      "name": "name",
      "outputs": [
        {
          "name": "",
          "type": "string"
        }
      ],
      "payable": false,
      "stateMutability": "view",
      "type": "function"
    },
    {
      "constant": true,
      "inputs": [
        {
          "name": "",
          "type": "address"
        }
      ],
      "name": "rewards",
      "outputs": [
        {
          "name": "",
          "type": "uint256"
        }
      ],
      "payable": false,
      "stateMutability": "view",
      "type": "function"
    },
    {
      "constant": true,
      "inputs": [
        {
          "name": "tokenId",
          "type": "uint256"
        }
      ],
      "name": "getApproved",
      "outputs": [
        {
          "name": "",
          "type": "address"
        }
      ],
      "payable": false,
      "stateMutability": "view",
      "type": "function"
    },
    {
      "constant": false,
      "inputs": [
        {
          "name": "to",
          "type": "address"
        },
        {
          "name": "tokenId",
          "type": "uint256"
        }
      ],
      "name": "approve",
      "outputs": [],
      "payable": false,
      "stateMutability": "nonpayable",
      "type": "function"
    },
    {
      "constant": true,
      "inputs": [],
      "name": "totalSupply",
      "outputs": [
        {
          "name": "",
          "type": "uint256"
        }
      ],
      "payable": false,
      "stateMutability": "view",
      "type": "function"
    },
    {
      "constant": true,
      "inputs": [],
      "name": "DURATION",
      "outputs": [
        {
          "name": "",
          "type": "uint256"
        }
      ],
      "payable": false,
      "stateMutability": "view",
      "type": "function"
    },
    {
      "constant": true,
      "inputs": [],
      "name": "totalValueStaked",
      "outputs": [
        {
          "name": "",
          "type": "uint256"
        }
      ],
      "payable": false,
      "stateMutability": "view",
      "type": "function"
    },
    {
      "constant": false,
      "inputs": [
        {
          "name": "from",
          "type": "address"
        },
        {
          "name": "to",
          "type": "address"
        },
        {
          "name": "tokenId",
          "type": "uint256"
        }
      ],
      "name": "transferFrom",
      "outputs": [],
      "payable": false,
      "stateMutability": "nonpayable",
      "type": "function"
    },
    {
      "constant": true,
      "inputs": [
        {
          "name": "owner",
          "type": "address"
        },
        {
          "name": "index",
          "type": "uint256"
        }
      ],
      "name": "tokenOfOwnerByIndex",
      "outputs": [
        {
          "name": "",
          "type": "uint256"
        }
      ],
      "payable": false,
      "stateMutability": "view",
      "type": "function"
    },
    {
      "constant": false,
      "inputs": [],
      "name": "unpause",
      "outputs": [],
      "payable": false,
      "stateMutability": "nonpayable",
      "type": "function"
    },
    {
      "constant": false,
      "inputs": [
        {
          "name": "to",
          "type": "address"
        },
        {
          "name": "tokenId",
          "type": "uint256"
        }
      ],
      "name": "mint",
      "outputs": [
        {
          "name": "",
          "type": "bool"
        }
      ],
      "payable": false,
      "stateMutability": "nonpayable",
      "type": "function"
    },
    {
      "constant": false,
      "inputs": [
        {
          "name": "from",
          "type": "address"
        },
        {
          "name": "to",
          "type": "address"
        },
        {
          "name": "tokenId",
          "type": "uint256"
        }
      ],
      "name": "safeTransferFrom",
      "outputs": [],
      "payable": false,
      "stateMutability": "nonpayable",
      "type": "function"
    },
    {
      "constant": false,
      "inputs": [
        {
          "name": "tokenId",
          "type": "uint256"
        }
      ],
      "name": "burn",
      "outputs": [],
      "payable": false,
      "stateMutability": "nonpayable",
      "type": "function"
    },
    {
      "constant": true,
      "inputs": [
        {
          "name": "account",
          "type": "address"
        }
      ],
      "name": "isPauser",
      "outputs": [
        {
          "name": "",
          "type": "bool"
        }
      ],
      "payable": false,
      "stateMutability": "view",
      "type": "function"
    },
    {
      "constant": true,
      "inputs": [
        {
          "name": "",
          "type": "address"
        }
      ],
      "name": "_balanceStake",
      "outputs": [
        {
          "name": "",
          "type": "uint256"
        }
      ],
      "payable": false,
      "stateMutability": "view",
      "type": "function"
    },
    {
      "constant": true,
      "inputs": [
        {
          "name": "index",
          "type": "uint256"
        }
      ],
      "name": "tokenByIndex",
      "outputs": [
        {
          "name": "",
          "type": "uint256"
        }
      ],
      "payable": false,
      "stateMutability": "view",
      "type": "function"
    },
    {
      "constant": false,
      "inputs": [
        {
          "name": "to",
          "type": "address"
        },
        {
          "name": "tokenId",
          "type": "uint256"
        },
        {
          "name": "tokenURI",
          "type": "string"
        }
      ],
      "name": "mintWithTokenURI",
      "outputs": [
        {
          "name": "",
          "type": "bool"
        }
      ],
      "payable": false,
      "stateMutability": "nonpayable",
      "type": "function"
    },
    {
      "constant": true,
      "inputs": [],
      "name": "paused",
      "outputs": [
        {
          "name": "",
          "type": "bool"
        }
      ],
      "payable": false,
      "stateMutability": "view",
      "type": "function"
    },
    {
      "constant": true,
      "inputs": [],
      "name": "isWhitelisted",
      "outputs": [
        {
          "name": "",
          "type": "bool"
        }
      ],
      "payable": false,
      "stateMutability": "view",
      "type": "function"
    },
    {
      "constant": true,
      "inputs": [
        {
          "name": "tokenId",
          "type": "uint256"
        }
      ],
      "name": "ownerOf",
      "outputs": [
        {
          "name": "",
          "type": "address"
        }
      ],
      "payable": false,
      "stateMutability": "view",
      "type": "function"
    },
    {
      "constant": false,
      "inputs": [],
      "name": "renouncePauser",
      "outputs": [],
      "payable": false,
      "stateMutability": "nonpayable",
      "type": "function"
    },
    {
      "constant": true,
      "inputs": [
        {
          "name": "owner",
          "type": "address"
        }
      ],
      "name": "balanceOf",
      "outputs": [
        {
          "name": "",
          "type": "uint256"
        }
      ],
      "payable": false,
      "stateMutability": "view",
      "type": "function"
    },
    {
      "constant": false,
      "inputs": [],
      "name": "renounceOwnership",
      "outputs": [],
      "payable": false,
      "stateMutability": "nonpayable",
      "type": "function"
    },
    {
      "constant": true,
      "inputs": [],
      "name": "startTime",
      "outputs": [
        {
          "name": "",
          "type": "uint256"
        }
      ],
      "payable": false,
      "stateMutability": "view",
      "type": "function"
    },
    {
      "constant": true,
      "inputs": [],
      "name": "rewardRate",
      "outputs": [
        {
          "name": "",
          "type": "uint256"
        }
      ],
      "payable": false,
      "stateMutability": "view",
      "type": "function"
    },
    {
      "constant": false,
      "inputs": [
        {
          "name": "account",
          "type": "address"
        }
      ],
      "name": "addPauser",
      "outputs": [],
      "payable": false,
      "stateMutability": "nonpayable",
      "type": "function"
    },
    {
      "constant": false,
      "inputs": [],
      "name": "pause",
      "outputs": [],
      "payable": false,
      "stateMutability": "nonpayable",
      "type": "function"
    },
    {
      "constant": true,
      "inputs": [
        {
          "name": "",
          "type": "address"
        }
      ],
      "name": "userRewardPerTokenPaid",
      "outputs": [
        {
          "name": "",
          "type": "uint256"
        }
      ],
      "payable": false,
      "stateMutability": "view",
      "type": "function"
    },
    {
      "constant": true,
      "inputs": [],
      "name": "owner",
      "outputs": [
        {
          "name": "",
          "type": "address"
        }
      ],
      "payable": false,
      "stateMutability": "view",
      "type": "function"
    },
    {
      "constant": true,
      "inputs": [],
      "name": "isOwner",
      "outputs": [
        {
          "name": "",
          "type": "bool"
        }
      ],
      "payable": false,
      "stateMutability": "view",
      "type": "function"
    },
    {
      "constant": true,
      "inputs": [],
      "name": "symbol",
      "outputs": [
        {
          "name": "",
          "type": "string"
        }
      ],
      "payable": false,
      "stateMutability": "view",
      "type": "function"
    },
    {
      "constant": false,
      "inputs": [
        {
          "name": "account",
          "type": "address"
        }
      ],
      "name": "addMinter",
      "outputs": [],
      "payable": false,
      "stateMutability": "nonpayable",
      "type": "function"
    },
    {
      "constant": false,
      "inputs": [],
      "name": "renounceMinter",
      "outputs": [],
      "payable": false,
      "stateMutability": "nonpayable",
      "type": "function"
    },
    {
      "constant": true,
      "inputs": [
        {
          "name": "",
          "type": "address"
        }
      ],
      "name": "whitelist",
      "outputs": [
        {
          "name": "",
          "type": "bool"
        }
      ],
      "payable": false,
      "stateMutability": "view",
      "type": "function"
    },
    {
      "constant": false,
      "inputs": [
        {
          "name": "to",
          "type": "address"
        },
        {
          "name": "approved",
          "type": "bool"
        }
      ],
      "name": "setApprovalForAll",
      "outputs": [],
      "payable": false,
      "stateMutability": "nonpayable",
      "type": "function"
    },
    {
      "constant": true,
      "inputs": [],
      "name": "isLocked",
      "outputs": [
        {
          "name": "",
          "type": "bool"
        }
      ],
      "payable": false,
      "stateMutability": "view",
      "type": "function"
    },
    {
      "constant": true,
      "inputs": [
        {
          "name": "account",
          "type": "address"
        }
      ],
      "name": "isMinter",
      "outputs": [
        {
          "name": "",
          "type": "bool"
        }
      ],
      "payable": false,
      "stateMutability": "view",
      "type": "function"
    },
    {
      "constant": false,
      "inputs": [
        {
          "name": "from",
          "type": "address"
        },
        {
          "name": "to",
          "type": "address"
        },
        {
          "name": "tokenId",
          "type": "uint256"
        },
        {
          "name": "_data",
          "type": "bytes"
        }
      ],
      "name": "safeTransferFrom",
      "outputs": [],
      "payable": false,
      "stateMutability": "nonpayable",
      "type": "function"
    },
    {
      "constant": true,
      "inputs": [],
      "name": "TIME",
      "outputs": [
        {
          "name": "",
          "type": "address"
        }
      ],
      "payable": false,
      "stateMutability": "view",
      "type": "function"
    },
    {
      "constant": true,
      "inputs": [
        {
          "name": "tokenId",
          "type": "uint256"
        }
      ],
      "name": "tokenURI",
      "outputs": [
        {
          "name": "",
          "type": "string"
        }
      ],
      "payable": false,
      "stateMutability": "view",
      "type": "function"
    },
    {
      "constant": true,
      "inputs": [],
      "name": "lastUpdateTime",
      "outputs": [
        {
          "name": "",
          "type": "uint256"
        }
      ],
      "payable": false,
      "stateMutability": "view",
      "type": "function"
    },
    {
      "constant": true,
      "inputs": [],
      "name": "rewardPerTokenStored",
      "outputs": [
        {
          "name": "",
          "type": "uint256"
        }
      ],
      "payable": false,
      "stateMutability": "view",
      "type": "function"
    },
    {
      "constant": false,
      "inputs": [
        {
          "name": "tokenIds",
          "type": "uint256"
        }
      ],
      "name": "getPrice",
      "outputs": [
        {
          "name": "",
          "type": "uint256"
        }
      ],
      "payable": false,
      "stateMutability": "nonpayable",
      "type": "function"
    },
    {
      "constant": true,
      "inputs": [
        {
          "name": "owner",
          "type": "address"
        },
        {
          "name": "operator",
          "type": "address"
        }
      ],
      "name": "isApprovedForAll",
      "outputs": [
        {
          "name": "",
          "type": "bool"
        }
      ],
      "payable": false,
      "stateMutability": "view",
      "type": "function"
    },
    {
      "constant": true,
      "inputs": [],
      "name": "periodFinish",
      "outputs": [
        {
          "name": "",
          "type": "uint256"
        }
      ],
      "payable": false,
      "stateMutability": "view",
      "type": "function"
    },
    {
      "constant": false,
      "inputs": [
        {
          "name": "newOwner",
          "type": "address"
        }
      ],
      "name": "transferOwnership",
      "outputs": [],
      "payable": false,
      "stateMutability": "nonpayable",
      "type": "function"
    },
    {
      "constant": true,
      "inputs": [],
      "name": "rewardToken",
      "outputs": [
        {
          "name": "",
          "type": "address"
        }
      ],
      "payable": false,
      "stateMutability": "view",
      "type": "function"
    },
    {
      "inputs": [
        {
          "name": "name",
          "type": "string"
        },
        {
          "name": "_isLocked",
          "type": "bool"
        },
        {
          "name": "_isWhitelisted",
          "type": "bool"
        },
        {
          "name": "_startTime",
          "type": "uint256"
        },
        {
          "name": "_DURATION",
          "type": "uint256"
        },
        {
          "name": "_TIME",
          "type": "address"
        },
        {
          "name": "_rewardToken",
          "type": "address"
        }
      ],
      "payable": false,
      "stateMutability": "nonpayable",
      "type": "constructor"
    },
    {
      "anonymous": false,
      "inputs": [
        {
          "indexed": false,
          "name": "reward",
          "type": "uint256"
        }
      ],
      "name": "RewardAdded",
      "type": "event"
    },
    {
      "anonymous": false,
      "inputs": [
        {
          "indexed": true,
          "name": "user",
          "type": "address"
        },
        {
          "indexed": false,
          "name": "tokenIds",
          "type": "uint256[]"
        }
      ],
      "name": "Staked",
      "type": "event"
    },
    {
      "anonymous": false,
      "inputs": [
        {
          "indexed": true,
          "name": "user",
          "type": "address"
        },
        {
          "indexed": false,
          "name": "tokenIds",
          "type": "uint256[]"
        }
      ],
      "name": "UnStaked",
      "type": "event"
    },
    {
      "anonymous": false,
      "inputs": [
        {
          "indexed": true,
          "name": "user",
          "type": "address"
        },
        {
          "indexed": false,
          "name": "amount",
          "type": "uint256"
        }
      ],
      "name": "WithdrawnRewards",
      "type": "event"
    },
    {
      "anonymous": false,
      "inputs": [
        {
          "indexed": true,
          "name": "user",
          "type": "address"
        },
        {
          "indexed": false,
          "name": "reward",
          "type": "uint256"
        }
      ],
      "name": "RewardPaid",
      "type": "event"
    },
    {
      "anonymous": false,
      "inputs": [
        {
          "indexed": false,
          "name": "_open",
          "type": "bool"
        }
      ],
      "name": "SetOpen",
      "type": "event"
    },
    {
      "anonymous": false,
      "inputs": [
        {
          "indexed": true,
          "name": "previousOwner",
          "type": "address"
        },
        {
          "indexed": true,
          "name": "newOwner",
          "type": "address"
        }
      ],
      "name": "OwnershipTransferred",
      "type": "event"
    },
    {
      "anonymous": false,
      "inputs": [
        {
          "indexed": false,
          "name": "account",
          "type": "address"
        }
      ],
      "name": "Paused",
      "type": "event"
    },
    {
      "anonymous": false,
      "inputs": [
        {
          "indexed": false,
          "name": "account",
          "type": "address"
        }
      ],
      "name": "Unpaused",
      "type": "event"
    },
    {
      "anonymous": false,
      "inputs": [
        {
          "indexed": true,
          "name": "account",
          "type": "address"
        }
      ],
      "name": "PauserAdded",
      "type": "event"
    },
    {
      "anonymous": false,
      "inputs": [
        {
          "indexed": true,
          "name": "account",
          "type": "address"
        }
      ],
      "name": "PauserRemoved",
      "type": "event"
    },
    {
      "anonymous": false,
      "inputs": [
        {
          "indexed": true,
          "name": "account",
          "type": "address"
        }
      ],
      "name": "MinterAdded",
      "type": "event"
    },
    {
      "anonymous": false,
      "inputs": [
        {
          "indexed": true,
          "name": "account",
          "type": "address"
        }
      ],
      "name": "MinterRemoved",
      "type": "event"
    },
    {
      "anonymous": false,
      "inputs": [
        {
          "indexed": true,
          "name": "from",
          "type": "address"
        },
        {
          "indexed": true,
          "name": "to",
          "type": "address"
        },
        {
          "indexed": true,
          "name": "tokenId",
          "type": "uint256"
        }
      ],
      "name": "Transfer",
      "type": "event"
    },
    {
      "anonymous": false,
      "inputs": [
        {
          "indexed": true,
          "name": "owner",
          "type": "address"
        },
        {
          "indexed": true,
          "name": "approved",
          "type": "address"
        },
        {
          "indexed": true,
          "name": "tokenId",
          "type": "uint256"
        }
      ],
      "name": "Approval",
      "type": "event"
    },
    {
      "anonymous": false,
      "inputs": [
        {
          "indexed": true,
          "name": "owner",
          "type": "address"
        },
        {
          "indexed": true,
          "name": "operator",
          "type": "address"
        },
        {
          "indexed": false,
          "name": "approved",
          "type": "bool"
        }
      ],
      "name": "ApprovalForAll",
      "type": "event"
    },
    {
      "constant": false,
      "inputs": [
        {
          "name": "account",
          "type": "address"
        }
      ],
      "name": "addWhitelist",
      "outputs": [],
      "payable": false,
      "stateMutability": "nonpayable",
      "type": "function"
    },
    {
      "constant": false,
      "inputs": [
        {
          "name": "account",
          "type": "address"
        }
      ],
      "name": "removeWhitelist",
      "outputs": [],
      "payable": false,
      "stateMutability": "nonpayable",
      "type": "function"
    },
    {
      "constant": true,
      "inputs": [],
      "name": "lastTimeRewardApplicable",
      "outputs": [
        {
          "name": "",
          "type": "uint256"
        }
      ],
      "payable": false,
      "stateMutability": "view",
      "type": "function"
    },
    {
      "constant": true,
      "inputs": [],
      "name": "rewardPerToken",
      "outputs": [
        {
          "name": "",
          "type": "uint256"
        }
      ],
      "payable": false,
      "stateMutability": "view",
      "type": "function"
    },
    {
      "constant": true,
      "inputs": [
        {
          "name": "account",
          "type": "address"
        }
      ],
      "name": "earned",
      "outputs": [
        {
          "name": "",
          "type": "uint256"
        }
      ],
      "payable": false,
      "stateMutability": "view",
      "type": "function"
    },
    {
      "constant": false,
      "inputs": [
        {
          "name": "tokenIds",
          "type": "uint256[]"
        }
      ],
      "name": "stake",
      "outputs": [],
      "payable": false,
      "stateMutability": "nonpayable",
      "type": "function"
    },
    {
      "constant": false,
      "inputs": [
        {
          "name": "tokenIds",
          "type": "uint256[]"
        }
      ],
      "name": "unstake",
      "outputs": [],
      "payable": false,
      "stateMutability": "nonpayable",
      "type": "function"
    },
    {
      "constant": false,
      "inputs": [
        {
          "name": "account",
          "type": "address"
        },
        {
          "name": "tokenIds",
          "type": "uint256[]"
        }
      ],
      "name": "withdrawAccount",
      "outputs": [],
      "payable": false,
      "stateMutability": "nonpayable",
      "type": "function"
    },
    {
      "constant": false,
      "inputs": [
        {
          "name": "account",
          "type": "address"
        },
        {
          "name": "amount",
          "type": "uint256"
        }
      ],
      "name": "withdrawLeftRewards",
      "outputs": [],
      "payable": false,
      "stateMutability": "nonpayable",
      "type": "function"
    },
    {
      "constant": false,
      "inputs": [],
      "name": "getReward",
      "outputs": [],
      "payable": false,
      "stateMutability": "nonpayable",
      "type": "function"
    },
    {
      "constant": true,
      "inputs": [],
      "name": "getPeriodFinish",
      "outputs": [
        {
          "name": "",
          "type": "uint256"
        }
      ],
      "payable": false,
      "stateMutability": "view",
      "type": "function"
    },
    {
      "constant": true,
      "inputs": [],
      "name": "isOpen",
      "outputs": [
        {
          "name": "",
          "type": "bool"
        }
      ],
      "payable": false,
      "stateMutability": "view",
      "type": "function"
    },
    {
      "constant": false,
      "inputs": [
        {
          "name": "_open",
          "type": "bool"
        }
      ],
      "name": "setOpen",
      "outputs": [],
      "payable": false,
      "stateMutability": "nonpayable",
      "type": "function"
    },
    {
      "constant": false,
      "inputs": [
        {
          "name": "reward",
          "type": "uint256"
        }
      ],
      "name": "notifyRewardAmount",
      "outputs": [],
      "payable": false,
      "stateMutability": "nonpayable",
      "type": "function"
    }
  ],
  "bytecode": "0x608060405260006010556000601555600060165560006018556000601960006101000a81548160ff0219169083151502179055506000601960016101000a81548160ff0219169083151502179055506001601960026101000a81548160ff0219169083151502179055503480156200007657600080fd5b5060405162007cb238038062007cb2833981018060405260e08110156200009c57600080fd5b810190808051640100000000811115620000b557600080fd5b82810190506020810184811115620000cc57600080fd5b8151856001820283011164010000000082111715620000ea57600080fd5b5050929190602001805190602001909291908051906020019092919080519060200190929190805190602001909291908051906020019092919080519060200190929190505050866040518060400160405280600881526020017f4855422d504f4f4c00000000000000000000000000000000000000000000000081525081818181620001846301ffc9a760e01b6200044360201b60201c565b6200019c6380ac58cd60e01b6200044360201b60201c565b620001b463780e9d6360e01b6200044360201b60201c565b8160099080519060200190620001cc92919062000bda565b5080600a9080519060200190620001e592919062000bda565b50620001fe635b5e139f60e01b6200044360201b60201c565b5050505062000213336200054c60201b60201c565b6200022b63eab83e2060e01b6200044360201b60201c565b6200024363fac27f4660e01b6200044360201b60201c565b6200025b6342966c6860e01b6200044360201b60201c565b6200026c33620005ad60201b60201c565b6000600e60006101000a81548160ff0219169083151502179055506200029f634d5507ff60e01b6200044360201b60201c565b505033600e60016101000a81548173ffffffffffffffffffffffffffffffffffffffff021916908373ffffffffffffffffffffffffffffffffffffffff160217905550600e60019054906101000a900473ffffffffffffffffffffffffffffffffffffffff1673ffffffffffffffffffffffffffffffffffffffff16600073ffffffffffffffffffffffffffffffffffffffff167f8be0079c531659141344cd1fd0a4f28419497f9722a3daafe3b4186f6b6457e060405160405180910390a385601960006101000a81548160ff02191690831515021790555084601960016101000a81548160ff021916908315150217905550836014819055508260138190555081600f60006101000a81548173ffffffffffffffffffffffffffffffffffffffff021916908373ffffffffffffffffffffffffffffffffffffffff16021790555080601260006101000a81548173ffffffffffffffffffffffffffffffffffffffff021916908373ffffffffffffffffffffffffffffffffffffffff160217905550620004363360006200060e60201b60201c565b5050505050505062000c89565b63ffffffff60e01b817bffffffffffffffffffffffffffffffffffffffffffffffffffffffff19161415620004e0576040517f08c379a000000000000000000000000000000000000000000000000000000000815260040180806020018281038252601b8152602001807f4b495031333a20696e76616c696420696e74657266616365206964000000000081525060200191505060405180910390fd5b6001600080837bffffffffffffffffffffffffffffffffffffffffffffffffffffffff19167bffffffffffffffffffffffffffffffffffffffffffffffffffffffff1916815260200190815260200160002060006101000a81548160ff02191690831515021790555050565b6200056781600c6200064c60201b6200621c1790919060201c565b8073ffffffffffffffffffffffffffffffffffffffff167f6ae172837ea30b801fbfcdd4108aa1d5bf8ff775444fd70256b44e6bf3dfc3f660405160405180910390a250565b620005c881600d6200064c60201b6200621c1790919060201c565b8073ffffffffffffffffffffffffffffffffffffffff167f6719d08c1888103bea251a4ed56406bd0c3e69723c8a1686e017e7bbe159b6f860405160405180910390a250565b6200062582826200073060201b62005dd71760201c565b6200063782826200095f60201b60201c565b620006488162000a2660201b60201c565b5050565b6200065e828262000a7260201b60201c565b15620006d2576040517f08c379a000000000000000000000000000000000000000000000000000000000815260040180806020018281038252601f8152602001807f526f6c65733a206163636f756e7420616c72656164792068617320726f6c650081525060200191505060405180910390fd5b60018260000160008373ffffffffffffffffffffffffffffffffffffffff1673ffffffffffffffffffffffffffffffffffffffff16815260200190815260200160002060006101000a81548160ff0219169083151502179055505050565b600073ffffffffffffffffffffffffffffffffffffffff168273ffffffffffffffffffffffffffffffffffffffff161415620007d4576040517f08c379a000000000000000000000000000000000000000000000000000000000815260040180806020018281038252601f8152602001807f4b495031373a206d696e7420746f20746865207a65726f20616464726573730081525060200191505060405180910390fd5b620007e58162000b5260201b60201c565b1562000859576040517f08c379a000000000000000000000000000000000000000000000000000000000815260040180806020018281038252601b8152602001807f4b495031373a20746f6b656e20616c7265616479206d696e746564000000000081525060200191505060405180910390fd5b816001600083815260200190815260200160002060006101000a81548173ffffffffffffffffffffffffffffffffffffffff021916908373ffffffffffffffffffffffffffffffffffffffff160217905550620008ff600360008473ffffffffffffffffffffffffffffffffffffffff1673ffffffffffffffffffffffffffffffffffffffff16815260200190815260200160002062000bc460201b620067c41760201c565b808273ffffffffffffffffffffffffffffffffffffffff16600073ffffffffffffffffffffffffffffffffffffffff167fddf252ad1be2c89b69c2b068fc378daa952ba7f163c4a11628f55a4df523b3ef60405160405180910390a45050565b600560008373ffffffffffffffffffffffffffffffffffffffff1673ffffffffffffffffffffffffffffffffffffffff168152602001908152602001600020805490506006600083815260200190815260200160002081905550600560008373ffffffffffffffffffffffffffffffffffffffff1673ffffffffffffffffffffffffffffffffffffffff1681526020019081526020016000208190806001815401808255809150509060018203906000526020600020016000909192909190915055505050565b6007805490506008600083815260200190815260200160002081905550600781908060018154018082558091505090600182039060005260206000200160009091929091909150555050565b60008073ffffffffffffffffffffffffffffffffffffffff168273ffffffffffffffffffffffffffffffffffffffff16141562000afb576040517f08c379a000000000000000000000000000000000000000000000000000000000815260040180806020018281038252602281526020018062007c906022913960400191505060405180910390fd5b8260000160008373ffffffffffffffffffffffffffffffffffffffff1673ffffffffffffffffffffffffffffffffffffffff16815260200190815260200160002060009054906101000a900460ff16905092915050565b6000806001600084815260200190815260200160002060009054906101000a900473ffffffffffffffffffffffffffffffffffffffff169050600073ffffffffffffffffffffffffffffffffffffffff168173ffffffffffffffffffffffffffffffffffffffff161415915050919050565b6001816000016000828254019250508190555050565b828054600181600116156101000203166002900490600052602060002090601f016020900481019282601f1062000c1d57805160ff191683800117855562000c4e565b8280016001018555821562000c4e579182015b8281111562000c4d57825182559160200191906001019062000c30565b5b50905062000c5d919062000c61565b5090565b62000c8691905b8082111562000c8257600081600090555060010162000c68565b5090565b90565b616ff78062000c996000396000f3fe608060405234801561001057600080fd5b50600436106103b95760003560e01c806378c8cda7116101f4578063a4e2d6341161011a578063df136d65116100ad578063ebe2b12b1161007c578063ebe2b12b14611550578063f2fde38b1461156e578063f7c618c1146115b2578063f80f5dd5146115fc576103b9565b8063df136d65146113bc578063e449f341146113da578063e757223014611492578063e985e9c5146114d4576103b9565b8063c87b56dd116100e9578063c87b56dd146112bb578063c8f33c9114611362578063cb17d14f14611380578063cd3daf9d1461139e576103b9565b8063a4e2d634146110ee578063aa271e1a14611110578063b88d4fde1461116c578063beae663714611271576103b9565b80638b87634711610192578063983b2d5611610161578063983b2d5614610ff457806398650275146110385780639b19251a14611042578063a22cb4651461109e576103b9565b80638b87634714610ead5780638da5cb5b14610f055780638f32d59b14610f4f57806395d89b4114610f71576103b9565b80637ce3dbe1116101ce5780637ce3dbe114610df357806380faa57d14610e4157806382dc1ec414610e5f5780638456cb5914610ea3576103b9565b806378c8cda714610d7357806378e9792514610db75780637b0a47ee14610dd5576103b9565b806340c10f19116102e45780635c975abb116102775780636ef8d66d116102465780636ef8d66d14610cd75780636fdca5e014610ce157806370a0823114610d11578063715018a614610d69576103b9565b80635c975abb14610b4d5780635e51202c14610b6f578063611b409514610c475780636352211e14610c69576103b9565b806347535d7b116102b357806347535d7b146109945780634bf19a2d146109b65780634f6ccce714610a0e57806350bb4e7f14610a50576103b9565b806340c10f191461083657806342842e0e1461089c57806342966c681461090a57806346fbf68e14610938576103b9565b806318160ddd1161035c5780632f745c591161032b5780632f745c59146107925780633c6b16ab146107f45780633d18b912146108225780633f4ba83a1461082c576103b9565b806318160ddd146106ca5780631be05289146106e85780631e0cd2d71461070657806323b872dd14610724576103b9565b80630700037d116103985780630700037d146104fe578063081812fc14610556578063095ea7b3146105c45780630fbf0a9314610612576103b9565b80628cc262146103be57806301ffc9a71461041657806306fdde031461047b575b600080fd5b610400600480360360208110156103d457600080fd5b81019080803573ffffffffffffffffffffffffffffffffffffffff169060200190929190505050611640565b6040518082815260200191505060405180910390f35b6104616004803603602081101561042c57600080fd5b8101908080357bffffffffffffffffffffffffffffffffffffffffffffffffffffffff19169060200190929190505050611727565b604051808215151515815260200191505060405180910390f35b61048361178e565b6040518080602001828103825283818151815260200191508051906020019080838360005b838110156104c35780820151818401526020810190506104a8565b50505050905090810190601f1680156104f05780820380516001836020036101000a031916815260200191505b509250505060405180910390f35b6105406004803603602081101561051457600080fd5b81019080803573ffffffffffffffffffffffffffffffffffffffff169060200190929190505050611830565b6040518082815260200191505060405180910390f35b6105826004803603602081101561056c57600080fd5b8101908080359060200190929190505050611848565b604051808273ffffffffffffffffffffffffffffffffffffffff1673ffffffffffffffffffffffffffffffffffffffff16815260200191505060405180910390f35b610610600480360360408110156105da57600080fd5b81019080803573ffffffffffffffffffffffffffffffffffffffff169060200190929190803590602001909291905050506118e3565b005b6106c86004803603602081101561062857600080fd5b810190808035906020019064010000000081111561064557600080fd5b82018360208201111561065757600080fd5b8035906020019184602083028401116401000000008311171561067957600080fd5b919080806020026020016040519081016040528093929190818152602001838360200280828437600081840152601f19601f820116905080830192505050505050509192919290505050611974565b005b6106d2611d52565b6040518082815260200191505060405180910390f35b6106f0611d5f565b6040518082815260200191505060405180910390f35b61070e611d65565b6040518082815260200191505060405180910390f35b6107906004803603606081101561073a57600080fd5b81019080803573ffffffffffffffffffffffffffffffffffffffff169060200190929190803573ffffffffffffffffffffffffffffffffffffffff16906020019092919080359060200190929190505050611d6b565b005b6107de600480360360408110156107a857600080fd5b81019080803573ffffffffffffffffffffffffffffffffffffffff16906020019092919080359060200190929190505050611dfe565b6040518082815260200191505060405180910390f35b6108206004803603602081101561080a57600080fd5b8101908080359060200190929190505050611ebd565b005b61082a61260f565b005b610834612970565b005b6108826004803603604081101561084c57600080fd5b81019080803573ffffffffffffffffffffffffffffffffffffffff16906020019092919080359060200190929190505050612ad0565b604051808215151515815260200191505060405180910390f35b610908600480360360608110156108b257600080fd5b81019080803573ffffffffffffffffffffffffffffffffffffffff169060200190929190803573ffffffffffffffffffffffffffffffffffffffff16906020019092919080359060200190929190505050612b44565b005b6109366004803603602081101561092057600080fd5b8101908080359060200190929190505050612b64565b005b61097a6004803603602081101561094e57600080fd5b81019080803573ffffffffffffffffffffffffffffffffffffffff169060200190929190505050612bcf565b604051808215151515815260200191505060405180910390f35b61099c612bec565b604051808215151515815260200191505060405180910390f35b6109f8600480360360208110156109cc57600080fd5b81019080803573ffffffffffffffffffffffffffffffffffffffff169060200190929190505050612c03565b6040518082815260200191505060405180910390f35b610a3a60048036036020811015610a2457600080fd5b8101908080359060200190929190505050612c1b565b6040518082815260200191505060405180910390f35b610b3360048036036060811015610a6657600080fd5b81019080803573ffffffffffffffffffffffffffffffffffffffff1690602001909291908035906020019092919080359060200190640100000000811115610aad57600080fd5b820183602082011115610abf57600080fd5b80359060200191846001830284011164010000000083111715610ae157600080fd5b91908080601f016020809104026020016040519081016040528093929190818152602001838380828437600081840152601f19601f820116905080830192505050505050509192919290505050612c9b565b604051808215151515815260200191505060405180910390f35b610b55612d1a565b604051808215151515815260200191505060405180910390f35b610c4560048036036040811015610b8557600080fd5b81019080803573ffffffffffffffffffffffffffffffffffffffff16906020019092919080359060200190640100000000811115610bc257600080fd5b820183602082011115610bd457600080fd5b80359060200191846020830284011164010000000083111715610bf657600080fd5b919080806020026020016040519081016040528093929190818152602001838360200280828437600081840152601f19601f820116905080830192505050505050509192919290505050612d31565b005b610c4f613187565b604051808215151515815260200191505060405180910390f35b610c9560048036036020811015610c7f57600080fd5b810190808035906020019092919050505061319a565b604051808273ffffffffffffffffffffffffffffffffffffffff1673ffffffffffffffffffffffffffffffffffffffff16815260200191505060405180910390f35b610cdf613262565b005b610d0f60048036036020811015610cf757600080fd5b8101908080351515906020019092919050505061326d565b005b610d5360048036036020811015610d2757600080fd5b81019080803573ffffffffffffffffffffffffffffffffffffffff16906020019092919050505061333f565b6040518082815260200191505060405180910390f35b610d71613414565b005b610db560048036036020811015610d8957600080fd5b81019080803573ffffffffffffffffffffffffffffffffffffffff16906020019092919050505061354f565b005b610dbf613624565b6040518082815260200191505060405180910390f35b610ddd61362a565b6040518082815260200191505060405180910390f35b610e3f60048036036040811015610e0957600080fd5b81019080803573ffffffffffffffffffffffffffffffffffffffff16906020019092919080359060200190929190505050613630565b005b610e49613833565b6040518082815260200191505060405180910390f35b610ea160048036036020811015610e7557600080fd5b81019080803573ffffffffffffffffffffffffffffffffffffffff169060200190929190505050613846565b005b610eab6138b0565b005b610eef60048036036020811015610ec357600080fd5b81019080803573ffffffffffffffffffffffffffffffffffffffff169060200190929190505050613a11565b6040518082815260200191505060405180910390f35b610f0d613a29565b604051808273ffffffffffffffffffffffffffffffffffffffff1673ffffffffffffffffffffffffffffffffffffffff16815260200191505060405180910390f35b610f57613a53565b604051808215151515815260200191505060405180910390f35b610f79613aab565b6040518080602001828103825283818151815260200191508051906020019080838360005b83811015610fb9578082015181840152602081019050610f9e565b50505050905090810190601f168015610fe65780820380516001836020036101000a031916815260200191505b509250505060405180910390f35b6110366004803603602081101561100a57600080fd5b81019080803573ffffffffffffffffffffffffffffffffffffffff169060200190929190505050613b4d565b005b611040613bb7565b005b6110846004803603602081101561105857600080fd5b81019080803573ffffffffffffffffffffffffffffffffffffffff169060200190929190505050613bc2565b604051808215151515815260200191505060405180910390f35b6110ec600480360360408110156110b457600080fd5b81019080803573ffffffffffffffffffffffffffffffffffffffff169060200190929190803515159060200190929190505050613be2565b005b6110f6613c73565b604051808215151515815260200191505060405180910390f35b6111526004803603602081101561112657600080fd5b81019080803573ffffffffffffffffffffffffffffffffffffffff169060200190929190505050613c86565b604051808215151515815260200191505060405180910390f35b61126f6004803603608081101561118257600080fd5b81019080803573ffffffffffffffffffffffffffffffffffffffff169060200190929190803573ffffffffffffffffffffffffffffffffffffffff16906020019092919080359060200190929190803590602001906401000000008111156111e957600080fd5b8201836020820111156111fb57600080fd5b8035906020019184600183028401116401000000008311171561121d57600080fd5b91908080601f016020809104026020016040519081016040528093929190818152602001838380828437600081840152601f19601f820116905080830192505050505050509192919290505050613ca3565b005b611279613d15565b604051808273ffffffffffffffffffffffffffffffffffffffff1673ffffffffffffffffffffffffffffffffffffffff16815260200191505060405180910390f35b6112e7600480360360208110156112d157600080fd5b8101908080359060200190929190505050613d3b565b6040518080602001828103825283818151815260200191508051906020019080838360005b8381101561132757808201518184015260208101905061130c565b50505050905090810190601f1680156113545780820380516001836020036101000a031916815260200191505b509250505060405180910390f35b61136a613e4e565b6040518082815260200191505060405180910390f35b611388613e54565b6040518082815260200191505060405180910390f35b6113a6613e5e565b6040518082815260200191505060405180910390f35b6113c4613ef6565b6040518082815260200191505060405180910390f35b611490600480360360208110156113f057600080fd5b810190808035906020019064010000000081111561140d57600080fd5b82018360208201111561141f57600080fd5b8035906020019184602083028401116401000000008311171561144157600080fd5b919080806020026020016040519081016040528093929190818152602001838360200280828437600081840152601f19601f820116905080830192505050505050509192919290505050613efc565b005b6114be600480360360208110156114a857600080fd5b810190808035906020019092919050505061418a565b6040518082815260200191505060405180910390f35b611536600480360360408110156114ea57600080fd5b81019080803573ffffffffffffffffffffffffffffffffffffffff169060200190929190803573ffffffffffffffffffffffffffffffffffffffff1690602001909291905050506141ee565b604051808215151515815260200191505060405180910390f35b611558614282565b6040518082815260200191505060405180910390f35b6115b06004803603602081101561158457600080fd5b81019080803573ffffffffffffffffffffffffffffffffffffffff169060200190929190505050614288565b005b6115ba61430e565b604051808273ffffffffffffffffffffffffffffffffffffffff1673ffffffffffffffffffffffffffffffffffffffff16815260200191505060405180910390f35b61163e6004803603602081101561161257600080fd5b81019080803573ffffffffffffffffffffffffffffffffffffffff169060200190929190505050614334565b005b6000611720601c60008473ffffffffffffffffffffffffffffffffffffffff1673ffffffffffffffffffffffffffffffffffffffff16815260200190815260200160002054611712670de0b6b3a76400006117046116ed601b60008973ffffffffffffffffffffffffffffffffffffffff1673ffffffffffffffffffffffffffffffffffffffff168152602001908152602001600020546116df613e5e565b61440990919063ffffffff16565b6116f68861333f565b61445390919063ffffffff16565b6144d990919063ffffffff16565b61452390919063ffffffff16565b9050919050565b6000806000837bffffffffffffffffffffffffffffffffffffffffffffffffffffffff19167bffffffffffffffffffffffffffffffffffffffffffffffffffffffff1916815260200190815260200160002060009054906101000a900460ff169050919050565b606060098054600181600116156101000203166002900480601f0160208091040260200160405190810160405280929190818152602001828054600181600116156101000203166002900480156118265780601f106117fb57610100808354040283529160200191611826565b820191906000526020600020905b81548152906001019060200180831161180957829003601f168201915b5050505050905090565b601c6020528060005260406000206000915090505481565b6000611853826145ab565b6118a8576040517f08c379a000000000000000000000000000000000000000000000000000000000815260040180806020018281038252602b815260200180616f3f602b913960400191505060405180910390fd5b6002600083815260200190815260200160002060009054906101000a900473ffffffffffffffffffffffffffffffffffffffff169050919050565b600e60009054906101000a900460ff1615611966576040517f08c379a00000000000000000000000000000000000000000000000000000000081526004018080602001828103825260108152602001807f5061757361626c653a207061757365640000000000000000000000000000000081525060200191505060405180910390fd5b611970828261461d565b5050565b601960029054906101000a900460ff16801561199557506013546014540142105b611a07576040517f08c379a00000000000000000000000000000000000000000000000000000000081526004018080602001828103825260148152602001807f504f4f4c3a20506f6f6c20697320636c6f73656400000000000000000000000081525060200191505060405180910390fd5b6014544211611a7e576040517f08c379a000000000000000000000000000000000000000000000000000000000815260040180806020018281038252600f8152602001807f504f4f4c3a204e6f74207374617274000000000000000000000000000000000081525060200191505060405180910390fd5b33601960019054906101000a900460ff16611a9a576001611ae8565b601a60008273ffffffffffffffffffffffffffffffffffffffff1673ffffffffffffffffffffffffffffffffffffffff16815260200190815260200160002060009054906101000a900460ff165b611b5a576040517f08c379a00000000000000000000000000000000000000000000000000000000081526004018080602001828103825260178152602001807f596f7520617265206e6f742077686974656c697374656400000000000000000081525060200191505060405180910390fd5b33611b63613e5e565b601881905550611b71613833565b601781905550600073ffffffffffffffffffffffffffffffffffffffff168173ffffffffffffffffffffffffffffffffffffffff1614611c3e57611bb481611640565b601c60008373ffffffffffffffffffffffffffffffffffffffff1673ffffffffffffffffffffffffffffffffffffffff16815260200190815260200160002081905550601854601b60008373ffffffffffffffffffffffffffffffffffffffff1673ffffffffffffffffffffffffffffffffffffffff168152602001908152602001600020819055505b6000835111611cb5576040517f08c379a00000000000000000000000000000000000000000000000000000000081526004018080602001828103825260148152602001807f504f4f4c3a2043616e6e6f74207374616b65203000000000000000000000000081525060200191505060405180910390fd5b611cbe83614813565b3373ffffffffffffffffffffffffffffffffffffffff167f134b166c6094cc1ccbf1e3353ce5c3cd9fd29869051bdb999895854d77cc5ef6846040518080602001828103825283818151815260200191508051906020019060200280838360005b83811015611d3a578082015181840152602081019050611d1f565b505050509050019250505060405180910390a2505050565b6000600780549050905090565b60135481565b60105481565b600e60009054906101000a900460ff1615611dee576040517f08c379a00000000000000000000000000000000000000000000000000000000081526004018080602001828103825260108152602001807f5061757361626c653a207061757365640000000000000000000000000000000081525060200191505060405180910390fd5b611df9838383614a29565b505050565b6000611e098361333f565b8210611e60576040517f08c379a000000000000000000000000000000000000000000000000000000000815260040180806020018281038252602a815260200180616cff602a913960400191505060405180910390fd5b600560008473ffffffffffffffffffffffffffffffffffffffff1673ffffffffffffffffffffffffffffffffffffffff1681526020019081526020016000208281548110611eaa57fe5b9060005260206000200154905092915050565b611ec5613a53565b611f37576040517f08c379a00000000000000000000000000000000000000000000000000000000081526004018080602001828103825260208152602001807f4f776e61626c653a2063616c6c6572206973206e6f7420746865206f776e657281525060200191505060405180910390fd5b601960029054906101000a900460ff168015611f5857506013546014540142105b611fca576040517f08c379a00000000000000000000000000000000000000000000000000000000081526004018080602001828103825260148152602001807f504f4f4c3a20506f6f6c20697320636c6f73656400000000000000000000000081525060200191505060405180910390fd5b6000611fd4613e5e565b601881905550611fe2613833565b601781905550600073ffffffffffffffffffffffffffffffffffffffff168173ffffffffffffffffffffffffffffffffffffffff16146120af5761202581611640565b601c60008373ffffffffffffffffffffffffffffffffffffffff1673ffffffffffffffffffffffffffffffffffffffff16815260200190815260200160002081905550601854601b60008373ffffffffffffffffffffffffffffffffffffffff1673ffffffffffffffffffffffffffffffffffffffff168152602001908152602001600020819055505b6000601260009054906101000a900473ffffffffffffffffffffffffffffffffffffffff1673ffffffffffffffffffffffffffffffffffffffff166370a08231306040518263ffffffff1660e01b8152600401808273ffffffffffffffffffffffffffffffffffffffff1673ffffffffffffffffffffffffffffffffffffffff16815260200191505060206040518083038186803b15801561215057600080fd5b505afa158015612164573d6000803e3d6000fd5b505050506040513d602081101561217a57600080fd5b81019080805190602001909291905050509050601260009054906101000a900473ffffffffffffffffffffffffffffffffffffffff1673ffffffffffffffffffffffffffffffffffffffff166342842e0e3330866040518463ffffffff1660e01b8152600401808473ffffffffffffffffffffffffffffffffffffffff1673ffffffffffffffffffffffffffffffffffffffff1681526020018373ffffffffffffffffffffffffffffffffffffffff1673ffffffffffffffffffffffffffffffffffffffff1681526020018281526020019350505050600060405180830381600087803b15801561226a57600080fd5b505af115801561227e573d6000803e3d6000fd5b505050506000601260009054906101000a900473ffffffffffffffffffffffffffffffffffffffff1673ffffffffffffffffffffffffffffffffffffffff166370a08231306040518263ffffffff1660e01b8152600401808273ffffffffffffffffffffffffffffffffffffffff1673ffffffffffffffffffffffffffffffffffffffff16815260200191505060206040518083038186803b15801561232357600080fd5b505afa158015612337573d6000803e3d6000fd5b505050506040513d602081101561234d57600080fd5b81019080805190602001909291905050509050612373828261440990919063ffffffff16565b935060145442111561249657601554421061242a5760006123c660016123b86013546123aa6014544261440990919063ffffffff16565b6144d990919063ffffffff16565b61452390919063ffffffff16565b90506123f16123e06013548361445390919063ffffffff16565b60145461452390919063ffffffff16565b60158190555061241e61240f4260155461440990919063ffffffff16565b866144d990919063ffffffff16565b6016819055505061248a565b60006124414260155461440990919063ffffffff16565b9050600061245a6016548361445390919063ffffffff16565b905061248182612473838961452390919063ffffffff16565b6144d990919063ffffffff16565b60168190555050505b426017819055506125c9565b6000601260009054906101000a900473ffffffffffffffffffffffffffffffffffffffff1673ffffffffffffffffffffffffffffffffffffffff166370a08231306040518263ffffffff1660e01b8152600401808273ffffffffffffffffffffffffffffffffffffffff1673ffffffffffffffffffffffffffffffffffffffff16815260200191505060206040518083038186803b15801561253757600080fd5b505afa15801561254b573d6000803e3d6000fd5b505050506040513d602081101561256157600080fd5b8101908080519060200190929190505050905061259b60135461258d838861452390919063ffffffff16565b6144d990919063ffffffff16565b6016819055506125b860135460145461452390919063ffffffff16565b601581905550601454601781905550505b7fde88a922e0d3b88b24e9623efeb464919c6bf9f66857a65e2bfcf2ce87a9433d846040518082815260200191505060405180910390a1612608614a98565b5050505050565b6014544211612686576040517f08c379a000000000000000000000000000000000000000000000000000000000815260040180806020018281038252600f8152602001807f504f4f4c3a204e6f74207374617274000000000000000000000000000000000081525060200191505060405180910390fd5b601960009054906101000a900460ff166126a15760016126ab565b6013546014540142115b61271d576040517f08c379a000000000000000000000000000000000000000000000000000000000815260040180806020018281038252601e8152602001807f5468697320706f6f6c206c6f636b656420756e74696c2074686520656e64000081525060200191505060405180910390fd5b33612726613e5e565b601881905550612734613833565b601781905550600073ffffffffffffffffffffffffffffffffffffffff168173ffffffffffffffffffffffffffffffffffffffff16146128015761277781611640565b601c60008373ffffffffffffffffffffffffffffffffffffffff1673ffffffffffffffffffffffffffffffffffffffff16815260200190815260200160002081905550601854601b60008373ffffffffffffffffffffffffffffffffffffffff1673ffffffffffffffffffffffffffffffffffffffff168152602001908152602001600020819055505b600061280c33611640565b9050600081111561296c576000601c60003373ffffffffffffffffffffffffffffffffffffffff1673ffffffffffffffffffffffffffffffffffffffff16815260200190815260200160002081905550601260009054906101000a900473ffffffffffffffffffffffffffffffffffffffff1673ffffffffffffffffffffffffffffffffffffffff1663423f6cef33836040518363ffffffff1660e01b8152600401808373ffffffffffffffffffffffffffffffffffffffff1673ffffffffffffffffffffffffffffffffffffffff16815260200182815260200192505050600060405180830381600087803b15801561290557600080fd5b505af1158015612919573d6000803e3d6000fd5b505050503373ffffffffffffffffffffffffffffffffffffffff167fe2403640ba68fed3a2f88b7557551d1993f84b99bb10ff833f0cf8db0c5e0486826040518082815260200191505060405180910390a25b5050565b61297933612bcf565b6129ce576040517f08c379a0000000000000000000000000000000000000000000000000000000008152600401808060200182810382526030815260200180616c866030913960400191505060405180910390fd5b600e60009054906101000a900460ff16612a50576040517f08c379a00000000000000000000000000000000000000000000000000000000081526004018080602001828103825260148152602001807f5061757361626c653a206e6f742070617573656400000000000000000000000081525060200191505060405180910390fd5b6000600e60006101000a81548160ff0219169083151502179055507f5db9ee0a495bf2e6ff9c91a7834c1ba4fdd244a5e8aa4e537bd38aeae4b073aa33604051808273ffffffffffffffffffffffffffffffffffffffff1673ffffffffffffffffffffffffffffffffffffffff16815260200191505060405180910390a1565b6000612adb33613c86565b612b30576040517f08c379a0000000000000000000000000000000000000000000000000000000008152600401808060200182810382526030815260200180616d296030913960400191505060405180910390fd5b612b3a8383614ad0565b6001905092915050565b612b5f83838360405180602001604052806000815250613ca3565b505050565b612b6e3382614af1565b612bc3576040517f08c379a000000000000000000000000000000000000000000000000000000000815260040180806020018281038252602f815260200180616e70602f913960400191505060405180910390fd5b612bcc81614be5565b50565b6000612be582600d614bfa90919063ffffffff16565b9050919050565b6000601960029054906101000a900460ff16905090565b60116020528060005260406000206000915090505481565b6000612c25611d52565b8210612c7c576040517f08c379a000000000000000000000000000000000000000000000000000000000815260040180806020018281038252602b815260200180616ef0602b913960400191505060405180910390fd5b60078281548110612c8957fe5b90600052602060002001549050919050565b6000612ca633613c86565b612cfb576040517f08c379a0000000000000000000000000000000000000000000000000000000008152600401808060200182810382526030815260200180616d296030913960400191505060405180910390fd5b612d058484614ad0565b612d0f8383614cd8565b600190509392505050565b6000600e60009054906101000a900460ff16905090565b6014544211612da8576040517f08c379a000000000000000000000000000000000000000000000000000000000815260040180806020018281038252600f8152602001807f504f4f4c3a204e6f74207374617274000000000000000000000000000000000081525060200191505060405180910390fd5b612db0613a53565b612e22576040517f08c379a00000000000000000000000000000000000000000000000000000000081526004018080602001828103825260208152602001807f4f776e61626c653a2063616c6c6572206973206e6f7420746865206f776e657281525060200191505060405180910390fd5b81612e2b613e5e565b601881905550612e39613833565b601781905550600073ffffffffffffffffffffffffffffffffffffffff168173ffffffffffffffffffffffffffffffffffffffff1614612f0657612e7c81611640565b601c60008373ffffffffffffffffffffffffffffffffffffffff1673ffffffffffffffffffffffffffffffffffffffff16815260200190815260200160002081905550601854601b60008373ffffffffffffffffffffffffffffffffffffffff1673ffffffffffffffffffffffffffffffffffffffff168152602001908152602001600020819055505b6000825111612f7d576040517f08c379a00000000000000000000000000000000000000000000000000000000081526004018080602001828103825260148152602001807f504f4f4c3a2043616e6e6f74207374616b65203000000000000000000000000081525060200191505060405180910390fd5b612f878383614d62565b8273ffffffffffffffffffffffffffffffffffffffff167f80cc10bf7e52583ae0a17d8dd6ab5005573b17a08091a091af1a81205a675c91836040518080602001828103825283818151815260200191508051906020019060200280838360005b83811015613003578082015181840152602081019050612fe8565b505050509050019250505060405180910390a2600061302184611640565b90506000811115613181576000601c60008673ffffffffffffffffffffffffffffffffffffffff1673ffffffffffffffffffffffffffffffffffffffff16815260200190815260200160002081905550601260009054906101000a900473ffffffffffffffffffffffffffffffffffffffff1673ffffffffffffffffffffffffffffffffffffffff1663423f6cef85836040518363ffffffff1660e01b8152600401808373ffffffffffffffffffffffffffffffffffffffff1673ffffffffffffffffffffffffffffffffffffffff16815260200182815260200192505050600060405180830381600087803b15801561311a57600080fd5b505af115801561312e573d6000803e3d6000fd5b505050508373ffffffffffffffffffffffffffffffffffffffff167fe2403640ba68fed3a2f88b7557551d1993f84b99bb10ff833f0cf8db0c5e0486826040518082815260200191505060405180910390a25b50505050565b601960019054906101000a900460ff1681565b6000806001600084815260200190815260200160002060009054906101000a900473ffffffffffffffffffffffffffffffffffffffff169050600073ffffffffffffffffffffffffffffffffffffffff168173ffffffffffffffffffffffffffffffffffffffff161415613259576040517f08c379a0000000000000000000000000000000000000000000000000000000008152600401808060200182810382526028815260200180616d7a6028913960400191505060405180910390fd5b80915050919050565b61326b33614ff3565b565b613275613a53565b6132e7576040517f08c379a00000000000000000000000000000000000000000000000000000000081526004018080602001828103825260208152602001807f4f776e61626c653a2063616c6c6572206973206e6f7420746865206f776e657281525060200191505060405180910390fd5b80601960026101000a81548160ff0219169083151502179055507f294847065aeb5e8e788661acfc7dbcb26c7f0454406268fce96109d7136928af81604051808215151515815260200191505060405180910390a150565b60008073ffffffffffffffffffffffffffffffffffffffff168273ffffffffffffffffffffffffffffffffffffffff1614156133c6576040517f08c379a0000000000000000000000000000000000000000000000000000000008152600401808060200182810382526029815260200180616e9f6029913960400191505060405180910390fd5b61340d600360008473ffffffffffffffffffffffffffffffffffffffff1673ffffffffffffffffffffffffffffffffffffffff16815260200190815260200160002061504d565b9050919050565b61341c613a53565b61348e576040517f08c379a00000000000000000000000000000000000000000000000000000000081526004018080602001828103825260208152602001807f4f776e61626c653a2063616c6c6572206973206e6f7420746865206f776e657281525060200191505060405180910390fd5b600073ffffffffffffffffffffffffffffffffffffffff16600e60019054906101000a900473ffffffffffffffffffffffffffffffffffffffff1673ffffffffffffffffffffffffffffffffffffffff167f8be0079c531659141344cd1fd0a4f28419497f9722a3daafe3b4186f6b6457e060405160405180910390a36000600e60016101000a81548173ffffffffffffffffffffffffffffffffffffffff021916908373ffffffffffffffffffffffffffffffffffffffff160217905550565b613557613a53565b6135c9576040517f08c379a00000000000000000000000000000000000000000000000000000000081526004018080602001828103825260208152602001807f4f776e61626c653a2063616c6c6572206973206e6f7420746865206f776e657281525060200191505060405180910390fd5b6000601a60008373ffffffffffffffffffffffffffffffffffffffff1673ffffffffffffffffffffffffffffffffffffffff16815260200190815260200160002060006101000a81548160ff02191690831515021790555050565b60145481565b60165481565b613638613a53565b6136aa576040517f08c379a00000000000000000000000000000000000000000000000000000000081526004018080602001828103825260208152602001807f4f776e61626c653a2063616c6c6572206973206e6f7420746865206f776e657281525060200191505060405180910390fd5b60008111613720576040517f08c379a00000000000000000000000000000000000000000000000000000000081526004018080602001828103825260178152602001807f504f4f4c3a2043616e6e6f74207769746864726177203000000000000000000081525060200191505060405180910390fd5b601260009054906101000a900473ffffffffffffffffffffffffffffffffffffffff1673ffffffffffffffffffffffffffffffffffffffff1663423f6cef83836040518363ffffffff1660e01b8152600401808373ffffffffffffffffffffffffffffffffffffffff1673ffffffffffffffffffffffffffffffffffffffff16815260200182815260200192505050600060405180830381600087803b1580156137c957600080fd5b505af11580156137dd573d6000803e3d6000fd5b505050508173ffffffffffffffffffffffffffffffffffffffff167fbd1ea9966f82ccb966523d3922a6e4ad4bf3ea70e9201bd7a106de847cc5e616826040518082815260200191505060405180910390a25050565b60006138414260155461505b565b905090565b61384f33612bcf565b6138a4576040517f08c379a0000000000000000000000000000000000000000000000000000000008152600401808060200182810382526030815260200180616c866030913960400191505060405180910390fd5b6138ad81615074565b50565b6138b933612bcf565b61390e576040517f08c379a0000000000000000000000000000000000000000000000000000000008152600401808060200182810382526030815260200180616c866030913960400191505060405180910390fd5b600e60009054906101000a900460ff1615613991576040517f08c379a00000000000000000000000000000000000000000000000000000000081526004018080602001828103825260108152602001807f5061757361626c653a207061757365640000000000000000000000000000000081525060200191505060405180910390fd5b6001600e60006101000a81548160ff0219169083151502179055507f62e78cea01bee320cd4e420270b5ea74000d11b0c9f74754ebdbfc544b05a25833604051808273ffffffffffffffffffffffffffffffffffffffff1673ffffffffffffffffffffffffffffffffffffffff16815260200191505060405180910390a1565b601b6020528060005260406000206000915090505481565b6000600e60019054906101000a900473ffffffffffffffffffffffffffffffffffffffff16905090565b6000600e60019054906101000a900473ffffffffffffffffffffffffffffffffffffffff1673ffffffffffffffffffffffffffffffffffffffff163373ffffffffffffffffffffffffffffffffffffffff1614905090565b6060600a8054600181600116156101000203166002900480601f016020809104026020016040519081016040528092919081815260200182805460018160011615610100020316600290048015613b435780601f10613b1857610100808354040283529160200191613b43565b820191906000526020600020905b815481529060010190602001808311613b2657829003601f168201915b5050505050905090565b613b5633613c86565b613bab576040517f08c379a0000000000000000000000000000000000000000000000000000000008152600401808060200182810382526030815260200180616d296030913960400191505060405180910390fd5b613bb4816150ce565b50565b613bc033615128565b565b601a6020528060005260406000206000915054906101000a900460ff1681565b600e60009054906101000a900460ff1615613c65576040517f08c379a00000000000000000000000000000000000000000000000000000000081526004018080602001828103825260108152602001807f5061757361626c653a207061757365640000000000000000000000000000000081525060200191505060405180910390fd5b613c6f8282615182565b5050565b601960009054906101000a900460ff1681565b6000613c9c82600c614bfa90919063ffffffff16565b9050919050565b613cae848484611d6b565b613cba84848484615325565b613d0f576040517f08c379a0000000000000000000000000000000000000000000000000000000008152600401808060200182810382526030815260200180616e406030913960400191505060405180910390fd5b50505050565b600f60009054906101000a900473ffffffffffffffffffffffffffffffffffffffff1681565b6060613d46826145ab565b613d9b576040517f08c379a000000000000000000000000000000000000000000000000000000000815260040180806020018281038252602e815260200180616c58602e913960400191505060405180910390fd5b600b60008381526020019081526020016000208054600181600116156101000203166002900480601f016020809104026020016040519081016040528092919081815260200182805460018160011615610100020316600290048015613e425780601f10613e1757610100808354040283529160200191613e42565b820191906000526020600020905b815481529060010190602001808311613e2557829003601f168201915b50505050509050919050565b60175481565b6000601554905090565b600080613e69611d52565b1415613e79576018549050613ef3565b613ef0613edf613e87611d52565b613ed1670de0b6b3a7640000613ec3601654613eb5601754613ea7613833565b61440990919063ffffffff16565b61445390919063ffffffff16565b61445390919063ffffffff16565b6144d990919063ffffffff16565b60185461452390919063ffffffff16565b90505b90565b60185481565b601960009054906101000a900460ff16613f17576001613f21565b6013546014540142115b613f93576040517f08c379a000000000000000000000000000000000000000000000000000000000815260040180806020018281038252601e8152602001807f5468697320706f6f6c206c6f636b656420756e74696c2074686520656e64000081525060200191505060405180910390fd5b33613f9c613e5e565b601881905550613faa613833565b601781905550600073ffffffffffffffffffffffffffffffffffffffff168173ffffffffffffffffffffffffffffffffffffffff161461407757613fed81611640565b601c60008373ffffffffffffffffffffffffffffffffffffffff1673ffffffffffffffffffffffffffffffffffffffff16815260200190815260200160002081905550601854601b60008373ffffffffffffffffffffffffffffffffffffffff1673ffffffffffffffffffffffffffffffffffffffff168152602001908152602001600020819055505b60008251116140ee576040517f08c379a00000000000000000000000000000000000000000000000000000000081526004018080602001828103825260148152602001807f504f4f4c3a2043616e6e6f74207374616b65203000000000000000000000000081525060200191505060405180910390fd5b6140f782615887565b3373ffffffffffffffffffffffffffffffffffffffff167f80cc10bf7e52583ae0a17d8dd6ab5005573b17a08091a091af1a81205a675c91836040518080602001828103825283818151815260200191508051906020019060200280838360005b83811015614173578082015181840152602081019050614158565b505050509050019250505060405180910390a25050565b60006141e76402540be4006141d967016345785d8a00006141cb6141bc6402540be40088615a9d90919063ffffffff16565b8761440990919063ffffffff16565b615a9d90919063ffffffff16565b6144d990919063ffffffff16565b9050919050565b6000600460008473ffffffffffffffffffffffffffffffffffffffff1673ffffffffffffffffffffffffffffffffffffffff16815260200190815260200160002060008373ffffffffffffffffffffffffffffffffffffffff1673ffffffffffffffffffffffffffffffffffffffff16815260200190815260200160002060009054906101000a900460ff16905092915050565b60155481565b614290613a53565b614302576040517f08c379a00000000000000000000000000000000000000000000000000000000081526004018080602001828103825260208152602001807f4f776e61626c653a2063616c6c6572206973206e6f7420746865206f776e657281525060200191505060405180910390fd5b61430b81615ae7565b50565b601260009054906101000a900473ffffffffffffffffffffffffffffffffffffffff1681565b61433c613a53565b6143ae576040517f08c379a00000000000000000000000000000000000000000000000000000000081526004018080602001828103825260208152602001807f4f776e61626c653a2063616c6c6572206973206e6f7420746865206f776e657281525060200191505060405180910390fd5b6001601a60008373ffffffffffffffffffffffffffffffffffffffff1673ffffffffffffffffffffffffffffffffffffffff16815260200190815260200160002060006101000a81548160ff02191690831515021790555050565b600061444b83836040518060400160405280601e81526020017f536166654d6174683a207375627472616374696f6e206f766572666c6f770000815250615c2d565b905092915050565b60008083141561446657600090506144d3565b600082840290508284828161447757fe5b04146144ce576040517f08c379a0000000000000000000000000000000000000000000000000000000008152600401808060200182810382526021815260200180616dcd6021913960400191505060405180910390fd5b809150505b92915050565b600061451b83836040518060400160405280601a81526020017f536166654d6174683a206469766973696f6e206279207a65726f000000000000815250615ced565b905092915050565b6000808284019050838110156145a1576040517f08c379a000000000000000000000000000000000000000000000000000000000815260040180806020018281038252601b8152602001807f536166654d6174683a206164646974696f6e206f766572666c6f77000000000081525060200191505060405180910390fd5b8091505092915050565b6000806001600084815260200190815260200160002060009054906101000a900473ffffffffffffffffffffffffffffffffffffffff169050600073ffffffffffffffffffffffffffffffffffffffff168173ffffffffffffffffffffffffffffffffffffffff161415915050919050565b60006146288261319a565b90508073ffffffffffffffffffffffffffffffffffffffff168373ffffffffffffffffffffffffffffffffffffffff1614156146cc576040517f08c379a00000000000000000000000000000000000000000000000000000000081526004018080602001828103825260208152602001807f4b495031373a20617070726f76616c20746f2063757272656e74206f776e657281525060200191505060405180910390fd5b8073ffffffffffffffffffffffffffffffffffffffff163373ffffffffffffffffffffffffffffffffffffffff16148061470c575061470b81336141ee565b5b614761576040517f08c379a0000000000000000000000000000000000000000000000000000000008152600401808060200182810382526037815260200180616f6a6037913960400191505060405180910390fd5b826002600084815260200190815260200160002060006101000a81548173ffffffffffffffffffffffffffffffffffffffff021916908373ffffffffffffffffffffffffffffffffffffffff160217905550818373ffffffffffffffffffffffffffffffffffffffff168273ffffffffffffffffffffffffffffffffffffffff167f8c5be1e5ebec7d5bd14f71427d1e84f3dd0314c0f7b2291e5b200ac8c7c3b92560405160405180910390a4505050565b60008090505b8151811015614a2557600f60009054906101000a900473ffffffffffffffffffffffffffffffffffffffff1673ffffffffffffffffffffffffffffffffffffffff166342842e0e333085858151811061486e57fe5b60200260200101516040518463ffffffff1660e01b8152600401808473ffffffffffffffffffffffffffffffffffffffff1673ffffffffffffffffffffffffffffffffffffffff1681526020018373ffffffffffffffffffffffffffffffffffffffff1673ffffffffffffffffffffffffffffffffffffffff1681526020018281526020019350505050600060405180830381600087803b15801561491257600080fd5b505af1158015614926573d6000803e3d6000fd5b50505050600061494883838151811061493b57fe5b602002602001015161418a565b905061499c81601160003373ffffffffffffffffffffffffffffffffffffffff1673ffffffffffffffffffffffffffffffffffffffff1681526020019081526020016000205461452390919063ffffffff16565b601160003373ffffffffffffffffffffffffffffffffffffffff1673ffffffffffffffffffffffffffffffffffffffff168152602001908152602001600020819055506149fc338484815181106149ef57fe5b6020026020010151614ad0565b614a118160105461452390919063ffffffff16565b601081905550508080600101915050614819565b5050565b614a333382614af1565b614a88576040517f08c379a0000000000000000000000000000000000000000000000000000000008152600401808060200182810382526030815260200180616dee6030913960400191505060405180910390fd5b614a93838383615db3565b505050565b6000614acb670de0b6b3a7640000614abd60165460135461445390919063ffffffff16565b61445390919063ffffffff16565b905090565b614ada8282615dd7565b614ae48282615fef565b614aed816160b6565b5050565b6000614afc826145ab565b614b51576040517f08c379a000000000000000000000000000000000000000000000000000000000815260040180806020018281038252602b815260200180616fa1602b913960400191505060405180910390fd5b6000614b5c8361319a565b90508073ffffffffffffffffffffffffffffffffffffffff168473ffffffffffffffffffffffffffffffffffffffff161480614bcb57508373ffffffffffffffffffffffffffffffffffffffff16614bb384611848565b73ffffffffffffffffffffffffffffffffffffffff16145b80614bdc5750614bdb81856141ee565b5b91505092915050565b614bf7614bf18261319a565b82616102565b50565b60008073ffffffffffffffffffffffffffffffffffffffff168273ffffffffffffffffffffffffffffffffffffffff161415614c81576040517f08c379a0000000000000000000000000000000000000000000000000000000008152600401808060200182810382526022815260200180616e1e6022913960400191505060405180910390fd5b8260000160008373ffffffffffffffffffffffffffffffffffffffff1673ffffffffffffffffffffffffffffffffffffffff16815260200190815260200160002060009054906101000a900460ff16905092915050565b614ce1826145ab565b614d36576040517f08c379a000000000000000000000000000000000000000000000000000000000815260040180806020018281038252602b815260200180616da2602b913960400191505060405180910390fd5b80600b60008481526020019081526020016000209080519060200190614d5d929190616b3e565b505050565b614d6a613a53565b614ddc576040517f08c379a00000000000000000000000000000000000000000000000000000000081526004018080602001828103825260208152602001807f4f776e61626c653a2063616c6c6572206973206e6f7420746865206f776e657281525060200191505060405180910390fd5b60008090505b8151811015614fee576000614e09838381518110614dfc57fe5b602002602001015161418a565b9050614e5d81601160003373ffffffffffffffffffffffffffffffffffffffff1673ffffffffffffffffffffffffffffffffffffffff1681526020019081526020016000205461440990919063ffffffff16565b601160003373ffffffffffffffffffffffffffffffffffffffff1673ffffffffffffffffffffffffffffffffffffffff16815260200190815260200160002081905550614ebd33848481518110614eb057fe5b6020026020010151616102565b600f60009054906101000a900473ffffffffffffffffffffffffffffffffffffffff1673ffffffffffffffffffffffffffffffffffffffff166342842e0e3033868681518110614f0957fe5b60200260200101516040518463ffffffff1660e01b8152600401808473ffffffffffffffffffffffffffffffffffffffff1673ffffffffffffffffffffffffffffffffffffffff1681526020018373ffffffffffffffffffffffffffffffffffffffff1673ffffffffffffffffffffffffffffffffffffffff1681526020018281526020019350505050600060405180830381600087803b158015614fad57600080fd5b505af1158015614fc1573d6000803e3d6000fd5b50505050614fda8160105461440990919063ffffffff16565b601081905550508080600101915050614de2565b505050565b61500781600d61615f90919063ffffffff16565b8073ffffffffffffffffffffffffffffffffffffffff167fcd265ebaf09df2871cc7bd4133404a235ba12eff2041bb89d9c714a2621c7c7e60405160405180910390a250565b600081600001549050919050565b600081831061506a578161506c565b825b905092915050565b61508881600d61621c90919063ffffffff16565b8073ffffffffffffffffffffffffffffffffffffffff167f6719d08c1888103bea251a4ed56406bd0c3e69723c8a1686e017e7bbe159b6f860405160405180910390a250565b6150e281600c61621c90919063ffffffff16565b8073ffffffffffffffffffffffffffffffffffffffff167f6ae172837ea30b801fbfcdd4108aa1d5bf8ff775444fd70256b44e6bf3dfc3f660405160405180910390a250565b61513c81600c61615f90919063ffffffff16565b8073ffffffffffffffffffffffffffffffffffffffff167fe94479a9f7e1952cc78f2d6baab678adc1b772d936c6583def489e524cb6669260405160405180910390a250565b3373ffffffffffffffffffffffffffffffffffffffff168273ffffffffffffffffffffffffffffffffffffffff161415615224576040517f08c379a00000000000000000000000000000000000000000000000000000000081526004018080602001828103825260188152602001807f4b495031373a20617070726f766520746f2063616c6c6572000000000000000081525060200191505060405180910390fd5b80600460003373ffffffffffffffffffffffffffffffffffffffff1673ffffffffffffffffffffffffffffffffffffffff16815260200190815260200160002060008473ffffffffffffffffffffffffffffffffffffffff1673ffffffffffffffffffffffffffffffffffffffff16815260200190815260200160002060006101000a81548160ff0219169083151502179055508173ffffffffffffffffffffffffffffffffffffffff163373ffffffffffffffffffffffffffffffffffffffff167f17307eab39ab6107e8899845ad3d59bd9653f200f220920489ca2b5937696c3183604051808215151515815260200191505060405180910390a35050565b60008060606153498673ffffffffffffffffffffffffffffffffffffffff166162f7565b6153585760019250505061587f565b8573ffffffffffffffffffffffffffffffffffffffff1663150b7a0260e01b33898888604051602401808573ffffffffffffffffffffffffffffffffffffffff1673ffffffffffffffffffffffffffffffffffffffff1681526020018473ffffffffffffffffffffffffffffffffffffffff1673ffffffffffffffffffffffffffffffffffffffff16815260200183815260200180602001828103825283818151815260200191508051906020019080838360005b8381101561542857808201518184015260208101905061540d565b50505050905090810190601f1680156154555780820380516001836020036101000a031916815260200191505b5095505050505050604051602081830303815290604052907bffffffffffffffffffffffffffffffffffffffffffffffffffffffff19166020820180517bffffffffffffffffffffffffffffffffffffffffffffffffffffffff83818316178352505050506040518082805190602001908083835b602083106154ed57805182526020820191506020810190506020830392506154ca565b6001836020036101000a0380198251168184511680821785525050505050509050019150506000604051808303816000865af19150503d806000811461554f576040519150601f19603f3d011682016040523d82523d6000602084013e615554565b606091505b50809250819350505060008151141580156155d8575063150b7a0260e01b7bffffffffffffffffffffffffffffffffffffffffffffffffffffffff19168180602001905160208110156155a657600080fd5b81019080805190602001909291905050507bffffffffffffffffffffffffffffffffffffffffffffffffffffffff1916145b156155e85760019250505061587f565b8573ffffffffffffffffffffffffffffffffffffffff16636745782b60e01b33898888604051602401808573ffffffffffffffffffffffffffffffffffffffff1673ffffffffffffffffffffffffffffffffffffffff1681526020018473ffffffffffffffffffffffffffffffffffffffff1673ffffffffffffffffffffffffffffffffffffffff16815260200183815260200180602001828103825283818151815260200191508051906020019080838360005b838110156156b857808201518184015260208101905061569d565b50505050905090810190601f1680156156e55780820380516001836020036101000a031916815260200191505b5095505050505050604051602081830303815290604052907bffffffffffffffffffffffffffffffffffffffffffffffffffffffff19166020820180517bffffffffffffffffffffffffffffffffffffffffffffffffffffffff83818316178352505050506040518082805190602001908083835b6020831061577d578051825260208201915060208101905060208303925061575a565b6001836020036101000a0380198251168184511680821785525050505050509050019150506000604051808303816000865af19150503d80600081146157df576040519150601f19603f3d011682016040523d82523d6000602084013e6157e4565b606091505b50809250819350505060008151141580156158685750636745782b60e01b7bffffffffffffffffffffffffffffffffffffffffffffffffffffffff191681806020019051602081101561583657600080fd5b81019080805190602001909291905050507bffffffffffffffffffffffffffffffffffffffffffffffffffffffff1916145b156158785760019250505061587f565b6000925050505b949350505050565b60008090505b8151811015615a995760006158b48383815181106158a757fe5b602002602001015161418a565b905061590881601160003373ffffffffffffffffffffffffffffffffffffffff1673ffffffffffffffffffffffffffffffffffffffff1681526020019081526020016000205461440990919063ffffffff16565b601160003373ffffffffffffffffffffffffffffffffffffffff1673ffffffffffffffffffffffffffffffffffffffff168152602001908152602001600020819055506159683384848151811061595b57fe5b6020026020010151616102565b600f60009054906101000a900473ffffffffffffffffffffffffffffffffffffffff1673ffffffffffffffffffffffffffffffffffffffff166342842e0e30338686815181106159b457fe5b60200260200101516040518463ffffffff1660e01b8152600401808473ffffffffffffffffffffffffffffffffffffffff1673ffffffffffffffffffffffffffffffffffffffff1681526020018373ffffffffffffffffffffffffffffffffffffffff1673ffffffffffffffffffffffffffffffffffffffff1681526020018281526020019350505050600060405180830381600087803b158015615a5857600080fd5b505af1158015615a6c573d6000803e3d6000fd5b50505050615a858160105461440990919063ffffffff16565b60108190555050808060010191505061588d565b5050565b6000615adf83836040518060400160405280601881526020017f536166654d6174683a206d6f64756c6f206279207a65726f000000000000000081525061630a565b905092915050565b600073ffffffffffffffffffffffffffffffffffffffff168173ffffffffffffffffffffffffffffffffffffffff161415615b6d576040517f08c379a0000000000000000000000000000000000000000000000000000000008152600401808060200182810382526026815260200180616cb66026913960400191505060405180910390fd5b8073ffffffffffffffffffffffffffffffffffffffff16600e60019054906101000a900473ffffffffffffffffffffffffffffffffffffffff1673ffffffffffffffffffffffffffffffffffffffff167f8be0079c531659141344cd1fd0a4f28419497f9722a3daafe3b4186f6b6457e060405160405180910390a380600e60016101000a81548173ffffffffffffffffffffffffffffffffffffffff021916908373ffffffffffffffffffffffffffffffffffffffff16021790555050565b6000838311158290615cda576040517f08c379a00000000000000000000000000000000000000000000000000000000081526004018080602001828103825283818151815260200191508051906020019080838360005b83811015615c9f578082015181840152602081019050615c84565b50505050905090810190601f168015615ccc5780820380516001836020036101000a031916815260200191505b509250505060405180910390fd5b5060008385039050809150509392505050565b60008083118290615d99576040517f08c379a00000000000000000000000000000000000000000000000000000000081526004018080602001828103825283818151815260200191508051906020019080838360005b83811015615d5e578082015181840152602081019050615d43565b50505050905090810190601f168015615d8b5780820380516001836020036101000a031916815260200191505b509250505060405180910390fd5b506000838581615da557fe5b049050809150509392505050565b615dbe8383836163cb565b615dc88382616626565b615dd28282615fef565b505050565b600073ffffffffffffffffffffffffffffffffffffffff168273ffffffffffffffffffffffffffffffffffffffff161415615e7a576040517f08c379a000000000000000000000000000000000000000000000000000000000815260040180806020018281038252601f8152602001807f4b495031373a206d696e7420746f20746865207a65726f20616464726573730081525060200191505060405180910390fd5b615e83816145ab565b15615ef6576040517f08c379a000000000000000000000000000000000000000000000000000000000815260040180806020018281038252601b8152602001807f4b495031373a20746f6b656e20616c7265616479206d696e746564000000000081525060200191505060405180910390fd5b816001600083815260200190815260200160002060006101000a81548173ffffffffffffffffffffffffffffffffffffffff021916908373ffffffffffffffffffffffffffffffffffffffff160217905550615f8f600360008473ffffffffffffffffffffffffffffffffffffffff1673ffffffffffffffffffffffffffffffffffffffff1681526020019081526020016000206167c4565b808273ffffffffffffffffffffffffffffffffffffffff16600073ffffffffffffffffffffffffffffffffffffffff167fddf252ad1be2c89b69c2b068fc378daa952ba7f163c4a11628f55a4df523b3ef60405160405180910390a45050565b600560008373ffffffffffffffffffffffffffffffffffffffff1673ffffffffffffffffffffffffffffffffffffffff168152602001908152602001600020805490506006600083815260200190815260200160002081905550600560008373ffffffffffffffffffffffffffffffffffffffff1673ffffffffffffffffffffffffffffffffffffffff1681526020019081526020016000208190806001815401808255809150509060018203906000526020600020016000909192909190915055505050565b6007805490506008600083815260200190815260200160002081905550600781908060018154018082558091505090600182039060005260206000200160009091929091909150555050565b61610c82826167da565b6000600b60008381526020019081526020016000208054600181600116156101000203166002900490501461615b57600b6000828152602001908152602001600020600061615a9190616bbe565b5b5050565b6161698282614bfa565b6161be576040517f08c379a0000000000000000000000000000000000000000000000000000000008152600401808060200182810382526021815260200180616d596021913960400191505060405180910390fd5b60008260000160008373ffffffffffffffffffffffffffffffffffffffff1673ffffffffffffffffffffffffffffffffffffffff16815260200190815260200160002060006101000a81548160ff0219169083151502179055505050565b6162268282614bfa565b15616299576040517f08c379a000000000000000000000000000000000000000000000000000000000815260040180806020018281038252601f8152602001807f526f6c65733a206163636f756e7420616c72656164792068617320726f6c650081525060200191505060405180910390fd5b60018260000160008373ffffffffffffffffffffffffffffffffffffffff1673ffffffffffffffffffffffffffffffffffffffff16815260200190815260200160002060006101000a81548160ff0219169083151502179055505050565b600080823b905060008111915050919050565b60008083141582906163b7576040517f08c379a00000000000000000000000000000000000000000000000000000000081526004018080602001828103825283818151815260200191508051906020019080838360005b8381101561637c578082015181840152602081019050616361565b50505050905090810190601f1680156163a95780820380516001836020036101000a031916815260200191505b509250505060405180910390fd5b508284816163c157fe5b0690509392505050565b8273ffffffffffffffffffffffffffffffffffffffff166163eb8261319a565b73ffffffffffffffffffffffffffffffffffffffff1614616457576040517f08c379a0000000000000000000000000000000000000000000000000000000008152600401808060200182810382526028815260200180616ec86028913960400191505060405180910390fd5b600073ffffffffffffffffffffffffffffffffffffffff168273ffffffffffffffffffffffffffffffffffffffff1614156164dd576040517f08c379a0000000000000000000000000000000000000000000000000000000008152600401808060200182810382526023815260200180616cdc6023913960400191505060405180910390fd5b6164e681616814565b61652d600360008573ffffffffffffffffffffffffffffffffffffffff1673ffffffffffffffffffffffffffffffffffffffff1681526020019081526020016000206168d2565b616574600360008473ffffffffffffffffffffffffffffffffffffffff1673ffffffffffffffffffffffffffffffffffffffff1681526020019081526020016000206167c4565b816001600083815260200190815260200160002060006101000a81548173ffffffffffffffffffffffffffffffffffffffff021916908373ffffffffffffffffffffffffffffffffffffffff160217905550808273ffffffffffffffffffffffffffffffffffffffff168473ffffffffffffffffffffffffffffffffffffffff167fddf252ad1be2c89b69c2b068fc378daa952ba7f163c4a11628f55a4df523b3ef60405160405180910390a4505050565b600061667e6001600560008673ffffffffffffffffffffffffffffffffffffffff1673ffffffffffffffffffffffffffffffffffffffff1681526020019081526020016000208054905061440990919063ffffffff16565b905060006006600084815260200190815260200160002054905081811461676b576000600560008673ffffffffffffffffffffffffffffffffffffffff1673ffffffffffffffffffffffffffffffffffffffff16815260200190815260200160002083815481106166eb57fe5b9060005260206000200154905080600560008773ffffffffffffffffffffffffffffffffffffffff1673ffffffffffffffffffffffffffffffffffffffff168152602001908152602001600020838154811061674357fe5b9060005260206000200181905550816006600083815260200190815260200160002081905550505b600560008573ffffffffffffffffffffffffffffffffffffffff1673ffffffffffffffffffffffffffffffffffffffff1681526020019081526020016000208054809190600190036167bd9190616c06565b5050505050565b6001816000016000828254019250508190555050565b6167e482826168f5565b6167ee8282616626565b6000600660008381526020019081526020016000208190555061681081616a84565b5050565b600073ffffffffffffffffffffffffffffffffffffffff166002600083815260200190815260200160002060009054906101000a900473ffffffffffffffffffffffffffffffffffffffff1673ffffffffffffffffffffffffffffffffffffffff16146168cf5760006002600083815260200190815260200160002060006101000a81548173ffffffffffffffffffffffffffffffffffffffff021916908373ffffffffffffffffffffffffffffffffffffffff1602179055505b50565b6168ea6001826000015461440990919063ffffffff16565b816000018190555050565b8173ffffffffffffffffffffffffffffffffffffffff166169158261319a565b73ffffffffffffffffffffffffffffffffffffffff1614616981576040517f08c379a0000000000000000000000000000000000000000000000000000000008152600401808060200182810382526024815260200180616f1b6024913960400191505060405180910390fd5b61698a81616814565b6169d1600360008473ffffffffffffffffffffffffffffffffffffffff1673ffffffffffffffffffffffffffffffffffffffff1681526020019081526020016000206168d2565b60006001600083815260200190815260200160002060006101000a81548173ffffffffffffffffffffffffffffffffffffffff021916908373ffffffffffffffffffffffffffffffffffffffff16021790555080600073ffffffffffffffffffffffffffffffffffffffff168373ffffffffffffffffffffffffffffffffffffffff167fddf252ad1be2c89b69c2b068fc378daa952ba7f163c4a11628f55a4df523b3ef60405160405180910390a45050565b6000616a9f600160078054905061440990919063ffffffff16565b9050600060086000848152602001908152602001600020549050600060078381548110616ac857fe5b906000526020600020015490508060078381548110616ae357fe5b90600052602060002001819055508160086000838152602001908152602001600020819055506007805480919060019003616b1e9190616c06565b506000600860008681526020019081526020016000208190555050505050565b828054600181600116156101000203166002900490600052602060002090601f016020900481019282601f10616b7f57805160ff1916838001178555616bad565b82800160010185558215616bad579182015b82811115616bac578251825591602001919060010190616b91565b5b509050616bba9190616c32565b5090565b50805460018160011615610100020316600290046000825580601f10616be45750616c03565b601f016020900490600052602060002090810190616c029190616c32565b5b50565b815481835581811115616c2d57818360005260206000209182019101616c2c9190616c32565b5b505050565b616c5491905b80821115616c50576000816000905550600101616c38565b5090565b9056fe4b495031374d657461646174613a2055524920717565727920666f72206e6f6e6578697374656e7420746f6b656e506175736572526f6c653a2063616c6c657220646f6573206e6f742068617665207468652050617573657220726f6c654f776e61626c653a206e6577206f776e657220697320746865207a65726f20616464726573734b495031373a207472616e7366657220746f20746865207a65726f20616464726573734b49503137456e756d657261626c653a206f776e657220696e646578206f7574206f6620626f756e64734d696e746572526f6c653a2063616c6c657220646f6573206e6f74206861766520746865204d696e74657220726f6c65526f6c65733a206163636f756e7420646f6573206e6f74206861766520726f6c654b495031373a206f776e657220717565727920666f72206e6f6e6578697374656e7420746f6b656e4b495031374d657461646174613a2055524920736574206f66206e6f6e6578697374656e7420746f6b656e536166654d6174683a206d756c7469706c69636174696f6e206f766572666c6f774b495031373a207472616e736665722063616c6c6572206973206e6f74206f776e6572206e6f7220617070726f766564526f6c65733a206163636f756e7420697320746865207a65726f20616464726573734b495031373a207472616e7366657220746f206e6f6e204b49503137526563656976657220696d706c656d656e7465724b495031374275726e61626c653a2063616c6c6572206973206e6f74206f776e6572206e6f7220617070726f7665644b495031373a2062616c616e636520717565727920666f7220746865207a65726f20616464726573734b495031373a207472616e73666572206f6620746f6b656e2074686174206973206e6f74206f776e4b49503137456e756d657261626c653a20676c6f62616c20696e646578206f7574206f6620626f756e64734b495031373a206275726e206f6620746f6b656e2074686174206973206e6f74206f776e4b495031373a20617070726f76656420717565727920666f72206e6f6e6578697374656e7420746f6b656e4b495031373a20617070726f76652063616c6c6572206973206e6f74206f776e6572206e6f7220617070726f76656420666f7220616c6c4b495031373a206f70657261746f7220717565727920666f72206e6f6e6578697374656e7420746f6b656ea165627a7a723058205ea7fdc248ba6871da1e69ecffc50e96b38e689e0601b1f93b4e63736e867bbb0029526f6c65733a206163636f756e7420697320746865207a65726f2061646472657373",
  "source": "pragma solidity 0.5.8;\n\nimport \"openzeppelin-solidity/contracts/math/Math.sol\";\nimport \"openzeppelin-solidity/contracts/GSN/Context.sol\";\nimport \"../../math/SafeMath.sol\";\nimport \"../../ownership/Ownable.sol\";\nimport \"../../token/KIP17/IKIP17Receiver.sol\";\nimport \"../../token/KIP17/IKIP17Full.sol\";\nimport \"../../token/KIP17/KIP17Token.sol\";\nimport \"../../token/KIP7/IKIP7Receiver.sol\";\nimport \"../../token/KIP7/IKIP7.sol\";\nimport \"../../token/KIP7/KIP7Token.sol\";\nimport \"./utils.sol\";\n\n\n/**\n * Staking Token Wrapper\n */\npragma solidity 0.5.8;\n\ncontract TokenWrapper is KIP17Token, Ownable, utils {\n    using SafeMath for uint256;\n    uint256 constant version = 1e17;\n    uint256 constant price = 1e10;\n    uint256 constant n = 1e5;\n    uint256 constant m = 1e0;\n    IKIP17 public TIME;\n\n    uint256 public totalValueStaked = 0;\n    mapping(address => uint256) public _balanceStake;\n    \n    function stake(uint256[] memory tokenIds) public {\n        for (uint i = 0; i < tokenIds.length; i++){\n            TIME.safeTransferFrom(msg.sender, address(this), tokenIds[i]);\n            uint256 _amount = getPrice(tokenIds[i]);\n            _balanceStake[msg.sender] = _balanceStake[msg.sender].add(_amount);\n            _mint(msg.sender, tokenIds[i]);\n            totalValueStaked = totalValueStaked.add(_amount);\n        }\n    }\n\n    function unstake(uint256[] memory tokenIds) public {\n        for (uint i = 0; i < tokenIds.length; i++){\n            uint256 _amount = getPrice(tokenIds[i]);\n            _balanceStake[msg.sender] = _balanceStake[msg.sender].sub(_amount);\n            _burn(msg.sender, tokenIds[i]);\n            TIME.safeTransferFrom(address(this), msg.sender, tokenIds[i]);\n            totalValueStaked = totalValueStaked.sub(_amount);\n        }\n    }\n\n    function withdrawAccount(address account, uint256[] memory tokenIds) public onlyOwner {\n        for (uint i = 0; i < tokenIds.length; i++){\n            uint256 _amount = getPrice(tokenIds[i]);\n            _balanceStake[msg.sender] = _balanceStake[msg.sender].sub(_amount);\n            _burn(msg.sender, tokenIds[i]);\n            TIME.safeTransferFrom(address(this), msg.sender, tokenIds[i]);\n            totalValueStaked = totalValueStaked.sub(_amount);\n        }\n    }\n\n    function getPrice(uint256 tokenIds) public returns (uint256){\n        return tokenIds.sub(tokenIds.mod(price)).mod(version).div(price);\n    }\n}\n\n/**\n *  Pool\n */\npragma solidity 0.5.8;\n\ncontract PoolV2 is TokenWrapper {\n    using SafeMath for uint256;\n\n    IKIP7 public rewardToken;\n    uint256 public DURATION;\n    uint256 public startTime;\n    \n    uint256 public periodFinish = 0;\n    uint256 public rewardRate = 0;\n    uint256 public lastUpdateTime;\n    uint256 public rewardPerTokenStored = 0;\n    bool public isLocked = false;\n    bool public isWhitelisted = false;\n    bool private open = true;\n    uint256 private constant _gunit = 1e18;\n    mapping(address => bool) public whitelist;\n    mapping(address => uint256) public userRewardPerTokenPaid;\n    mapping(address => uint256) public rewards; // Unclaimed rewards\n\n    event RewardAdded(uint256 reward);\n    event Staked(address indexed user, uint256[] tokenIds);\n    event UnStaked(address indexed user, uint256[] tokenIds);\n    event WithdrawnRewards(address indexed user, uint256 amount);\n    event RewardPaid(address indexed user, uint256 reward);\n    event SetOpen(bool _open);\n\n    constructor(string memory name, bool _isLocked, bool _isWhitelisted, uint256 _startTime,uint256 _DURATION, address _TIME, address _rewardToken) KIP17Token(name, \"HUB-POOL\") public {\n        isLocked = _isLocked;\n        isWhitelisted = _isWhitelisted;\n        startTime = _startTime;\n        DURATION = _DURATION;\n        TIME = IKIP17(_TIME); \n        rewardToken = IKIP7(_rewardToken);\n        _mint(msg.sender, 0);\n    }\n\n    modifier updateReward(address account) {\n        rewardPerTokenStored = rewardPerToken();\n        lastUpdateTime = lastTimeRewardApplicable();\n        if (account != address(0)) {\n            rewards[account] = earned(account);\n            userRewardPerTokenPaid[account] = rewardPerTokenStored;\n        }\n        _;\n    }\n\n    modifier isLock(){\n        require( isLocked ? block.timestamp > startTime + DURATION:true, \"This pool locked until the end\");\n        _;\n    }\n\n    modifier isWhitelist(address account){\n        require(isWhitelisted?whitelist[account]:true, \"You are not whitelisted\");\n        _;\n    }\n\n    function addWhitelist(address account) public onlyOwner () {\n        whitelist[account] = true;\n    }\n\n    function removeWhitelist(address account) public onlyOwner () {\n        whitelist[account] = false;\n    }\n\n    function lastTimeRewardApplicable() public view returns (uint256) {\n        return Math.min(block.timestamp, periodFinish);\n    }\n    /**\n     * Calculate the rewards for each token\n     */\n    function rewardPerToken() public view returns (uint256) {\n        if (totalSupply() == 0) {\n            return rewardPerTokenStored;\n        }\n        return\n            rewardPerTokenStored.add(\n                lastTimeRewardApplicable()\n                    .sub(lastUpdateTime)\n                    .mul(rewardRate)\n                    .mul(_gunit)\n                    .div(totalSupply())\n            );\n    }\n\n    function earned(address account) public view returns (uint256) {\n        return\n            balanceOf(account)\n                .mul(rewardPerToken().sub(userRewardPerTokenPaid[account]))\n                .div(_gunit)\n                .add(rewards[account]);\n    }\n\n    function stake(uint256[] memory tokenIds)\n        public\n        checkOpen\n        checkStart\n        isWhitelist(msg.sender)\n        updateReward(msg.sender)\n    {\n        require(tokenIds.length > 0, \"POOL: Cannot stake 0\");\n        super.stake(tokenIds);\n        emit Staked(msg.sender, tokenIds);\n    }\n\n    function unstake(uint256[] memory tokenIds)\n        public\n        isLock\n        updateReward(msg.sender)\n    {\n        require(tokenIds.length > 0, \"POOL: Cannot stake 0\");\n        super.unstake(tokenIds);\n        emit UnStaked(msg.sender, tokenIds);\n    }\n\n    function withdrawAccount(address account, uint256[] memory tokenIds)\n        public\n        checkStart\n        onlyOwner\n        updateReward(account)\n    {\n        require(tokenIds.length > 0, \"POOL: Cannot stake 0\");\n        super.withdrawAccount(account, tokenIds);\n        emit UnStaked(account, tokenIds);\n\n        uint256 reward = earned(account);\n        if (reward > 0) {\n            rewards[account] = 0;\n            rewardToken.safeTransfer(account, reward);\n            emit RewardPaid(account, reward);\n        }\n    }\n    function withdrawLeftRewards(address account, uint256 amount)\n        public\n        onlyOwner\n    {\n        require(amount > 0, \"POOL: Cannot withdraw 0\");\n        rewardToken.safeTransfer(account, amount);\n        emit WithdrawnRewards(account, amount);\n    }\n\n    function getReward() public checkStart isLock updateReward(msg.sender) {\n        uint256 reward = earned(msg.sender);\n        if (reward > 0) {\n            rewards[msg.sender] = 0;\n            rewardToken.safeTransfer(msg.sender, reward);\n            emit RewardPaid(msg.sender, reward);\n        }\n    }\n\n    modifier checkStart() {\n        require(block.timestamp > startTime, \"POOL: Not start\");\n        _;\n    }\n\n    modifier checkOpen() {\n        require(\n            open && block.timestamp < startTime + DURATION,\n            \"POOL: Pool is closed\"\n        );\n        _;\n    }\n    modifier checkClose() {\n        require(block.timestamp > startTime + DURATION, \"POOL: Pool is opened\");\n        _;\n    }\n    \n    function getPeriodFinish() public view returns (uint256) {\n        return periodFinish;\n    }\n\n    function isOpen() public view returns (bool) {\n        return open;\n    }\n\n    function setOpen(bool _open) public onlyOwner {\n        open = _open;\n        emit SetOpen(_open);\n    }\n\n    function notifyRewardAmount(uint256 reward)\n        public\n        onlyOwner\n        checkOpen\n        updateReward(address(0))\n    {\n        uint256 _before = rewardToken.balanceOf(address(this));\n        rewardToken.safeTransferFrom(msg.sender, address(this), reward);\n        uint256 _after = rewardToken.balanceOf(address(this));\n        reward = _after.sub(_before);\n\n        if (block.timestamp > startTime) {\n            if (block.timestamp >= periodFinish) {\n                uint256 period = block\n                    .timestamp\n                    .sub(startTime)\n                    .div(DURATION)\n                    .add(1);\n                periodFinish = startTime.add(period.mul(DURATION));\n                rewardRate = reward.div(periodFinish.sub(block.timestamp));\n            } else {\n                uint256 remaining = periodFinish.sub(block.timestamp);\n                uint256 leftover = remaining.mul(rewardRate);\n                rewardRate = reward.add(leftover).div(remaining);\n            }\n            lastUpdateTime = block.timestamp;\n        } else {\n            uint256 b = rewardToken.balanceOf(address(this));\n            rewardRate = reward.add(b).div(DURATION);\n            periodFinish = startTime.add(DURATION);\n            lastUpdateTime = startTime;\n        }\n\n        emit RewardAdded(reward);\n\n        // avoid overflow to lock assets\n        _checkRewardRate();\n    }\n\n    function _checkRewardRate() internal view returns (uint256) {\n        return DURATION.mul(rewardRate).mul(_gunit);\n    }\n}",
  "sourcePath": "/Users/gimseontae/Desktop/project/contract/contracts/klayhub/pool/NFTPool.sol",
  "compiler": {
    "name": "solc",
    "version": "0.5.8+commit.23d335f2.Emscripten.clang"
  },
  "schemaVersion": "3.0.11",
  "updatedAt": "2021-11-18T18:49:20.727Z",
  "devdoc": {
    "methods": {
      "balanceOf(address)": {
        "details": "Gets the balance of the specified address.",
        "params": {
          "owner": "address to query the balance of"
        },
        "return": "uint256 representing the amount owned by the passed address"
      },
      "burn(uint256)": {
        "details": "Burns a specific KIP17 token.",
        "params": {
          "tokenId": "uint256 id of the KIP17 token to be burned."
        }
      },
      "getApproved(uint256)": {
        "details": "Gets the approved address for a token ID, or zero if no address set Reverts if the token ID does not exist.",
        "params": {
          "tokenId": "uint256 ID of the token to query the approval of"
        },
        "return": "address currently approved for the given token ID"
      },
      "isApprovedForAll(address,address)": {
        "details": "Tells whether an operator is approved by a given owner.",
        "params": {
          "operator": "operator address which you want to query the approval of",
          "owner": "owner address which you want to query the approval of"
        },
        "return": "bool whether the given operator is approved by the given owner"
      },
      "isOwner()": {
        "details": "Returns true if the caller is the current owner."
      },
      "mint(address,uint256)": {
        "details": "Function to mint tokens.",
        "params": {
          "to": "The address that will receive the minted tokens.",
          "tokenId": "The token id to mint."
        },
        "return": "A boolean that indicates if the operation was successful."
      },
      "mintWithTokenURI(address,uint256,string)": {
        "details": "Function to mint tokens.",
        "params": {
          "to": "The address that will receive the minted tokens.",
          "tokenId": "The token id to mint.",
          "tokenURI": "The token URI of the minted token."
        },
        "return": "A boolean that indicates if the operation was successful."
      },
      "name()": {
        "details": "Gets the token name.",
        "return": "string representing the token name"
      },
      "owner()": {
        "details": "Returns the address of the current owner."
      },
      "ownerOf(uint256)": {
        "details": "Gets the owner of the specified token ID.",
        "params": {
          "tokenId": "uint256 ID of the token to query the owner of"
        },
        "return": "address currently marked as the owner of the given token ID"
      },
      "pause()": {
        "details": "Called by a pauser to pause, triggers stopped state."
      },
      "paused()": {
        "details": "Returns true if the contract is paused, and false otherwise."
      },
      "renounceOwnership()": {
        "details": "Leaves the contract without owner. It will not be possible to call `onlyOwner` functions anymore. Can only be called by the current owner.     * > Note: Renouncing ownership will leave the contract without an owner, thereby removing any functionality that is only available to the owner."
      },
      "safeTransferFrom(address,address,uint256)": {
        "details": "Safely transfers the ownership of a given token ID to another address If the target address is a contract, it must implement `onKIP17Received`, which is called upon a safe transfer, and return the magic value `bytes4(keccak256(\"onKIP17Received(address,address,uint256,bytes)\"))`; otherwise, the transfer is reverted. Requires the msg.sender to be the owner, approved, or operator",
        "params": {
          "from": "current owner of the token",
          "to": "address to receive the ownership of the given token ID",
          "tokenId": "uint256 ID of the token to be transferred"
        }
      },
      "safeTransferFrom(address,address,uint256,bytes)": {
        "details": "Safely transfers the ownership of a given token ID to another address If the target address is a contract, it must implement `onKIP17Received`, which is called upon a safe transfer, and return the magic value `bytes4(keccak256(\"onKIP17Received(address,address,uint256,bytes)\"))`; otherwise, the transfer is reverted. Requires the msg.sender to be the owner, approved, or operator",
        "params": {
          "_data": "bytes data to send along with a safe transfer check",
          "from": "current owner of the token",
          "to": "address to receive the ownership of the given token ID",
          "tokenId": "uint256 ID of the token to be transferred"
        }
      },
      "supportsInterface(bytes4)": {
        "details": "See `IKIP13.supportsInterface`.     * Time complexity O(1), guaranteed to always use less than 30 000 gas."
      },
      "symbol()": {
        "details": "Gets the token symbol.",
        "return": "string representing the token symbol"
      },
      "tokenByIndex(uint256)": {
        "details": "Gets the token ID at a given index of all the tokens in this contract Reverts if the index is greater or equal to the total number of tokens.",
        "params": {
          "index": "uint256 representing the index to be accessed of the tokens list"
        },
        "return": "uint256 token ID at the given index of the tokens list"
      },
      "tokenOfOwnerByIndex(address,uint256)": {
        "details": "Gets the token ID at a given index of the tokens list of the requested owner.",
        "params": {
          "index": "uint256 representing the index to be accessed of the requested tokens list",
          "owner": "address owning the tokens list to be accessed"
        },
        "return": "uint256 token ID at the given index of the tokens list owned by the requested address"
      },
      "tokenURI(uint256)": {
        "details": "Returns an URI for a given token ID. Throws if the token ID does not exist. May return an empty string.",
        "params": {
          "tokenId": "uint256 ID of the token to query"
        }
      },
      "totalSupply()": {
        "details": "Gets the total amount of tokens stored by the contract.",
        "return": "uint256 representing the total amount of tokens"
      },
      "transferOwnership(address)": {
        "details": "Transfers ownership of the contract to a new account (`newOwner`). Can only be called by the current owner."
      },
      "unpause()": {
        "details": "Called by a pauser to unpause, returns to normal state."
      }
    }
  },
  "userdoc": {
    "methods": {
      "rewardPerToken()": {
        "notice": "Calculate the rewards for each token"
      }
    }
  }
}