{
  "contractName": "SupportsInterfaceWithLookupMock",
  "abi": [
    {
      "constant": true,
      "inputs": [],
      "name": "INTERFACE_ID_KIP13",
      "outputs": [
        {
          "name": "",
          "type": "bytes4"
        }
      ],
      "payable": false,
      "stateMutability": "view",
      "type": "function"
    },
    {
      "inputs": [],
      "payable": false,
      "stateMutability": "nonpayable",
      "type": "constructor"
    },
    {
      "constant": true,
      "inputs": [
        {
          "name": "interfaceId",
          "type": "bytes4"
        }
      ],
      "name": "supportsInterface",
      "outputs": [
        {
          "name": "",
          "type": "bool"
        }
      ],
      "payable": false,
      "stateMutability": "view",
      "type": "function"
    }
  ],
  "bytecode": "0x608060405234801561001057600080fd5b506100276301ffc9a760e01b61002c60201b60201c565b610117565b63ffffffff60e01b817bffffffffffffffffffffffffffffffffffffffffffffffffffffffff191614156100ab576040517f08c379a000000000000000000000000000000000000000000000000000000000815260040180806020018281038252602e8152602001806102c0602e913960400191505060405180910390fd5b6001600080837bffffffffffffffffffffffffffffffffffffffffffffffffffffffff19167bffffffffffffffffffffffffffffffffffffffffffffffffffffffff1916815260200190815260200160002060006101000a81548160ff02191690831515021790555050565b61019a806101266000396000f3fe608060405234801561001057600080fd5b50600436106100365760003560e01c806301ffc9a71461003b578063d81037cd146100a0575b600080fd5b6100866004803603602081101561005157600080fd5b8101908080357bffffffffffffffffffffffffffffffffffffffffffffffffffffffff191690602001909291905050506100fc565b604051808215151515815260200191505060405180910390f35b6100a8610163565b60405180827bffffffffffffffffffffffffffffffffffffffffffffffffffffffff19167bffffffffffffffffffffffffffffffffffffffffffffffffffffffff1916815260200191505060405180910390f35b6000806000837bffffffffffffffffffffffffffffffffffffffffffffffffffffffff19167bffffffffffffffffffffffffffffffffffffffffffffffffffffffff1916815260200190815260200160002060009054906101000a900460ff169050919050565b6301ffc9a760e01b8156fea165627a7a72305820c89bec5f23dc6b2daad442165806ada6fb131f9afb3116b77f751f12c98eda8600294b49503133496e7465726661636573537570706f727465643a20696e76616c696420696e74657266616365206964",
  "source": "pragma solidity ^0.5.0;\n\nimport \"../../introspection/IKIP13.sol\";\n\n/**\n * https://eips.ethereum.org/EIPS/eip-214#specification\n * From the specification:\n * > Any attempts to make state-changing operations inside an execution instance with STATIC set to true will instead\n * throw an exception.\n * > These operations include [...], LOG0, LOG1, LOG2, [...]\n *\n * therefore, because this contract is staticcall'd we need to not emit events (which is how solidity-coverage works)\n * solidity-coverage ignores the /mocks folder, so we duplicate its implementation here to avoid instrumenting it\n */\ncontract SupportsInterfaceWithLookupMock is IKIP13 {\n    /*\n     * bytes4(keccak256('supportsInterface(bytes4)')) == 0x01ffc9a7\n     */\n    bytes4 public constant INTERFACE_ID_KIP13 = 0x01ffc9a7;\n\n    /**\n     * @dev A mapping of interface id to whether or not it's supported.\n     */\n    mapping(bytes4 => bool) private _supportedInterfaces;\n\n    /**\n     * @dev A contract implementing SupportsInterfaceWithLookup\n     * implement KIP13 itself.\n     */\n    constructor () public {\n        _registerInterface(INTERFACE_ID_KIP13);\n    }\n\n    /**\n     * @dev Implement supportsInterface(bytes4) using a lookup table.\n     */\n    function supportsInterface(bytes4 interfaceId) external view returns (bool) {\n        return _supportedInterfaces[interfaceId];\n    }\n\n    /**\n     * @dev Private method for registering an interface.\n     */\n    function _registerInterface(bytes4 interfaceId) internal {\n        require(interfaceId != 0xffffffff, \"KIP13InterfacesSupported: invalid interface id\");\n        _supportedInterfaces[interfaceId] = true;\n    }\n}\n\ncontract KIP13InterfacesSupported is SupportsInterfaceWithLookupMock {\n    constructor (bytes4[] memory interfaceIds) public {\n        for (uint256 i = 0; i < interfaceIds.length; i++) {\n            _registerInterface(interfaceIds[i]);\n        }\n    }\n}\n",
  "sourcePath": "/Users/humblefirm/Github/contract/contracts/mocks/KIP13/KIP13InterfacesSupported.sol",
  "compiler": {
    "name": "solc",
    "version": "0.5.8+commit.23d335f2.Emscripten.clang"
  },
  "schemaVersion": "3.0.11",
  "updatedAt": "2021-11-07T12:41:23.330Z",
  "devdoc": {
    "methods": {
      "constructor": {
        "details": "A contract implementing SupportsInterfaceWithLookup implement KIP13 itself."
      },
      "supportsInterface(bytes4)": {
        "details": "Implement supportsInterface(bytes4) using a lookup table."
      }
    }
  },
  "userdoc": {
    "methods": {},
    "notice": "https://eips.ethereum.org/EIPS/eip-214#specification From the specification: > Any attempts to make state-changing operations inside an execution instance with STATIC set to true will instead throw an exception. > These operations include [...], LOG0, LOG1, LOG2, [...] * therefore, because this contract is staticcall'd we need to not emit events (which is how solidity-coverage works) solidity-coverage ignores the /mocks folder, so we duplicate its implementation here to avoid instrumenting it"
  }
}