{
  "contractName": "timeRefunder",
  "abi": [
    {
      "inputs": [
        {
          "internalType": "address",
          "name": "_OLD_NFT",
          "type": "address"
        },
        {
          "internalType": "address",
          "name": "_NEW_NFT",
          "type": "address"
        },
        {
          "internalType": "address",
          "name": "_PAYMENT",
          "type": "address"
        }
      ],
      "payable": false,
      "stateMutability": "nonpayable",
      "type": "constructor"
    },
    {
      "anonymous": false,
      "inputs": [
        {
          "indexed": true,
          "internalType": "address",
          "name": "previousOwner",
          "type": "address"
        },
        {
          "indexed": true,
          "internalType": "address",
          "name": "newOwner",
          "type": "address"
        }
      ],
      "name": "OwnershipTransferred",
      "type": "event"
    },
    {
      "anonymous": false,
      "inputs": [
        {
          "indexed": false,
          "internalType": "address",
          "name": "user",
          "type": "address"
        },
        {
          "indexed": false,
          "internalType": "uint256",
          "name": "amount",
          "type": "uint256"
        }
      ],
      "name": "buy",
      "type": "event"
    },
    {
      "constant": true,
      "inputs": [],
      "name": "MINTER",
      "outputs": [
        {
          "internalType": "address",
          "name": "",
          "type": "address"
        }
      ],
      "payable": false,
      "stateMutability": "view",
      "type": "function"
    },
    {
      "constant": true,
      "inputs": [],
      "name": "NEW_NFT",
      "outputs": [
        {
          "internalType": "contract IKIP17Full",
          "name": "",
          "type": "address"
        }
      ],
      "payable": false,
      "stateMutability": "view",
      "type": "function"
    },
    {
      "constant": true,
      "inputs": [
        {
          "internalType": "uint256",
          "name": "",
          "type": "uint256"
        }
      ],
      "name": "NewId",
      "outputs": [
        {
          "internalType": "uint256",
          "name": "",
          "type": "uint256"
        }
      ],
      "payable": false,
      "stateMutability": "view",
      "type": "function"
    },
    {
      "constant": true,
      "inputs": [],
      "name": "OLD_NFT",
      "outputs": [
        {
          "internalType": "contract IKIP17Full",
          "name": "",
          "type": "address"
        }
      ],
      "payable": false,
      "stateMutability": "view",
      "type": "function"
    },
    {
      "constant": true,
      "inputs": [],
      "name": "PAYMENT",
      "outputs": [
        {
          "internalType": "contract IKIP7",
          "name": "",
          "type": "address"
        }
      ],
      "payable": false,
      "stateMutability": "view",
      "type": "function"
    },
    {
      "constant": true,
      "inputs": [],
      "name": "PRICE",
      "outputs": [
        {
          "internalType": "uint256",
          "name": "",
          "type": "uint256"
        }
      ],
      "payable": false,
      "stateMutability": "view",
      "type": "function"
    },
    {
      "constant": true,
      "inputs": [],
      "name": "STARTWHEN",
      "outputs": [
        {
          "internalType": "uint256",
          "name": "",
          "type": "uint256"
        }
      ],
      "payable": false,
      "stateMutability": "view",
      "type": "function"
    },
    {
      "constant": true,
      "inputs": [],
      "name": "isOwner",
      "outputs": [
        {
          "internalType": "bool",
          "name": "",
          "type": "bool"
        }
      ],
      "payable": false,
      "stateMutability": "view",
      "type": "function"
    },
    {
      "constant": true,
      "inputs": [],
      "name": "lastRegisterId",
      "outputs": [
        {
          "internalType": "uint256",
          "name": "",
          "type": "uint256"
        }
      ],
      "payable": false,
      "stateMutability": "view",
      "type": "function"
    },
    {
      "constant": true,
      "inputs": [],
      "name": "lastSaleId",
      "outputs": [
        {
          "internalType": "uint256",
          "name": "",
          "type": "uint256"
        }
      ],
      "payable": false,
      "stateMutability": "view",
      "type": "function"
    },
    {
      "constant": true,
      "inputs": [],
      "name": "owner",
      "outputs": [
        {
          "internalType": "address payable",
          "name": "",
          "type": "address"
        }
      ],
      "payable": false,
      "stateMutability": "view",
      "type": "function"
    },
    {
      "constant": false,
      "inputs": [],
      "name": "renounceOwnership",
      "outputs": [],
      "payable": false,
      "stateMutability": "nonpayable",
      "type": "function"
    },
    {
      "constant": false,
      "inputs": [
        {
          "internalType": "address payable",
          "name": "newOwner",
          "type": "address"
        }
      ],
      "name": "transferOwnership",
      "outputs": [],
      "payable": false,
      "stateMutability": "nonpayable",
      "type": "function"
    },
    {
      "constant": false,
      "inputs": [
        {
          "internalType": "uint256",
          "name": "OldId",
          "type": "uint256"
        }
      ],
      "name": "change",
      "outputs": [],
      "payable": true,
      "stateMutability": "payable",
      "type": "function"
    },
    {
      "constant": false,
      "inputs": [
        {
          "internalType": "uint256",
          "name": "OldId",
          "type": "uint256"
        }
      ],
      "name": "refund",
      "outputs": [],
      "payable": true,
      "stateMutability": "payable",
      "type": "function"
    },
    {
      "constant": false,
      "inputs": [
        {
          "internalType": "uint256",
          "name": "OldId",
          "type": "uint256"
        },
        {
          "internalType": "uint256",
          "name": "_NewId",
          "type": "uint256"
        }
      ],
      "name": "register",
      "outputs": [],
      "payable": false,
      "stateMutability": "nonpayable",
      "type": "function"
    },
    {
      "constant": false,
      "inputs": [
        {
          "internalType": "uint256",
          "name": "amount",
          "type": "uint256"
        }
      ],
      "name": "withdraw",
      "outputs": [],
      "payable": false,
      "stateMutability": "nonpayable",
      "type": "function"
    }
  ],
  "bytecode": "0x60806040526305f5e10060045560006005556000600755600060085534801561002757600080fd5b506040516114dc3803806114dc8339818101604052606081101561004a57600080fd5b81019080805190602001909291908051906020019092919080519060200190929190505050336000806101000a81548173ffffffffffffffffffffffffffffffffffffffff021916908373ffffffffffffffffffffffffffffffffffffffff1602179055506000809054906101000a900473ffffffffffffffffffffffffffffffffffffffff1673ffffffffffffffffffffffffffffffffffffffff16600073ffffffffffffffffffffffffffffffffffffffff167f8be0079c531659141344cd1fd0a4f28419497f9722a3daafe3b4186f6b6457e060405160405180910390a382600160006101000a81548173ffffffffffffffffffffffffffffffffffffffff021916908373ffffffffffffffffffffffffffffffffffffffff16021790555081600260006101000a81548173ffffffffffffffffffffffffffffffffffffffff021916908373ffffffffffffffffffffffffffffffffffffffff16021790555080600360006101000a81548173ffffffffffffffffffffffffffffffffffffffff021916908373ffffffffffffffffffffffffffffffffffffffff16021790555033600660006101000a81548173ffffffffffffffffffffffffffffffffffffffff021916908373ffffffffffffffffffffffffffffffffffffffff16021790555050505061129b806102416000396000f3fe6080604052600436106100fe5760003560e01c80638d859f3e11610095578063d66d6c1011610064578063d66d6c10146103b5578063e58e3876146103fa578063f2fde38b14610425578063fe5f0aea14610476578063fe6d8124146104cd576100fe565b80638d859f3e146102ad5780638da5cb5b146102d85780638f32d59b1461032f578063909726ed1461035e576100fe565b806375322e47116100d157806375322e47146101ae5780637df273aa146101dc57806382d4e1e61461022b578063883b137f14610256576100fe565b8063278ecde1146101035780632a2f9721146101315780632e1a7d4d1461015c578063715018a614610197575b600080fd5b61012f6004803603602081101561011957600080fd5b8101908080359060200190929190505050610524565b005b34801561013d57600080fd5b5061014661078e565b6040518082815260200191505060405180910390f35b34801561016857600080fd5b506101956004803603602081101561017f57600080fd5b8101908080359060200190929190505050610794565b005b3480156101a357600080fd5b506101ac6108f6565b005b6101da600480360360208110156101c457600080fd5b8101908080359060200190929190505050610a2f565b005b3480156101e857600080fd5b50610215600480360360208110156101ff57600080fd5b8101908080359060200190929190505050610df7565b6040518082815260200191505060405180910390f35b34801561023757600080fd5b50610240610e0f565b6040518082815260200191505060405180910390f35b34801561026257600080fd5b5061026b610e15565b604051808273ffffffffffffffffffffffffffffffffffffffff1673ffffffffffffffffffffffffffffffffffffffff16815260200191505060405180910390f35b3480156102b957600080fd5b506102c2610e3b565b6040518082815260200191505060405180910390f35b3480156102e457600080fd5b506102ed610e41565b604051808273ffffffffffffffffffffffffffffffffffffffff1673ffffffffffffffffffffffffffffffffffffffff16815260200191505060405180910390f35b34801561033b57600080fd5b50610344610e6a565b604051808215151515815260200191505060405180910390f35b34801561036a57600080fd5b50610373610ec1565b604051808273ffffffffffffffffffffffffffffffffffffffff1673ffffffffffffffffffffffffffffffffffffffff16815260200191505060405180910390f35b3480156103c157600080fd5b506103f8600480360360408110156103d857600080fd5b810190808035906020019092919080359060200190929190505050610ee7565b005b34801561040657600080fd5b5061040f610f7d565b6040518082815260200191505060405180910390f35b34801561043157600080fd5b506104746004803603602081101561044857600080fd5b81019080803573ffffffffffffffffffffffffffffffffffffffff169060200190929190505050610f83565b005b34801561048257600080fd5b5061048b611009565b604051808273ffffffffffffffffffffffffffffffffffffffff1673ffffffffffffffffffffffffffffffffffffffff16815260200191505060405180910390f35b3480156104d957600080fd5b506104e261102f565b604051808273ffffffffffffffffffffffffffffffffffffffff1673ffffffffffffffffffffffffffffffffffffffff16815260200191505060405180910390f35b60055442101561059c576040517f08c379a000000000000000000000000000000000000000000000000000000000815260040180806020018281038252601c8152602001807f5468652073616c6520686173206e6f742073746172746564207965740000000081525060200191505060405180910390fd5b600160009054906101000a900473ffffffffffffffffffffffffffffffffffffffff1673ffffffffffffffffffffffffffffffffffffffff166323b872dd3330846040518463ffffffff1660e01b8152600401808473ffffffffffffffffffffffffffffffffffffffff1673ffffffffffffffffffffffffffffffffffffffff1681526020018373ffffffffffffffffffffffffffffffffffffffff1673ffffffffffffffffffffffffffffffffffffffff1681526020018281526020019350505050600060405180830381600087803b15801561067957600080fd5b505af115801561068d573d6000803e3d6000fd5b50505050600360009054906101000a900473ffffffffffffffffffffffffffffffffffffffff1673ffffffffffffffffffffffffffffffffffffffff1663a9059cbb336106e6600160045461105590919063ffffffff16565b6040518363ffffffff1660e01b8152600401808373ffffffffffffffffffffffffffffffffffffffff1673ffffffffffffffffffffffffffffffffffffffff16815260200182815260200192505050602060405180830381600087803b15801561074f57600080fd5b505af1158015610763573d6000803e3d6000fd5b505050506040513d602081101561077957600080fd5b81019080805190602001909291905050505050565b60075481565b61079c610e6a565b61080e576040517f08c379a00000000000000000000000000000000000000000000000000000000081526004018080602001828103825260208152602001807f4f776e61626c653a2063616c6c6572206973206e6f7420746865206f776e657281525060200191505060405180910390fd5b600360009054906101000a900473ffffffffffffffffffffffffffffffffffffffff1673ffffffffffffffffffffffffffffffffffffffff1663a9059cbb33836040518363ffffffff1660e01b8152600401808373ffffffffffffffffffffffffffffffffffffffff1673ffffffffffffffffffffffffffffffffffffffff16815260200182815260200192505050602060405180830381600087803b1580156108b757600080fd5b505af11580156108cb573d6000803e3d6000fd5b505050506040513d60208110156108e157600080fd5b81019080805190602001909291905050505050565b6108fe610e6a565b610970576040517f08c379a00000000000000000000000000000000000000000000000000000000081526004018080602001828103825260208152602001807f4f776e61626c653a2063616c6c6572206973206e6f7420746865206f776e657281525060200191505060405180910390fd5b600073ffffffffffffffffffffffffffffffffffffffff166000809054906101000a900473ffffffffffffffffffffffffffffffffffffffff1673ffffffffffffffffffffffffffffffffffffffff167f8be0079c531659141344cd1fd0a4f28419497f9722a3daafe3b4186f6b6457e060405160405180910390a360008060006101000a81548173ffffffffffffffffffffffffffffffffffffffff021916908373ffffffffffffffffffffffffffffffffffffffff160217905550565b600554421015610aa7576040517f08c379a000000000000000000000000000000000000000000000000000000000815260040180806020018281038252601c8152602001807f5468652073616c6520686173206e6f742073746172746564207965740000000081525060200191505060405180910390fd5b600160009054906101000a900473ffffffffffffffffffffffffffffffffffffffff1673ffffffffffffffffffffffffffffffffffffffff166323b872dd3330846040518463ffffffff1660e01b8152600401808473ffffffffffffffffffffffffffffffffffffffff1673ffffffffffffffffffffffffffffffffffffffff1681526020018373ffffffffffffffffffffffffffffffffffffffff1673ffffffffffffffffffffffffffffffffffffffff1681526020018281526020019350505050600060405180830381600087803b158015610b8457600080fd5b505af1158015610b98573d6000803e3d6000fd5b50505050600360009054906101000a900473ffffffffffffffffffffffffffffffffffffffff1673ffffffffffffffffffffffffffffffffffffffff166323b872dd3330610bf2600960045461105590919063ffffffff16565b6040518463ffffffff1660e01b8152600401808473ffffffffffffffffffffffffffffffffffffffff1673ffffffffffffffffffffffffffffffffffffffff1681526020018373ffffffffffffffffffffffffffffffffffffffff1673ffffffffffffffffffffffffffffffffffffffff1681526020018281526020019350505050602060405180830381600087803b158015610c8e57600080fd5b505af1158015610ca2573d6000803e3d6000fd5b505050506040513d6020811015610cb857600080fd5b810190808051906020019092919050505050600260009054906101000a900473ffffffffffffffffffffffffffffffffffffffff1673ffffffffffffffffffffffffffffffffffffffff166323b872dd600660009054906101000a900473ffffffffffffffffffffffffffffffffffffffff163360096000868152602001908152602001600020546040518463ffffffff1660e01b8152600401808473ffffffffffffffffffffffffffffffffffffffff1673ffffffffffffffffffffffffffffffffffffffff1681526020018373ffffffffffffffffffffffffffffffffffffffff1673ffffffffffffffffffffffffffffffffffffffff1681526020018281526020019350505050600060405180830381600087803b158015610ddc57600080fd5b505af1158015610df0573d6000803e3d6000fd5b5050505050565b60096020528060005260406000206000915090505481565b60055481565b600360009054906101000a900473ffffffffffffffffffffffffffffffffffffffff1681565b60045481565b60008060009054906101000a900473ffffffffffffffffffffffffffffffffffffffff16905090565b60008060009054906101000a900473ffffffffffffffffffffffffffffffffffffffff1673ffffffffffffffffffffffffffffffffffffffff163373ffffffffffffffffffffffffffffffffffffffff1614905090565b600160009054906101000a900473ffffffffffffffffffffffffffffffffffffffff1681565b610eef610e6a565b610f61576040517f08c379a00000000000000000000000000000000000000000000000000000000081526004018080602001828103825260208152602001807f4f776e61626c653a2063616c6c6572206973206e6f7420746865206f776e657281525060200191505060405180910390fd5b8060096000848152602001908152602001600020819055505050565b60085481565b610f8b610e6a565b610ffd576040517f08c379a00000000000000000000000000000000000000000000000000000000081526004018080602001828103825260208152602001807f4f776e61626c653a2063616c6c6572206973206e6f7420746865206f776e657281525060200191505060405180910390fd5b611006816110db565b50565b600260009054906101000a900473ffffffffffffffffffffffffffffffffffffffff1681565b600660009054906101000a900473ffffffffffffffffffffffffffffffffffffffff1681565b60008083141561106857600090506110d5565b600082840290508284828161107957fe5b04146110d0576040517f08c379a00000000000000000000000000000000000000000000000000000000081526004018080602001828103825260218152602001806112466021913960400191505060405180910390fd5b809150505b92915050565b600073ffffffffffffffffffffffffffffffffffffffff168173ffffffffffffffffffffffffffffffffffffffff161415611161576040517f08c379a00000000000000000000000000000000000000000000000000000000081526004018080602001828103825260268152602001806112206026913960400191505060405180910390fd5b8073ffffffffffffffffffffffffffffffffffffffff166000809054906101000a900473ffffffffffffffffffffffffffffffffffffffff1673ffffffffffffffffffffffffffffffffffffffff167f8be0079c531659141344cd1fd0a4f28419497f9722a3daafe3b4186f6b6457e060405160405180910390a3806000806101000a81548173ffffffffffffffffffffffffffffffffffffffff021916908373ffffffffffffffffffffffffffffffffffffffff1602179055505056fe4f776e61626c653a206e6577206f776e657220697320746865207a65726f2061646472657373536166654d6174683a206d756c7469706c69636174696f6e206f766572666c6f77a265627a7a723158200bb560e44b337981626fce9e2e8ebe16873d29c907f4c785fc5af261addf088364736f6c63430005100032",
  "source": "pragma solidity ^0.5.0;\n\nimport \"../../../token/KIP17/IKIP17Full.sol\";\nimport \"../../../token/KIP7/IKIP7.sol\";\nimport \"../../../token/KIP7/IKIP7Receiver.sol\";\nimport \"../../../math/SafeMath.sol\";\nimport \"../../../utils/Address.sol\";\nimport \"../../../ownership/Ownable.sol\";\n\n// 추가로 필요한 기능들\n// 1. hNFT 토큰 전송\n// 2. 가격 변경 \n\ncontract timeRefunder is Ownable {\n    using SafeMath for uint256;\n    using Address for address;\n\n    IKIP17Full public OLD_NFT;\n    IKIP17Full public NEW_NFT;\n    IKIP7 public PAYMENT;\n    uint256 public PRICE = 100000000; // 100 dollor\n    uint256 public STARTWHEN = 0; // FIXME this should be a timestamp\n    address public MINTER;\n\n    uint256 public lastSaleId=0;\n    uint256 public lastRegisterId=0;\n    mapping (uint256 => uint256) public NewId;\n\n    event buy(address user, uint256 amount);\n\n    constructor (address _OLD_NFT, address _NEW_NFT, address _PAYMENT) public {\n        OLD_NFT = IKIP17Full(_OLD_NFT);\n        NEW_NFT = IKIP17Full(_NEW_NFT);\n        PAYMENT = IKIP7(_PAYMENT);\n        MINTER = msg.sender;\n    }\n\n    function change(uint256 OldId) public payable started {\n        OLD_NFT.transferFrom(msg.sender, address(this), OldId);\n        PAYMENT.transferFrom(msg.sender, address(this), PRICE.mul(9));\n        NEW_NFT.transferFrom(MINTER, msg.sender, NewId[OldId]);\n    }\n\n    function refund(uint256 OldId) public payable started {\n        OLD_NFT.transferFrom(msg.sender, address(this), OldId);\n        PAYMENT.transfer(msg.sender, PRICE.mul(1));\n    }\n\n    function register(uint256 OldId, uint256 _NewId) public onlyOwner {\n        NewId[OldId] = _NewId;\n    }\n\n    function withdraw(uint256 amount) public onlyOwner {\n        PAYMENT.transfer(msg.sender, amount);\n    }\n    \n\n    modifier started {\n        require(now >= STARTWHEN, \"The sale has not started yet\");\n        _;\n    }\n}",
  "sourcePath": "/Users/humblefirm/Github/contract/contracts/klayhub/TimeSeller/timeRefunder/timeRefunder.sol",
  "compiler": {
    "name": "solc",
    "version": "0.5.16+commit.9c3226ce.Emscripten.clang"
  },
  "schemaVersion": "3.4.3",
  "updatedAt": "2021-12-28T17:12:13.740Z",
  "devdoc": {
    "methods": {
      "isOwner()": {
        "details": "Returns true if the caller is the current owner."
      },
      "owner()": {
        "details": "Returns the address of the current owner."
      },
      "renounceOwnership()": {
        "details": "Leaves the contract without owner. It will not be possible to call `onlyOwner` functions anymore. Can only be called by the current owner.     * > Note: Renouncing ownership will leave the contract without an owner, thereby removing any functionality that is only available to the owner."
      },
      "transferOwnership(address)": {
        "details": "Transfers ownership of the contract to a new account (`newOwner`). Can only be called by the current owner."
      }
    }
  },
  "userdoc": {
    "methods": {}
  }
}