{
  "contractName": "timeSellerForFailed",
  "abi": [
    {
      "constant": true,
      "inputs": [],
      "name": "lastSaleId",
      "outputs": [
        {
          "name": "",
          "type": "uint256"
        }
      ],
      "payable": false,
      "stateMutability": "view",
      "type": "function"
    },
    {
      "constant": true,
      "inputs": [
        {
          "name": "",
          "type": "uint256"
        }
      ],
      "name": "tokenIdById",
      "outputs": [
        {
          "name": "",
          "type": "uint256"
        }
      ],
      "payable": false,
      "stateMutability": "view",
      "type": "function"
    },
    {
      "constant": false,
      "inputs": [],
      "name": "renounceOwnership",
      "outputs": [],
      "payable": false,
      "stateMutability": "nonpayable",
      "type": "function"
    },
    {
      "constant": true,
      "inputs": [],
      "name": "NFT",
      "outputs": [
        {
          "name": "",
          "type": "address"
        }
      ],
      "payable": false,
      "stateMutability": "view",
      "type": "function"
    },
    {
      "constant": true,
      "inputs": [
        {
          "name": "",
          "type": "address"
        }
      ],
      "name": "addressCanBuy",
      "outputs": [
        {
          "name": "",
          "type": "uint256"
        }
      ],
      "payable": false,
      "stateMutability": "view",
      "type": "function"
    },
    {
      "constant": true,
      "inputs": [],
      "name": "STARTWHEN",
      "outputs": [
        {
          "name": "",
          "type": "uint256"
        }
      ],
      "payable": false,
      "stateMutability": "view",
      "type": "function"
    },
    {
      "constant": true,
      "inputs": [],
      "name": "PAYMENT",
      "outputs": [
        {
          "name": "",
          "type": "address"
        }
      ],
      "payable": false,
      "stateMutability": "view",
      "type": "function"
    },
    {
      "constant": true,
      "inputs": [],
      "name": "PRICE",
      "outputs": [
        {
          "name": "",
          "type": "uint256"
        }
      ],
      "payable": false,
      "stateMutability": "view",
      "type": "function"
    },
    {
      "constant": true,
      "inputs": [],
      "name": "owner",
      "outputs": [
        {
          "name": "",
          "type": "address"
        }
      ],
      "payable": false,
      "stateMutability": "view",
      "type": "function"
    },
    {
      "constant": true,
      "inputs": [],
      "name": "isOwner",
      "outputs": [
        {
          "name": "",
          "type": "bool"
        }
      ],
      "payable": false,
      "stateMutability": "view",
      "type": "function"
    },
    {
      "constant": true,
      "inputs": [],
      "name": "lastRegisterId",
      "outputs": [
        {
          "name": "",
          "type": "uint256"
        }
      ],
      "payable": false,
      "stateMutability": "view",
      "type": "function"
    },
    {
      "constant": false,
      "inputs": [
        {
          "name": "newOwner",
          "type": "address"
        }
      ],
      "name": "transferOwnership",
      "outputs": [],
      "payable": false,
      "stateMutability": "nonpayable",
      "type": "function"
    },
    {
      "constant": true,
      "inputs": [],
      "name": "MINTER",
      "outputs": [
        {
          "name": "",
          "type": "address"
        }
      ],
      "payable": false,
      "stateMutability": "view",
      "type": "function"
    },
    {
      "inputs": [
        {
          "name": "_NFT",
          "type": "address"
        },
        {
          "name": "_PAYMENT",
          "type": "address"
        },
        {
          "name": "_PRICE",
          "type": "uint256"
        },
        {
          "name": "_STARTWHEN",
          "type": "uint256"
        }
      ],
      "payable": false,
      "stateMutability": "nonpayable",
      "type": "constructor"
    },
    {
      "anonymous": false,
      "inputs": [
        {
          "indexed": false,
          "name": "user",
          "type": "address"
        },
        {
          "indexed": false,
          "name": "amount",
          "type": "uint256"
        }
      ],
      "name": "buy",
      "type": "event"
    },
    {
      "anonymous": false,
      "inputs": [
        {
          "indexed": true,
          "name": "previousOwner",
          "type": "address"
        },
        {
          "indexed": true,
          "name": "newOwner",
          "type": "address"
        }
      ],
      "name": "OwnershipTransferred",
      "type": "event"
    },
    {
      "constant": false,
      "inputs": [
        {
          "name": "amount",
          "type": "uint256"
        }
      ],
      "name": "BuyTime",
      "outputs": [],
      "payable": true,
      "stateMutability": "payable",
      "type": "function"
    },
    {
      "constant": false,
      "inputs": [
        {
          "name": "tokenId",
          "type": "uint256"
        }
      ],
      "name": "register",
      "outputs": [],
      "payable": false,
      "stateMutability": "nonpayable",
      "type": "function"
    },
    {
      "constant": false,
      "inputs": [
        {
          "name": "tokenId",
          "type": "uint256"
        },
        {
          "name": "id",
          "type": "uint256"
        }
      ],
      "name": "registerById",
      "outputs": [],
      "payable": false,
      "stateMutability": "nonpayable",
      "type": "function"
    },
    {
      "constant": false,
      "inputs": [
        {
          "name": "amount",
          "type": "uint256"
        }
      ],
      "name": "withdraw",
      "outputs": [],
      "payable": false,
      "stateMutability": "nonpayable",
      "type": "function"
    },
    {
      "constant": false,
      "inputs": [
        {
          "name": "id",
          "type": "uint256"
        }
      ],
      "name": "setRegisterId",
      "outputs": [],
      "payable": false,
      "stateMutability": "nonpayable",
      "type": "function"
    },
    {
      "constant": false,
      "inputs": [
        {
          "name": "id",
          "type": "uint256"
        }
      ],
      "name": "setLastSaleId",
      "outputs": [],
      "payable": false,
      "stateMutability": "nonpayable",
      "type": "function"
    },
    {
      "constant": false,
      "inputs": [
        {
          "name": "time",
          "type": "uint256"
        }
      ],
      "name": "setTime",
      "outputs": [],
      "payable": false,
      "stateMutability": "nonpayable",
      "type": "function"
    },
    {
      "constant": false,
      "inputs": [
        {
          "name": "account",
          "type": "address"
        },
        {
          "name": "amount",
          "type": "uint256"
        }
      ],
      "name": "setCanBuy",
      "outputs": [],
      "payable": false,
      "stateMutability": "nonpayable",
      "type": "function"
    }
  ],
  "bytecode": "0x6080604052600060035560006004556000600655600060075534801561002457600080fd5b50604051608080611b428339810180604052608081101561004457600080fd5b8101908080519060200190929190805190602001909291908051906020019092919080519060200190929190505050336000806101000a81548173ffffffffffffffffffffffffffffffffffffffff021916908373ffffffffffffffffffffffffffffffffffffffff1602179055506000809054906101000a900473ffffffffffffffffffffffffffffffffffffffff1673ffffffffffffffffffffffffffffffffffffffff16600073ffffffffffffffffffffffffffffffffffffffff167f8be0079c531659141344cd1fd0a4f28419497f9722a3daafe3b4186f6b6457e060405160405180910390a383600160006101000a81548173ffffffffffffffffffffffffffffffffffffffff021916908373ffffffffffffffffffffffffffffffffffffffff16021790555082600260006101000a81548173ffffffffffffffffffffffffffffffffffffffff021916908373ffffffffffffffffffffffffffffffffffffffff160217905550816003819055508060048190555033600560006101000a81548173ffffffffffffffffffffffffffffffffffffffff021916908373ffffffffffffffffffffffffffffffffffffffff1602179055505050505061192f806102136000396000f3fe60806040526004361061012a5760003560e01c80637c0b8de2116100ab5780638da5cb5b1161006f5780638da5cb5b146104e35780638f32d59b1461053a578063e58e387614610569578063f207564e14610594578063f2fde38b146105cf578063fe6d8124146106205761012a565b80637c0b8de21461037a578063816bf5d5146103d157806382d4e1e614610436578063883b137f146104615780638d859f3e146104b85761012a565b80633e5d27fb116100f25780633e5d27fb146102505780634a4a51811461027e578063598460ef146102b9578063715018a6146103085780637578e3841461031f5761012a565b80631cca54e81461012f57806322821c79146101745780632a2f9721146101af5780632e1a7d4d146101da5780633beb26c414610215575b600080fd5b34801561013b57600080fd5b506101726004803603604081101561015257600080fd5b810190808035906020019092919080359060200190929190505050610677565b005b34801561018057600080fd5b506101ad6004803603602081101561019757600080fd5b8101908080359060200190929190505050610736565b005b3480156101bb57600080fd5b506101c46107ba565b6040518082815260200191505060405180910390f35b3480156101e657600080fd5b50610213600480360360208110156101fd57600080fd5b81019080803590602001909291905050506107c0565b005b34801561022157600080fd5b5061024e6004803603602081101561023857600080fd5b8101908080359060200190929190505050610922565b005b61027c6004803603602081101561026657600080fd5b81019080803590602001909291905050506109a6565b005b34801561028a57600080fd5b506102b7600480360360208110156102a157600080fd5b8101908080359060200190929190505050610f9e565b005b3480156102c557600080fd5b506102f2600480360360208110156102dc57600080fd5b8101908080359060200190929190505050611022565b6040518082815260200191505060405180910390f35b34801561031457600080fd5b5061031d61103a565b005b34801561032b57600080fd5b506103786004803603604081101561034257600080fd5b81019080803573ffffffffffffffffffffffffffffffffffffffff16906020019092919080359060200190929190505050611173565b005b34801561038657600080fd5b5061038f611235565b604051808273ffffffffffffffffffffffffffffffffffffffff1673ffffffffffffffffffffffffffffffffffffffff16815260200191505060405180910390f35b3480156103dd57600080fd5b50610420600480360360208110156103f457600080fd5b81019080803573ffffffffffffffffffffffffffffffffffffffff16906020019092919050505061125b565b6040518082815260200191505060405180910390f35b34801561044257600080fd5b5061044b611273565b6040518082815260200191505060405180910390f35b34801561046d57600080fd5b50610476611279565b604051808273ffffffffffffffffffffffffffffffffffffffff1673ffffffffffffffffffffffffffffffffffffffff16815260200191505060405180910390f35b3480156104c457600080fd5b506104cd61129f565b6040518082815260200191505060405180910390f35b3480156104ef57600080fd5b506104f86112a5565b604051808273ffffffffffffffffffffffffffffffffffffffff1673ffffffffffffffffffffffffffffffffffffffff16815260200191505060405180910390f35b34801561054657600080fd5b5061054f6112ce565b604051808215151515815260200191505060405180910390f35b34801561057557600080fd5b5061057e611325565b6040518082815260200191505060405180910390f35b3480156105a057600080fd5b506105cd600480360360208110156105b757600080fd5b810190808035906020019092919050505061132b565b005b3480156105db57600080fd5b5061061e600480360360208110156105f257600080fd5b81019080803573ffffffffffffffffffffffffffffffffffffffff1690602001909291905050506113d0565b005b34801561062c57600080fd5b50610635611456565b604051808273ffffffffffffffffffffffffffffffffffffffff1673ffffffffffffffffffffffffffffffffffffffff16815260200191505060405180910390f35b61067f6112ce565b6106f1576040517f08c379a00000000000000000000000000000000000000000000000000000000081526004018080602001828103825260208152602001807f4f776e61626c653a2063616c6c6572206973206e6f7420746865206f776e657281525060200191505060405180910390fd5b60006008600083815260200190815260200160002054141561071a576001600754016007819055505b8160086000838152602001908152602001600020819055505050565b61073e6112ce565b6107b0576040517f08c379a00000000000000000000000000000000000000000000000000000000081526004018080602001828103825260208152602001807f4f776e61626c653a2063616c6c6572206973206e6f7420746865206f776e657281525060200191505060405180910390fd5b8060068190555050565b60065481565b6107c86112ce565b61083a576040517f08c379a00000000000000000000000000000000000000000000000000000000081526004018080602001828103825260208152602001807f4f776e61626c653a2063616c6c6572206973206e6f7420746865206f776e657281525060200191505060405180910390fd5b600260009054906101000a900473ffffffffffffffffffffffffffffffffffffffff1673ffffffffffffffffffffffffffffffffffffffff1663a9059cbb33836040518363ffffffff1660e01b8152600401808373ffffffffffffffffffffffffffffffffffffffff1673ffffffffffffffffffffffffffffffffffffffff16815260200182815260200192505050602060405180830381600087803b1580156108e357600080fd5b505af11580156108f7573d6000803e3d6000fd5b505050506040513d602081101561090d57600080fd5b81019080805190602001909291905050505050565b61092a6112ce565b61099c576040517f08c379a00000000000000000000000000000000000000000000000000000000081526004018080602001828103825260208152602001807f4f776e61626c653a2063616c6c6572206973206e6f7420746865206f776e657281525060200191505060405180910390fd5b8060048190555050565b600454421015610a1e576040517f08c379a000000000000000000000000000000000000000000000000000000000815260040180806020018281038252601c8152602001807f5468652073616c6520686173206e6f742073746172746564207965740000000081525060200191505060405180910390fd5b60075481600654011115610a9a576040517f08c379a000000000000000000000000000000000000000000000000000000000815260040180806020018281038252601f8152602001807f546865726520617265206e6f206d6f726520746f6b656e7320746f206275790081525060200191505060405180910390fd5b600960003373ffffffffffffffffffffffffffffffffffffffff1673ffffffffffffffffffffffffffffffffffffffff16815260200190815260200160002054811115610b32576040517f08c379a000000000000000000000000000000000000000000000000000000000815260040180806020018281038252602f8152602001806118b4602f913960400191505060405180910390fd5b80600960003373ffffffffffffffffffffffffffffffffffffffff1673ffffffffffffffffffffffffffffffffffffffff168152602001908152602001600020600082825403925050819055506000600260009054906101000a900473ffffffffffffffffffffffffffffffffffffffff1673ffffffffffffffffffffffffffffffffffffffff166370a08231306040518263ffffffff1660e01b8152600401808273ffffffffffffffffffffffffffffffffffffffff1673ffffffffffffffffffffffffffffffffffffffff16815260200191505060206040518083038186803b158015610c2057600080fd5b505afa158015610c34573d6000803e3d6000fd5b505050506040513d6020811015610c4a57600080fd5b81019080805190602001909291905050509050600260009054906101000a900473ffffffffffffffffffffffffffffffffffffffff1673ffffffffffffffffffffffffffffffffffffffff166323b872dd3330610cb28660035461147c90919063ffffffff16565b6040518463ffffffff1660e01b8152600401808473ffffffffffffffffffffffffffffffffffffffff1673ffffffffffffffffffffffffffffffffffffffff1681526020018373ffffffffffffffffffffffffffffffffffffffff1673ffffffffffffffffffffffffffffffffffffffff1681526020018281526020019350505050602060405180830381600087803b158015610d4e57600080fd5b505af1158015610d62573d6000803e3d6000fd5b505050506040513d6020811015610d7857600080fd5b8101908080519060200190929190505050506000600260009054906101000a900473ffffffffffffffffffffffffffffffffffffffff1673ffffffffffffffffffffffffffffffffffffffff166370a08231306040518263ffffffff1660e01b8152600401808273ffffffffffffffffffffffffffffffffffffffff1673ffffffffffffffffffffffffffffffffffffffff16815260200191505060206040518083038186803b158015610e2b57600080fd5b505afa158015610e3f573d6000803e3d6000fd5b505050506040513d6020811015610e5557600080fd5b810190808051906020019092919050505090506000610e7d838361150290919063ffffffff16565b9050610e948460035461147c90919063ffffffff16565b8114610f08576040517f08c379a000000000000000000000000000000000000000000000000000000000815260040180806020018281038252601f8152602001807f596f75206d757374207061792074686520636f727265637420616d6f756e740081525060200191505060405180910390fd5b60008090505b84811015610f2c57610f1f3361154c565b8080600101915050610f0e565b507fcce7ec13039019daeb7946d483b165f6b38de084683a31b06edb866b7a8357693385604051808373ffffffffffffffffffffffffffffffffffffffff1673ffffffffffffffffffffffffffffffffffffffff1681526020018281526020019250505060405180910390a150505050565b610fa66112ce565b611018576040517f08c379a00000000000000000000000000000000000000000000000000000000081526004018080602001828103825260208152602001807f4f776e61626c653a2063616c6c6572206973206e6f7420746865206f776e657281525060200191505060405180910390fd5b8060078190555050565b60086020528060005260406000206000915090505481565b6110426112ce565b6110b4576040517f08c379a00000000000000000000000000000000000000000000000000000000081526004018080602001828103825260208152602001807f4f776e61626c653a2063616c6c6572206973206e6f7420746865206f776e657281525060200191505060405180910390fd5b600073ffffffffffffffffffffffffffffffffffffffff166000809054906101000a900473ffffffffffffffffffffffffffffffffffffffff1673ffffffffffffffffffffffffffffffffffffffff167f8be0079c531659141344cd1fd0a4f28419497f9722a3daafe3b4186f6b6457e060405160405180910390a360008060006101000a81548173ffffffffffffffffffffffffffffffffffffffff021916908373ffffffffffffffffffffffffffffffffffffffff160217905550565b61117b6112ce565b6111ed576040517f08c379a00000000000000000000000000000000000000000000000000000000081526004018080602001828103825260208152602001807f4f776e61626c653a2063616c6c6572206973206e6f7420746865206f776e657281525060200191505060405180910390fd5b80600960008473ffffffffffffffffffffffffffffffffffffffff1673ffffffffffffffffffffffffffffffffffffffff168152602001908152602001600020819055505050565b600160009054906101000a900473ffffffffffffffffffffffffffffffffffffffff1681565b60096020528060005260406000206000915090505481565b60045481565b600260009054906101000a900473ffffffffffffffffffffffffffffffffffffffff1681565b60035481565b60008060009054906101000a900473ffffffffffffffffffffffffffffffffffffffff16905090565b60008060009054906101000a900473ffffffffffffffffffffffffffffffffffffffff1673ffffffffffffffffffffffffffffffffffffffff163373ffffffffffffffffffffffffffffffffffffffff1614905090565b60075481565b6113336112ce565b6113a5576040517f08c379a00000000000000000000000000000000000000000000000000000000081526004018080602001828103825260208152602001807f4f776e61626c653a2063616c6c6572206973206e6f7420746865206f776e657281525060200191505060405180910390fd5b8060086000600760008154809291906001019190505581526020019081526020016000208190555050565b6113d86112ce565b61144a576040517f08c379a00000000000000000000000000000000000000000000000000000000081526004018080602001828103825260208152602001807f4f776e61626c653a2063616c6c6572206973206e6f7420746865206f776e657281525060200191505060405180910390fd5b61145381611689565b50565b600560009054906101000a900473ffffffffffffffffffffffffffffffffffffffff1681565b60008083141561148f57600090506114fc565b60008284029050828482816114a057fe5b04146114f7576040517f08c379a00000000000000000000000000000000000000000000000000000000081526004018080602001828103825260218152602001806118e36021913960400191505060405180910390fd5b809150505b92915050565b600061154483836040518060400160405280601e81526020017f536166654d6174683a207375627472616374696f6e206f766572666c6f7700008152506117cd565b905092915050565b600160009054906101000a900473ffffffffffffffffffffffffffffffffffffffff1673ffffffffffffffffffffffffffffffffffffffff166342842e0e600560009054906101000a900473ffffffffffffffffffffffffffffffffffffffff16836008600060066000815480929190600101919050558152602001908152602001600020546040518463ffffffff1660e01b8152600401808473ffffffffffffffffffffffffffffffffffffffff1673ffffffffffffffffffffffffffffffffffffffff1681526020018373ffffffffffffffffffffffffffffffffffffffff1673ffffffffffffffffffffffffffffffffffffffff1681526020018281526020019350505050600060405180830381600087803b15801561166e57600080fd5b505af1158015611682573d6000803e3d6000fd5b5050505050565b600073ffffffffffffffffffffffffffffffffffffffff168173ffffffffffffffffffffffffffffffffffffffff16141561170f576040517f08c379a000000000000000000000000000000000000000000000000000000000815260040180806020018281038252602681526020018061188e6026913960400191505060405180910390fd5b8073ffffffffffffffffffffffffffffffffffffffff166000809054906101000a900473ffffffffffffffffffffffffffffffffffffffff1673ffffffffffffffffffffffffffffffffffffffff167f8be0079c531659141344cd1fd0a4f28419497f9722a3daafe3b4186f6b6457e060405160405180910390a3806000806101000a81548173ffffffffffffffffffffffffffffffffffffffff021916908373ffffffffffffffffffffffffffffffffffffffff16021790555050565b600083831115829061187a576040517f08c379a00000000000000000000000000000000000000000000000000000000081526004018080602001828103825283818151815260200191508051906020019080838360005b8381101561183f578082015181840152602081019050611824565b50505050905090810190601f16801561186c5780820380516001836020036101000a031916815260200191505b509250505060405180910390fd5b506000838503905080915050939250505056fe4f776e61626c653a206e6577206f776e657220697320746865207a65726f2061646472657373596f752063616e277420627579206174206d6f737420737065636966696320746f6b656e7320617420612074696d65536166654d6174683a206d756c7469706c69636174696f6e206f766572666c6f77a165627a7a7230582020557293b7b91f2d9d12e6453771a1d5aea7491179c09c1cab48045d4506215a0029",
  "source": "pragma solidity ^0.5.0;\n\nimport \"../../token/KIP17/IKIP17Full.sol\";\nimport \"../../token/KIP7/IKIP7.sol\";\nimport \"../../token/KIP7/IKIP7Receiver.sol\";\nimport \"../../math/SafeMath.sol\";\nimport \"../../utils/Address.sol\";\nimport \"../../ownership/Ownable.sol\";\n\n\ncontract timeSellerForFailed is Ownable {\n    using SafeMath for uint256;\n    using Address for address;\n\n    IKIP17Full public NFT;\n    IKIP7 public PAYMENT;\n    uint256 public PRICE = 0;\n    uint256 public STARTWHEN = 0; // FIXME this should be a timestamp\n    address public MINTER;\n\n    uint256 public lastSaleId=0;\n    uint256 public lastRegisterId=0;\n    mapping (uint256 => uint256) public tokenIdById;\n    mapping (address => uint256) public addressCanBuy;\n\n    event buy(address user, uint256 amount);\n\n    constructor (address _NFT, address _PAYMENT, uint256 _PRICE, uint256 _STARTWHEN) public {\n        NFT = IKIP17Full(_NFT);\n        PAYMENT = IKIP7(_PAYMENT);\n        PRICE = _PRICE;\n        STARTWHEN = _STARTWHEN;\n        MINTER = msg.sender;\n    }\n\n    function BuyTime(uint256 amount) public payable started {\n        require(lastSaleId + amount <= lastRegisterId, \"There are no more tokens to buy\");\n        require(amount <= addressCanBuy[msg.sender], \"You can't buy at most specific tokens at a time\");\n        addressCanBuy[msg.sender] -= amount;\n        \n        uint256 _before = PAYMENT.balanceOf(address(this));\n        PAYMENT.transferFrom(msg.sender, address(this), PRICE.mul(amount));\n        uint256 _after = PAYMENT.balanceOf(address(this));\n        uint256 value = _after.sub(_before);\n        require(value == PRICE.mul(amount), \"You must pay the correct amount\");\n\n        for (uint256 i = 0; i < amount; i++) {\n            _BuyTime(msg.sender);\n        }\n        emit buy(msg.sender, amount);\n    }\n\n    function register(uint256 tokenId) public onlyOwner {\n        tokenIdById[lastRegisterId++] = tokenId;\n    }\n    function registerById(uint256 tokenId, uint256 id) public onlyOwner {\n        if(tokenIdById[id]==0){\n            lastRegisterId = lastRegisterId + 1;\n        }\n        tokenIdById[id] = tokenId;\n    }\n\n    function _BuyTime(address account) internal {\n            NFT.safeTransferFrom(MINTER, account, tokenIdById[lastSaleId++]);\n    }\n\n    function withdraw(uint256 amount) public onlyOwner {\n        PAYMENT.transfer(msg.sender, amount);\n    }\n    \n    function setRegisterId(uint256 id) public onlyOwner {\n        lastRegisterId = id;\n    }\n\n    function setLastSaleId(uint256 id) public onlyOwner {\n        lastSaleId = id;\n    }\n\n    function setTime(uint256 time) public onlyOwner {\n        STARTWHEN = time;\n    }\n\n    function setCanBuy(address account, uint256 amount) public onlyOwner {\n        addressCanBuy[account] = amount;\n    }\n\n    modifier started {\n        require(now >= STARTWHEN, \"The sale has not started yet\");\n        _;\n    }\n\n}",
  "sourcePath": "/Users/humblefirm/Github/contract/contracts/klayhub/TimeSellerForFailed/timeSellerForFailed.sol",
  "compiler": {
    "name": "solc",
    "version": "0.5.8+commit.23d335f2.Emscripten.clang"
  },
  "schemaVersion": "3.0.11",
  "updatedAt": "2021-11-12T04:15:27.365Z",
  "devdoc": {
    "methods": {
      "isOwner()": {
        "details": "Returns true if the caller is the current owner."
      },
      "owner()": {
        "details": "Returns the address of the current owner."
      },
      "renounceOwnership()": {
        "details": "Leaves the contract without owner. It will not be possible to call `onlyOwner` functions anymore. Can only be called by the current owner.     * > Note: Renouncing ownership will leave the contract without an owner, thereby removing any functionality that is only available to the owner."
      },
      "transferOwnership(address)": {
        "details": "Transfers ownership of the contract to a new account (`newOwner`). Can only be called by the current owner."
      }
    }
  },
  "userdoc": {
    "methods": {}
  }
}